:020000022000DC
:1060000000000120756302005D6302005F6302000F
:106010006163020063630200656302000000000028
:1060200000000000000000000000000067630200A4
:1060300069630200000000006B6302006D630200F0
:106040004D8202006F630200958602006F630200BA
:106050006F6302006F6302001D8502006F63020020
:106060006F6302006F6302006F6302006F630200E0
:106070006F6302006F6302006F6302006F630200D0
:106080006F630200D57002006F6302006F6302004D
:10609000717102006F630200F99E02006F630200DB
:1060A0006F6302006F6302006F6302006F630200A0
:1060B0006F6302006F630200000000000000000038
:1060C0006F6302006F6302006F6302006F63020080
:1060D0006F6302006F6302006F6302000000000044
:1060E00000000000000000000000000000000000B0
:1060F00000000000000000000000000000000000A0
:10610000000000000000000000000000000000008F
:10611000000000000000000000000000000000007F
:10612000000000000000000000000000000000006F
:10613000000000000000000000000000000000005F
:10614000000000000000000000000000000000004F
:10615000000000000000000000000000000000003F
:10616000000000000000000000000000000000002F
:10617000000000000000000000000000000000001F
:10618000000000000000000000000000000000000F
:1061900000000000000000000000000000000000FF
:1061A00000000000000000000000000000000000EF
:1061B00000000000000000000000000000000000DF
:1061C00000000000000000000000000000000000CF
:1061D00000000000000000000000000000000000BF
:1061E00000000000000000000000000000000000AF
:1061F000000000000000000000000000000000009F
:10620000354936480A1A02D0072291438D4634494F
:1062100034480A1A06D00722914381F309880222E2
:1062200082F3148830483149314A00F044F831484B
:106230003149324A00F03FF831483249324A00F0E1
:106240003AF832483249334A00F035F83248334997
:10625000334A00F030F833483349344A00F02BF821
:1062600033483449344A00F026F83448344900228F
:1062700000F02CF833483449002200F027F8334866
:106280003349091A082902DB002202604160314AC1
:1062900090471F481F49884205D00268043003B464
:1062A000904703BCF7E700208646EC46002000211B
:1062B000294A9047FEE7884207D0521A05D0037852
:1062C00001300B700131013AF9D17047884202D098
:1062D00002700130FAE770470000012000E0002062
:1062E00000000120000001203CB90200E02900204C
:1062F000E42C0020D4630200D4630200FCA6020058
:106300003CB90200E0290020E0290020F0A70200AB
:10631000F0A70200F0A70200F0A70200F0A7020019
:10632000F0A70200F0A70200F0A702003AB90200AD
:1063300040BC0200E42C0020E42C0020E42C0020CF
:10634000B43B0020B43B0020B43B0020B43B002011
:10635000B45B00209D630200718F0200FEE7FEE740
:10636000FEE7FEE7FEE7FEE7FEE7FEE7FEE7FEE705
:10637000704700BF1048804710484FF0070188431E
:1063800085460F4880470F48016841F4700101605D
:10639000BFF34F8FBFF36F8FFFF732BF0A480B4930
:1063A0000B4A884207D0521A05D0037801300B708F
:1063B0000131013AF9D170477163020000000120F8
:1063C000757D020088ED00E0F0A70200E0290020C2
:0463D000E0290020A0
:1063D4007047000007B5044B0093044A402300F0C3
:1063E40032F803B05DF804FBF5630200E52C0020ED
:1063F4002DE9F84388461446B2B10F4B0F4E0325DE
:10640400002743F00109224608EB0701002002F0AF
:10641400A1FE0744241A48B933782BB14FF47A40CB
:10642400C847013D02D13570BDE8F88301233370BC
:10643400002CE8D1F8E700BFF0A70200E42C00200C
:10644400704702F0B7BEF0B595B01D461646084633
:106454000C4601F0AFFB1A9B0D93CDE908650025AE
:106464002B46082205A920460A958DF82C500C9538
:1064740001F0BCFB079B0293069B03939DF8143029
:106484008DF8115003F00302012A1DD1BDF8142028
:10649400059DC3F3C203C2F383168DF81030B20016
:1064A40008230EA9204601F0A1FBC5F3952508ABEE
:1064B4000093324602AB0EA9284600F07BFB20462F
:1064C40001F07CFB15B0F0BD022AF8D1BDF81650DE
:1064D400C3F3C203C5F389158DF810300827082DBE
:1064E4002E4628BF08263B4632460EA9204601F018
:1064F4007DFBAD1B08AB02AA31460EA8374400F061
:10650400BDFB002DEBD1DAE708B5FFF79AFF04488D
:10651400042100F0B9FA034B01225A7108BD00BFEF
:10652400E0A70200E0290020037813F0040216D04B
:1065340003F00303012B03D0022B09D00120704781
:106544000A6800880232C0F3831002440A60F5E747
:106554000B684288023303EB92130B60EEE710469C
:10656400704700002DE9F04FDFF830A187B00F46E7
:1065740000230446861C0DF1070015468DF80730EC
:1065840000F0EAFFDAF800103960DAE90132134466
:1065940001335B1A0AF21C470AF583690AF21448AC
:1065A400B3421CD30020002D73D004F00F039B01D1
:1065B40043F0050363F30F00DAF80020DAF808303B
:1065C4001340033332444AF823009DF80700CAF805
:1065D400002000F0E5FF012007B0BDE8F08F0121A5
:1065E400384601F016F8484601F02BF8404601F011
:1065F40028F8DAF80400DAF808B0029000EA0B0090
:1066040003300AEB800002A9FFF78EFF029B50BB08
:106614000BEA03020AEB820203F1020CD268039232
:10662400013303EA0B0B0AEB8B0B02F00302012A82
:10663400DBF80C10CDF808C023D0022A16D083460C
:10664400404601F001F810B1029BCAF804305946E3
:10665400384600F0DEFFDAE901231344DAF80020BB
:1066640001339B1A9CE70BEA0300C9E7BDF80E301F
:10667400C3F3891303334FEA114B0CEB93030293D7
:10668400DEE7BDF80C30C3F383134FEA114B6344C8
:10669400F5E7A40544F006008EE700BFF82D0020BE
:1066A4000B4B0C48FF2210B59A600022C3F8182443
:1066B400C3E90022C3F8142483F8202401F033FA38
:1066C400044610B9044801F0DBFA204610BD00BFAF
:1066D400F82D002084A702002CA8020030B50A4C33
:1066E40071B10A4A0A49121BD20800239A4201D105
:1066F400002030BD31F82350854202D00133F5E744
:10670400034654F83300F4E704A7020084A7020008
:10671400E0290020094B013903EBC000032909D803
:10672400DFE801F00A02040604207047007970478C
:1067340040797047002070470220704704A7020088
:10674400034BD3E90030C31A58425841704700BF85
:10675400F82D00202DE9F04387B0FFF7F1FF06463E
:10676400002840F0FE80804CC4F81804BFF34F8F1B
:106774006368A56802932B40033304EB830002A9EA
:10678400FFF7D2FE029B18B1D4F81824002A62D075
:1067940005EA0302991C013304EB82022B4004EB4B
:1067A4008303D268DB68049302F00303022B039291
:1067B400029163D1BDF80E306C48C3F38917502F92
:1067C400B84628BF4FF0500808F1080168F38F134A
:1067D400C1F30901ADF80E3001F0BDF906460028F9
:1067E40000F0AA8001F0E6F90023082203A930464C
:1067F40001F0F2F9029925EA01020132B8EB820FA5
:106804004FEA820333D95FFA88F863B32940DDB2D3
:10681400A8EB050803315FFA88F9A846544D04EB48
:10682400810108234246304601F0D6F93DB108F112
:106834000803DBB24A462946304601F0CDF9029BF3
:10684400033703EB97070297D4F81834002B4BD186
:10685400D4F810545BE022689A428CD862603046C7
:1068640007B0BDE8F08342491D469946D9E729405F
:1068740003310823424604EB8101DDE7012B5BD1A0
:10688400BDF80C303948C3F38311062928BF06210B
:1068940061F38913023101F00F018900ADF80C3066
:1068A40001F059F90646002846D001F083F9002387
:1068B400082203A9304601F08FF90027BDF80C2007
:1068C400C2F38312BB00974203F10803BCD20299BE
:1068D4004A1C29400331029204EB81010422304610
:1068E40001F07AF90137E9E7304601F067F9FFF77B
:1068F40027FF80F00100C6B2B1E7EB685B7923B1F2
:106904002B6831461B6828469847EB681D68002DA4
:10691400F3D1304601F052F90DF107008DF807501C
:1069240000F01AFED4F818340BB9029B63609DF88A
:10693400070000F035FEDAE7D4F8104454B90D4BE3
:106944000D480E49C01AC008000440F0020000F0CF
:1069540063F8CCE7236820469B689847E3681C6883
:10696400ECE700267BE700BFF82D002084A7020097
:10697400042E002004A702002CA7020014A8020081
:106984002DE9F74F224E04460F46924601A90122F3
:106994001846D6F808909B46FFF7E4FD20B3019D06
:1069A4004FF00008AA1CD84508EB020126D119486B
:1069B400002100F00BFE80F31000000440EA1440B4
:1069C400E4006B1C04F0380403EA090305EA090532
:1069D40044F0010406EB8303033544EA881444EAD3
:1069E4008724D86046F8254096F820341BB1FFF779
:1069F400B1FE0028FBD103B0BDE8F08F09EA010124
:106A040006EB81015AF82830CB6008F10108CAE787
:106A1400F82D00201432002000231A46FFF7B0BFDF
:106A240007B50123019201AAFFF7AAFF03B05DF89D
:106A340004FB07B5CDE9002302236A46FFF7A0FF54
:106A440003B05DF804FB1FB5CDE90023069B029358
:106A5400079B03936A460423FFF792FF05B05DF892
:106A640004FB7FB5CDE90023089B0293099B0393A4
:106A74000A9B04930B9B05936A460623FFF780FF4A
:106A840007B05DF804FB000030B50F4CD4F81024B7
:106A940003460020114631B9D96808714AB9C4F8CF
:106AA40010340A6030BDC9680D79854206D0096882
:106AB400F1E7D26814680C601360F3E701300A2828
:106AC400E8D14FF0FF30EDE7F82D002038B5084B42
:106AD4000125D3F8104483F8205404B938BDE36881
:106AE4005D71236820465B689847E3681C68F4E797
:106AF400F82D002030B5C38885B004460D4633B167
:106B0400144A00921449154A284600F000FE217ADE
:106B140005291DD0637A4BB1A088FFF7FBFD104B0C
:106B2400104953F82020284600F0F1FD227A0E4B3C
:106B3400A08853F8222003920021FFF7CFFD039A87
:106B44000A490346284605B0BDE8304000F0DFBDE1
:106B540005B030BD58A8020040A8020038A80200C1
:106B6400C4A8020097B00200E8A802005DA80200D1
:106B740007B503460846197A052911D05B7A2BB16B
:106B8400094A0A49019000F0C2FD019808490190A0
:106B940000F0BDFD019803B05DF804EB00F0ACBD5E
:106BA400002AF8D0F2E700BF58A8020097B002000C
:106BB4002BB102002DE9F04385B01F460C9D002344
:106BC40095F80C902B7306460C4690462946384699
:106BD400FFF790FFB8F1060F09D8DFE808F00412B8
:106BE400181F283340003146284600F090FD00224B
:106BF40029463846FFF7BCFF85F80C9005B0BDE880
:106C0400F08322683146284600F081FDEFE7D4E99D
:106C140000233146284600F07AFDE8E7A368009394
:106C24003146D4E90023284600F071FDDFE7E3682C
:106C34000193A36800933146D4E90023284600F069
:106C440066FDD4E723690293E3680193A368009384
:106C54003146D4E90023284600F059FDC7E76369AB
:106C6400039323690293E3680193A3680093314675
:106C7400D4E90023284600F04AFDB8E708292DE9A5
:106C8400F74F80460E4617461C463DD800251B7B11
:106C94002573214610460193FFF72CFFDFF88CA0E3
:106CA400DFF88CB0AE4232D918F805205946204698
:106CB40000F02DFD0135082DF4D11B49DFF874A037
:106CC400DFF874B0204600F022FD4FF000094E4575
:106CD40024D918F809507E2D1ED8284603F022FC2A
:106CE400002814BF2A462E225946204600F00FFDE4
:106CF40009F10109B9F1080FE9D101222146384609
:106D0400FFF736FF019B237303B0BDE8F08F5146B4
:106D1400204600F0FCFCCDE72E22E5E75146204654
:106D240000F0F5FCE4E700BF71A802006DA80200C2
:106D340067A802006FA8020073A802002DE9F84FAB
:106D44002F4F304E4FF000082F4B1B785FFA88F519
:106D5400AB4201D8BDE8F88FD7F8009019F8350098
:106D64000124A0F12002C0F1200304FA02F224FA63
:106D740003F31343D6E9001204FA00FC01EA0C0BF6
:106D840002EA030E5BEA0E0E09EBC50A35D021EACE
:106D94000C0122EA0303C6E9001301F0B3FB024627
:106DA40019F83500194DA0F12003C0F1200124FA8F
:106DB40001F104FA03F30B43D5E900C1C0F1200546
:106DC4000B40A0F1200122FA05F5844002FA01F1FA
:106DD400294304EA0C0402FA00F58B4208BFAC42D2
:106DE4000BD1DAF8043043B19AF801104C1E614219
:106DF40061418D1A69426941984708F10108A3E786
:106E0400F0320020E8320020B4320020E0320020CA
:106E1400F8B507461E4800F08FFBB8BB01251D4E90
:106E2400A7F12004C7F1200325FA03F305FA04F4BB
:106E34001C43D6E90023BD4002EA050003EA04012D
:106E440001431DD1384601F05DFB134BD3E9001219
:106E540088B129432243C3E90012D6E900232A4317
:106E64002343C6E900230D4B094819680022BDE8F5
:106E7400F84000F019BB21EA050122EA0402EAE71E
:106E840022EA050223EA0403C6E90023F8BD00BF91
:106E9400BC320020E8320020E0320020B83200206A
:106EA400042A2DE9F34105460C4616463BD901F068
:106EB40061FAE8B11D4B1E491D601E4BDFF8888046
:106EC4001C701D4B00221E600023C1E900231B49D6
:106ED400C1E90023013CE4B200260327FF2C0ED1B4
:106EE400174A1848002102B0BDE8F04100F0CABAC0
:106EF40001F010FA0028DDD002B0BDE8F08105EB06
:106F0400C40315F834009B788DF80660424601A945
:106F14008DF804708DF8053001F036FA013CE4B2C6
:106F24000028DBD0E8E70720E6E700BFF0320020C6
:106F3400E0320020B4320020B8320020E8320020D1
:106F4400416D0200FCA80200156E020070B5084DE8
:106F5400084E00242B789C4201D3002070BD336876
:106F6400012113F8340001F087FA0134F2E700BF7D
:106F7400B4320020F03200201FB50021039001AA92
:106F840044F20100CDE9011100F004F805B05DF808
:106F940004FB000038B572B6FFF798FDFFF7DAFB83
:106FA4000028FBD1104B114C114D1249E41AE4088E
:106FB400240444F00100FFF72FFDD5F8F030DB077F
:106FC40000D500BE0C4944F00200FFF725FDBFF3D5
:106FD4004F8FEA68094B02F4E0621343EB60BFF39E
:106FE4004F8F00BFFDE700BF04A702002CA70200DB
:106FF40000ED00E000A902000CA902000400FA055B
:10700400094B5A7899780132D2B2914208BF0022D2
:10701400197891421FBF02705878182202FB003081
:1070240014BF043000207047F432002073B50546C5
:1070340000240DF107000E468DF8074000F08CFA8D
:107044000DF10600FFF7DCFF90B10670094B9DF8C7
:10705400062045605A709DF8070000F0A1FA24B993
:10706400054B4FF48012C3F80021204602B070BDD6
:107074000424F0E7F432002000E100E0024B4FF476
:107084003C6043F00103184720A9020038B50C4BBB
:107094000C4C4FF40032C3F8802001254FF48033A8
:1070A400C4F84833C4F808336560FFF7E7FF064BBC
:1070B400A56000241C60FFF7E1FF044B1C7038BD81
:1070C40000E100E0001001401034002001340020F1
:1070D400F8B51F4B1F491B680025C1F84051C1F882
:1070E4004451C1F84851C1F84C51C1F80051C1F89C
:1070F40004514BB3D1F8044517490968641A24F0C4
:107104007F442F461A68A24209D8A41A15441A7C4F
:10711400DE691AB1D3E905201F749047AEB90F4A4E
:107124000F4B11781B788B4205D10133DBB2022B54
:1071340008BF0023137012780A4B43F822500A4BFD
:107144004FF48012C3F80021F8BD3346DAE700BFDC
:107154001434002000100140103400200D340020AD
:107164000C3400200434002000E100E02DE9F04F4D
:10717400A14AA24913780978A14D994285B03CD01F
:107184000133DBB2022B08BF002313709D49127830
:107194009D4B0F6853F822003B1823F07F430022D5
:1071A4000B602B6816461446944613B942B12B6003
:1071B40006E0196881420ED902B12B60091A1960E0
:1071C40001272B68DFF848A201934FF00008BEB9ED
:1071D400DFF844B260E0401A0C44D968D3F81CE0EC
:1071E400C3F800C031B13A1922F07F42C3E901214A
:1071F400DE611E4673460122D7E700263746E0E7E4
:107204003446F6697F4B60681B68DFF810C2A168DA
:10721400C21A22F07F42624500F2A6800A4422602C
:10722400012222742A680023C4E90133E361002A9D
:1072340040F0A3802C60CAE79BF802105A1CD2B21B
:1072440091428BF8002004BF00228BF80020182202
:1072540002FB03B32A6819799C68022975D00329B3
:107264007FD0012918D1207CB0B9D3E90312A260E0
:107274005A69E2609A69654BA2611A78002A18BFBC
:1072840001466160BEE78C4200F094808946C9697A
:107294000029F8D1002323749BF800309BF80120C7
:1072A4009A42C9D12B68B8F1000F04D1019A9A42CD
:1072B40001D1002F43D0002B79D0D3F800A0544D36
:1072C400504BD5F804751C68DFF854813E1B98F8C0
:1072D400003026F07F4603369BB94FF48033C5F85F
:1072E4004433C5F804334B4B4FF400324FF00109DB
:1072F400C3F880211A60C5F80090FFF7BFFE88F834
:107304000090B2452CBF5444A41924F07F44C5F81E
:107314004045D5F80435DB1B23F07F43E41B0333DE
:1073240024F07F44A3420AD9D5F80435C5F8403582
:10733400FFF7A4FE374B4FF40032C3F80021334B60
:1073440000221A7005B0BDE8F08F114691469FE700
:107354001174D2690123002AFAD1002B9CD02A602F
:107364009AE700231946F6E71B1A23F07F438B4262
:1073740034BFCB1A0023236052E721681368994273
:1073840013D85B1A1360E26154E7091AD8691A46E4
:1073940038B1034618688842F7D3401A1860184673
:1073A40013462160E061DC6111E71346F2E7FFF761
:1073B4006DFEC4E74C4511D1D3692B6073B9DFF876
:1073C40044E00120CDE90212CAF80800CEF80030EA
:1073D4000E4B1870FFF752FEDDE902120B68C96903
:1073E400C9F81C1011B1086803440B602B68934260
:1073F40018BF4FF001084DE70C3400200D34002075
:107404001434002010340020043400200034002000
:107414000010014000E100E0F4320020FEFF7F0094
:107424000134002008B5FFF731FE104B00200B2279
:1074340018809A700E4B18600E4B18700E4B187013
:107444000E4B4FF48012C021C3F8802183F814132B
:107454001A6002F18042A2F56F22C2F8080583F88F
:107464001113074BD2F804251A6008BDF43200202A
:10747400143400200C3400200D34002000E100E01E
:1074840010340020074B9B784BB132B128B103680C
:10749400187C20B959745A61704707207047082036
:1074A400704700BFF43200202DE9F743DFF88480F1
:1074B40098F8023005460E461746ABB3A0B304292C
:1074C40030D9436983B3437C0024012B0DF10700B9
:1074D4000CBF8946A1468DF8074000F03DF80DF138
:1074E4000600FFF78DFDD8B1012303700F4B4560F3
:1074F400D3F80435C0E90497C0E902369DF8063094
:1075040088F801309DF8070000F04AF824B9084BC8
:107514004FF48012C3F80021204603B0BDE8F08385
:107524000424EFE70724F7E70824F5E700100140F7
:1075340000E100E0F4320020064A92783AB130B11A
:10754400426922B1002202740221FFF76FBD0820B4
:10755400704700BFF432002070B5EFF3108672B6A6
:107564000C4A946801239CB993600B4B0B4DD3F8E0
:10757400801029401160C3F88050D3F88410516002
:107584004FF0FF32C3F88420047006B962B670BDB0
:107594000370FAE71834002000E100E0FC06FFBDA8
:1075A400084B9A6810B55AB150B9EFF3108172B60E
:1075B400054A1C6814605C685460986001B962B63E
:1075C40010BD00BF1834002000E100E010B50346F0
:1075D40053E8000F0A4643E8002494F0000FF7D163
:1075E40010BD10B5034653E8002F42EA010043E8FA
:1075F400000494F0000FF6D110BD10B5034653E813
:10760400000F00EA010243E8002494F0000FF6D1D1
:1076140010BD10B5034653E8002F02EB010043E808
:10762400000494F0000FF6D110BD10B5034653E8E2
:10763400002FA2EB010043E8000494F0000FF6D100
:1076440010BD0121FFF7CDBF0021FFF7D6BF10B554
:1076540090B1D0E9012301689B1ADBB20A60013BB7
:10766400DBB2FF2B026802D10020107110BD11683B
:107674004C1C14600B70F2E70E20F7E737B5054693
:1076840000240DF107008DF80740FFF765FF2A6815
:107694006B68116899420ED9481E106011F8013CBC
:1076A400EC68298A01FB0344AB6811791B1ADBB22D
:1076B400994238BF13719DF80700FFF771FF204608
:1076C40003B030BD37B5054600230DF107000C4665
:1076D4008DF80730FFF740FF2A681368591C1160C2
:1076E400E968641A298AB4FBF1F41C709DF8070058
:1076F400FFF756FF03B030BD826810B504462AB1C7
:1077040043690168006998470023A36010BD0EB463
:1077140003B5039921B104AB01AA019300F076F8F3
:1077240002B05DF804EB03B070470A2938B504468B
:107734000D4602D10D21FFF7F8FFA3682268591CFA
:10774400A160D554D4E901329A4204D32046BDE85D
:107754003840FFF7D1BF38BD2DE9F84F9846DDE931
:107764000A43154682460F460A464FF00109AA42CB
:107774000FD2C14538BFC14613F0010B01D16CB91A
:1077840000240126B8F1010F1BD908F1FF386E431C
:10779400F8E709F10109B2FBF5F2E8E79B070ED51A
:1077A400B8F1000F0CBF30262026A145E9D2013CD8
:1077B40031465046FFF7B9FF002CF6D1E0E720260A
:1077C400F3E7B7FBF6F39D42E1D9DFF83C80B7FB62
:1077D400F6F3504618F8031006FB1377FFF7A5FFDE
:1077E4003346AB42B6FBF5F6F1D2BBF1000F02D043
:1077F4000CB1A14501D3BDE8F88F20215046013CCE
:10780400FFF793FFF4E700BF26A902002DE9F74F25
:10781400054617468846002900F03E8118F8011BEA
:1078240049B92B7B002B00F03781284603B0BDE813
:10783400F04FFFF761BF252940F0B780002698F884
:1078440000302D2B424608F1010823D0302B24D0E0
:107854002B2B25D000242A2B02F1010123D13B68D4
:107864001A1D1B683A601C440A4613782E2B26D135
:1078740001324FF0000A104610F8011BA1F1300C40
:10788400BCF1090F1DD80A2303FB0A13A3F1300A24
:107894000246F0E746F00106D1E746F00206CEE7DD
:1078A40046F00406CBE711F8013CA3F130000928A7
:1078B400DBD80A2202FB0434303C0A46CBE74FF003
:1078C400000A12F8011B01F0FB0068289046F8D06A
:1078D400782909D86F290CD8632962D022D82529A0
:1078E40063D0582900F0888098F80030002B95D197
:1078F40097E770390829F7D801A353F821F000BF9E
:10790400777A0200ED780200ED7802000D7A020029
:10791400ED780200EB790200ED780200ED780200C8
:10792400FD790200642901D06929DDD13A68D2F8D1
:107934000090111D89EAE9723960A2EBE9724FF0F7
:10794400010B092A35DCD34538BFD3462CB1B9F134
:10795400000F01DB720700D5013CB30702D5BAF171
:10796400000F03D0F00701D44CBB0024B9F1000F81
:107974002DDAC9F100092D212846FFF7D6FE06F0BD
:107984000302022A04D1BAF1000F01D11CBB002466
:10799400CDE9004653460A2249462846FFF7DCFE55
:1079A400A2E73B681A1D19783A602846FFF7BDFE26
:1079B4009AE70A230BF1010BB2FBF3F2C1E7A345EB
:1079C400D4D220212846013CFFF7AFFECCE7710753
:1079D400D5D52B21D0E7A345DAD230212846013C66
:1079E400FFF7A3FED2E73968CDE900460A1D3A60E5
:1079F40053460A220968D0E739680A1D3A60CDE97E
:107A0400004653461022F5E73B681A1D3A6016F00B
:107A14000106D3F8009024D1B9F1000F03D04846F1
:107A240002F03AFE0646B4421DD809F1FF3919F8AE
:107A3400011F00293FF458AF2846FFF776FEF6E70A
:107A440028460136FFF771FE19F806100029F7D110
:107A5400A642BFF449AF20212846013CFFF765FE4A
:107A6400F6E70026F0E720212846013CFFF75DFEFB
:107A7400D9E73B681A1D3A60302128461C68FFF795
:107A840054FE78212846FFF750FE00220823CDE952
:107A940000322146102280E703B0BDE8F08F00BF1A
:107AA4002DE9F84FB0F806A04579D2F800B09DF85A
:107AB40028900AFB05F5043D88460BEB0301A94217
:107AC40003F1040488BFA5EB030BB4FBFAF60746E5
:107AD4000AFB1644C2F800B04EB9AAEB04055D4592
:107AE40028BF5D46BBF1000F04D1BDE8F88F3F68A5
:107AF400013EF1E7043408EB06003C442A46B9F1A0
:107B0400000F0DD02146ABEB050B02F047FDDA4523
:107B14002E443F6855464FF0000428BF5D46E1E718
:107B240001462046EFE7FFF792BDF8B546790146D6
:107B3400721E0546002393422D6803D30024A642F7
:107B440002D8F8BD0133F6E70F682846FFF7BAFDFF
:107B540001343946F3E72DE9F843068ACD1C07467C
:107B6400FFF78CFD043E35440446B5FBF6F5F0B151
:107B74004FF48073EDB28380C680013D0760814677
:107B84004FF00008A84512D23846FFF777FD0646A5
:107B940048B163790133637108F10108C9F8000041
:107BA40007608146EEE72046FFF7BFFF34462046D4
:107BB400BDE8F88301210430FFF72BBD10B5012186
:107BC40004460430FFF731FDC0B220B92046BDE8B9
:107BD4001040FFF7AABF10BD1FB503920022009208
:107BE40003AAFFF75DFF05B05DF804FB1FB5039220
:107BF4000122009203AAFFF753FF05B05DF804FBCE
:107C040041DF7047064B10B500241C70054B1C6007
:107C1400BFF35F8F0449054800F03BF8204610BDD0
:107C24002C3400203034002040A9020024340020E9
:107C340007B500230DF107008DF80730FFF78CFC22
:107C4400F1EE103A23F09F03E1EE103ABFF35F8F99
:107C54000A4B4022C3F884219DF80700FFF7A0FCDB
:107C640002F02EF920B103B05DF804EBFFF7C8BFB2
:107C740020BF40BF20BF03B05DF804FB00E100E07B
:107C8400836800225A60C3E904229A60DA601A60A9
:107C940070470B684A684360934208BF0023016041
:107CA40008BF43607047436843B1026891685268F3
:107CB4000B449342436004BF0023436070470000B9
:107CC40010B50D49A1F59472914201D800200FE03E
:107CD4008C1AE30F03EBE4035B1002EBC30452F8CA
:107CE4003330834205D802D204F10802ECE760681D
:107CF40010BD2146E8E700BF44AE020008B5FFF717
:107D0400DFFF024B002808BF184608BD06AD02007D
:107D14004FF0704393F8E02F062A10D1D3F8E42FE4
:107D240012070CD1D3F8E80F00F0F003302B08D081
:107D340000F0E000A0F14003584258417047002091
:107D44007047012070474FF0704393F8E02F062AE4
:107D54000CD1D3F8E42F120708D1D3F8E80F00F0C0
:107D6400F000A0F13003584258417047002070479A
:107D740008B5FFF7CDFF40B14FF08053884AD3F8E0
:107D84002433C3F30423C2F84035FFF7DCFF10B1FA
:107D9400844B854A5A67FFF7BBFF48B14FF08053C5
:107DA4004FF08042D3F84432C3F34233C2F83C3537
:107DB400FFF7C9FF30B17D4AD2F8FC3023F080735D
:107DC400C2F8FC30FFF7A4FF40B14FF0804300221B
:107DD400C3F80C21C3F81021C3F83825FFF7B3FF0B
:107DE40020B14FF080430322C3F8A025FFF7ABFF77
:107DF40060B16F4B0522C3F810260122C3F8882610
:107E04000022C3F818263F22C3F814264FF070430B
:107E140093F8E02F062A50D1D3F8E42F11074CD160
:107E2400D3F8E83F03F0F003502B46D14FF08052D3
:107E3400604BD2F80414C3F82015D2F80814C3F820
:107E44002415D2F80C14C3F82815D2F81014C3F86A
:107E54002C15D2F81414C3F83015D2F81814C3F83A
:107E64003415D2F81C14C3F84015D2F82014C3F802
:107E74004415D2F82414C3F84815D2F82814C3F8CA
:107E84004C15D2F82C14C3F85015D2F83014C3F89A
:107E94005415D2F83414C3F86015D2F83814C3F862
:107EA4006415D2F83C14C3F86815D2F84014C3F82A
:107EB4006C15D2F84424C3F87025FFF729FF48B1A4
:107EC4004FF080534FF08042D3F8583203F04F0301
:107ED400C2F8E43EFFF71CFF48B14FF08043D3F8EB
:107EE4000024D20744BF6FF00102C3F800244FF00E
:107EF4008053D3F83021062A0AD1D3F83431062B23
:107F040001BF2D4AD2F83C3743F48063C2F83C37B2
:107F1400264AD2F8883043F47003C2F88830BFF39D
:107F24004F8FBFF36F8F4FF01023D3F80022002A36
:107F340003DBD3F80432002B2EDA204B0122C3F8E2
:107F44000425D3F80024002AFBD04FF01022152179
:107F5400C2F80012D3F80024002AFBD04FF01023FB
:107F64001522C3F80422154BD3F80024002AFBD0B1
:107F74000022C3F80425D3F80024002AFBD0BFF361
:107F84004F8F0A490E4BCA6802F4E0621343CB6078
:107F9400BFF34F8F00BFFDE70A4B0B4A1A6008BDC1
:107FA4000030014000C007400DF0ADBA00ED00E024
:107FB4000050004000C000400010004000E00140BC
:107FC4000400FA05E82900200090D003054A4FF088
:107FD400A043105CD3F8043523FA00F0C04300F04A
:107FE4000100704744AE0200044B1A5C0123934025
:107FF4004FF0A042C2F80C35704700BF44AE0200F7
:10800400044B1A5C012393404FF0A042C2F8083598
:10801400704700BF44AE020008B50020FFF7F0FF30
:108024000120FFF7EDFF0220FFF7EAFFBDE808405B
:108034000320FFF7E5BF08B50020FFF7D5FF0120B7
:10804400FFF7D2FF0220FFF7CFFFBDE8084003206F
:10805400FFF7CABF074A4FF0A041105CD1F80435BE
:108064000122824022EA03001340C1F80805C1F846
:108074000C35704744AE02000D2809D00E2809D0F3
:108084000F2809D010280CBF03204FF0FF30704791
:10809400002070470120704702207047C20708B5CE
:1080A40001460CD54FF0A0430322C3F84427C3F87C
:1080B4004827C3F84C27C3F85027FFF7ADFF8B07B9
:1080C4000AD54FF0A0430C22C3F83427C3F838274D
:1080D400C3F83C27C3F8402708BD000038B5074C57
:1080E400051E04F1080318BF1C4623682BB11A6847
:1080F40022605B6828469847F7E738BD3C34002087
:1081040020B9054B01225A70FFF7E8BF012802D1BC
:10811400014A9070F8E770473434002020B9034BCB
:1081240001225A70FFF7DABF704700BF34340020D1
:1081340038B50B4C237883B90A486360A360236184
:10814400E36000F059F8054601F0BAFE08B900F002
:108154005FF801232370284638BD8525FBE700BF5F
:10816400343400200581020037B50B4C00230DF197
:1081740007008DF80730FFF7EFF9E368013BE36090
:10818400E56815B900F056F8A5709DF80700FFF7EB
:1081940007FA03B030BD00BF34340020012813B502
:1081A40008D003281CD018B9114B0122C3F8802031
:1081B40002B010BD0F4C00230DF107008DF80730FD
:1081C400FFF7CAF923780BB9FFF7B2FFE3689DF80C
:1081D40007000133E3600123A370FFF7E1F9E7E748
:1081E40000F016F802B0BDE81040FFF7BDBF00BFB5
:1081F40000E100E034340020044A137923B901215A
:1082040010609180184670478520704748340020DC
:10821400074B1A68D2075FBFC02283F800230122EC
:108224001A604FF080430122C3F81825704700BF3D
:1082340000E100E04FF080430122DA60D3F8182413
:10824400D203FBD4704700004FF0804307B5D3F846
:1082540000217AB10022C3F80021D3F80021009252
:10826400009A0122C3F808230F4B587910B95A71A8
:108274001B6898474FF08043D3F8042182B1002251
:10828400C3F80421D3F804210192019A0222C3F80D
:108294000823054B1B68012003B05DF804EB184765
:1082A40003B05DF804FB00BF4834002000F18040B7
:1082B40000F5C040002382B0036003680193019B72
:1082C40002B07047800000F1A040D0F8002722F4EB
:1082D4004032C0F80027D0F8003743EA0141C0F823
:1082E40000177047C208012300F0070003FA00F0EA
:1082F4008B5C184388547047054B4FF0FF320728B6
:1083040043F8202084BFC01880F84820704700BF7D
:108314005034002038B5144D95F858400CBB202239
:10832400FF2105F1300002F062F9E0B20134FFF7F9
:10833400E3FF0C2CF9D10D4B0022C0216A6583F8B0
:108344000613402119604FF4BE70FFF7AFFF084BCE
:108354004FF00041C3F80413012385F85830104648
:1083640038BD0820FCE700BF5034002000E100E0E5
:1083740000600040034B93F85800003818BF0120F8
:10838400704700BF503400202DE9F041DFF8E4804D
:1083940008EB0003054693F93030002B0F4664DAEE
:1083A4008B78C3F34003002B0BBF082400240C215B
:1083B40008218C4202D10420BDE8F08158F8240041
:1083C40001303DD108EB050166B248F8242081F85C
:1083D40030601BB908EB040383F84850BB785A0794
:1083E4000ED4D9072ED5AB0003F1A043D3F8002750
:1083F40022F00202C3F800271D492846FFF772FF46
:10840400BB783A7813F0020325D0A40004F1804429
:1084140004F5C0442D02D4F8103523F4473323F473
:108424004073C4F810351204D4F8103505F4F85527
:1084340002F4403215431D43C4F810550020BBE735
:108444000134B6E77A7805F5E0734FF0A041920065
:1084540041F82320D0E7083E48FA86F696F85050B3
:1084640045EA821286F85020E8E70820A4E700BF16
:10847400A43400205034002038B5204C251895F938
:108484003020072A18DD083A44FA82F494F8503070
:108494009B09032B0BD14FF0A043D3F81015C14017
:1084A40001F001010231BDE83840FFF70BBF012B99
:1084B4000CBF02210321F6E7D3B2072B1DD893008A
:1084C40003F1804303F5C043D3F8100540F00100E5
:1084D400C3F8100502F1400040B2800080B2FFF7FB
:1084E400E5FE51B195F9303054F823302BB1012316
:1084F40003FA02F2024BC3F8042338BD50340020BF
:10850400006000404FF0A043D3F8103523FA00F088
:1085140000F00100704700002DE9F04F87B00024FF
:10852400584D03944FF48072012102F1804303F506
:10853400C04390B21B68012B06D1D5F804330B421B
:1085440002D0FFF7B3FE0C430432B2F5907F4FEA3A
:108554004101EAD14B4BD3F87C31012B0AD14FF4C2
:10856400BE70FFF7A3FE4FF0A04344F00044D3F8DD
:1085740010350393E3B2D3B1434F002501263442AF
:1085840010D0AB0003F1804303F5C043D3F81005CA
:10859400D3F8101557F8253023B1C1F30141C0F3C6
:1085A400042098470135082D4FEA4606E7D1002CF0
:1085B40061DA00224FF0FF33CDE90423DFF8C880ED
:1085C400DFF8C89000273E464FF0A04B19F9014B45
:1085D400631C45D0C4F3C2030122E5B204F03F009A
:1085E40004F0070402FA04F406AA134413F8042C52
:1085F400224235D008EB0002AD0992F9302058F838
:1086040022A0BAF1000F09D1032D29D104A90193A5
:108614000090FFF767FEDDE9000301E0032DF5D0CC
:1086240000F5E07113F80C3C5BF821102342C1F310
:10863400014105D0022913D1032D0CD1294604E0B0
:1086440003290DD1032D06D1022100900136FFF735
:1086540039FE0098F6B2BAF1000F01D02946D0478E
:108664000137042FB2D136B14FF0A043039AD3F8A7
:108674001035934202D107B0BDE8F08F0393049BF9
:1086840005939DE70060004050340020A034002092
:10869400014B1B68184700BFAC3400200220FFF7D1
:1086A400D9BC00002DE9F04780460D46FFF7E4FCF5
:1086B4000328044610D8012D10D0022D30D05DB906
:1086C4001A48FEF739FF1A4B04EB440213449D7811
:1086D400184B1B5DAB4219D0BDE8F087144E00EB7C
:1086E4004003F218F55C5378470053B1DFF84C901F
:1086F4000E484A464FF40041FEF7D6FE08B989F801
:10870400008027443E440B4BB2781A55002DE3D029
:10871400094B1B68002BDFD02846BDE8F0471847FB
:1087240000EB4004024804446578EFE7D8340020A5
:1087340018350020313500202C350020B4340020B9
:1087440000780221FFF7AEBF08B5094B1B7853B17F
:108754000020FFF755FC0120FFF752FCBDE808405C
:108764000320FFF74DBCBDE80840FFF755BC00BF30
:10877400B5340020F8B57A4C237805461BB10023A4
:108784002370FFF7E1FF172D00F28780DFE805F083
:108794000C1717425364757F878C878C9499999929
:1087A4009999C3C8D0D8E3E3FFF7CEFF6D48FEF72D
:1087B400C3FE6D4B002204461A702046F8BD00200B
:1087C400FFF704FCF0B10020FFF71AFC022D0CBFE8
:1087D4004FF4E1644FF47A64634B1D7000254FF449
:1087E40000464FF4FA7029464FF47A720023E4FBF2
:1087F400060101F0D7FD2A460146BDE8F840594874
:10880400FEF752BEFFF7F0FB022D0CBFC8244FF455
:10881400C874E1E70020FFF7D9FB40B10020FFF75F
:10882400EFFB4FF44874504B03221A70D6E7FFF75E
:10883400DBFBC824F7E70020FFF7C8FB38B10020B2
:10884400FFF7DEFB4FF47A64474B0422EDE7FFF7B2
:10885400CBFB4FF4C874F7E70020FFF7B7FB48B130
:108864000020FFF7CDFB404B05221A7041F69A1108
:108874000022C2E7FFF7B8FBF5E70020FFF7EAFBA9
:10888400394B06221A70002240F6CD41B5E700208C
:10889400FFF7AAFB344B07221A7000248DE701204E
:1088A4002070FFF7D7FBEEE701202070FFF7D2FB23
:1088B40000224FF48041A0E7FFF7BDFB2A4B0C22B6
:1088C400EAE72A482A4EFEF737FED5F11105044699
:1088D4001CD0D8B9012D13D0C820454321464FF4EC
:1088E40000474FF4FA704FF47A720023C5FB070176
:1088F40001F058FD224601461C48FEF7D5FD04460A
:108904000220FFF771FB0123337056E70220FFF7C3
:1089140077FB0023F8E7FFF717FF134B1222BBE79F
:10892400FFF712FF0020FFF75FFB0F4B1322B3E7A3
:10893400FFF70AFF0120FFF757FB0B4B1422ABE7AD
:10894400FFF702FF0020FFF74FFB0120FFF74CFB6E
:10895400054B1522A0E7FFF76EFB034B1D709CE748
:1089640028350020F834002030350020B8340020A9
:10897400B5340020044B1B68DB0703D5034B187880
:10898400FFF7F8BE704700BF2435002030350020C3
:1089940038B51C4B18601C4B10F0020405461960D6
:1089A4001AD01A4B1A480E221A700F22DA701022AB
:1089B4009A7111225A72042140F26662FEF770FA2B
:1089C400044648B9FEF7C2FA044628B90146114ADA
:1089D4001148FEF757FD0446EB0711D50120FFF7B8
:1089E4005DFB6CB921460D4A0D48FEF74BFD04466C
:1089F40030B9BDE838400B4A0B480121FEF742BDAF
:108A0400204638BD243500202C35002018350020A0
:108A14006CAE02004587020090AE02007989020024
:108A240094AE0200A18602008CAE0200032811D885
:108A3400012A0AD101290FD100F10E02D2B20D4B45
:108A440000EB40001A54002070470129F7D0022996
:108A540004D049B1072070470022F8E7054B00EB2A
:108A6400400018444270EEE7024B00EB400018440B
:108A74008270E8E71835002008B5012202210020A1
:108A8400FFF7D4FF08B1072818D1072202210120DB
:108A9400FFF7CCFF08B1072810D100210A220846AD
:108AA400FFF7C4FF08B1072808D102210D220846A8
:108AB400FFF7BCFF10B1072808BF002008BD000065
:108AC4000388102B10B502D0112B1ED010BD1A4CE8
:108AD4002168B1B901220846FFF7A8FF08B10728A9
:108AE40024D1072202210120FFF7A0FF08B10728A3
:108AF4001CD1042202210020FFF798FF08B10728A7
:108B040014D1236801332360E0E70B4A1368013B67
:108B14001360002BDAD1FFF7AFFF0028D6D0074B44
:108B24001B68002BD2D0BDE810401847034B1B68CC
:108B3400002BE6D09847E4E73C3500203835002088
:108B44006EDF704775DF704713B54FF001330E3891
:108B54000193032806D8DFE800F0021F232700232F
:108B64008DF80430144B154C1549E41AE408240418
:108B740044F003042046FDF74FFF04220DEB0201ED
:108B8400104801F0D5FB10492046FDF745FF0D487C
:108B940001F000FC02B010BD00238DF80530E1E7C0
:108BA40000238DF80630DDE7002306488DF80730F2
:108BB40001F0F0FBD6E700BF04A702002CA70200D7
:108BC40098AE020040350020AAAE020030B50388FA
:108BD400122B85B0044645D005D8102B17D0112B85
:108BE40030D005B030BD1F2BFBD1274B2748284977
:108BF400C01AC008000440F00300FDF70DFFA08870
:108C040004F1080105B0BDE83040FFF79BBF09300F
:108C140001F0D8FA1D4DE38A039302461A48A38A49
:108C240002932D1A638A0193ED08238A00932D047D
:108C3400A388184945F00300FDF713FFA288164BDB
:108C44001A80CEE7104B1148A2881449C01AC008F4
:108C54000004237A40F00300FDF7EBFE0E4B4FF6C1
:108C6400FF72EDE7084B094822890D49C01AC00874
:108C7400E38901930004A389009340F0030063890E
:108C8400FDF7E1FEADE700BF04A702002CA7020038
:108C940056AF0200C8AE0200EC29002026AF020045
:108CA40071AF020030B503788BB00446072B31D87E
:108CB400DFE813F09A00080032006600300030004C
:108CC400DE00BF0003238DF82030F5238DF821301A
:108CD400DF238DF82230CE238DF8233007238DF83F
:108CE4002430D3238DF82530D0238DF8263001216C
:108CF40008AB07A80793FFF723FF002840F0C780BD
:108D04006448654B6549C01AC008000440F003007C
:108D1400FDF782FE0BB030BD5F4B40685D4DED1A30
:108D24000378ED082D04190745F0030515D5818B4B
:108D340089B1806901F078FA024659492846FDF75D
:108D44006FFE6368574993F9132028460BB0BDE8BA
:108D54003040FDF765BE544AEFE7033001F032FAC4
:108D6400524902462846FDF75BFE6368998B29B198
:108D7400986901F059FA02464D49E6E74A4AFBE789
:108D8400454B444D4B49ED1AED082D0445F00305C0
:108D94002846FDF741FE63681A78120709D5998BB6
:108DA40029B1986901F040FA02464349CDE73E4AA9
:108DB400FBE793F9132041492846FDF731FE60682B
:108DC400033001F0FFF93E4902462846FDF728FE2C
:108DD4006368998B29B1986901F026FA39490246EA
:108DE400B3E7314A3849B0E7406803781B0791D5A7
:108DF400294B284D0330ED1AED0801F0E3F92D0459
:108E040045F00305294902462846FDF709FE636833
:108E1400998B61B1986901F007FA02462B492846FB
:108E2400FDF7FEFD63682A4993F913208DE71E4A76
:108E3400F4E7194B17482749C01AC008000440F04A
:108E440003052846FDF7E8FD6068013001F0BAF932
:108E54006368D989039199890291598901911B8980
:108E64000093024623891C492846FDF7FAFD51E781
:108E7400094B08481949C01AC008000440F003000F
:108E84000590FDF7C9FD6268154905985EE7FEF790
:108E940073F83FE72CA7020004A7020090AF02007A
:108EA400ACAF0200C0AF0200BBAF02006EB0020064
:108EB400CDAF0200DBAF020027B0020043B00200D6
:108EC40062B002007EB002009AB0020033B0020029
:108ED4004FB00200B4B00200C8AE0200C4B0020039
:108EE400DBB002000B4B4A881B889A4211D10A88D6
:108EF40040F677239A420CD1074A08488B880849E0
:108F0400801AC008033B00041A4640F00300FDF732
:108F140090BD7047EC29002004A702002CA7020092
:108F2400F8B0020008B50849084800F0BBFC08B1D5
:108F3400FEF722F80548642100F0C8FC18B1BDE82A
:108F44000840FEF719B808BDE98E02004C35002030
:108F540008B505490320FFF71BFD18B1BDE808401B
:108F6400FEF70AB808BD00BF4D8B02001FB54FF4D1
:108F740000410020FDF794FB08B1FDF7FDFFFDF76C
:108F8400C3FAFEF74FFA08B1FDF7F6FF284B294C58
:108F94002949E41AE408240444F0010044F00304D9
:108FA400FDF73AFD25492046FDF736FDFFF7D0FFD2
:108FB400FEF728FE08B1FDF7DFFF00F043FF08B11C
:108FC400FDF7DAFF002369460120009300F0CCFF8F
:108FD40008B1FDF7D1FF684601F086F808B1FDF746
:108FE400CBFF17492046FDF717FD00230193039398
:108FF400144B0093144A154B15480293694600F02C
:1090040075FD08B1FDF7B8FFFFF78CFF2046114945
:10901400FDF702FD0E4800F0C5FD08B1FDF7ACFFF9
:10902400FDF798FB0028FBD1FEF702FEF8E700BF2E
:1090340004A702002CA7020014B102002EB1020002
:1090440055B10200C22C0020A98C0200EE29002098
:10905400603500205FB102000369C26893429CBF7F
:1090640080681B18013B981A70472DE9F843D0E932
:1090740002940546A9EB04084068904520440F4635
:10908400144404D901F08AFAEC60BDE8F88342463E
:10909400A4EB090401F082FA6868224607EB080190
:1090A400F0E72DE9F843C5680646894617464FF0B0
:1090B40000083469B3687068A54228BFE418013C0D
:1090C400621B5C1BBC4228BF3C46944228BF14462A
:1090D40049462844224601F061FAB3682544AB426C
:1090E40008BF00253F1BA044A144F560E1D14046E0
:1090F400BDE8F88310B5114C114AA2610223C4E9FA
:109104000433104BE361A2644FF400730E4A0F4919
:109114002362E26400231022E01DA3626362E3621F
:10912400A3656365E365226501F094FA0849204666
:1091340001F090FA2023A37110BD00BFB0350020C8
:109144006AB10200383600202836002073B10200CC
:1091540077B1020070B5164B182400FB04451D447A
:1091640004FB00331646DC6A012C0ED0022C18D006
:10917400E4B92846FFF770FF864204D832462846F1
:10918400FFF773FF3446204670BD2846FFF764FF9F
:109194008642344628BF044622462846FFF765FF28
:1091A400F1E72846BDE87040FFF77BBF0024EAE7FB
:1091B400B0350020FFF79EBF64DF704770B5C0B1C3
:1091C4004AB116880024B44203D305196D789D4230
:1091D40008D0A14201D800200BE0055D01352C44E4
:1091E400A4B2F0E7A142F6D9A31C1380005D0138B4
:1091F40080B270BD2DE9F04387B0002306460C46CB
:109204001046ADF8063002AA10230DF105018DF8C1
:109214000530FFF7D1FF1EB9002007B0BDE8F08389
:109224000028F9D19DF80550042D29D0102D29D0FE
:10923400022DF2D10323BDF806206AB90DF106020E
:1092440021463046FFF7BAFFBDF806301BB92B465E
:109254003046FFF7B3FF0446BDF80670002FDBD09D
:109264009DF805800025C146AC42D5D9E81942468F
:1092740002A9304401F05BF938B14D44ADB2F3E7D3
:109284000523D8E706250723D5E70120C5E79BDF9B
:1092940070479DDF70479EDF7047000030B50B4B71
:1092A40019680B4B0022914201D1002009E09D78FE
:1092B4008478A54206D11D880488A54202D1054BB5
:1092C400186830BD01320433EDE700BF4038002098
:1092D400483B00203838002070B590F8C632164656
:1092E4007622A0B002FB03000D46FFF7D7FF044629
:1092F40060B17C22002101A801F079F901238DF8E5
:109304000430ADF80660029501A8A04720B070BDF6
:109314002DE9F74F8A4690F8C612019193467622BA
:10932400064601FB0200FFF7B9FF074688B3DFF8E2
:109334007080D8F80050052D2BD8174C019904EBF8
:10934400C5197622EB0102FB0161A9F802B009F10B
:109354000400009301F022F9104E009BC9F87C70C0
:10936400BAF1000F14BF00220222E254336801351F
:109374009D42C8F800500CD10025E36F2046984761
:10938400336801359D4204F18004F6D30023C8F804
:10939400003003B0BDE8F08F44380020403800208E
:1093A400443B002037B50346084693F8C52293F89A
:1093B400C612BAB1013AD4B276224A43122505FB49
:1093C40004221A44528A013292B2ADF80420762261
:1093D40002FB013301A91B89ADF80630FFF759FFE1
:1093E40003B030BD762202FB0132D288EDE70000E3
:1093F40070B54FF433720D460021044601F0F7F8BE
:109404000E4BA4F8CA5200261E600D4B1B68236045
:10941400224601212846FFF73AFF112806D020B939
:10942400012384F8C73284F8C80270BD012384F88C
:10943400C73284F8C8323046F7E700BF443B002007
:10944400483B002070B5194A90F8C93212680133BC
:10945400DBB2934204460D4680F8C9324FF0000651
:1094640021D290F8C63280F8C5620133DBB276218E
:1094740013FB01F180F8C63242180D4850F823302E
:109484006350284601211671FFF701FF014648B1D8
:1094940084F8C7622A462046FFF71EFF054B0322C5
:1094A4001A705D8070BD80F8C762F7E7403800200D
:1094B400483B0020443800202DE9F3470546762335
:1094C40095F8C66295F8C54216FB03F6AF19104627
:1094D4004FF012083A7918FB046304F1010C0A33C3
:1094E40094452B441FD005F11C0C07F1220902F10D
:1094F400FF3A66445FFA84FC624518D9A24527D036
:10950400B3F808E008FB04F30EF1010E39F803C0C8
:10951400E64528D1334495F8C5C20CF1010C85F811
:10952400C5C20134E6E71B893A89934205D1012378
:109534000B70002002B0BDE8F0870133ADF80430B1
:10954400ADF8062000230B7001A9FFF7A4FEF1E794
:109554001B89B7F808C063450AD00133ADF804305D
:10956400ADF806C0EEE7ADF804E00CF1FF3CF7E718
:109574000023D0E72DE9FF410C460546002800F002
:109584003981002900F036819C4B1B78002B00F0B8
:1095940031810388322B71D01BD8112B00F01A8132
:1095A400302B3FD094F8C832002B00F023812B8855
:1095B400303B9BB21F2B00F21D81B4F8CA32A9883C
:1095C400994240F01781204604B0BDE8F041FFF70E
:1095D4000FBF332BE6D18288B1F8CA329342E1D16E
:1095E400C08891F8C6C291F8C562002800F0B58021
:1095F400762101FB0C4C731C9CF8041000278B4251
:109604008DF80F7000F0DA800DF10F0184F8C53287
:109614002046FFF751FF0146002800F0D58084F86A
:10962400C77218E08388B1F8CA229A42BAD1C388B3
:10963400DBB991F8C632762101FB03430169C3F813
:10964400061011462046FFF7ADFE01460028A9D0BA
:10965400002384F8C732AA882046FFF73DFE684BF2
:1096640003221A70AA885A809CE700212046FFF73B
:109674004FFEA9882046FFF7E5FE93E78288B1F8FC
:10968400CA329A428ED1C388002B57D191F8C67240
:10969400762317FB03F701EB0708837A98F8046035
:1096A4003344062B25DC88F80430122212FB0672A0
:1096B400334605F10C012244002098F80460B342BB
:1096C40001F10A0102F1120227D31222013B02FB2B
:1096D400034394F8C62276213B4401FB0242598A93
:1096E400138999422AD2062E28D0A98884F8C56203
:1096F400A8E7062388F804304248434BCA5B434931
:10970400C01AC008000440F002000190FDF788F977
:109714003F490198FDF780F9C7E751F80A6C42F810
:10972400086C51F8066C42F8046C31F8026C16802F
:1097340050809080D08010810133BEE7002684F8E9
:10974400C5620DF10F01AA882046FFF7B5FE014658
:10975400002839D084F8C7627DE7762303FB0CF335
:10976400122707FB0633B5F80AE02946234470455F
:10977400BFF43EAFCF89A7F52457082F08D8DFE8F8
:1097840007F014170507070707071A008F899F8238
:109794009F8A3FB1DF8A2FB11F8B1FB15F8B002FD0
:1097A4007FF426AF01300631E1E78F89DF82EFE7EE
:1097B4008F891F83ECE78F895F83E9E701238DF8A5
:1097C4000F30AA88012151E79DF80F30002B3FF498
:1097D400E9AEF6E78288B1F8CA329A427FF4E2AE83
:1097E400002381F8C73281F8C8324FF6FF73A1F81D
:1097F400CA32D7E604B0BDE8F08100BF3C3800208F
:109804004438002034A7020004A702007EB10200FD
:10981400C4B1020090DF7047A5DF7047B5DF704721
:109824007FB50023ADF80810ADF80A106A4602A906
:109834000646ADF80C30ADF80E300093ADF80430A8
:10984400FFF7E8FF054600B3114B124CE41AE40895
:10985400FEF754FA240444F0010403460E49324648
:109864002046FDF7E6F8BDF80020BDF8023052EAC4
:10987400030103D009492046FDF7DBF8BDF80420B5
:109884001AB107492046FDF7CBF8284604B070BD4D
:1098940004A702005CA702002AB2020074B202000C
:1098A400B3B2020080B14FF0F7130360FB230371DE
:1098B400F723C3801723038141F6FB3200230161A0
:1098C40043818281184670470E20704730B1A1F160
:1098D4001703E02B04D84180002070470E20704706
:1098E4000720704713B5034680880C46B8B91A8818
:1098F400242A00F09C8014D8112A74D0232A00F062
:10990400A780102A3ED0A37A4BB1E1880020FFF74C
:1099140083FF002840F0A2804FF48073638102B07B
:1099240010BD3A2A68D0552AEDD1DB88C988A072C7
:10993400172B38BF17238B4228BF0B462381FFF711
:109944006DFF60B1FEF7DAF94E4B4F4902464F48BE
:109954001B1ADB081B0443F00100FDF761F8E27AEF
:10996400002AD0D12369002BCDD040F67721ADF861
:1099740002202289ADF80010ADF804206946204683
:109984009847C0E7DB7B0A790A73012B13D0022BBB
:1099940014D0E18823898B4205D20020FFF73CFFD5
:1099A40070B90123E372217B637B8B42ABD200202D
:1099B400FFF736FFA7E70B88E380EAE74B88FBE76E
:1099C400112802D10123A372EDE7FEF797F92D4B7D
:1099D4002F4902462D481B1ADB081B0443F00100E3
:1099E400FDF71EF8DFE7F723CB8017230B8141F641
:1099F400FB3348818B8186E75B89CA88934228BF01
:109A04001346172B0A6938BF17230B8162B1C97A31
:109A140051B140F67721ADF80010ADF80200ADF871
:109A24000430694620469047002363816BE71A7A25
:109A34000B694A73002B3FF466AF4DF67A218DF81B
:109A44000500ADF80010ADF802008DF8042095E78C
:109A5400197A237B994228BF1946A9E711283FF4B4
:109A64005EAFFEF74BF9074B0949024607481B1A3C
:109A7400DB081B0443F0010002B0BDE81040FCF712
:109A8400CFBF00BF5CA702003AB3020004A70200E4
:109A940009B302008ADF70478BDF70478CDF7047A1
:109AA40030B5037A89B004460D46CBB1837C01936B
:109AB400FFF7F2FF1422002103A800F098FD019B98
:109AC40004F10A0204F11401A81CFFF7E7FF0623BE
:109AD4008DF80C30049018B1636A0BB103A8984751
:109AE40009B030BD007DC0F3C0007047F0B5034637
:109AF4000C46002851D042620022026042600029D4
:109B040038D00A7902720A7B82740A68FAB100F1C9
:109B1400140502F10807106851682E4603C608327E
:109B2400BA423546F7D1106830609288B280A16895
:109B3400C1B10A68C3F80A204A68C3F80E2003F1C9
:109B440028029A641F22A3F84C200020F0BD426929
:109B540002F0E30242F4200242F482724261104AAB
:109B64008261E4E706225A811822DA604FF4C8724F
:109B74001A82E4E74269017202F0E30242F420022D
:109B840042F482724261064A8261062242811822AC
:109B9400C2604FF4C8720282D1E70E20D6E700BF3C
:109BA4005000FFFF10B5044686B048B314220021CC
:109BB40001A800F01CFDFFF76FFF2046FFF792FF9E
:109BC40030B1636A23B101228DF8042001A89847BB
:109BD40004F1480104F11400FFF75CFF044630F07F
:109BE40008000BD00748084B08491B1ADB081B0464
:109BF40043F001002246FCF713FF204606B010BDD7
:109C04000E20FBE704A7020044A7020076B302007B
:109C14002DE9F04F06468BB036F8082B1D2A07466F
:109C24000C4622D008D8102A00F0AF801B2A00F07E
:109C340094800BB0BDE8F08F202AFAD114220DEBEA
:109C44000200002100F0D3FC626A002AF1D0B86857
:109C5400716805238DF81430143406AB099403C3DA
:109C6400317A197005A89047E3E71022002105A86E
:109C740000F0BDFC04F1140320460993FFF732FF02
:109C840004F1480A78B102238DF8143005A8636AF8
:109C94000696984751460020FFF7FCFE31462046C1
:109CA400FFF7FEFEC5E794F8058094F80690B8F136
:109CB400000F45D094F804B0B98C224604EB8B0312
:109CC400054693420CD1B9F1000F18D0AB4518D119
:109CD4009DF81C3043F004038DF81C30012313E07D
:109CE400386A0191CDE90223FFF784FADDE9011214
:109CF400039B00B30135EDB2B9F1000F1ED1002D65
:109D0400E6D14FF00008434601220696B9F1000F50
:109D140019D09A421DD100238DF8143031462046C3
:109D2400FFF7BEFE636A0BB105A8984751460020B1
:109D3400FFF7B0FE7DE7B9F1000FC7D10432C0E7E9
:109D440043464246E1E7B8F1000F02D08DF8149083
:109D5400E4E703238DF81430E4E714220DEB02004A
:109D6400002100F044FC3A7A012A7FF462AF636A6E
:109D7400002B3FF45EAF042114348DF814100994C1
:109D84008DF8182005A8984753E7002105A800F08E
:109D94002EFC07238DF81430BB88ADF81C3004F179
:109DA40014030993636A0696002BEBD141E710DF95
:109DB4007047000013B5044609496846FDF769FF7A
:109DC400019808B902B010BDD0E90021204690479F
:109DD40018B16846FDF767FFF2E71120F2E700BF0C
:109DE400BCB3020013B5044607496846FDF751FFAA
:109DF400019B0BB902B010BD2046D3E90021904766
:109E04006846FDF750FFF3E7D4B302000B4991F81D
:109E140016335A09EC231341DB0706D5084B9A681D
:109E24003AB94FF480030B60704742F20200FDF729
:109E3400A3B81A6842F480021A60704700E100E097
:109E440018340020F7B5194F3C7864BB184E01252F
:109E540020463570FFF7AEFF112821D02046FFF7CA
:109E6400C1FF144B8DF80340186801900DF10300F5
:109E7400FDF772FB104901A8FFF799FF0446B0FAF9
:109E840080F0400938709DF80300FDF789FB3CB968
:109E94000A4B34701C70FFF7B9FF2846FFF7A2FF86
:109EA400204603B0F0BD0824FAE700BF613B002060
:109EB400603B0020B5B30200996F0200623B0020B2
:109EC400014B1878704700BF613B002007B5084973
:109ED4006846FDF7DEFE019B13B903B05DF804FB91
:109EE400D3E9002090476846FDF7DDFEF3E700BFA5
:109EF400C8B30200FFF7EABF60DF704769DF70474D
:109F040061DF704730B5134DADF5017D4FF4FA7440
:109F14000DF1020103A8ADF80240FFF7F1FF70B99B
:109F2400294601A8FDF7B5FE029B002BF0D003A83B
:109F3400D3E90021904701A8FDF7B5FEF4E7052811
:109F440005D00DF5017DBDE83040FDF715B80DF5E0
:109F5400017D30BD5CB60200024B1B780BB1FFF7EC
:109F6400D1BF7047633B002030B5054685B00C4631
:109F7400002900F0A5800023CDE90133514A039361
:109F840001230A608DF804008DF8063001A9062328
:109F94002020ADF80830FFF7B1FF60B1FDF7AEFE49
:109FA400494B4A4902464A481B1ADB081B0443F042
:109FB4000100FCF735FD0023CDE90133039322684A
:109FC40040F2011301A94020ADF80630FFF796FFD7
:109FD40060B1FDF793FE3C4B3E4902463C481B1AD8
:109FE400DB081B0443F00100FCF71AFD0023CDE954
:109FF4000133039322688DF80450F72301A9232029
:10A00400ADF80630FFF77AFF60B1FDF777FE2E4B0F
:10A01400314902462E481B1ADB081B0443F0010099
:10A02400FCF7FEFC002301202268039301A9CDE97B
:10A0340001338DF80400FFF761FF60B1FDF75EFEA8
:10A04400214B2649024622481B1ADB081B0443F015
:10A054000100FCF7E5FC0023CDE9023322684FF44C
:10A06400B06301A9A1200193FFF748FF60B1FDF798
:10A0740045FE154B1A49024615481B1ADB081B04FA
:10A0840043F00100FCF7CCFC00252268039501A9EC
:10A09400A020CDE90155FFF731FF034668B1FDF774
:10A0A4002DFE094B0F49024609481B1ADB081B0405
:10A0B40043F00100FCF7B4FC2B46184605B030BD54
:10A0C4000E23FAE7E02900206CA70200E0B30200A7
:10A0D40004A7020026B4020072B40200B9B402005C
:10A0E40005B5020056B5020073B505460668FFF7CC
:10A0F40003FF2B68B34204461DD91A481A4B1B4967
:10A104001B1ADB081B0443F002000190FCF784FCDB
:10A114002B68174901983246FCF78BFC4FF08053AB
:10A124002A68D3F80C31134901989B0203F10053B8
:10A134009A1AFCF775FC2CB90F4B01221A702046B1
:10A1440002B070BD2046FDF7D9FD074B0B4902460E
:10A1540004481B1ADB081B0443F00100FCF760FCF5
:10A16400EDE700BF04A702006CA70200A9B5020036
:10A17400D8B5020009B60200633B002033B60200E2
:10A184004BDF70471FB50E4C01A8FFF7F9FF70B9FC
:10A19400214602A8FDF77DFD039B002BF4D0019816
:10A1A400D3E90021904702A8FDF77DFDF4E70528D7
:10A1B40004D004B0BDE81040FCF7DEBE04B010BD0E
:10A1C40074B6020070B5164B86B0044601AA03F1BA
:10A1D400100618685968154603C50833B3422A4661
:10A1E400F7D11B782B700F4B30221A7078225A70DB
:10A1F400A11D11F8012D06A800EB12128C4212F8D1
:10A20400142C9A700A7802F00F02024403F102033C
:10A2140012F8142C5A70ECD1024806B070BD00BF7D
:10A2240080B60200A53B0020F0B5194B87B002466A
:10A234000C4601AD03F11007186859682E4603C691
:10A244000833BB423546F7D11B783370114B3021AC
:10A25400197078215970E5B2501E19462DB90D4870
:10A26400013401F8145007B0F0BD10F8012F06AE08
:10A2740006EB1212013D12F8142C9A70027802F0C7
:10A284000F023244EDB212F8142CDA700233E5E70F
:10A2940080B60200643B0020A1DF7047A3DF704753
:10A2A40030B5044685B00D4671B168B10388362BCC
:10A2B4000CD0382B24D0112B06D182880B889A42DB
:10A2C40002D14FF6FF730B6005B030BD1348144B39
:10A2D40014491B1ADB081B0443F003000390FCF72A
:10A2E4009BFB2A88A38803989A42EDD1E37C0193CF
:10A2F400A37C0093227C637C0B49FCF7A4FBE3E77B
:10A30400064B07480949C01AC008000440F003007E
:10A3140005B0BDE83040FCF77FBB00BF04A70200D6
:10A3240054A7020091B60200A3B60200C3B602000D
:10A334001FB528B3042A0CD9134B14481449C01A66
:10A34400C008000440F00200FCF766FB072004B0DC
:10A3540010BD03884FF6FF74A34213D04088ADF8B4
:10A364000600002040F20114ADF8080003911846DD
:10A3740001A9ADF80440ADF80A20FFF78FFFE6E726
:10A384000E20E4E70820E2E704A7020054A7020035
:10A39400D6B6020020B1418800880022FFF77CBFB6
:10A3A4000E20704753EA020C61D02DE9F04BB3FA4A
:10A3B40083F51E0007BFB2FA82F502FA05F403FA28
:10A3C40005F41646C5F120051EBF22FA05F73C43E5
:10A3D400203556EA044C4FEA144418BF0134A3460E
:10A3E4004FF00009C846904271EB030C39D309427F
:10A3F40007BFB0FA80F700FA07F6B1FA81F701FA5D
:10A4040007F6C7F120071EBF20FA07FC46EA0C0630
:10A414002037B6FBFBFC7F1B103F07F01F04C4F181
:10A4240020060CFA04F42CFA06F644BF344600263F
:10A43400202FA4BF2646002454EA060C08BF01249A
:10A4440018EB040849EB0609A4FB027CC01B06FBBD
:10A4540002CC04FB03CC71EB0C01904271EB030CB6
:10A46400C5D20B46024649464046BDE8F08BB2FBD6
:10A47400F3F200007F2805D8034B185C034B5B5CA8
:10A48400184070470020704708B7020088B70200E0
:10A49400A0F16103192B98BF20387047A0F1410344
:10A4A400192B98BF203070477F2805D8034B185CC0
:10A4B400034B5B5C184070470020704708B70200EC
:10A4C40088B70200A0F16103192B98BF20387047A8
:10A4D400A0F14103192B98BF203070477F299ABF00
:10A4E400017001206FF02E0070475AB10A787F2A5C
:10A4F4000AD800B10260002119605960501A18BFCF
:10A5040001207047002070476FF02E007047000054
:10A5140008B5034B5B689B681B68984708BD00BF80
:10A52400D02C002008B50921FFF7F2FF08BD9AB32B
:10A5340030B594460F2A18D902460B4640EA010466
:10A5440014F0030F02D00CF1FF3C11E01946104641
:10A55400043204330C680568A54206D11046194636
:10A56400ACF1040CBCF1040FF0D8BCF1010C0FD019
:10A574000A460346844411461846013301320478DE
:10A5840091F800E0744503D1184611466345F2D1B1
:10A5940000780B78C01A30BD00207047844640EA2A
:10A5A400010313F0030F18D18446202A0BD32DE99D
:10A5B400F007B1E8F807A0E8F807A2F12002202A82
:10A5C400F7D2BDE8F007042A07D351F8043B40F85A
:10A5D400043BA2F10402042AF7D2002A05D011F8A0
:10A5E400013B00F8013B013AF9D1604670478446CB
:10A5F400002A2DD010F0030F04D000F8011B013AFB
:10A6040026D0F7E7C9B241EA012141EA0141202AF3
:10A6140012D3A2F120022DE9F0030B460C460D469D
:10A624000E460F4688468946A0E8FA03203AFBD234
:10A63400BDE8F00320320BD0042A05D340F8041BF4
:10A64400043A05D0042AF9D200F8011B013AFBD1DF
:10A6540060467047024610F0030F16D111F0030F45
:10A6640013D12DE9F0004FF001374FF0803351F84A
:10A67400044BA4EB070525EA04051D4002D142F86A
:10A68400044BF4E7A1F10401F0BC11F8013B02F81A
:10A69400013B002BF9D1704700F1010110F0030FC9
:10A6A40011D010F8012B002A23D010F0030F0AD088
:10A6B40010F8012B002A1CD010F0030F03D010F85F
:10A6C400012B002A15D02DE970004FF001324FF014
:10A6D400803350F8044BA4EB020525EA04051D4021
:10A6E40000D1F6E7A0F1040070BC10F8012B002A99
:08A6F400FBD1A0EB010070474F
:08A6FC002181020000000000B2
:10A704004EAE02000000000054AE02000000000043
:10A714005BAE0200000000005FAE0200000000001B
:10A7240064AE02000000000025A80200000003033C
:10A734001EB2020000000303A3B3020000000303DF
:10A744009AB302000000030348AE020000000000B8
:10A75400E8B602000000030369B30200000003032B
:10A76400ADB302000000030350B60200000003036F
:10A7740068B602000000030336A9020000000000CE
:10A78400282D0020F02D0020F82D0020302D002051
:04A7940018000000A9
:08A79800A18102000000000095
:10A7A0005D9F02000000000089A10200000000007F
:10A7B000C58A02000000000079950200F6290020F9
:10A7C000E99802004C350020159C020060350020FD
:10A7D000A5A2020040350020D18B0200000000003D
:10A7E000F8A702000000000004A80200E0290020F1
:10A7F0000338FDD870470000D963020045640200A9
:10A80000D56302007274745F6C6F675F6261636B23
:10A81000656E64004261636B656E647320666C757F
:10A820007368656400617070000000001C320020D5
:10A830007F0000009C3200201B5B313B33316D00F8
:10A8400025734C6F67732064726F70706564202885
:10A8500025642925730D0A001B5B306D003C2573B0
:10A860003E2025733A200020253032780020202019
:10A87000007C002563001B5B313B33306D001B5BAC
:10A88000313B33326D001B5B313B33336D001B5B5F
:10A89000313B33346D001B5B313B33356D001B5B4B
:10A8A000313B33366D001B5B313B33376D007761D5
:10A8B000726E696E6700696E666F006465627567C7
:10A8C0000000000058A8020076A8020038A8020084
:10A8D0007EA8020086A802008EA8020096A80200A8
:10A8E0009EA80200A6A802000000000006A902001F
:10A8F000AEA80200B6A80200BBA80200BC3200202D
:10A90000466174616C206572726F72005379737462
:10A91000656D207265736574000000000000000022
:10A920000338FDD870473031323334353637383953
:10A930004142434445467077725F6D676D74000015
:10A9400004A7020004A70200040000004E52465F64
:10A9500053554343455353004E52465F4552524F61
:10A96000525F5356435F48414E444C45525F4D49F8
:10A970005353494E47004E52465F4552524F525F25
:10A98000534F46544445564943455F4E4F545F45E7
:10A990004E41424C4544004E52465F4552524F5242
:10A9A0005F494E5445524E414C004E52465F45520F
:10A9B000524F525F4E4F5F4D454D004E52465F45E0
:10A9C00052524F525F4E4F545F464F554E44004EC9
:10A9D00052465F4552524F525F4E4F545F5355504F
:10A9E000504F52544544004E52465F4552524F52CA
:10A9F0005F494E56414C49445F504152414D004ED3
:10AA000052465F4552524F525F494E56414C49445F
:10AA10005F5354415445004E52465F4552524F5287
:10AA20005F494E56414C49445F4C454E475448009F
:10AA30004E52465F4552524F525F494E56414C4925
:10AA4000445F464C414753004E52465F4552524F79
:10AA5000525F494E56414C49445F44415441004E77
:10AA600052465F4552524F525F444154415F5349F1
:10AA70005A45004E52465F4552524F525F54494D1F
:10AA8000454F5554004E52465F4552524F525F4E0D
:10AA9000554C4C004E52465F4552524F525F464F06
:10AAA0005242494444454E004E52465F4552524F31
:10AAB000525F494E56414C49445F41444452004E16
:10AAC00052465F4552524F525F42555359004E52C3
:10AAD000465F4552524F525F434F4E4E5F434F5574
:10AAE0004E54004E52465F4552524F525F524553AC
:10AAF0004F5552434553004E52465F4552524F52B6
:10AB00005F4D4F44554C455F4E4F545F494E49543D
:10AB100049414C495A4544004E52465F4552524FB6
:10AB2000525F4D555445585F494E49545F4641491F
:10AB30004C4544004E52465F4552524F525F4D5570
:10AB40005445585F4C4F434B5F4641494C45440088
:10AB50004E52465F4552524F525F4D555445585FD5
:10AB6000554E4C4F434B5F4641494C4544004E5275
:10AB7000465F4552524F525F4D555445585F434FC3
:10AB80004E445F494E49545F4641494C4544004E4E
:10AB900052465F4552524F525F4D4F44554C455FB0
:10ABA000414C52454144595F494E495449414C49F1
:10ABB0005A4544004E52465F4552524F525F5354DD
:10ABC0004F524147455F46554C4C004E52465F45FB
:10ABD00052524F525F4150495F4E4F545F494D5062
:10ABE0004C454D454E544544004E52465F455252E9
:10ABF0004F525F464541545552455F4E4F545F4555
:10AC00004E41424C4544004E52465F4552524F52CF
:10AC10005F494F5F50454E44494E47004E52465F94
:10AC20004552524F525F4452565F5457495F455206
:10AC3000525F4F56455252554E004E52465F455256
:10AC4000524F525F4452565F5457495F4552525FCC
:10AC5000414E41434B004E52465F4552524F525F68
:10AC60004452565F5457495F4552525F444E4143E8
:10AC70004B004E52465F4552524F525F424C455F29
:10AC8000495053505F52585F504B545F5452554E89
:10AC90004341544544004E52465F4552524F525F25
:10ACA000424C455F495053505F4348414E4E454CDE
:10ACB0005F414C52454144595F45584953545300F4
:10ACC0004E52465F4552524F525F424C455F49508B
:10ACD00053505F4C494E4B5F444953434F4E4E4592
:10ACE00043544544004E52465F4552524F525F42D4
:10ACF0004C455F495053505F504545525F52454A5D
:10AD0000454354454400556E6B6E6F776E206572F7
:10AD1000726F7220636F6465000000000000000025
:10AD20004CA902000100000058A902000200000026
:10AD300076A902000300000097A9020004000000A9
:10AD4000AAA9020005000000BBA90200060000003D
:10AD5000CFA9020007000000E7A9020008000000D8
:10AD6000FFA902000900000017AA02000A00000063
:10AD700030AA02000B00000048AA02000C000000EC
:10AD80005FAA02000D00000073AA02000E0000007E
:10AD900085AA02000F00000094AA02001000000023
:10ADA000A8AA020011000000BFAA020012000000C1
:10ADB000CEAA020013000000E3AA020080000000F7
:10ADC000F7AA02008100000018AB02008200000018
:10ADD00034AB02008300000050AB0200840000008E
:10ADE0006EAB0200850000008FAB02008600000001
:10ADF000B4AB020090000000CBAB02009100000059
:10AE0000E9AB02009200000007AC020000820000E3
:10AE10001CAC0200018200003AAC02000282000079
:10AE200056AC02000084000072AC020001840000F5
:10AE300096AC020002840000C0AC02000384000053
:10AE4000E5AC020011121314636C6F636B00434C8A
:10AE50004F434B004750494F544500505253005503
:10AE60004152540055415254450000000D0003006A
:10AE7000A98602000E000300A98602000F0003004D
:10AE8000A986020010000300A9860200B834002041
:10AE9000D8340020F834002067617474632077721E
:10AEA00069746520646174612E0067617474632045
:10AEB00073656E64207265616420646174612072E0
:10AEC0006571756573742E00436F6E6E656374658E
:10AED000642E20636F6E6E5F446576416464723ADF
:10AEE0002025730A436F6E6E65637465642E20635C
:10AEF0006F6E6E5F68616E646C653A2030782530E5
:10AF000034780A436F6E6E65637465642E20636FD8
:10AF10006E6E5F506172616D3A2025642C25642C41
:10AF200025642C256400446973636F6E6E656374D9
:10AF300065642E20636F6E6E5F68616E646C653A47
:10AF400020307825782C20726561736F6E3A20303E
:10AF5000782530347800636F6E6E5F506172616D7A
:10AF60002055706461746520205265717565737435
:10AF700000636F6E6E5F506172616D205570646129
:10AF800074653A2025642C25642C25642C256400E6
:10AF90005375636365737366756C6C792073657440
:10AFA0002077686974656C69737421007363616EDE
:10AFB00020646174613A20202573004E4F4E450095
:10AFC000727373693A2020256464426D006164766F
:10AFD00020646174613A2020257300404040404065
:10AFE000404040404040402D2D2D2D2D2D2D2D2D0C
:10AFF0002D2D2D2D2D2D2D2D2D2D2D2D2D2D2D2D81
:10B000002D204556454E54202D2D2D2D2D2D2D2DE9
:10B010002D2D2D2D2D2D2D2D2D2D2D2D2D2D2D2D60
:10B020002D2D2D2D2D2D00404040404040404040D2
:10B030004040405363616E52737020446174613AC2
:10B040002573004040404040404040404040404424
:10B05000657669636520525353493A2025646442FA
:10B060006D004040404040404040404040404465CA
:10B0700076696365204D41433A20202573004040A6
:10B080004040404040404040404041647620446160
:10B0900074613A2020202025730040404040404009
:10B0A00040404040404041647620446174613A2011
:10B0B000202573005343414E20434F4E4E45435489
:10B0C000454421005343414E20434F4E4E45435487
:10B0D000494E47204552524F522100446973636FD5
:10B0E0006E6E65637465642E20726561736F6E3A6F
:10B0F000203078253034780044617461206C656EAE
:10B100002069732073657420746F20307825582867
:10B11000256429001B5B33326D205465787420430D
:10B120006F6C6F723A20477265656E0D0A00312EA2
:10B13000325F626C655F63656E7472616C5F7363CE
:10B14000616E5F616C6C2069732072756E6E696EE2
:10B15000672E2E2E007363616E20696E6974007312
:10B1600063616E207374617274005465726D696EF0
:10B17000616C0052545400534547474552004E6F8E
:10B180007420656E6F7567682073706163652066F3
:10B190006F72206368617261637465726973746948
:10B1A0006373206173736F63696174656420776989
:10B1B0007468207365727669636520307825303451
:10B1C00058202100496E63726561736520424C45C9
:10B1D0005F474154545F44425F4D41585F4348418B
:10B1E000525320746F2062652061626C6520746F19
:10B1F0002073746F7265206D6F7265206368617271
:10B20000616374657269737469637320666F722019
:10B210006561636820736572766963652100626C9D
:10B22000655F64625F646973630073645F626C6529
:10B230005F6761705F646174615F6C656E6774689D
:10B240005F75706461746528292028726571756561
:10B25000737429206F6E20636F6E6E656374696FFF
:10B260006E20307825782072657475726E65642062
:10B2700025732E0054686520726571756573746559
:10B28000642054582F5258207061636B6574206C91
:10B29000656E67746820697320746F6F206C6F6EC1
:10B2A000672062792025752F2575206F637465747A
:10B2B000732E0054686520726571756573746564DA
:10B2C00020636F6D62696E6174696F6E206F6620B6
:10B2D000545820616E64205258207061636B65740D
:10B2E000206C656E6774687320697320746F6F20BB
:10B2F0006C6F6E67206279202575206D6963726FAF
:10B300007365636F6E64732E0073645F626C655F58
:10B3100067617474635F65786368616E67655F6DAC
:10B3200074755F7265717565737428292072657410
:10B3300075726E65642025732E0073645F626C65A0
:10B340005F67617474735F65786368616E67655F7A
:10B350006D74755F7265706C7928292072657475DB
:10B36000726E65642025732E006E72665F626C6576
:10B370005F676174740073645F626C655F676170BE
:10B380005F7363616E5F737461727420726574754C
:10B39000726E6564203078257800626C655F736337
:10B3A000616E00626C655F6E75735F63006E7266DE
:10B3B0005F736468000100000700000098A70200A6
:10B3C00098A7020008000000A0A70200B0A7020092
:10B3D0000800000098A70200A0A7020008000000D3
:10B3E00073645F626C655F6366675F736574282969
:10B3F0002072657475726E656420257320776865A8
:10B400006E20617474656D7074696E6720746F204E
:10B4100073657420424C455F434F4E4E5F43464731
:10B420005F4741502E0073645F626C655F636667BF
:10B430005F73657428292072657475726E65642067
:10B440002573207768656E20617474656D7074690A
:10B450006E6720746F2073657420424C455F4741CE
:10B46000505F4346475F524F4C455F434F554E54E4
:10B470002E0073645F626C655F6366675F736574FB
:10B4800028292072657475726E6564202573207793
:10B4900068656E20617474656D7074696E67207480
:10B4A0006F2073657420424C455F434F4E4E5F439F
:10B4B00046475F474154542E0073645F626C655F7A
:10B4C0006366675F73657428292072657475726E90
:10B4D0006564202573207768656E20617474656DDE
:10B4E0007074696E6720746F2073657420424C45D8
:10B4F0005F434F4D4D4F4E5F4346475F56535F5539
:10B500005549442E0073645F626C655F6366675FD4
:10B5100073657428292072657475726E65642025C0
:10B5200073207768656E20617474656D7074696EE0
:10B530006720746F2073657420424C455F47415407
:10B5400054535F4346475F415454525F5441425FF6
:10B5500053495A452E0073645F626C655F6366678A
:10B560005F73657428292072657475726E65642036
:10B570002573207768656E20617474656D707469D9
:10B580006E6720746F2073657420424C455F47419D
:10B590005454535F4346475F534552564943455FB2
:10B5A0004348414E4745442E00496E7375666669AF
:10B5B0006369656E742052414D20616C6C6F6361EC
:10B5C00074656420666F722074686520536F6674BA
:10B5D0004465766963652E004368616E6765207413
:10B5E00068652052414D207374617274206C6F63E2
:10B5F0006174696F6E2066726F6D203078257820D7
:10B60000746F20307825782E004D6178696D756DE6
:10B610002052414D2073697A6520666F72206170F7
:10B62000706C69636174696F6E206973203078256E
:10B63000782E0073645F626C655F656E61626C6535
:10B6400028292072657475726E65642025732E003A
:10B650006E72665F7364685F626C6500B0A702001B
:10B66000E0A70200080000006E72665F7364685F06
:10B67000736F6300FCA6020004A70200080000002C
:10B680003031323334353637383941424344454618
:10B690000072637620726561642072737020657633
:10B6A000742E0052656369766520446174613A25A1
:10B6B0003032582C253032582C253032582C253039
:10B6C00032580072637620777269746520727370E5
:10B6D000206576742E00436F6E74656E7420746FEF
:10B6E0006F206C6F6E672E0067795F70726F66698E
:10B6F0006C655F6C65645F630000000043000000E0
:10B70000504F5349580000002020202020202020A6
:10B7100020682828282820202020202020202020C1
:10B720002020202020202020481010101010101061
:10B730001010101010101010848484848484848469
:10B74000848410101010101010818181818181017A
:10B7500001010101010101010101010101010101D9
:10B760000101011010101010108282828282820268
:10B7700002020202020202020202020202020202A9
:10B78000020202101010102000070320041702010B
:10B790000857104080000000FCB6020000B802000C
:10B7A00014B9020053756E004D6F6E00547565003C
:10B7B00057656400546875004672690053617400EF
:10B7C000000000004A616E00466562004D61720033
:10B7D000417072004D6179004A756E004A756C00C7
:10B7E00041756700536570004F6374004E6F7600BB
:10B7F0004465630000000000414D00504D00000012
:10B8000038B9020034B9020034B9020034B9020078
:10B8100034B9020034B9020034B9020034B902006C
:10B8200034B9020034B90200FFFFFFFFFFFFFFFF42
:10B83000FFFFFFFFFFFF000074B80200A4B7020083
:10B84000B0B80200C4B70200F8B7020058B802004E
:10B8500008B9020064B80200256D2F25642F2579F0
:10B860000000000025612025622025652025542048
:10B870002559000053756E646179004D6F6E6461E7
:10B88000790054756573646179005765646E6573FA
:10B8900064617900546875727364617900467269F5
:10B8A000646179005361747572646179000000000D
:10B8B0004A616E756172790046656272756172796E
:10B8C000004D6172636800417072696C004D61796E
:10B8D000004A756E65004A756C790041756775732D
:10B8E000740053657074656D626572004F63746FA8
:10B8F000626572004E6F76656D62657200446563C5
:10B90000656D62657200000025483A254D3A255361
:10B910000000000079A4020095A40200A1A4020086
:10B92000ADA40200C9A40200D5A40200E1A4020053
:0AB93000EFA40200000000002E004A
:10B93C0000000000FF0000000090D003FFFF060095
:10B94C001800000090010000000000000000000042
:10B95C0000000000000000000000000000000000DB
:10B96C0000000000000000000000000000000000CB
:10B97C0000000000000000000000000000000000BB
:10B98C0000000000000000000000000000000000AB
:10BC1C00FFFF0402A0005000FFFF00000000000026
:10BC2C0098B7020098B7020098B7020098B70200C4
:04BC3C0098B70200B3
:040000032000637501
:00000001FF
