:1000000000000120750300005D0300005F03000095
:1000100061030000630300006503000000000000AE
:100020000000000000000000000000006703000066
:1000300069030000000000006B0300006D03000076
:10004000B95200006F030000095500007958000004
:10005000655E00006F0300008D5300006F03000019
:100060006F0300006F0300006F0300006F030000C8
:100070006F0300006F0300006F0300006F030000B8
:100080006F0300000D1600006F0300006F030000F7
:10009000A91600006F0300006F0300006F0300004B
:1000A0006F0300006F0300006F0300006F03000088
:1000B0006F0300006F03000000000000000000005C
:1000C0006F0300006F0300006F0300006F03000068
:1000D0006F0300006F0300006F03000000000000CA
:1000E0000000000000000000000000000000000010
:1000F0000000000000000000000000000000000000
:1001000000000000000000000000000000000000EF
:1001100000000000000000000000000000000000DF
:1001200000000000000000000000000000000000CF
:1001300000000000000000000000000000000000BF
:1001400000000000000000000000000000000000AF
:10015000000000000000000000000000000000009F
:10016000000000000000000000000000000000008F
:10017000000000000000000000000000000000007F
:10018000000000000000000000000000000000006F
:10019000000000000000000000000000000000005F
:1001A000000000000000000000000000000000004F
:1001B000000000000000000000000000000000003F
:1001C000000000000000000000000000000000002F
:1001D000000000000000000000000000000000001F
:1001E000000000000000000000000000000000000F
:1001F00000000000000000000000000000000000FF
:10020000354936480A1A02D0072291438D463449AF
:1002100034480A1A06D00722914381F30988022242
:1002200082F3148830483149314A00F044F83148AB
:100230003149324A00F03FF831483249324A00F041
:100240003AF832483249334A00F035F832483349F7
:10025000334A00F030F833483349344A00F02BF881
:1002600033483449344A00F026F8344834490022EF
:1002700000F02CF833483449002200F027F83348C6
:100280003349091A082902DB002202604160314A21
:1002900090471F481F49884205D00268043003B4C4
:1002A000904703BCF7E700208646EC46002000217B
:1002B000294A9047FEE7884207D0521A05D00378B2
:1002C00001300B700131013AF9D17047884202D0F8
:1002D00002700130FAE770470000012000E00020C2
:1002E0000000012000000120C497000090000020C1
:1002F000F0000020D4030000D4030000E67A0000E0
:10030000C497000090000020900000209C7C00001A
:100310009C7C00009C7C00009C7C00009C7C00007D
:100320009C7C00009C7C00009C7C0000C29700002C
:1003300024980000F0000020F0000020F0000020D1
:10034000F40E0020F40E0020F40E0020F40E002025
:10035000F42E00209D03000005720000FEE7FEE77A
:10036000FEE7FEE7FEE7FEE7FEE7FEE7FEE7FEE765
:10037000704700BF1048804710484FF0070188437E
:1003800085460F4880470F48016841F470010160BD
:10039000BFF34F8FBFF36F8FFFF732BF0A480B4990
:1003A0000B4A884207D0521A05D0037801300B70EF
:1003B0000131013AF9D170477103000000000120BA
:1003C0008573000088ED00E00C7C00000000002038
:0403D0009000002079
:1003D400F0B595B01D46164608460C4604F03DFAA5
:1003E4001A9B0D93CDE9086500252B46082205A923
:1003F40020460A958DF82C500C9504F055FA079B6D
:100404000293069B03939DF814308DF8115003F06A
:100414000302012A1DD1BDF81420059DC3F3C203B4
:10042400C2F383168DF81030B20008230EA92046BB
:1004340004F03AFAC5F3952508AB0093324602ABB3
:100444000EA9284600F000FF204604F00AFA15B071
:10045400F0BD022AF8D1BDF81650C3F3C203C5F3A8
:1004640089158DF810300827082D2E4628BF082638
:100474003B4632460EA9204604F016FAAD1B08ABE3
:1004840002AA31460EA8374400F042FF002DEBD1FA
:10049400DAE70000014B01221A7070473101002095
:1004A4007047000070B50E4D06460FCD88B06C46FF
:1004B4000FC495E80F00002E84E80F00094A0A488B
:1004C4004FF0060308BF00226946009304F04AFE79
:1004D40008B100F0E3FF054B1E7008B070BD00BF0B
:1004E4009C7C00009904000090000020F000002093
:1004F40007B5044B0093044A4023FFF769FF03B098
:100504005DF804FB11050000F100002038B50D482A
:100514000D4C0E4D002323700378EB5CD2B263B113
:10052400043006F041FB08B100F0B8FF084B1A781C
:1005340012B12378002BFBD038BD0C3006F030F814
:10054400F1E700BF900000203101002014080020D2
:10055400F000002008B50848084A0378D35C3BB192
:10056400043006F0BFFABDE808400020FFF79ABF48
:100574000C3005F0B3FFF6E79000002014080020CB
:1005840000230428CB604B6098BF044B044A98BFF7
:1005940053F820308A600B60704700BF5C81000014
:1005A40038810000CB6800225A717047C368DB6849
:1005B40000225A717047CB6801225A717047C36890
:1005C400DB6801225A7170470D4A8A6070B50D4A82
:1005D4000D4C0023121BCB604B600B6012091D46AF
:1005E4009A4207D0E6683679FF2E05D0854202D1BB
:1005F400A3680B6070BD013501331034F0E700BF10
:1006040070810000D47B0000B47B00002DE9F34727
:100614008368D3F84831C3F340059B07074606D5E2
:100624000022114602B0BDE8F04703F061B9144E50
:10063400144CDFF85880DFF85890DFF858A0A41B5A
:100644002409A54202D102B0BDE8F087F168B3687D
:100654000A79FF2A07D10C4A0821384602F0A6F885
:1006640001351036EDE74879002814BF4146494664
:10067400CDE9001238465246082102F097F8EFE718
:10068400B47B0000D47B0000D97C0000C87C00004F
:10069400D07C0000F87C00002DE9F74F154D164C76
:1006A4009946641B52F8043C0646884617462409BA
:1006B4004FF0000B5C4507D1104A0221304603B0CD
:1006C400BDE8F04F02F072B8A9680193184607F02C
:1006D400B1F9AA46019B103540B93B464246514602
:1006E4003046CC4603B0BDE8F04F60470BF1010B38
:1006F400E0E700BFB47B0000D47B0000197D00005C
:10070400014BFFF7C9BF00BF1D0B0000014BFFF7F2
:10071400C3BF00BFA9050000014BFFF7BDBF00BF69
:10072400BB050000014BFFF7B7BF00BFF90B00008A
:10073400037813F0040216D003F00303012B03D053
:10074400022B09D0012070470A6800880232C0F3E6
:10075400831002440A60F5E70B684288023303EB16
:1007640092130B60EEE71046704700002DE9F04F3E
:10077400DFF838A10F4687B00446861C00201546D2
:1007840001F0A0F9DAF800103960DAE90132134413
:1007940001335B1A0AF21C470AF583690AF214480A
:1007A400B3421BD30020002D7AD004F00F039B0129
:1007B40043F0050363F30F00DAF80020DAF8083099
:1007C4001340033332444AF823000020CAF80020BF
:1007D40001F088F9012007B0BDE8F08F0121384607
:1007E40001F0D8F9484601F0F0F9404601F0EDF97E
:1007F400DAF80400DAF808B0029000EA0B000330DB
:100804000AEB800002A9FFF793FF029B0246F8B9A6
:100814000BEA03010AEB810103F1020CC86803909F
:10082400013303EA0B0B0AEB8B0B00F003000128E6
:10083400DBF80C10CDF808C02AD002280BD01A49D6
:1008440001924FF4BF7001F05DF9019A93460CE0F8
:100854000BEA0300D3E7BDF80E30C3F38913033367
:100864004FEA114B0CEB93030293404601F0B0F9AD
:1008740010B1029BCAF804305946384601F08AF98F
:10088400DAE901231344DAF8002001339B1A87E7DD
:10089400BDF80C30C3F383134FEA114B6344E3E711
:1008A400A40544F0060087E72F7D00000402002021
:1008B400012907B5034604D08168D1F84811890796
:1008C40007D500221146184603B05DF804EB03F087
:1008D4000FB853680193054B00931368044A02212F
:1008E40001F064FF03B05DF804FB00BF867D0000E7
:1008F4007C7D00008368D3F848319B0703D5002230
:10090400114602F0F5BF024A022101F04FBF00BFB9
:100914009B7D0000FFF7EEBF30B599B10A4B0B4A3F
:100924000B49D21AD20800239A4201D1052006E0CD
:1009340031F823500468A54202D10360002030BD81
:100944000133F1E70846FAE7447B0000B47B00007A
:10095400200000202DE9F84F234B2448FF229A6001
:100964000022C3F81824C3E90022C3F8142483F82E
:10097400202403F02BFF814690BB1D48DFF88080C4
:100984001C4CDFF880A004F029F9A4EB0804E40867
:100994004D46A54208D10023174A19469C421AD055
:1009A40022F823100133F9E700273E4608EBC50B74
:1009B400B54209D058F83610DBF80000142206F0CE
:1009C4009DFF0028C8BF01370136B442F0D12AF890
:1009D40025700135DDE70948A200002106F0D5FFA6
:1009E4004846BDE8F88F00BF04020020D47B000015
:1009F4002C810000B47B000022000020580000205D
:100A0400447B00002000002007B5019001A8FFF7F7
:100A140083FF30B9019A044B53F8320003B05DF8F8
:100A240004FB0020FAE700BF447B0000002310B55C
:100A3400CB604B60034B8B600C460121FFF7E4FF56
:100A4400206010BD38810000094B013903EBC00060
:100A5400032909D8DFE801F00A02040604207047DC
:100A64000079704740797047002070470220704732
:100A7400447B000030B5124C00EB400054F8215088
:100A840002FA00F3072202FA00F06B400D4A034019
:100A94006B40C3F3821044F8213002EB8101C3F3AD
:100AA400C202824238BF0246C3F34220824203F0AC
:100AB400070338BF0246934238BF13464B8030BD0C
:100AC400580000202000002013B50446019101A81D
:100AD400114693B1FFF720FF10B1002002B010BD02
:100AE40001990B4A04EB440052F821200723834068
:100AF400134023FA00F0C0B2F0E7FFF70DFF00281F
:100B0400EBD1019A034B03EBC2039879E6E700BFEC
:100B140058000020447B0000294B2A4A2DE9F04F5D
:100B24009B1A4FEAD30ACB685B7985B005460E461B
:100B34001BB9254A022101F039FE244B244ADFF86F
:100B4400A4800821284601F031FE224A08212846C3
:100B540001F02CFE0024544502D105B0BDE8F08F0D
:100B6400F36893F8049001231A4621464846FFF798
:100B7400ABFF00230746012221464846FFF7A4FFA6
:100B84000121032881468346204628BF4FF00309EC
:100B9400FFF73AFF5FFA89F90F4A58F8291003461C
:100BA40058F827000D4F0090CB4598BF1746CDE964
:100BB40001170B4A0821284601F0F8FD0134CAE761
:100BC400B47B0000447B0000AE7D0000C17D0000CA
:100BD400CD7D0000EB7D000002860000AC7D0000AE
:100BE400287E00004881000013460A46C168FFF7CA
:100BF40093BF00002DE9F04F2DED028B054683B025
:100C04009B461646002A5DD0DBF80070CB68554938
:100C140093F804A0384606F00DFF0446F0B9012EFF
:100C240009D1514A0221284603B0BDEC028BBDE82C
:100C3400F04F01F0BBBDDBF804304C4F57F8041BF8
:100C440000930A22184606F059FE002800F083801B
:100C54000134052C009BF1D1454A15E0454938463D
:100C640006F0E8FE044668B9012E36D04FF00108BC
:100C7400414B424AA3EB02094FEAD9030093DFF840
:100C840008914FE03E4A3B460221284603B0BDECA2
:100C9400028BBDE8F04F01F089BD00231A463146AE
:100CA4005046FFF711FFA04211D200213046FFF752
:100CB400ABFE424603460221284601F077FD013689
:100CC400BE42EAD103B0BDEC028BBDE8F08F2246F0
:100CD40031465046FFF7CEFEF1E7274F274BDFF8AA
:100CE400A480FF1AFF080026EAE700213846FFF730
:100CF4008BFE18EE101A202206F000FE034608B1FF
:100D0400013716E00246019039465046FFF7DCFEF3
:100D1400A042019B18D3224639465046FFF7AAFE4B
:100D240008F10108B045CDD25BF8283008EE103A3E
:100D34000027009BBB42D8D15BF828304A460221E9
:100D4400284601F033FDEBE719463846FFF75CFE11
:100D54000C4A0346F3E7022EE4B2BED04FF0020879
:100D640086E700BF3E7E0000457E0000488100000B
:100D7400B07E00005C7E0000B47B0000447B000079
:100D8400647E0000797E00009C7E000013460A46C3
:100D9400C168FFF72FBF0000034BD3E90030C31A2B
:100DA40058425841704700BF040200202DE9FF4714
:100DB400FFF7F2FF0646002840F01F81904CC4F86C
:100DC4001804BFF34F8F6368A56800932B40033367
:100DD40004EB83006946FFF7ABFC009B18B1D4F821
:100DE4001824002A6CD005EA0302991C013304EB91
:100DF40082022B4004EB8303D268DB68029302F087
:100E04000303022B019200916DD1BDF806307D4899
:100E14009DF80460C3F38918B8F1500FC14628BF88
:100E24004FF0500909F1080169F38F13C1F3090167
:100E3400ADF8063003F0E2FCC6F3C206074600280C
:100E440000F0C28003F009FD0023082201A93846FE
:100E540003F016FD009925EA01020132B9EB820F75
:100E64004FEA820338D95FFA89F98BB32940DDB29E
:100E7400A9EB050903315FFA89FAA946624D04EB2F
:100E8400810108234A46384603F0FAFC3DB109F1D2
:100E94000803DBB252462946384603F0F1FC009BB6
:100EA40008F1030803EB98030093D4F81834002BDB
:100EB40054D1D4F81054DFF864914FF0070872E06D
:100EC40022689A4282D86260304604B0BDE8F08756
:100ED4004D491D469A46D4E72940033108234A4622
:100EE40004EB8101D8E7012B6ED1BDF804604548BD
:100EF400C6F38311062928BF062161F3891602313E
:100F040001F00F018900ADF8046003F077FCC6F32B
:100F1400C2060746002857D003F09FFC002308228E
:100F240001A9384603F0ACFC4FF00008BDF80420DA
:100F3400C2F383124FEA8803904503F10803B4D245
:100F440000994A1C29400331009204EB81010422D8
:100F5400384603F095FC08F10108E7E7384603F04A
:100F640080FCFFF719FF80F00100C6B2ACE7EB6824
:100F74005A79B2B11B79BDF8081003EB430259F852
:100F8400211008FA02F3052E03EA010323FA02F3FF
:100F940008BF0326B34204D32B6839461B6828468E
:100FA4009847EB681D68002DE1D1384603F059FCE1
:100FB400284600F087FDD4F818340BB9009B636011
:100FC400002000F08FFDCCE7D4F8104474B90F4B27
:100FD4005B88012BC5D90E4B0E480F49C01AC008B7
:100FE400000440F0020000F077F8BAE723682046D6
:100FF4009B689847E3681C68E8E7002664E700BF3D
:1010040004020020D47B0000100200203C000020D9
:10101400447B00007C7B0000CD7E00005800002053
:101024002DE9F74F274E04460F46914601A90122A8
:101034001846D6F808A09846FFF798FB78B3019DA8
:101044000023A81C434503EB000132D11E480021B4
:1010540000F065FD80F3100B1C4B1D4A4FEA144948
:101064009B1AB9EBD30F04D31A4940F2A31000F032
:1010740049FD6B1C03EA0A03E40006EB830304F056
:10108400380449EA0B4005EA0A0544F00104D86033
:10109400033544EA881343EA872346F8253096F853
:1010A40020341BB1FFF782FE0028FBD103B0BDE85A
:1010B400F08F0AEA010106EB810159F82320CA6086
:1010C4000133BFE70402002020060020B47B0000A7
:1010D400447B00002F7D000000231A46FFF7A0BFC9
:1010E4002DE9F84388461B49D1F8103405460024FD
:1010F4001A468AB9EA681471A3B9C1F81054136086
:10110400154B164EF61AF608002703F10709B742E5
:101114000DD12046BDE8F883D2681079A04212D0E0
:101124001268E6E7DB68196811601D60E8E719F8E2
:101134003720EB6842453946187928BF4246FFF705
:1011440099FC0137E3E701340A2CD1D14FF0FF3485
:10115400DFE700BF04020020447B0000B47B0000F2
:1011640038B5084B0125D3F8104483F8205404B94A
:1011740038BDE3685D71236820465B689847E3687F
:101184001C68F4E70402002030B5C38885B0044627
:101194000D4633B1144A00921449154A284603F007
:1011A400BDF8217A05291DD0637A4BB1A088FFF7D9
:1011B4004BFC104B104953F82020284603F0AEF89E
:1011C400227A0E4BA08853F8222003920021FFF7C5
:1011D4001BFC039A0A490346284605B0BDE8304083
:1011E40003F09CB805B030BDD8820000C082000076
:1011F400B882000030830000B486000054830000ED
:10120400DD82000007B503460846197A052911D086
:101214005B7A2BB1094A0A49019003F07FF80198DF
:101224000849019003F07AF8019803B05DF804EBE3
:1012340003F062B8002AF8D0F2E700BFD8820000B9
:10124400B4860000DF8400002DE9F04385B01F461A
:101254000C9D002395F80C902B7306460C46904683
:1012640029463846FFF790FFB8F1060F09D8DFE8A2
:1012740008F00412181F283340003146284603F0B2
:101284004DF8002229463846FFF7BCFF85F80C903C
:1012940005B0BDE8F08322683146284603F03EF8E5
:1012A400EFE7D4E900233146284603F037F8E8E7AE
:1012B400A36800933146D4E90023284603F02EF8AE
:1012C400DFE7E3680193A36800933146D4E9002380
:1012D400284603F023F8D4E723690293E3680193D3
:1012E400A36800933146D4E90023284603F016F896
:1012F400C7E76369039323690293E3680193A368CF
:1013040000933146D4E90023284603F007F8B8E7F0
:1013140008292DE9F74F80460E4617461C463DD84E
:1013240000251B7B2573214610460193FFF72CFFF4
:10133400DFF88CA0DFF88CB0AE4232D918F8052063
:101344005946204602F0EAFF0135082DF4D11B4925
:10135400DFF874A0DFF874B0204602F0DFFF4FF02E
:1013640000094E4524D918F809507E2D1ED8284668
:1013740006F091F9002814BF2A462E225946204629
:1013840002F0CCFF09F10109B9F1080FE9D10122FA
:1013940021463846FFF736FF019B237303B0BDE8AF
:1013A400F08F5146204602F0B9FFCDE72E22E5E743
:1013B4005146204602F0B2FFE4E700BFF18200008C
:1013C400ED820000E7820000EF820000F38200005B
:1013D4001F2808B504D904494FF4F37000F092FBB8
:1013E4004FF0A04008BD00BF68830000032810B57B
:1013F400044603D90649472000F084FB054B1C5DD5
:101404002046FFF7E5FF0123A340C0F8083510BDCF
:1014140096830000CE83000008B50020FFF7E6FFA6
:101424000120FFF7E3FF0220FFF7E0FFBDE80840DB
:101434000320FFF7DBBFC20738B5044616D51120D9
:10144400FFF7C6FF0325C0F844571220FFF7C0FF7B
:10145400C0F848571320FFF7BBFFC0F84C571420BF
:10146400FFF7B6FFC0F85057FFF7D6FFA30714D510
:101474000D20FFF7ADFF0C24C0F834470E20FFF712
:10148400A7FFC0F838470F20FFF7A2FFC0F83C477A
:101494001020FFF79DFFC0F8404738BD1FB500215D
:1014A400039001AA44F20100CDE9011100F004F80F
:1014B40005B05DF804FB000010B572B6FFF750FEEE
:1014C400FFF774FC0028FBD1164C63884BB1164817
:1014D400164B1749C01AC008000440F00100FFF77A
:1014E400FBFD144BD3F8F030DB0700D500BE638856
:1014F400012B09D90C480D4B0F49C01AC008000430
:1015040040F00200FFF7E8FDBFF34F8F09490B4B92
:10151400CA6802F4E0621343CB60BFF34F8F00BF8D
:10152400FDE700BF3C0000207C7B0000447B000002
:10153400D283000000ED00E0DE8300000400FA0521
:10154400094B5A7899780132D2B2914208BF0022ED
:10155400197891421FBF02705878182202FB00309C
:1015640014BF043000207047C006002037B504467D
:1015740000200D4600F0A6FA0DF10700FFF7E0FF8A
:1015840090B10570094B9DF8072044605A700024FF
:10159400002000F0A7FA24B9054B4FF48012C3F8D9
:1015A4000021204603B030BD0424F1E7C00600202A
:1015B40000E100E0024B4FF43C6043F001031847A4
:1015C400F083000038B50C4B0C4C4FF40032C3F8D8
:1015D400802001254FF48033C4F84833C4F808331D
:1015E4006560FFF7E7FF064BA56000241C60FFF76A
:1015F400E1FF044B1C7038BD00E100E00010014025
:10160400DC070020CD070020F8B51F4B1F491B68DD
:101614000025C1F84051C1F84451C1F84851C1F8FE
:101624004C51C1F80051C1F804514BB3D1F80445F1
:1016340017490968641A24F07F442F461A68A242A5
:1016440009D8A41A15441A7CDE691AB1D3E9052015
:101654001F749047AEB90F4A0F4B11781B788B4219
:1016640005D10133DBB2022B08BF002313701278BB
:101674000A4B43F822500A4B4FF48012C3F800215E
:10168400F8BD3346DAE700BFE00700200010014050
:10169400DC070020D9070020D8070020D00700204D
:1016A40000E100E02DE9F04FA14AA249137809783E
:1016B400A14D994285B03CD00133DBB2022B08BF67
:1016C400002313709D4912789D4B0F6853F8220034
:1016D4003B1823F07F4300220B602B681646144608
:1016E400944613B942B12B6006E0196881420ED9C1
:1016F40002B12B60091A196001272B68DFF848A290
:1017040001934FF00008BEB9DFF844B260E0401A1C
:101714000C44D968D3F81CE0C3F800C031B13A19BD
:1017240022F07F42C3E90121DE611E467346012295
:10173400D7E700263746E0E73446F6697F4B606812
:101744001B68DFF810C2A168C21A22F07F4262450A
:1017540000F2A6800A442260012222742A6800232F
:10176400C4E90133E361002A40F0A3802C60CAE796
:101774009BF802105A1CD2B291428BF8002004BF8D
:1017840000228BF80020182202FB03B32A6819797F
:101794009C68022975D003297FD0012918D1207CA7
:1017A400B0B9D3E90312A2605A69E2609A69654B41
:1017B400A2611A78002A18BF01466160BEE78C4214
:1017C40000F094808946C9690029F8D10023237464
:1017D4009BF800309BF801209A42C9D12B68B8F1DC
:1017E400000F04D1019A9A4201D1002F43D0002B5B
:1017F40079D0D3F800A0544D504BD5F804751C682B
:10180400DFF854813E1B98F8003026F07F460336FB
:101814009BB94FF48033C5F84433C5F804334B4BBC
:101824004FF400324FF00109C3F880211A60C5F863
:101834000090FFF7BFFE88F80090B2452CBF5444D7
:10184400A41924F07F44C5F84045D5F80435DB1BC2
:1018540023F07F43E41B033324F07F44A3420AD9DB
:10186400D5F80435C5F84035FFF7A4FE374B4FF4DF
:101874000032C3F80021334B00221A7005B0BDE8D2
:10188400F08F114691469FE71174D2690123002A13
:10189400FAD1002B9CD02A609AE700231946F6E778
:1018A4001B1A23F07F438B4234BFCB1A00232360DF
:1018B40052E721681368994213D85B1A1360E261F6
:1018C40054E7091AD8691A4638B103461868884299
:1018D400F7D3401A1860184613462160E061DC61B2
:1018E40011E71346F2E7FFF76DFEC4E74C4511D14B
:1018F400D3692B6073B9DFF844E00120CDE902120B
:10190400CAF80800CEF800300E4B1870FFF752FEEC
:10191400DDE902120B68C969C9F81C1011B1086825
:1019240003440B602B68934218BF4FF001084DE746
:10193400D8070020D9070020E0070020DC0700209A
:10194400D0070020CC0700200010014000E100E097
:10195400C0060020FEFF7F00CD07002008B5FFF77A
:1019640031FE104B00200B2218809A700E4B186029
:101974000E4B18700E4B18700E4B4FF48012C02192
:10198400C3F8802183F814131A6002F18042A2F58F
:101994006F22C2F8080583F81113074BD2F8042507
:1019A4001A6008BDC0060020E0070020D807002008
:1019B400D907002000E100E0DC070020074B9B78FA
:1019C4004BB132B128B10368187C20B959745A61FB
:1019D4007047072070470820704700BFC0060020EA
:1019E4002DE9F3411C4FBB7804460D4616468BB3D4
:1019F40080B304292CD9436963B3437C0020012BB1
:101A04000CBF88464FF0000800F05CF80DF10700A9
:101A1400FFF796FDD0B101230370104B4460D3F857
:101A24000435C0E90486C0E902359DF807307B70AF
:101A34000024002000F056F824B9094B4FF480121A
:101A4400C3F80021204602B0BDE8F0810424F0E789
:101A54000724F7E70824F5E7C0060020001001403A
:101A640000E100E0064A92783AB130B1426922B10D
:101A7400002202740221FFF779BD0820704700BFDD
:101A8400C006002072B6024A13680133136070471F
:101A9400E4070020034A1368013B136003B962B6EC
:101AA400704700BFE4070020EFF30583C3F3080386
:101AB4002BB9EFF31480C04300F0010070470120FC
:101AC4007047000008B5FFF7EFFF012803D0044971
:101AD400432000F017F8BDE80840FFF7D3BF00BF6C
:101AE400F683000008B5FFF7DFFF012803D004499F
:101AF400512000F007F8BDE80840FFF7CBBF00BF56
:101B0400F683000007B5ADF8000001916A46002194
:101B140044F20200FFF7D0FC03B05DF804FB10B5FB
:101B2400034653E8000F0A4643E8002494F0000FEC
:101B3400F7D110BD10B5034653E8000F40EA010287
:101B440043E8002494F0000FF6D110BD10B503460D
:101B540053E8002F42EA010043E8000494F0000F28
:101B6400F6D110BD10B5034653E8000F00EA010298
:101B740043E8002494F0000FF6D110BD10B50346DD
:101B840053E8002F02EA010043E8000494F0000F38
:101B9400F6D110BD10B5034653E8002F02EB010047
:101BA40043E8000494F0000FF6D110BD10B50346CD
:101BB40053E8002FA2EB010043E8000494F0000F67
:101BC400F6D110BD0121FFF7B5BF0121FFF7BEBF5C
:101BD4000021FFF7C7BF0021FFF7D0BF2DE9F04771
:101BE4008368D3F84831C3F340059B0788B00746A0
:101BF40006D50022114608B0BDE8F04701F078BED2
:101C0400012906D91E4A022108B0BDE8F04700F0B8
:101C1400CDBD1C4C1C4EDFF874A04FF06408A946DF
:101C2400361B1C23B6FBF3F6AE4204F11C0402D1AE
:101C340008B0BDE8F08754F81C0C54E90623017978
:101C440000689A1A1B1ADBB2039308FB03F3B3FB75
:101C5400F2F3CDE9019334F8043C0093CDE9061284
:101C640054F8083C11FB08F13846B1FBF2F1CDE918
:101C740004215246082100F099FD0135D4E700BF44
:101C840041840000D47B00000C7C000054840000DC
:101C940010B50446002834D003681BB91A49FF2044
:101CA400FFF730FF636823B917494FF48070FFF7DB
:101CB40029FFA36823B9144940F20110FFF722FF5A
:101CC400E36823B910494FF48170FFF71BFF238B9E
:101CD40023B90D4940F20310FFF714FFD4E901239F
:101CE40021689B1ADBB20A60013BDBB2FF2B22683E
:101CF40002D10020107110BD1168481C10600B70D7
:101D0400F2E70E20F7E700BFE284000038B504468E
:101D140020B911494FF49270FFF7F4FE0020FFF749
:101D2400D1FE226863681168994213D9481E106075
:101D340011F8013CE568218B01FB0355A368117977
:101D44001B1ADBB2994200D213710020FFF7CAFEBE
:101D5400284638BD0025F8E7E284000038B50C4673
:101D6400054620B90E4940F24710FFF7CBFE24B9CF
:101D74000B494FF4A470FFF7C5FE0020FFF7A2FE45
:101D84002A681368591C1160E968641A298BB4FB2A
:101D9400F1F41C70BDE838400020FFF7A3BE00BF7B
:101DA400E2840000436810B59C6860680368012100
:101DB4009B689847A36810B903221A7010BD0422C7
:101DC400FBE7000038B505460C4621B9064940F644
:101DD4002F20FFF797FE35B1A268B2F8483143F0DF
:101DE4002003A2F8483138BDA885000038B50D4657
:101DF400044620B9084940F62320FFF783FE25B99D
:101E0400054940F62420FFF77DFE29682068BDE8D7
:101E1400384005F00FBE00BFA88500002DE9F84347
:101E2400089E1D460C46F1B9194E1A49891BB2EB9E
:101E3400D10F4FEAD10905D2174F043607EB8207B9
:101E4400A14502D100232B6009E056F8348038689C
:101E5400D8F8001005F0EEFD18B9C5F80080BDE80B
:101E6400F8830134ECE70028ECD00178436839B1F9
:101E74003146104698473368002BE3D02E60EEE7D6
:101E8400110103EB02125B58002BDBD02A60E6E75A
:101E9400E87A0000287B00000000002030B5836849
:101EA4000546D3F8400187B0E8B10023092203A90D
:101EB400019002F0F9FCAB68049AC3F840210024B5
:101EC400234601988DF81440092203A9CDE903445F
:101ED40002F0D6FC019802F07BFCAB68D3F8400119
:101EE40018B9C3F83C0107B030BD234603A9092241
:101EF40002F0DAFCA8680394D0F8400123460922D2
:101F040003A902F0BDFCEEE710B5044620B9094967
:101F14004FF4ED70FFF7F6FD236923B905494FF43B
:101F2400ED70FFF7EFFD2069034A0449BDE8104056
:101F340002F0F4B9A88500003A8A0000B4860000D3
:101F440010B5044620B909494FF4EA70FFF7DAFDE9
:101F5400236923B905494FF4EA70FFF7D3FD2069DB
:101F6400034A0449BDE8104002F0D8B9A88500002E
:101F7400368A0000B486000010B5044620B9094929
:101F84004FF4F070FFF7BEFD236923B905494FF400
:101F9400F070FFF7B7FD2069034A0449BDE810401B
:101FA40002F0BCB9A88500004E8A0000B486000087
:101FB40008B105F066BD704710B584680068FFF786
:101FC400F7FFE37F1844637EB0FBF3F203FB1200D8
:101FD400B0FA80F0400910BD10B584680068FFF7BE
:101FE400E7FFE37F627EA07653FA80F3B3FBF2F15E
:101FF40002FB113301332375A37F53FA80F00131BF
:10200400B0FBF2F302FB1300A1750130591C60759B
:10201400E17504F1140010BD10B584680068FFF781
:10202400C7FFA37F1844637EB0FBF3F203FB1200E7
:10203400B0FA80F0400910BD07B58368DA7E8A42A1
:102044001ED01B228DF800205B228DF80120312246
:102054008DF802203B228DF8032033228DF80420D2
:1020640001F12F028DF805206D22D9768DF8062016
:1020740000228DF80720044900696A4602F04EF9EF
:1020840003B05DF804FB00BFB48600000A4609B142
:10209400FFF7D2BF8168CA760069024A024902F09A
:1020A4003DB900BF3D8A0000B486000007B58368CF
:1020B4001A7F8A4218D01B228DF800205B228DF8EB
:1020C400012034228DF8022001F12F028DF8032023
:1020D4006D2219778DF8042000228DF8052004491B
:1020E40000696A4602F01AF903B05DF804FB00BF08
:1020F400B48600002DE9F743002506460F46144632
:102104000560207840B105F0C1FAA8B1002304F8B5
:10211400013B33680B2BF4D933680C2B04D9534996
:1021240040F22A50FFF7EEFC33680022284647F8B5
:10213400232003B0BDE8F08333685A1C326047F8AB
:102144002340054694F80080B8F1000FE1D0002D3B
:1021540077D1B8F1270F05D0B8F15C0F79D0B8F179
:10216400220F66D12046FFF723FF611C024620465A
:1021740005F096FA4546E5E72046FFF719FF611C8E
:102184000246204605F08CFA0025DBE7302826D1EC
:1021940002234FF00008E05CA0F13001C9B2072926
:1021A4005FFA83F918D8013341EAC801052B5FFAB5
:1021B40081F8F0D1994609F1FF312144204601917B
:1021C400FFF7F6FE0230A0EB09020199204605F064
:1021D40067FA04F8018BB5E7B9F1020FEBD178285F
:1021E4002DD102214FF00008635CA3F13002D2B27A
:1021F400092AC8B20AD842EA081303295FFA83F805
:1022040002D14FF00409D6E70321EDE7A3F16102FF
:10221400052A03D8573B43EA0813EEE7A3F141022A
:10222400052A01D8373BF6E7022808D04FF0030906
:10223400C1E7404605F02AFA00287FF46AAF01346A
:1022440080E7A84598D0B8F15C0FF8D16078854252
:102254009CD12046FFF7ACFE04F10108024641463A
:10226400204605F01DFA44466CE700BFA88500002F
:1022740070B50D461646044620B90B4940F22310AA
:10228400FFF740FC636823B907494FF49270FFF7E6
:1022940039FC606803681C6929463346A446012258
:1022A400BDE87040604700BFA88500002DE9F743F2
:1022B4000E461446054600B119B91D49F420FFF72E
:1022C40021FC6B681B681BB91949F520FFF71AFC40
:1022D400DFF85C80002714B903B0BDE8F0836868B8
:1022E40003682246D3F80C90F11901ABC84718B122
:1022F4004146FF20FFF706FC019B9C4204D2414665
:102304004FF48070FFF7FEFB019B1F44E41A002B7F
:10231400E1D1AB681A78032ADDD0D3F848219206BC
:10232400FBD5B3F848216FF34512A3F84821D2E74F
:10233400A88500000A46014901F0F0BFE8850000C5
:1023440011B10069FFF7F6BF70470000014901F0C1
:10235400E5BF00BF018600000A4619B102490069C1
:1023640001F0DCBF704700BFEE8500000A4619B1DA
:102374000249006901F0D2BF704700BFF485000034
:1023840038B50546FFF728FE837902788178013352
:102394009A42044601D1012913D0012904D90139F3
:1023A400C9B22846FFF7D8FF2378A1798B4209D90F
:1023B400013B591AC9B22846FFF7D8FFAB6800227F
:1023C400DA7738BD0131C91AC9B22846FFF7B8FF18
:1023D400F4E7F8B50546FFF7FFFD8778C6780446AD
:1023E4002846FFF7E9FD18B92846FFF715FE10B196
:1023F4002869FFF7ABFFB74208D161782378C91A7F
:102404002846C9B2BDE8F840FFF7B0BFA378E17829
:10241400C91AC9B22846FFF79FFF237861788B4217
:10242400EDD9591A2846C9B2BDE8F840FFF788BF6C
:102434002DE9F04F044685B00E4690460025705DA8
:1024440005F024F920BB5FFA88FA3046FFF7B0FDA7
:10245400A3685B7E401BA3EB080B584506EB0509FC
:1024640018D94A46002712F8011B03930846029222
:10247400019105F00BF9DDE9022318B101990A294C
:1024840031D0BB4608EB07018B422BD90137EAE771
:102494000135D4E74B460027B84217D013F8012B77
:1024A4000A2A05EB070A1BD1206901F025FF4946DA
:1024B4003A462046FFF7FAFE2069FFF747FF5FFA26
:1024C40088F120460AF10105FFF73AFF20697119E6
:1024D40001F024FF206905B0BDE8F04FFFF736BFD7
:1024E4000137D9E75F46206901F006FF3A464946BD
:1024F4002046FFF7DBFE3D44705D05F0C7F838B9B0
:102504002069FFF723FF51462046FFF719FF9CE798
:102514000135F1E7F7B505468068404E0024802276
:102524002146A0308DF8034005F02FFA3C49286974
:1025340001F0F4FE286901F0DFFE4FF47A7746F0EB
:10254400010601AA0DF103012846FFF791FE019B44
:102554005BB94FF6C010B047019A002AF1D17B1E37
:102564009FB2002FEDD10D2035E09DF80330AA680D
:102574001B2B47D092F8A0101B29EDD1522B41D12F
:102584001444002384F8A03092F8A1105B291FD1D1
:1025940002F1A20602211D4616F8010B4C1C3B2831
:1025A400E1B264B219D1002C1FDB01F1A004144480
:1025B400002314F8010BD0B9FA2B28BFFA23FA2D03
:1025C40013752B4628BFFA23937582F8A00002E006
:1025D40082F8A0300B2003B0F0BD05EB850300EBBF
:1025E4004303303B80299DB2D6D10C20F3E703EBA3
:1025F400830300EB43004E1C303883B23006F1B243
:10260400F3D4D6E711190134E4B2092C81F8A030CF
:10261400A2D9002382F8A0300420DCE7608A0000FD
:10262400558A000038B50546FFF7D6FC0278437892
:102634009A4204468378C27801D1934213D09A42D5
:1026440005D9D21A0B492869D2B201F067FE237862
:1026540061788B4208D9591AC9B22846FFF786FE19
:10266400AB689A7FDA7738BDC91AC9B22846FFF732
:1026740067FEF5E7FA8500002DE9F84F0D4616468A
:102684009946044648B9424940F6A220FFF73AFA6F
:102694003F4940F64520FFF735FAA3681BB163684C
:1026A4000BB1236823B93A4940F64620FFF72AFACA
:1026B400E36860685B68374A9C60036829461F6862
:1026C4002346B847054600284FD1636923B93049EA
:1026D40040F65520FFF716FA606902F077F80546D0
:1026E400002842D101464FF4A672A068DFF8B4A0D6
:1026F40005F04BF9A168B1F8483143F02003A1F883
:102704004831B1F8483166F38203A1F84831B1F891
:102714004831214E43F00803A1F8483101230B70DE
:1027240045F218030B831D4B1949A3EB06084FEA26
:10273400D80B2F465F451BD1B8F1070F05D9184BAD
:1027440018480422394604F0C8FFB9F1000F0CD030
:102754009DF82810E068FEF7C3FC0028A1BFE368D9
:10276400DB6801225A71B8BF04252846BDE8F88FFA
:1027740073681B6823B940F67220FFF7C3F9044954
:1027840073681B684AF8043B01370836D2E700BF78
:10279400A8850000C91D0000E87A0000287B00001D
:1027A400F11D000000000020FFF780BD0CB4F7B558
:1027B400089F04460E4627B91F4940F65F30FFF7CD
:1027C400A1F924B91C494FF43660FFF79BF9A368BB
:1027D4001BB163680BB1236823B9174940F6613014
:1027E400FFF790F909AB0193A368D3F84821520786
:1027F4001BD5DA7EB24218D0B3F81B5031462046BE
:10280400FFF744FC206901AA394601F023FEE9B22E
:102814002046FFF73BFC290A02D02046FFF746FC7E
:1028240003B0BDE8F04002B07047206901AA394600
:1028340001F010FEF4E700BFA885000082680021C3
:10284400D18382F820100368014A0321FFF7AEBF49
:10285400B486000070B5044620B9184940F6F82043
:10286400FFF750F9A3681BB163680BB1236823B960
:10287400124940F6F920FFF745F9A3681E78012EA6
:102884001AD16068036800219B689847054688B997
:1028940008212046FFF7D0FB31462046FFF706FC0F
:1028A4002069074901F03AFDA36802221A70204604
:1028B400FFF7C4FF284670BD0825FBE7A885000084
:1028C40000860000F8B5044615460F4621B9224992
:1028D40040F25360FFF716F9A068867F73197F2BC7
:1028E40038DC002D36D0C37FF61A03F120012B44C7
:1028F4002033F6B20144721C184404F0D1FEA068DF
:10290400C37F20332A463946184404F0C9FEA76819
:1029140007F12000FFF74CFBFB7F104AB877203308
:102924003B4420460821FFF741FFA368DA7F1544A2
:10293400DD772046FFF740FB18B92046FFF76CFB14
:1029440010B12069FFF702FD26B12046BDE8F8402A
:10295400FFF73FBDF8BD00BFA8850000B4860000A6
:102964002DE9F04104468068D0F84861827FC37F36
:10297400C6F30008D51A16F001060F46EDB23CD195
:102984007E2A3ED83DB103F12001213301442A4679
:10299400184404F085FEA368DA7F1A4482F8207094
:1029A400002E6AD19A7F0132D2B29A77134483F807
:1029B4002080002D6AD02046FFF70EFB8278C37872
:1029C4009A4220D1A268D37F2033134408212046A1
:1029D400314AFFF7EBFEA91BC9B22046FFF7C6FC3C
:1029E400A268D37F0133D3772046FFF7E5FAF0B12D
:1029F4002069BDE8F041FFF7A9BC7E2ACBD9002DA0
:102A0400C9D1BDE8F0812046FFF77EFAA268D37FE2
:102A1400203313440821204A2046FFF7C7FE2046EE
:102A2400FFF7AAFA20690121FFF784FCD8E72046C2
:102A3400FFF7F2FA0028E4D02046FFF7CDFAC27877
:102A44008378013AD21A12F0FF02054603D01349E3
:102A5400206901F063FC2069FFF778FCE978AB7822
:102A6400C91A2046C9B2FFF777FC297801392046F4
:102A7400C9B2BDE8F041FFF763BC002D9BD1987F3C
:102A84000130C0B29877034483F820500449206988
:102A94003A4601F043FCA3E7B4860000FA8500003F
:102AA400F382000070B5836886B00025CDE9035534
:102AB400D3F844218DF8145004460E46002945D11C
:102AC400002A3ED0FFF75CFCA0683346D0F84401EE
:102AD400092203A901F0E8FEA668049BB57FC6F8A5
:102AE4004431002B52D106F1A00108460191FFF7B1
:102AF4005FFA019938B306F1200004F079FFA06869
:102B04002030FFF755FA8DF814009DF81430A268B0
:102B1400AB42D377937702D22046FFF711FAA3682A
:102B24002C4A204620330821FFF740FE2046FFF7B9
:102B340043FA18B92046FFF76FFA10B12069FFF77E
:102B440005FC06B070BD86F82000D8E7D3F8401124
:102B54009142F6D0D3F83C31002BF2D0FFF710FCB1
:102B6400A668D6F8440140BB06F12001084601914D
:102B7400FFF71EFAD6F83C310199C6F8443110F03B
:102B8400FF0517D006F1A00004F032FFA06803A9E6
:102B9400D0F844010023092201F086FEA0689DF8C4
:102BA400142000F120010923D0F84401013201F07E
:102BB4007BFEAAE786F8A050E8E72B46092203A982
:102BC40001F072FEA368039A9DF81450C3F84421DF
:102BD400DCE700BFB486000038B504468068C37FD4
:102BE400857FED1A15F0FF0542D003F12101203352
:102BF40001442A46184404F053FDA268937F013B24
:102C040093772046FFF7E8F98278C3789A421BD17C
:102C1400A268D37F203313440821164A2046FFF7C5
:102C2400C5FD236923B9144940F28F40FEF76AFFBA
:102C340020691049114A01F071FB691E2046C9B28E
:102C4400BDE83840FFF792BB2046FFF75DF9204608
:102C5400FFF776F9A268D37F203313442046054A50
:102C64000821FFF7A3FD2046BDE83840FFF784B9EB
:102C740038BD00BFB4860000A88500004A8A000061
:102C84002DE9F041C3685B6890B004460D461868AE
:102C9400002203A901F0D6FE002840F08A808DB1FD
:102CA400039801F0DEFDA268D2F838310133C2F88E
:102CB400383103F00703012B04D00125284610B056
:102CC400BDE8F0812046FFF787F98178012906469F
:102CD40004D90139C9B22046FFF73EFB31780129F6
:102CE40004D90139C9B22046FFF740FB2046FFF75B
:102CF40027F92DB1304A02212046FFF757FDDDE7C1
:102D040000230822039804A901F0CEFD069B079333
:102D1400059B08939DF810308DF8255003F00302AD
:102D2400012A25D1BDF81020049E0398C3F3C203E1
:102D3400C2F383178DF82430BA0008230AA901F0DE
:102D4400B3FDC6F39526236900933A4607AB0AA957
:102D54003046FEF779FA039801F083FDE3685B6877
:102D64000022186803A901F06DFE0028C8D0A4E76A
:102D7400022AF0D1BDF81260C3F3C203C6F3891668
:102D84008DF824304FF00808082E374628BF08274E
:102D9400434603983A460AA901F086FDF61B2369C7
:102DA40007AA39460AA8B844FEF7B2FA002EEBD1B6
:102DB400D1E7002582E700BF0386000013B543680E
:102DC40001A918689C68002201F03CFE014610B974
:102DD4002046FFF755FF02B010BDF7B547680191D3
:102DE400BD68AB681E78042E0ED0386801A901F0C6
:102DF400A1FD044650B9019801F02FFD032E03D123
:102E040021462846FFF73CFF03B0F0BDF11E18BF72
:102E140001212846FFF734FFE7E700002DE9F04FD2
:102E24008346A7B020B9BB4940F62930FEF76AFEB5
:102E3400DBF808302BB1DBF8043013B1DBF80030D9
:102E440023B9B44940F62A30FEF75CFEDBF80800EB
:102E5400102100F5A470FEF779FEDBF808301B782A
:102E6400022B7BD100230D930DAA0DF1330158469B
:102E7400FFF7FEF90D9B002B55D09DF93330002B45
:102E8400F2DB01F025FDDBF808406378012B00F04C
:102E94006184022B00F06584002B40F01D859DF8B1
:102EA40033500D2D1FD00A2D1DD0B4F8482163F3E3
:102EB4008D12A4F84821092D00F0F78100F2E48175
:102EC400002DD1D0082D00F0C983284604F0E3FB7F
:102ED4000028C9D0D4F848311E07C3F3C00040F11C
:102EE4002784294621E3D4F8483113F47F5F05D0C1
:102EF400D4F84831C3F387139D42DCD1B4F8483188
:102F0400A67F65F38D13A4F84831B6BBC4F84461B9
:102F1400DBF81000FFF71AFADBF8083002221A7007
:102F24005846FFF78BFC00215846FFF7A9FEA8B1CD
:102F3400DBF80030784A03215846FFF737FCDBF80A
:102F44000830D3F84821120708D55846724A20336E
:102F54000821FFF72BFC5846FFF73BFADBF810007B
:102F640001F0CAF9DBF808006FF0100100F5A47055
:102F740027B0BDE8F04FFEF701BE94F82030002BD7
:102F840061D1DBF8085005F12000FFF711F80026A5
:102F940010F0FF04C5F8446124D0D5F83C010028A2
:102FA40000F091803346092219A901F07DFC9DF8B7
:102FB4006C309C4240F08780DBF80800092300F164
:102FC400A001621CD0F83C0101F06EFCDBF8085053
:102FD40005F1A00105F1200004F02CFD002870D1BA
:102FE40085F8A0005846FFF71DFB5846FEF7E4FF9E
:102FF40018B9DBF81000FFF7A9F9DBF8082019A9C4
:10300400203210A8FFF776F8109B002B80D0002800
:1030140040F0AE80414E424D199BAD1BED08044675
:10302400A54240F0AC803F4A009202213E4A5846F5
:10303400FFF7BCFB70E70135B5F5807F04D10023B1
:1030440084F820309DE700256319EFB293F820003F
:1030540004F01CFB0028EED16FB104F12000721CB7
:10306400521B411904F01CFBDBF80820937FDB1B87
:10307400DBB29377D377DBF80860B57F05F11F07E0
:103084003744BA465FFA87F953460293187804F036
:10309400FDFA5FFA8AF8A9EB0804029BE4B20AF18C
:1030A400FF3A0028F0D19F423FF46BAF2C1BA8EBF2
:1030B400090334442B44DBB284F82000B377F3775C
:1030C4005FE785F8A060082604F10A05DBF8140020
:1030D400294601F093FB0446002843D0DBF808306E
:1030E400D3F83C0110BBC3E94F44CDE919009B7FE1
:1030F4008DF86C3019A920460023092201F0C0FB89
:10310400DBF808108A7F092301322031204601F0C0
:10311400B7FB67E7A8850000B4860000E87A0000E2
:10312400287B000045860000118700000023092247
:1031340019A901F0B9FBDBF808001A94002309224D
:10314400D0F83C0119A901F09BFB00231A93DBF88A
:103154000830D3F83C2119929A7F8DF86C20C3F87B
:103164003C41C7E75846FEF799FE013EAED139E728
:103174000346924A02215846FFF718FBCCE67268D0
:1031840002931846116804F055FC3746029B083632
:1031940018B10134A542BFF443AF3B7823B1884949
:1031A40040F6A310FEF7AEFCDBF808000021102265
:1031B4000430119104F0E9FB7C68E36833B194E8CE
:1031C4000F00DBF80850043585E80F00D4F80890A8
:1031D400DFF8F8A119AE4FF0000801250027109B75
:1031E400AB4212D974685146204604F023FC20B146
:1031F4007449204604F01EFCE8B9DBF80820B2F854
:10320400483143F00203A2F84831DBF808301B6967
:10321400002B33D0109919AA02EB8802A1EB080104
:1032240058469847DBF80830B3F848216FF3410259
:10323400A3F8482170E615AB0093484611AB3A4613
:103244002946FEF7EBFD781CDFD0119C002CDCD066
:103254002168706804F0EEFB01370028BFD1E368F1
:103264003BB194E80F00DBF80870043787E80F00DF
:10327400A846D4F8089001350436AFE7524A022133
:103284005846FFF793FACDE71B2D0BD07F2D7FF423
:103294001CAED4F848311F077FF5E6AD5846FFF75A
:1032A4009BFCE1E501236370DEE5D4F8483119079E
:1032B4007FF5DAADA37FC3F17F0313F0FF0304931B
:1032C4003FF4D2ADE27F04F1200104F1A00004F048
:1032D40033FBDBF80850EB7F2B440024D87F83F8C2
:1032E400A04004F0D3F9031B18BF012305F1A00289
:1032F4000590C5F8444119A90EA80693FEF7FAFEF5
:103304001998FEF755FECDE90F44C3B20293254642
:1033140027460394A24626460E9B2BB1069A013BF0
:103324001344AB4200F29680059B002B3DD126ABA3
:1033340003EB850353F8340CFEF73AFEC3B2029351
:1033440026AB03EB85034FF00009099309F1010350
:10335400079311AB00934A460FAB29463846FEF754
:103364005DFD0F9B002B5ED01968099B029A53F8F0
:10337400340C0B9104F0C2FA0890C0B9039B0B996A
:10338400013303930846109B0A93FEF711FE0A9B30
:103394005FFA80F8E3B9029B049AA8EB03039A420C
:1033A40001DDDBB20493CA4630E00023C7E7A04640
:1033B400DDF81C904446C9E74E46F9E73186000023
:1033C400A88500005C860000638600005986000022
:1033D400A045049B38BFA0465FFA88F8B3B115AB8B
:1033E4000093324610AB38462946FEF717FD0F9B73
:1033F400089E1868109B1C68029A9119F3B2425CEB
:10340400FAB9049A9A4228BF1A4604920F9B109361
:10341400079B002BD0D1BC4A04215846FFF7C6F9BC
:1034240044464FF0FF36002F40D00F9B002B3DD079
:103434000E9B069A0135EDB213449D42FFF46CAF26
:1034440034E0615C9142DCD10136B6F5807FD3D1A2
:10345400FF23D6E726AB03EB85034FF00008079361
:1034640011AB009342460FAB29463846FEF7D6FC13
:10347400B8F1FF3F05D1A44A04215846FFF796F955
:10348400F2E4DDF83C90B9F1000F3FF4EDAC079B9A
:10349400D9F8001053F8340C04F0CCFA08F1010800
:1034A4000028DDD1D9F80870002FC1D1039B002B6F
:1034B4003FF4DAAC012B5AD13B783BB111AB00930A
:1034C400324610AB29463846FEF7A8FC109B1C6810
:1034D4002046FEF76DFD029B984205D02344049AD2
:1034E40019465846FFF7EEF9DBF80840E57F631903
:1034F40093F8200004F0CAF8D8B9D4F84831DA07B0
:1035040012D5B4F8483160F30003A4F848312021FF
:103514005846FFF725FADBF80820B2F8483143F0A3
:103524000103A2F848319FE420215846FFF718FA16
:103534009AE4A37FAB427FF697AC5846FEF74CFD66
:10354400DBF808208478D37F0133D3775846FEF71D
:1035540043FD8378A34205D1DBF810000121FEF777
:10356400E9FE81E4DBF81000FEF7F0FE7CE4DBF812
:103574000830664E00225A7726AB03EB8503069388
:103584000AF10103059311AB5246009329460FAB90
:103594003846FEF743FC0F9B029AD3F800A0069B23
:1035A400514653F8340C04F0A9F990BB039B304600
:1035B400013B0393FEF7FCFCDBF8083007935A7ECB
:1035C40004EB0008A2EB00095046FEF7F1FC079B50
:1035D4005A7F5FFA88F8511CB9FBF8F95FFA89F948
:1035E4005977B2FBF9F309FB1322A8EB0008D2B216
:1035F4005FFA88F882B9464ACDF800A0334607211D
:103604005846FFF7D3F841465846FEF799FE039B08
:103614004BB1DDF814A0B3E73E4A534607215846A0
:10362400FFF7C4F8EFE7DBF800303B4A58460321C4
:10363400FFF7BCF8DBF80830364A20330821584637
:10364400FFF7B4F85846FEF7C4FE109B049A1968B5
:10365400029B58461944FFF735F905E4D4F848317C
:103664001B077FF501ACA67F002E3FF4FDABE07F86
:1036740000283FF4F9AB361A00F12001F6B21F30EE
:10368400721C2144204404F00BF8DBF80830DA7F84
:10369400013ADA779A7F013A9A77002E40D02A4687
:1036A4001E49DBF8100000F039FE5846FEF794FC82
:1036B4008278C3789A4212D1DBF80820D37F203372
:1036C40013442946134A5846FFF770F85846FEF744
:1036D40037FC31465846FEF749FEFFF7C5BB58464E
:1036E400FEF712FC5846FEF72BFCDBF80820D37FCC
:1036F400203313445846074A2946FFF757F85846DB
:10370400FEF73AFCFFF7B0BB81860000EE820000B2
:10371400AD860000B4860000B3860000F38200008A
:103724006E4A6F49DBF8100000F0F8FDFFF79CBB10
:10373400A27F7E2A3FF698ABE17F4B1CDBB2E37796
:1037440021442344013281F8205083F82000A277D9
:10375400FFF78ABB9DF833305B2B40F0BD8002231A
:10376400A1E500236370D4F8483119077FF5DBAB7A
:103774009DF83330313B1B2B3FF676AB01A252F858
:1037840023F000BFA9380000B7380000D738000084
:103794009B3800006D2E00006D2E00006D2E000081
:1037A4006D2E00006D2E00006D2E00006D2E0000A9
:1037B4006D2E00006D2E00006D2E00006D2E000099
:1037C4006D2E0000F93700000538000009380000AC
:1037D400573800006D2E00009F3800006D2E000049
:1037E400AD3800006D2E00006D2E00006D2E00001F
:1037F400BB38000001215846FFF754F9FFF734BBEA
:103804000021F8E75846FEF7E7FB037842789A422E
:10381400044604D18178C27891423FF425AB6279A1
:103824009A4210D12F49DBF81000012200F076FDF6
:1038340061795846FEF79AFDDBF80820D37F0133FF
:10384400D377FFF711BBDBF810000121FEF772FDFF
:10385400F2E75846FEF7C0FB8379027801339A42B7
:10386400044603D18378012B3FF4FEAA012ADBF836
:1038740010000BD11C4900F051FD61795846FEF748
:103884005FFDDBF80820D37F013BD9E7174901220C
:1038940000F044FDF5E7032363705846FEF7C2FECB
:1038A400FFF7E2BA032363705846FEF769FDFFF79A
:1038B400DBBA03236370D4F84831B4F8482103F029
:1038C400010383F0010363F30002A4F84821FFF726
:1038D400CBBA03236370DCE40023E4E4518A0000E0
:1038E400B4860000FA850000EE850000F48500002F
:1038F4002DE9F04F0D468BB01746044620B97449A4
:103904004FF43E60FEF7FEF8A3681BB163680BB189
:10391400236823B96E4940F6E130FEF7F3F8A36853
:103924006C4A009208216C4A5B682046FEF73EFF11
:10393400A6687068FEF73CFBB168033082B211B12F
:103944002046FEF775FD654A00212046FEF72EFF4E
:10395400002F3DD0002D3BD04FF00C0AA9460AFBA6
:10396400075A0826D9F80400FEF722FB8046D9F846
:103974000000FEF71DFB4044B04209F10C0988BF6A
:1039840086B2CA45EED106F10408554B554A009358
:103994001FFA88F806F107090821204643461FFA52
:1039A40089F9FEF703FF50494A462046FEF740FDD9
:1039B4002DB1DFF830B14FF0000ABA450AD1A3683F
:1039C400D3F80C80B8F1000F3ED10BB0BDE8F08FF6
:1039D4000826D8E7D5E9002373B32AB30192434AF2
:1039E40000920821424A2046FEF7E0FE6868FEF78E
:1039F400DFFA03902868FEF7DBFA0399B31C591A1F
:103A0400091AC9B22046FEF79BFC3A4920693A22BA
:103A140000F084FCA96899B14A462046FEF708FDE7
:103A24000AF1010A0C35C8E7009343465A460821B7
:103A34002046FEF7BBFEEDE7002AEBD00092F4E748
:103A44002069FEF783FCEBE700220592174606AED9
:103A5400009605AB0121404602F10109FEF7DEF9AB
:103A6400059D3DB12868FEF7A3FAB84200D987B294
:103A74004A46EDE7B9F1010FA7D01F4ADFF864A069
:103A840029462046FEF792FE2A46BD1CADB205AB80
:103A940000960121404602F10109FEF7BFF9059B9A
:103AA400002B92D01B68009308212B4652462046D7
:103AB400FEF77CFE059B596831B17A1D92B220460F
:103AC400FEF7B6FC4A46E2E72069FEF73FFCF9E759
:103AD400A88500005A8A0000AE860000B786000060
:103AE400668A0000C1860000C9860000D88B0000E9
:103AF400DC860000F3820000E586000038B50D4640
:103B0400044620B91B494FF45660FDF7FBFFA36838
:103B14001BB163680BB1236823B9164940F66150A1
:103B2400FDF7F0FF022D0BD1A368D3F848319B07B2
:103B340006D5002220461146BDE83840FFF7D8BE1E
:103B4400236923B90B4940F66950FDF7DBFF0A4AA4
:103B54000A49206900F0E2FB236923B9054940F6CC
:103B64006A50FDF7CFFF2069054A0449BDE8384093
:103B740000F0D4BBA8850000468A0000B48600008B
:103B8400418A000038B50D46044620B9134940F671
:103B94006F50FDF7B7FFA3681BB163680BB12368CF
:103BA40023B90E494FF45760FDF7ACFF012D06D041
:103BB400022D0BD1A368D3F848319B0706D5002208
:103BC40020461146BDE83840FFF792BE2046044A1D
:103BD400BDE838400221FEF7E9BD00BFA88500001A
:103BE4006386000038B58368D3F84821C2F34005E2
:103BF40092070C4606D500221146FFF779FE2C46A3
:103C0400204638BD0029FBD05B68024A0221FEF73A
:103C1400CDFDF5E7F386000073B50E461546044660
:103C240020B916494FF45960FDF76CFFA3681BB126
:103C340063680BB1236823B9104940F69150FDF72E
:103C440061FF012E07D100221146204602B0BDE8D3
:103C54007040FFF74DBEB11E18BF01212046FFF78B
:103C6400C1FF48B96B680193054B0093054A2B6863
:103C740002212046FEF79AFD02B070BDA88500001F
:103C8400867D00000E870000012907B506D10022B9
:103C9400114603B05DF804EBFFF72ABE02290AD1EE
:103CA40053680193084B00931368084AFEF77EFD9E
:103CB40003B05DF804FB8CBF0121002103B05DF863
:103CC40004EBFFF78FBF00BF867D00000E87000066
:103CD400013910B518BF01210446FFF783FFA8B9C5
:103CE40024B90B4940F62260FDF70CFF236923B980
:103CF400074940F62260FDF705FF064A0649206998
:103D040000F00CFBA36845F218021A8310BD00BF33
:103D1400A8850000308A0000B4860000F7B50E467E
:103D24001546044620B92D4940F62960FDF7EAFE00
:103D3400A3681BB163680BB1236823B9274940F614
:103D44002A60FDF7DFFE012E34D12046A568FEF778
:103D5400E1FB18BBA36820691F7D9E7DFA21FEF755
:103D6400E9FA20691E49FA2200F0D8FA2046FEF743
:103D7400D1FB98B9A368197D6976A368C91B9B7D9B
:103D84002B762046C9B2FEF7F1FA297E891BC9B207
:103D9400204603B0BDE8F040FEF7DEBAA36845F262
:103DA40018021A830F4A0421204603B0BDE8F040EC
:103DB400FEF7FCBC022E94BF002101212046FFF730
:103DC40011FF48B96B680193074B00932B68074AAE
:103DD40002212046FEF7EAFC03B0F0BDA8850000EE
:103DE400FA85000017870000867D00000E8700001A
:103DF4002DE9F0410D4686B0044620B9214940F62C
:103E0400C850FDF77FFEA3681BB163680BB123683C
:103E140023B91C4940F6C950FDF774FE691E18BF4A
:103E240001212046FFF7DEFE40BBA368DFF858807F
:103E3400D3F840610546EEB1082D1BD0304600236F
:103E4400092203A900F030FD9DF81420A168304632
:103E540009230132A03100F027FDA368049EA0339A
:103E640000936F1C2B46424600212046FEF79EFC21
:103E74003D46E0E7A368002283F8A02006B0BDE831
:103E8400F08100BFA885000051870000013910B5FA
:103E940018BF01210446FFF7A5FE30B9A368B3F8A3
:103EA400482160F38202A3F8482110BD013910B5FE
:103EB40018BF01210446FFF795FE30B9A268B2F895
:103EC400483143F00403A2F8483110BD013910B55C
:103ED40018BF01210446FFF785FE30B9A368B3F883
:103EE400482160F3C302A3F8482110BD013910B57D
:103EF40018BF01210446FFF775FE30B9A268B2F875
:103F0400483143F00803A2F8483110BD022973B5C3
:103F14000D4694BF0021012104461646FFF762FEB8
:103F2400014658B9022D0BD1736801930C4B0093D1
:103F34000C4A336829462046FEF738FC02B070BDAF
:103F4400A368094AD3F8483113F0080F074B18BF88
:103F54001346074A204602B0BDE87040FEF726BC6F
:103F6400867D00000E8700003C7F00005B87000018
:103F74005F870000013910B518BF01210446FFF71F
:103F840031FE48B9A368C3F83801E3685B68BDE84B
:103F94001040186800F014BE10BD00007FB5013950
:103FA40018BF01210446FFF71DFE0546B8B9E368B2
:103FB4005B681E68304600F093FDB268A168C3B226
:103FC400CDE9013264204343B3FBF2F3DBB2009347
:103FD400D1F83831034A29462046FEF7E7FB04B0FE
:103FE40070BD00BF70870000F8B505460E46174641
:103FF4001C461BB90549F820FDF784FDE8682760D5
:1040040022463146BDE8F84000F0E2BEDB8B0000FA
:1040140010B4074C0378E35C23B15DF8044B04301F
:1040240002F0C2BD5DF8044B0C3002F0B9BA00BF17
:10403400140800204069054A0378D35C13B10430A6
:1040440002F0BABE0C3002F0B3BB00BF140800206B
:104054000378044AD35C13B1043002F043BD0C303E
:1040640002F03CBA1408002010B504464069FFF77A
:10407400EFFFA368BDE810401868FDF7F3BC00002B
:1040840037B5FF23009305460123C0686A4601A99A
:1040940000F0AEFD044650B112494020FDF732FD58
:1040A400204603B030BD0C3002F0E8FA0DE0009C6D
:1040B400002CF5D0686901990378E2B20A4CE35CFC
:1040C400002BF0D0043002F0E1FD04460028E7D1D3
:1040D400AB682A46186840F6CD41FDF781FC0446DA
:1040E400DEE700BFDB8B00001408002038B543680E
:1040F40093F8283004460D460BB383681868FDF71F
:10410400B1FC30F008030ED175B16069FFF7A0FF70
:10411400616860690022083101F024F868B96368B5
:10412400012283F8292038BD636893F8283043B10D
:104134002046BDE83840FFF7A3BF0620F3E7002977
:10414400E3D1064AA0680021FDF738FC6368012228
:1041540083F828200028EBD0E5E700BF39400000B1
:1041640037B5FF2301930378012B05460C4641D054
:10417400022B2AD0002B57D1017A206900F076FE59
:1041840018B12B497920FDF7BDFCFF230193206969
:10419400012301AA694600F0D5FD18B124497C2009
:1041A400FDF7B0FC019A4AB100996069D2B2FFF7F9
:1041B4002FFF18B11E498120FDF7A4FC636801207C
:1041C400D3E90021904703B030BD017AE06800F0E4
:1041D40053FD30F0040303D015495F20FDF792FC32
:1041E4002046FFF74DFF0028EDD011496120FDF76F
:1041F40089FCE8E7017AE06800F03EFD30F0040352
:1042040003D00B496720FDF77DFC2B7A23B163684B
:104214000020D3E9002190472046FFF731FF002812
:10422400D1D003497320E2E701498B20DFE700BFC7
:10423400DB8B0000F7B505460E4617461C4623B92E
:104244001A494FF48670FDF75DFC27602246286901
:10425400314600F029FD044608BB6869144A037816
:10426400D35CFBB1043002F093FCC0B9FF2301938B
:104274002869012301AA694600F064FD78B99DF814
:10428400042000996869FFF7C3FE6B6893F829302E
:10429400044623B118B90199286900F0E7FD2046C6
:1042A40003B0F0BD0C3002F06FF9DEE7DB8B0000E9
:1042B4001408002038B504464068C0E900230023F0
:1042C400038501F120020B46083053F8045B40F8E3
:1042D400045B9342F9D1074A60690C6100F042FF24
:1042E400054628B9E06800F079FC206900F076FC06
:1042F400284638BD6541000010B5044618B9064982
:104304003120FDF7FFFBA2682AB1636921682069A7
:1043140098470023A36010BD448C00000EB433B54D
:10432400059D044618B911494220FDF7EBFB63696A
:104334001BB90E494320FDF7E5FB23681BB90B4964
:104344004420FDF7DFFB63681BB908494520FDF7EE
:10435400D9FB35B106AB01AA29462046019300F0EA
:1043640079F802B0BDE8304003B07047448C0000D7
:104374000A2938B504460D4602D10D21FFF7F8FF8E
:10438400A3682268591CA160D554D4E901329A4229
:1043940004D32046BDE83840FFF7AEBF38BD000067
:1043A4002DE9F84F9846DDE90A43154682460F4643
:1043B4000A464FF00109AA420FD2C14538BFC1468F
:1043C40013F0010B01D16CB900240126B8F1010FDF
:1043D4001BD908F1FF386E43F8E709F10109B2FB74
:1043E400F5F2E8E79B070ED5B8F1000F0CBF3026B5
:1043F4002026A145E9D2013C31465046FFF7B8FFDB
:10440400002CF6D1E0E72026F3E7B7FBF6F39D4254
:10441400E1D9DFF83C80B7FBF6F3504618F80310F7
:1044240006FB1377FFF7A4FF3346AB42B6FBF5F662
:10443400F1D2BBF1000F02D00CB1A14501D3BDE80C
:10444400F88F20215046013CFFF792FFF4E700BFAC
:10445400C38C00002DE9F74F88461746054620B95E
:10446400AF494FF4A270FDF74DFB6B6923B9AC491A
:104474004FF4A370FDF746FB2B6823B9A84940F21B
:104484004710FDF73FFB6B6823B9A5494FF4A470AF
:10449400FDF738FBB8F1000F00F03E8118F8011B5E
:1044A40049B92B7B002B00F03781284603B0BDE8C7
:1044B400F04FFFF721BF252940F0B780002698F878
:1044C40000302D2B424608F1010823D0302B24D094
:1044D4002B2B25D000242A2B02F1010123D13B6888
:1044E4001A1D1B683A601C440A4613782E2B26D1E9
:1044F40001324FF0000A104610F8011BA1F1300CF4
:10450400BCF1090F1DD80A2303FB0A13A3F1300AD7
:104514000246F0E746F00106D1E746F00206CEE790
:1045240046F00406CBE711F8013CA3F1300009285A
:10453400DBD80A2202FB0434303C0A46CBE74FF0B6
:10454400000A12F8011B01F0FB0068289046F8D01D
:10455400782909D86F290CD8632962D022D8252953
:1045640063D0582900F0888098F80030002B95D14A
:1045740097E770390829F7D801A353F821F000BF51
:10458400F74600006D4500006D4500008D460000B3
:104594006D4500006B4600006D4500006D45000050
:1045A4007D460000642901D06929DDD13A68D2F83A
:1045B4000090111D89EAE9723960A2EBE9724FF0AB
:1045C400010B092A35DCD34538BFD3462CB1B9F1E8
:1045D400000F01DB720700D5013CB30702D5BAF125
:1045E400000F03D0F00701D44CBB0024B9F1000F35
:1045F4002DDAC9F100092D212846FFF7B9FE06F08E
:104604000302022A04D1BAF1000F01D11CBB002419
:10461400CDE9004653460A2249462846FFF7C0FE24
:10462400A2E73B681A1D19783A602846FFF7A0FEF6
:104634009AE70A230BF1010BB2FBF3F2C1E7A3459E
:10464400D4D220212846013CFFF792FECCE7710723
:10465400D5D52B21D0E7A345DAD230212846013C19
:10466400FFF786FED2E73968CDE900460A1D3A60B5
:1046740053460A220968D0E739680A1D3A60CDE931
:10468400004653461022F5E73B681A1D3A6016F0BF
:104694000106D3F8009024D1B9F1000F03D04846A5
:1046A40003F0EFF90646B4421DD809F1FF3919F8B1
:1046B400011F00293FF458AF2846FFF759FEF6E7DB
:1046C40028460136FFF754FE19F806100029F7D1E1
:1046D400A642BFF449AF20212846013CFFF748FE1B
:1046E400F6E70026F0E720212846013CFFF740FECC
:1046F400D9E73B681A1D3A60302128461C68FFF749
:1047040037FE78212846FFF733FE00220823CDE93F
:1047140000322146102280E703B0BDE8F08F00BFCD
:10472400808C00002DE9F74F99469DF830300093B6
:1047340088469346064618B92349B620FDF7E2F9A0
:10474400F28871794A43043A4A4505D81E490192D0
:10475400C420FDF7D7F9019ADBF80070B6F806A07B
:1047640007EB0901914209F1040488BFA2EB090790
:10477400B4FBFAF5CBF800700AFB154445B9AAEB73
:10478400040BBB4528BFBB462FB903B0BDE8F08F6F
:104794003668013DF2E7009B043408EB050034441D
:1047A4005A466BB12146A7EB0B0703F0C5F8BA458F
:1047B4005D443668D3464FF0000428BFBB46E3E7A8
:1047C40001462046EFE700BFD38C0000FDF760BA36
:1047D400F8B546790146721E0546002393422D68BA
:1047E40003D30024A64202D8F8BD0133F6E70F68CC
:1047F4002846FDF7B3FA01343946F3E72DE9F843C7
:10480400068BCD1C0746FDF781FA043E3544044669
:10481400B5FBF6F5F0B14FF48073EDB28380C6803A
:10482400013D076081464FF00008A84512D2384682
:10483400FDF76CFA064648B163790133637108F1F8
:104844000108C9F8000007608146EEE72046FFF73B
:10485400BFFF34462046BDE8F88301210430FDF74C
:1048640099B910B5012104460430FDF79FF9C0B28F
:1048740020B92046BDE81040FFF7AABF10BD0000D4
:104884001FB5144603920022009203AAFFF74AFFC1
:10489400039BA34203D00349F620FDF733F904B088
:1048A40010BD00BFD38C00001FB514460392012233
:1048B400009203AAFFF736FF039BA34204D00349E7
:1048C4004FF48070FDF71EF904B010BDD38C0000C6
:1048D4007047026813685268934291BFD01A806887
:1048E4000130801888BFC01A7047000038B50C46E4
:1048F400054618B904497720FDF704F9AB68A342CB
:104904008CBF601C002038BD228D000038B50446E1
:1049140018B907498A20FDF7F5F8236820461D6871
:104924005968FFF7E3FF431B5842584138BD00BFA5
:10493400228D00002DE9F0410D46044618B92C499A
:104944009520FDF7DFF81DB929499620FDF7DAF81F
:104954000020FDF7B7F82046FFF7D8FF074610B14F
:10496400237C002B3DD1D4F800802046D8F8046085
:10497400D8F80410FFF7BAFFC8F804002FB127686D
:1049840020463968FFF7B2FF3860E2686068531E5A
:10499400072B20D8DFE803F004101F141F1F1F1873
:1049A4002B7883552046FFF794FF23689A68824248
:1049B40000D29860002415E02B8820F81630F1E727
:1049C4002B6840F82630EDE7D5E9002300EBC6005C
:1049D400C0E90023E6E7294602FB060002F0ACFF2B
:1049E400E0E704240020FDF77DF82046BDE8F081CF
:1049F400228D000010B5044620B9084940F2FD108C
:104A0400FDF780F80020FDF75DF82046FFF761FF11
:104A140004460020FDF766F8204610BD228D0000F4
:104A240010B5044620B9064940F20A20FDF76AF899
:104A3400236818685B68C31A5842584110BD00BF08
:104A4400228D00002DE9F0410C469046054618B928
:104A54002249D920FDF756F81CB92049DA20FDF780
:104A640051F80020FDF72EF82846FFF7D9FF00285B
:104A740032D12F683E68B8F1000F04D13968284656
:104A8400FFF734FF3860EA686968531E072B1DD8A6
:104A9400DFE803F0040D1C111C1C1C158B5D237036
:104AA40000240020FDF71EF82046BDE8F08131F80F
:104AB40016302380F4E751F826302360F0E701EB49
:104AC400C601D1E90023C4E90023E9E706FB02118A
:104AD400204602F031FFE3E70524E2E7228D0000DF
:104AE40010B5044620B904494FF40670FDF70AF8DE
:104AF4002368986810BD00BF228D00002DE9F04F97
:104B04008368D3F84831C3F340059B078BB006464E
:104B140006D5002211460BB0BDE8F04FFEF7E8BE03
:104B2400012906D9204A02210BB0BDE8F04FFDF758
:104B34003DBE1E4C1E4BDFF88090DFF880A01B1B8F
:104B44001C22B3FBF2F8A84502D10BB0BDE8F08FEC
:104B5400E368A76809932046FFF7C2FF834620460F
:104B6400FFF748FF94F810E0124A642303FB00F1B6
:104B7400BEF1000F18BF4A4603FB0BF3B3FBF7F378
:104B8400CDE9043BB1FBF7F1099B0191CDE9067234
:104B9400CDE9020700935246636908213046FDF7C8
:104BA40005FE01351C34CEE741840000287B00005B
:104BB400447B0000668D00006F8D00007B8D00003B
:104BC40010B5044620B9044940F21E20FCF79AFFB0
:104BD400236800229A6010BD228D000083680022A1
:104BE4005A60C3E904229A60DA601A6070470000D0
:104BF4002DE9F041064617461D46884619B91D4958
:104C04003B20FCF77FFF1FB91A493C20FCF77AFFD1
:104C140085B9B0687368D0E9031403F1010C0A1B69
:104C240062450ED100243C6015B3FCF7D4FF00208C
:104C3400BDE8F081B068FCF7C5FF0028E9D0112079
:104C4400F6E701EA030223409A4238BF64443B6812
:104C54002CBFACEB0204641A9C4228BF1C46336888
:104C64003C601344C8F80030C3681C44C460DEE7E9
:104C74002846DDE7508E0000034680685B68826842
:104C840010B50469013323449B1A8B4209D31144A0
:104C9400C0E90211FCF79CFF002814BF0020082083
:104CA40010BD0420FCE700002DE9F84F05469146AD
:104CB4000F4619B922497220FCF724FFB9F1000FFD
:104CC40003D11F497320FCF71DFFA868FCF77AFF86
:104CD400824690BBD5E90142136901341C449368B0
:104CE400E41AD9F800309C4228BF1C46C9F8004099
:104CF4006B68966803F101081E40A8EB060B5C453F
:104D04000AD92868394630445A4602F015FEA6EB03
:104D1400080634445F4456462868224639463044DF
:104D240002F00AFEA868D9F800208368134483605F
:104D3400FCF751FF5046BDE8F88F4FF0110AF9E730
:104D4400508E00002DE9F0410546144698460E4663
:104D540019B91E499220FCF7D5FE1CB91B499320B2
:104D6400FCF7D0FEB8F1000F0ED1A8688168426943
:104D74008F1A11D12760B8F1000F02D00430FCF76C
:104D84002AFF3846BDE8F081A8680430FCF71AFF12
:104D94000028EAD01127F4E76B68D4F800C01A4061
:104DA40019408A420BD2674500D227602B681A4407
:104DB400326043692268134443610027E1E7013309
:104DC4009B1A634538BF2360F0E700BF508E000094
:104DD4002DE9F843064690460F4619B92249C120E9
:104DE400FCF790FEB8F1000F03D11F49C220FCF775
:104DF40089FEB0680430FCF7E5FE814680BBB268EA
:104E040013699568ED1AD8F800309D4228BF1D46F5
:104E1400C8F8005073681169946819401C40A14295
:104E240028BF5C1C641AA54208D933683846194463
:104E3400224602F081FD2D1B2744002133682A46B7
:104E44001944384602F078FDB068D8F800200369A8
:104E5400134403610430FCF7BEFE4846BDE8F88302
:104E64004FF01109F9E700BF508E0000806808B5C3
:104E740082680369D21A8A4207D31944C0E904112B
:104E84000430FCF7A8FE002008BD0420FCE7000065
:104E940038B5074C051E04F1080318BF1C462368E7
:104EA4002BB11A6822605B6828469847F7E738BD3B
:104EB400F007002020B9054B01225A70FFF7E8BF24
:104EC400012802D1014A9070F8E77047E8070020F2
:104ED40038B5094C23786BB908486360A360236133
:104EE400E36000F07DF9054600F08EF9012323709C
:104EF400284638BD8525FBE7E8070020B94E0000A9
:104F040038B51A4C237805461BB91949E920FCF732
:104F1400F9FDA37803F0FF00ABB115B16B68012074
:104F240098470020FCF7CEFDE36800200133E360DE
:104F3400FCF7D8FDE368C3B9BDE838400C4940F23A
:104F44000510FCF7DFBDFCF7BDFD25B12269134652
:104F54003BB92A602561E368002BE5D100F072F9C2
:104F6400E2E79D42F7D01B68F2E738BDE80700206E
:104F7400988E00001FB503788DF800308388ADF853
:104F8400043083688DF80630C3688DF807300369F0
:104F940002934369054A0393054B684653F821304D
:104FA40052F82110984705B05DF804FBFC07002077
:104FB40004080020024B4FF4807043F001031847AB
:104FC400F08E00001F2810B5044604D906494FF49A
:104FD400F370FCF797FD01204FF0A04300FA04F4AE
:104FE400C3F8084510BD00BF688300001F2810B532
:104FF400044604D906494FF4F370FCF783FD0120FD
:105004004FF0A04300FA04F4C3F80C4510BD00BFF0
:10501400688300002DE9F14F154690F80090334A5B
:1050240042F82950324A42F829304B7B07460C4655
:10503400BBB30868DFF8C0A04FF0A04600F5E073EA
:1050440040F20C6246F823204B6803F5E0734FF0FE
:10505400000846F82320FFF7B5FF6068FFF7B2FFAA
:10506400236803F5E07340F20D6246F82320636879
:1050740003F5E07346F82320FFF79CFFD4F804B04F
:10508400BBF11F0F04D951464FF4F370FCF73AFDFE
:10509400D6F8103523FA0BF3DB070ED5B8F1000F61
:1050A4001AD1144A002D4B4608BF2A462146381D02
:1050B40001B0BDE8F04F00F047BC2068FFF796FF51
:1050C40008F10108FFF776FF2068FFF77BFFFFF781
:1050D40071FFB8F1090FD1D16068FFF787FFFFF7BF
:1050E40069FF6068FFF76EFFDBE700BF040800207C
:1050F400FC070020794F0000688300001FB5037887
:105104008DF800304368019383688DF80830C368D4
:10511400054A0393054B684653F8213052F8211091
:10512400984705B05DF804FB0C0800201008002027
:105134001FB503788DF800304368019383688DF8B8
:105144000830C368054A0393054B684653F8213079
:1051540052F82110984705B05DF804FB0C080020B4
:1051640010080020F0B5194B90F800C091F81DE02C
:1051740043F82C20164B16460A6943F82C20154B8D
:1051840003F80CE00C4607460FCC89B06D460FC5FA
:1051940094E80F0085E80F00CDF810C0BEF1000FB1
:1051A40009D0002E0C4A694608BF3246381D01F06A
:1051B400A9FB09B0F0BD002E084A694608BF324673
:1051C40007F10C0001F0A2F8F3E700BF100800207B
:1051D4000C08002014080020015100003551000083
:1051E40010B5044618B90649A020FCF78BFC054A03
:1051F400107918B901211460918010BD8520FCE755
:10520400F68E00001808002008B50B4B1B791BB95B
:105214000A49B920FCF776FC094B1A68D2075FBF2C
:10522400C02283F8002301221A604FF08043012238
:10523400C3F8182508BD00BF18080020F68E00002A
:1052440000E100E0174B1B7937B51BB91649E6207E
:10525400FCF758FC4FF080430022C3F80421D3F834
:1052640004210192019A0222C3F804230F4AD2F8BE
:10527400FC0040F08073C2F8FC300D4B1C6844F015
:10528400010119605D685968491BB1F50A5FFAD3D9
:105294001C604FF08043C2F8FC0001229A6003B006
:1052A40030BD00BF18080020F68E000000ED00E0BD
:1052B400001000E04FF0804307B5D3F800217AB125
:1052C4000022C3F80021D3F800210092009A0122A1
:1052D400C3F808230F4B587910B95A711B689847C3
:1052E4004FF08043D3F8042182B10022C3F8042193
:1052F400D3F804210192019A0222C3F80823054B32
:105304001B68012003B05DF804EB184703B05DF897
:1053140004FB00BF1808002000F1804000F5C040E5
:10532400002382B0036003680193019B02B07047BD
:10533400C208012300F0070003FA00F08B5C184355
:10534400885470471F2808B504D904494FF4F370F2
:10535400FCF7D8FB4FF0A04008BD00BF68830000F5
:1053640038B505460C46FFF7EDFF00EB8500D0F895
:10537400003723F44033C0F80037D0F8003743EA4D
:105384000443C0F8003738BD2DE9F04F85B0002440
:10539400594D01944FF48072012102F1804303F5C9
:1053A400C04390B21B68012B06D1D5F804330B42DD
:1053B40002D0FFF7B1FF0C430432B2F5907F4FEAFD
:1053C4004101EAD14C4BD3F87C31012B0AD14FF483
:1053D400BE70FFF7A1FF4FF0A04344F00044D3F8A0
:1053E40010350193E3B2D3B1444F00250126344272
:1053F40010D0AB0003F1804303F5C043D3F810058C
:10540400D3F8101557F8253023B1C1F30141C0F387
:10541400042098470135082D4FEA4606E7D1002CB1
:1054240063DA002302934FF0FF330026DFF8D0A0A5
:10543400039335461AF9014B631C4BD0C4F3C207DE
:105444000122E3B204F03F0B04F0070402FA04F46F
:1054540004AA174417F8041C21423BD04FEA9319BD
:10546400264B03EB0B0191F9301053F82180B8F16E
:10547400000F07D1B9F1030F2CD102A95846FFF749
:1054840057FF02E0B9F1030FF7D05846FFF75AFF70
:105494000BF5E07150F8211017F80C0C2042C1F301
:1054A400014106D0022915D1B9F1030F0CD14946A7
:1054B40005E003290ED1B9F1030F05D102215846A5
:1054C400FFF74EFF0135EDB2B8F1000F02D04946A7
:1054D4005846C0470136042EACD135B14FF0A04335
:1054E400019AD3F81035934202D105B0BDE8F08F8C
:1054F4000193029B99E700BF006000402008002050
:105504007008002010B5054C23681BB904495120CC
:10551400FCF7F8FA2368BDE8104018477C0800201F
:10552400468F000038B50D4628B90C497720FCF7A2
:10553400E9FA002038BD0A4B9842FAD10020FCF762
:10554400C1FA084B1C7914B901221D601A7100209C
:10555400FCF7C8FA002CECD01120EBE7468F0000D2
:10556400002000407C08002018B906499B20FCF765
:10557400C9BA054B984201BF044B00221A601A7144
:10558400704700BF468F0000002000407C080020C8
:105594000023435082B043580193019B02B07047EB
:1055A4002DE9F0470E78089F9DF824A004460D4687
:1055B4009846002E5BD1D0F82431D2F800903BB14C
:1055C4004FF49271FFF7E4FF012363612B7014E041
:1055D400D0F81C313BB34FF48E71FFF7D9FFD0F8EC
:1055E4002431002BECD113689F4212D918F80330F0
:1055F400C0F81C35136801331360B94535D1D4F8AC
:10560400043193B34FF482712046FFF7C1FF0026A3
:1056140004E00123BAF1000F03D0C3613046BDE8B2
:10562400F0874361E9E7D0F80831002BE5D04FF467
:105634008471FFF7ADFFD0F82431002BC0D113687B
:105644009F42DAD9D0F8181508F80310136801330B
:1056540013607A1E934205D10223C0F8003201235D
:105664002362CAE79F42FAD1C7E70126D6E74FF47F
:105674009271FFF78DFF4FF48E71FFF789FF4FF49E
:105684008471FFF785FFBAE72DE9FF470C4605460D
:105694001F4620463B4B03934FF482719DF83080A4
:1056A400FFF776FF4FF49271FFF772FF4FF48E719C
:1056B400FFF76EFF4FF48471FFF76AFF0023C4F80D
:1056C40000326B6385F82E3001232362A3601646F3
:1056D4006A6B97421DD9B35CC4F81C356B6B0133FC
:1056E4006B632B68E3B905F1340A05F12E09039BBA
:1056F400002B1FDC95F82E3053BB0020039B002B9E
:1057040015DC0023C4F800350523C4F80035032054
:105714000DE0B8F1000F01D0E361E2E76361E0E777
:1057240040F28623AB60AB68C4F80433002004B0B5
:10573400BDE8F087CDE90078334652464946204615
:10574400FFF72EFF0028D5D0039B013B0393CEE740
:10575400D4F8C434C4F8C434002BCED013F0010FF1
:1057640014BF4FF40240032048F2012213F0020F49
:1057740018BF104613F0040F48F2022318BF18464E
:10578400BCE700BFA08601002DE9FF470C46054693
:105794001E462046364B03934FF48271FFF7F8FE02
:1057A4004FF49271FFF7F4FE4FF48E71FFF7F0FEA1
:1057B4004FF48471FFF7ECFE0023012ED5F800802E
:1057C4006B6385F82E3017464FF0010306BF0222A3
:1057D400C4F80022C4F8003223622360B8F1000F39
:1057E40015D105F1340A05F12E09039B002B18DCB1
:1057F40095F82E301BBB0020039B002B0EDC0023EE
:10580400C4F800350523C4F80035032006E040F24F
:105814008623AB60AB68C4F80433002004B0BDE851
:10582400F087CDE900683B46524649462046FFF7DB
:10583400B7FE0028DCD0039B013B0393D5E7D4F8E3
:10584400C434C4F8C434002BD5D013F0010F14BFF2
:105854004FF40240032048F2012213F0020F18BF54
:10586400104613F0040F48F2022318BF1846C3E78A
:10587400A0860100F0B52F4C236889B023B92E49C6
:105884004FF42070FCF73EF994F82C302B4A019326
:10589400A36A00932A48636A911FFFF781FEE0B967
:1058A40094F82EC0276ABCF1000F1FD1217B8B1EF8
:1058B400012B1BD8626AA3699A4217D1E269636912
:1058C4006262C7F340170329A36284F82C7006D1DF
:1058D4001B4918480097FFF7D7FE09B0F0BD1849D7
:1058E400144809B0BDE8F040FFF74EBF154E0FCE87
:1058F40003AD0FC533682B60BCF1000F17D0104AFD
:10590400D2F8C434C2F8C43499070CD501238DF8F5
:105914000830002384F82F307B07DED4D4E900312B
:1059240002A89847D9E75A07F3D50223EFE78DF881
:1059340008C0EEE7840800208F8F0000B80800201C
:1059440000300040900800202DE9F74F8046934630
:1059540001930D4619B949498920FCF7D3F8D5E9D3
:1059640000239A4203D145498A20FCF7CBF898F8E2
:105974000490434F3C2303FB09FA07EB0A0494F811
:105984002D20002A75D13F49D8F80000FFF7CAFD41
:10599400064600286FD1019B63606B7BA06084F88E
:1059A400300084F82F0084F838302C6847F80AB0A7
:1059B4001F2C04D934494FF4F370FCF7A3F804F511
:1059C400E0744FF0A04A40F20C634AF824306C684B
:1059D4001F2C04D92C494FF4F370FCF793F804F509
:1059E400E07440F20C634AF82430D5E90012D8F888
:1059F4000040C4F80815C4F80C25AA68C4F8242586
:105A04003C2202FB09F2BA584AB32D7B072D4FEA18
:105A1400143A44F3073403D91C496B20FCF772F899
:105A2400002CACBF04F16043194B4FEA4515B8BFD5
:105A34000AF00F0AEDB2AABF03F5614303F80A5056
:105A440083F80053D8F80030012143F30732C3F33D
:105A5400043301FA03F352090E4941F822303C237E
:105A640003FB0977012387F82D30304603B0BDE8E6
:105A7400F08F0826F9E71126F7E700BF8F8F0000A3
:105A8400840800207958000068830000D08F00004B
:105A940014ED00E000E100E070B50C4C06793C2305
:105AA40003FB0643054693F82D30012B03D0084928
:105AB400E820FCF727F82B680522C3F800253C23CF
:105AC40003FB0644022384F82D3070BD84080020B3
:105AD4008F8F00002DE9F74F0779DFF8F4804FF03E
