:020000022000DC
:1060000000000420756302005D6302005F6302000C
:106010006163020063630200656302000000000028
:1060200000000000000000000000000067630200A4
:1060300069630200000000006B6302006D630200F0
:106040006D7E02006F630200F58002006F63020044
:106050006F6302006F630200457F02006F630200FE
:106060006F6302006F6302006F6302006F630200E0
:106070006F6302006F6302006F6302006F630200D0
:106080006F630200996E02006F6302006F6302008B
:10609000356F02006F630200119902006F63020006
:1060A0006F6302006F6302006F6302006F630200A0
:1060B0006F6302006F630200000000000000000038
:1060C0006F6302006F6302006F6302006F63020080
:1060D0006F6302006F6302006F6302006F63020070
:1060E0006F6302006F6302006F6302000000000034
:1060F000000000006F630200000000006F630200F8
:10610000000000000000000000000000000000008F
:10611000000000000000000000000000000000007F
:10612000000000000000000000000000000000006F
:10613000000000000000000000000000000000005F
:10614000000000000000000000000000000000004F
:10615000000000000000000000000000000000003F
:10616000000000000000000000000000000000002F
:10617000000000000000000000000000000000001F
:10618000000000000000000000000000000000000F
:1061900000000000000000000000000000000000FF
:1061A00000000000000000000000000000000000EF
:1061B00000000000000000000000000000000000DF
:1061C00000000000000000000000000000000000CF
:1061D00000000000000000000000000000000000BF
:1061E00000000000000000000000000000000000AF
:1061F000000000000000000000000000000000009F
:10620000354936480A1A02D0072291438D4634494F
:1062100034480A1A06D00722914381F309880222E2
:1062200082F3148830483149314A00F044F831484B
:106230003149324A00F03FF831483249324A00F0E1
:106240003AF832483249334A00F035F83248334997
:10625000334A00F030F833483349344A00F02BF821
:1062600033483449344A00F026F83448344900228F
:1062700000F02CF833483449002200F027F8334866
:106280003349091A082902DB002202604160314AC1
:1062900090471F481F49884205D00268043003B464
:1062A000904703BCF7E700208646EC46002000211B
:1062B000294A9047FEE7884207D0521A05D0037852
:1062C00001300B700131013AF9D17047884202D098
:1062D00002700130FAE770470000042000E003205C
:1062E00000000420000004208CAF0200982A002047
:1062F000C82A0020D4630200D46302009E9F0200DB
:106300008CAF0200982A0020982A002094A0020056
:1063100094A0020094A0020094A0020094A00200A5
:1063200094A0020094A0020094A002008AAF020090
:10633000BCAF0200C82A0020C82A0020C82A0020BA
:106340006F3800207038002070380020703800202E
:10635000705800209D630200ED830200FEE7FEE717
:10636000FEE7FEE7FEE7FEE7FEE7FEE7FEE7FEE705
:10637000704700BF1048804710484FF0070188431E
:1063800085460F4880470F48016841F4700101605D
:10639000BFF34F8FBFF36F8FFFF732BF0A480B4930
:1063A0000B4A884207D0521A05D0037801300B708F
:1063B0000131013AF9D170477163020000000420F5
:1063C000457B020088ED00E094A00200982A00209E
:0463D000982A0020E7
:1063D4007047000007B5044B0093044A402300F0C3
:1063E40032F803B05DF804FBF5630200C92A00200B
:1063F4002DE9F84388461446B2B10F4B0F4E0325DE
:10640400002743F00109224608EB0701002002F0AF
:1064140037F90744241A48B933782BB14FF47A403A
:10642400C847013D02D13570BDE8F88301233370BC
:10643400002CE8D1F8E700BFA0A00200C82A002081
:10644400704702F04DB9F0B595B01D4616460846A2
:106454000C4601F0B9FA1A9B0D93CDE908650025A5
:106464002B46082205A920460A958DF82C500C9538
:1064740001F0C6FA079B0293069B03939DF8143020
:106484008DF8115003F00302012A1DD1BDF8142028
:10649400059DC3F3C203C2F383168DF81030B20016
:1064A40008230EA9204601F0ABFAC5F3952508ABE5
:1064B4000093324602AB0EA9284600F07BFB20462F
:1064C40001F086FA15B0F0BD022AF8D1BDF81650D5
:1064D400C3F3C203C5F389158DF810300827082DBE
:1064E4002E4628BF08263B4632460EA9204601F018
:1064F40087FAAD1B08AB02AA31460EA8374400F058
:10650400BDFB002DEBD1DAE708B5FFF79AFF04488D
:10651400042100F0B9FA034B01225A7108BD00BFEF
:1065240084A00200982A0020037813F0040216D0F5
:1065340003F00303012B03D0022B09D00120704781
:106544000A6800880232C0F3831002440A60F5E747
:106554000B684288023303EB92130B60EEE710469C
:10656400704700002DE9F04FDFF830A187B00F46E7
:1065740000230446861C0DF1070015468DF80730EC
:1065840000F0CCFEDAF800103960DAE90132134485
:1065940001335B1A0AF21C470AF583690AF21448AC
:1065A400B3421CD30020002D73D004F00F039B01D1
:1065B40043F0050363F30F00DAF80020DAF808303B
:1065C4001340033332444AF823009DF80700CAF805
:1065D400002000F0C7FE012007B0BDE8F08F0121C4
:1065E400384600F020FF484600F035FF404600F0F2
:1065F40032FFDAF80400DAF808B0029000EA0B007F
:1066040003300AEB800002A9FFF78EFF029B50BB08
:106614000BEA03020AEB820203F1020CD268039232
:10662400013303EA0B0B0AEB8B0B02F00302012A82
:10663400DBF80C10CDF808C023D0022A16D083460C
:10664400404600F00BFF10B1029BCAF804305946D3
:10665400384600F0E8FEDAE901231344DAF80020B2
:1066640001339B1A9CE70BEA0300C9E7BDF80E301F
:10667400C3F3891303334FEA114B0CEB93030293D7
:10668400DEE7BDF80C30C3F383134FEA114B6344C8
:10669400F5E7A40544F006008EE700BFDC2B0020DC
:1066A4000B4B0C48FF2210B59A600022C3F8182443
:1066B400C3E90022C3F8142483F8202401F03DF92F
:1066C400044610B9044801F0E5F9204610BD00BFA6
:1066D400DC2B002008A00200DCA0020030B50A4C2C
:1066E40071B10A4A0A49121BD20800239A4201D105
:1066F400002030BD31F82350854202D00133F5E744
:10670400034654F83300F4E71CA0020084A00200FE
:10671400982A0020094B013903EBC000032909D84A
:10672400DFE801F00A02040604207047007970478C
:106734004079704700207047022070471CA0020077
:10674400034BD3E90030C31A58425841704700BF85
:10675400DC2B00202DE9F04387B0FFF7F1FF06465C
:10676400002840F0FE80804CC4F81804BFF34F8F1B
:106774006368A56802932B40033304EB830002A9EA
:10678400FFF7D2FE029B18B1D4F81824002A62D075
:1067940005EA0302991C013304EB82022B4004EB4B
:1067A4008303D268DB68049302F00303022B039291
:1067B400029163D1BDF80E306C48C3F38917502F92
:1067C400B84628BF4FF0500808F1080168F38F134A
:1067D400C1F30901ADF80E3001F0C7F806460028F0
:1067E40000F0AA8001F0F0F80023082203A9304643
:1067F40001F0FCF8029925EA01020132B8EB820F9C
:106804004FEA820333D95FFA88F863B32940DDB2D3
:10681400A8EB050803315FFA88F9A846544D04EB48
:10682400810108234246304601F0E0F83DB108F109
:106834000803DBB24A462946304601F0D7F8029BEA
:10684400033703EB97070297D4F81834002B4BD186
:10685400D4F810545BE022689A428CD862603046C7
:1068640007B0BDE8F08342491D469946D9E729405F
:1068740003310823424604EB8101DDE7012B5BD1A0
:10688400BDF80C303948C3F38311062928BF06210B
:1068940061F38913023101F00F018900ADF80C3066
:1068A40001F063F80646002846D001F08DF8002375
:1068B400082203A9304601F099F80027BDF80C20FE
:1068C400C2F38312BB00974203F10803BCD20299BE
:1068D4004A1C29400331029204EB81010422304610
:1068E40001F084F80137E9E7304601F071F8FFF769
:1068F40027FF80F00100C6B2B1E7EB685B7923B1F2
:106904002B6831461B6828469847EB681D68002DA4
:10691400F3D1304601F05CF80DF107008DF8075013
:1069240000F0FCFCD4F818340BB9029B63609DF8AA
:10693400070000F017FDDAE7D4F8104454B90D4B02
:106944000D480E49C01AC008000440F0020000F0CF
:1069540063F8CCE7236820469B689847E3681C6883
:10696400ECE700267BE700BFDC2B002008A0020038
:10697400E82B00201CA0020044A00200C4A00200D6
:106984002DE9F74F224E04460F46924601A90122F3
:106994001846D6F808909B46FFF7E4FD20B3019D06
:1069A4004FF00008AA1CD84508EB020126D119486B
:1069B400002100F009FD80F31000000440EA1440B7
:1069C400E4006B1C04F0380403EA090305EA090532
:1069D40044F0010406EB8303033544EA881444EAD3
:1069E4008724D86046F8254096F820341BB1FFF779
:1069F400B1FE0028FBD103B0BDE8F08F09EA010124
:106A040006EB81015AF82830CB6008F10108CAE787
:106A1400DC2B0020F82F002000231A46FFF7B0BF1C
:106A240007B50123019201AAFFF7AAFF03B05DF89D
:106A340004FB07B5CDE9002302236A46FFF7A0FF54
:106A440003B05DF804FB1FB5CDE90023069B029358
:106A5400079B03936A460423FFF792FF05B05DF892
:106A640004FB7FB5CDE90023089B0293099B0393A4
:106A74000A9B04930B9B05936A460623FFF780FF4A
:106A840007B05DF804FB000030B50F4CD4F81024B7
:106A940003460020114631B9D96808714AB9C4F8CF
:106AA40010340A6030BDC9680D79854206D0096882
:106AB400F1E7D26814680C601360F3E701300A2828
:106AC400E8D14FF0FF30EDE7DC2B002038B5084B60
:106AD4000125D3F8104483F8205404B938BDE36881
:106AE4005D71236820465B689847E3681C68F4E797
:106AF400DC2B002030B5C38885B004460D4633B185
:106B0400144A00921449154A284600F00AFD217AD5
:106B140005291DD0637A4BB1A088FFF7FBFD104B0C
:106B2400104953F82020284600F0FBFC227A0E4B33
:106B3400A08853F8222003920021FFF7CFFD039A87
:106B44000A490346284605B0BDE8304000F0E9BCD8
:106B540005B030BD08A10200F0A00200E8A00200C8
:106B640074A1020097A8020098A102000DA10200DE
:106B740007B503460846197A052911D05B7A2BB16B
:106B8400094A0A49019000F0CCFC01980849019097
:106B940000F0C7FC019803B05DF804EB00F0B6BC4C
:106BA400002AF8D0F2E700BF08A1020097A802006B
:106BB40048A802002DE9F04385B01F460C9D002330
:106BC40095F80C902B7306460C4690462946384699
:106BD400FFF790FFB8F1060F09D8DFE808F00412B8
:106BE400181F283340003146284600F09AFC002242
:106BF40029463846FFF7BCFF85F80C9005B0BDE880
:106C0400F08322683146284600F08BFCEFE7D4E994
:106C140000233146284600F084FCE8E7A36800938B
:106C24003146D4E90023284600F07BFCDFE7E36823
:106C34000193A36800933146D4E90023284600F069
:106C440070FCD4E723690293E3680193A36800937B
:106C54003146D4E90023284600F063FCC7E76369A2
:106C6400039323690293E3680193A3680093314675
:106C7400D4E90023284600F054FCB8E708292DE99C
:106C8400F74F80460E4617461C463DD800251B7B11
:106C94002573214610460193FFF72CFFDFF88CA0E3
:106CA400DFF88CB0AE4232D918F805205946204698
:106CB40000F037FC0135082DF4D11B49DFF874A02E
:106CC400DFF874B0204600F02CFC4FF000094E456C
:106CD40024D918F809507E2D1ED8284603F0AAF8A6
:106CE400002814BF2A462E225946204600F019FCDB
:106CF40009F10109B9F1080FE9D101222146384609
:106D0400FFF736FF019B237303B0BDE8F08F5146B4
:106D1400204600F006FCCDE72E22E5E7514620464A
:106D240000F0FFFBE4E700BF21A102001DA1020067
:106D340017A102001FA1020023A102001FB5002118
:106D4400039001AA44F20100CDE9011100F004F816
:106D540005B05DF804FB000038B572B6FFF7B6FE67
:106D6400FFF7F8FC0028FBD1104B114C114D1249D0
:106D7400E41AE408240444F00100FFF74DFED5F8BA
:106D8400F030DB0700D500BE0C4944F00200FFF7E9
:106D940043FEBFF34F8FEA68094B02F4E0621343EA
:106DA400EB60BFF34F8F00BFFDE700BF1CA00200E4
:106DB40044A0020000ED00E0ACA10200B8A1020072
:106DC4000400FA05094B5A7899780132D2B29142FB
:106DD40008BF0022197891421FBF02705878182208
:106DE40002FB003014BF04300020704798300020AC
:106DF40073B5054600240DF107000E468DF80740D3
:106E040000F08CFA0DF10600FFF7DCFF90B106707C
:106E1400094B9DF8062045605A709DF8070000F064
:106E2400A1FA24B9054B4FF48012C3F8002120467F
:106E340002B070BD0424F0E79830002000E100E0C7
:106E4400024B4FF43C6043F001031847D0A1020009
:106E540038B50C4B0C4C4FF40032C3F8802001259C
:106E64004FF48033C4F84833C4F808336560FFF73F
:106E7400E7FF064BA56000241C60FFF7E1FF044B0D
:106E84001C7038BD00E100E000100140B431002066
:106E9400A5310020F8B51F4B1F491B680025C1F818
:106EA4004051C1F84451C1F84851C1F84C51C1F89E
:106EB4000051C1F804514BB3D1F80445174909688E
:106EC400641A24F07F442F461A68A24209D8A41AEF
:106ED40015441A7CDE691AB1D3E905201F74904762
:106EE400AEB90F4A0F4B11781B788B4205D1013391
:106EF400DBB2022B08BF0023137012780A4B43F84D
:106F040022500A4B4FF48012C3F80021F8BD3346D7
:106F1400DAE700BFB831002000100140B43100208E
:106F2400B1310020B0310020A831002000E100E0A0
:106F34002DE9F04FA14AA24913780978A14D99424D
:106F440085B03CD00133DBB2022B08BF00231370A1
:106F54009D4912789D4B0F6853F822003B1823F08B
:106F64007F4300220B602B6816461446944613B9DF
:106F740042B12B6006E0196881420ED902B12B6040
:106F8400091A196001272B68DFF848A201934FF012
:106F94000008BEB9DFF844B260E0401A0C44D96876
:106FA400D3F81CE0C3F800C031B13A1922F07F4293
:106FB400C3E90121DE611E4673460122D7E700269C
:106FC4003746E0E73446F6697F4B60681B68DFF8B4
:106FD40010C2A168C21A22F07F42624500F2A68064
:106FE4000A442260012222742A680023C4E901337E
:106FF400E361002A40F0A3802C60CAE79BF80210EA
:107004005A1CD2B291428BF8002004BF00228BF8A4
:107014000020182202FB03B32A6819799C6802290C
:1070240075D003297FD0012918D1207CB0B9D3E9C8
:107034000312A2605A69E2609A69654BA2611A78E8
:10704400002A18BF01466160BEE78C4200F09480BC
:107054008946C9690029F8D1002323749BF80030BC
:107064009BF801209A42C9D12B68B8F1000F04D1D2
:10707400019A9A4201D1002F43D0002B79D0D3F842
:1070840000A0544D504BD5F804751C68DFF85481AA
:107094003E1B98F8003026F07F4603369BB94FF428
:1070A4008033C5F84433C5F804334B4B4FF40032F6
:1070B4004FF00109C3F880211A60C5F80090FFF76A
:1070C400BFFE88F80090B2452CBF5444A41924F0A4
:1070D4007F44C5F84045D5F80435DB1B23F07F43D6
:1070E400E41B033324F07F44A3420AD9D5F80435C2
:1070F400C5F84035FFF7A4FE374B4FF40032C3F810
:107104000021334B00221A7005B0BDE8F08F114600
:1071140091469FE71174D2690123002AFAD1002B0A
:107124009CD02A609AE700231946F6E71B1A23F03D
:107134007F438B4234BFCB1A0023236052E721687C
:107144001368994213D85B1A1360E26154E7091A71
:10715400D8691A4638B1034618688842F7D3401AEA
:107164001860184613462160E061DC6111E713469C
:10717400F2E7FFF76DFEC4E74C4511D1D3692B60EC
:1071840073B9DFF844E00120CDE90212CAF808001F
:10719400CEF800300E4B1870FFF752FEDDE90212F4
:1071A4000B68C969C9F81C1011B1086803440B6065
:1071B4002B68934218BF4FF001084DE7B03100200F
:1071C400B1310020B8310020B4310020A8310020B2
:1071D400A43100200010014000E100E098300020BC
:1071E400FEFF7F00A531002008B5FFF731FE104BEC
:1071F40000200B2218809A700E4B18600E4B1870EA
:107204000E4B18700E4B4FF48012C021C3F880212E
:1072140083F814131A6002F18042A2F56F22C2F8B7
:10722400080583F81113074BD2F804251A6008BD2A
:1072340098300020B8310020B0310020B131002056
:1072440000E100E0B4310020074B9B784BB132B130
:1072540028B10368187C20B959745A617047072013
:1072640070470820704700BF983000202DE9F7438D
:10727400DFF8848098F8023005460E461746ABB313
:10728400A0B3042930D9436983B3437C0024012B80
:107294000DF107000CBF8946A1468DF8074000F0A8
:1072A4003DF80DF10600FFF78DFDD8B10123037001
:1072B4000F4B4560D3F80435C0E90497C0E90236A2
:1072C4009DF8063088F801309DF8070000F04AF870
:1072D40024B9084B4FF48012C3F80021204603B0B0
:1072E400BDE8F0830424EFE70724F7E70824F5E773
:1072F4000010014000E100E098300020064A927836
:107304003AB130B1426922B1002202740221FFF77E
:107314006FBD0820704700BF9830002070B5EFF3B0
:10732400108672B60C4A946801239CB993600B4B87
:107334000B4DD3F8801029401160C3F88050D3F866
:10734400841051604FF0FF32C3F88420047006B9F2
:1073540062B670BD0370FAE7BC31002000E100E0C2
:10736400FC06FFBD084B9A6810B55AB150B9EFF34B
:10737400108172B6054A1C6814605C685460986099
:1073840001B962B610BD00BFBC31002000E100E0CD
:1073940001F01F024B090121914000EB830000F032
:1073A4001EB801F01F0301229A404B0900EB830031
:1073B400D14300F02CB84B0901F01F0150F8230011
:1073C400C84000F00100704710B5034653E8000FB1
:1073D4000A4643E8002494F0000FF7D110BD10B51D
:1073E400034653E8002F42EA010043E8000494F006
:1073F400000FF6D110BD10B5034653E8000F00EAA4
:10740400010243E8002494F0000FF6D110BD10B53A
:10741400034653E8002F02EA010043E8000494F015
:10742400000FF6D110BD10B5034653E8002F02EB50
:10743400010043E8000494F0000FF6D110BD10B52C
:10744400034653E8002FA2EB010043E8000494F044
:10745400000FF6D110BD0121FFF7C1BF0021FFF7D6
:10746400CABF10B590B1D0E9012301689B1ADBB201
:107474000A60013BDBB2FF2B026802D100201071CD
:1074840010BD11684C1C14600B70F2E70E20F7E776
:1074940037B5054600240DF107008DF80740FFF7C6
:1074A4003DFF2A686B68116899420ED9481E106026
:1074B40011F8013CEC68298A01FB0344AB6811799B
:1074C4001B1ADBB2994238BF13719DF80700FFF70E
:1074D40049FF204603B030BD37B5054600230DF102
:1074E40007000C468DF80730FFF718FF2A68136869
:1074F400591C1160E968641A298AB4FBF1F41C7000
:107504009DF80700FFF72EFF03B030BD826810B569
:1075140004462AB143690168006998470023A360BF
:1075240010BD0EB403B5039921B104AB01AA0193B4
:1075340000F076F802B05DF804EB03B070470A2956
:1075440038B504460D4602D10D21FFF7F8FFA368B4
:107554002268591CA160D554D4E901329A4204D35B
:107564002046BDE83840FFF7D1BF38BD2DE9F84FBC
:107574009846DDE90A43154682460F460A464FF00F
:107584000109AA420FD2C14538BFC14613F0010B0D
:1075940001D16CB900240126B8F1010F1BD908F1FF
:1075A400FF386E43F8E709F10109B2FBF5F2E8E7A9
:1075B4009B070ED5B8F1000F0CBF30262026A1453D
:1075C400E9D2013C31465046FFF7B9FF002CF6D111
:1075D400E0E72026F3E7B7FBF6F39D42E1D9DFF8B5
:1075E4003C80B7FBF6F3504618F8031006FB1377FC
:1075F400FFF7A5FF3346AB42B6FBF5F6F1D2BBF17C
:10760400000F02D00CB1A14501D3BDE8F88F2021B1
:107614005046013CFFF793FFF4E700BFD6A10200F8
:107624002DE9F74F054617468846002900F03E81AC
:1076340018F8011B49B92B7B002B00F03781284631
:1076440003B0BDE8F04FFFF761BF252940F0B780D4
:10765400002698F800302D2B424608F1010823D06B
:10766400302B24D02B2B25D000242A2B02F101010E
:1076740023D13B681A1D1B683A601C440A461378E0
:107684002E2B26D101324FF0000A104610F8011BB0
:10769400A1F1300CBCF1090F1DD80A2303FB0A1316
:1076A400A3F1300A0246F0E746F00106D1E746F0BE
:1076B4000206CEE746F00406CBE711F8013CA3F13D
:1076C40030000928DBD80A2202FB0434303C0A4685
:1076D400CBE74FF0000A12F8011B01F0FB00682809
:1076E4009046F8D0782909D86F290CD8632962D03C
:1076F40022D8252963D0582900F0888098F80030D2
:10770400002B95D197E770390829F7D801A353F8CE
:1077140021F000BF8B78020001770200017702009C
:107724002178020001770200FF770200017702004E
:107734000177020011780200642901D06929DDD1A2
:107744003A68D2F80090111D89EAE9723960A2EB17
:10775400E9724FF0010B092A35DCD34538BFD34613
:107764002CB1B9F1000F01DB720700D5013CB3075E
:1077740002D5BAF1000F03D0F00701D44CBB0024AA
:10778400B9F1000F2DDAC9F100092D212846FFF7C0
:10779400D6FE06F00302022A04D1BAF1000F01D189
:1077A4001CBB0024CDE9004653460A22494628461C
:1077B400FFF7DCFEA2E73B681A1D19783A602846F9
:1077C400FFF7BDFE9AE70A230BF1010BB2FBF3F2BC
:1077D400C1E7A345D4D220212846013CFFF7AFFEE0
:1077E400CCE77107D5D52B21D0E7A345DAD23021D8
:1077F4002846013CFFF7A3FED2E73968CDE90046ED
:107804000A1D3A6053460A220968D0E739680A1DFE
:107814003A60CDE9004653461022F5E73B681A1D4D
:107824003A6016F00106D3F8009024D1B9F1000FA4
:1078340003D0484602F081FB0646B4421DD809F144
:10784400FF3919F8011F00293FF458AF2846FFF704
:1078540076FEF6E728460136FFF771FE19F80610A2
:107864000029F7D1A642BFF449AF20212846013CA4
:10787400FFF765FEF6E70026F0E720212846013CE5
:10788400FFF75DFED9E73B681A1D3A6030212846B0
:107894001C68FFF754FE78212846FFF750FE0022AB
:1078A4000823CDE900322146102280E703B0BDE869
:1078B400F08F00BF2DE9F84FB0F806A04579D2F853
:1078C40000B09DF828900AFB05F5043D88460BEBB3
:1078D4000301A94203F1040488BFA5EB030BB4FB25
:1078E400FAF607460AFB1644C2F800B04EB9AAEBF2
:1078F40004055D4528BF5D46BBF1000F04D1BDE81A
:10790400F88F3F68013EF1E7043408EB06003C447D
:107914002A46B9F1000F0DD02146ABEB050B02F05E
:107924008EFADA452E443F6855464FF0000428BFCE
:107934005D46E1E701462046EFE7FFF792BDF8B563
:1079440046790146721E0546002393422D6803D3EF
:107954000024A64202D8F8BD0133F6E70F68284692
:10796400FFF7BAFD01343946F3E72DE9F843068AF7
:10797400CD1C0746FFF78CFD043E35440446B5FB99
:10798400F6F5F0B14FF48073EDB28380C680013D0B
:10799400076081464FF00008A84512D23846FFF729
:1079A40077FD064648B163790133637108F1010834
:1079B400C9F8000007608146EEE72046FFF7BFFFE5
:1079C40034462046BDE8F88301210430FFF72BBD7F
:1079D40010B5012104460430FFF731FDC0B220B9CF
:1079E4002046BDE81040FFF7AABF10BD1FB50392A3
:1079F4000022009203AAFFF75DFF05B05DF804FBC7
:107A04001FB503920122009203AAFFF753FF05B0AA
:107A14005DF804FB41DF7047064B10B500241C7071
:107A2400054B1C60BFF35F8F0449054800F03BF829
:107A3400204610BDD0310020D4310020F0A1020036
:107A4400C831002007B500230DF107008DF8073079
:107A5400FFF764FCF1EE103A23F09F03E1EE103AD5
:107A6400BFF35F8F0A4B4022C3F884219DF80700BF
:107A7400FFF778FC01F030FF20B103B05DF804EBB0
:107A8400FFF7C8BF20BF40BF20BF03B05DF804FBB1
:107A940000E100E0836800225A60C3E904229A608E
:107AA400DA601A6070470B684A684360934208BF03
:107AB4000023016008BF43607047436843B1026814
:107AC400916852680B449342436004BF00234360AF
:107AD4007047000010B50D49A1F59472914201D888
:107AE40000200FE08C1AE30F03EBE4035B1002EBBE
:107AF400C30452F83330834205D802D204F1080299
:107B0400ECE7606810BD2146E8E700BFF4A6020078
:107B140008B5FFF7DFFF024B002808BF184608BD71
:107B2400B6A502004FF08053D3F83021082A03BFD2
:107B3400D3F83401B0FA80F0400900207047000007
:107B440008B54FF080430022C3F80C21C3F810217C
:107B5400C3F838254FF0805203F54043D2F804149B
:107B6400C3F82015D2F80814C3F82415D2F80C145D
:107B7400C3F82815D2F81014C3F82C15D2F814142D
:107B8400C3F83015D2F81814C3F83415D2F81C14FD
:107B9400C3F84015D2F82014C3F84415D2F82414BD
:107BA400C3F84815D2F82814C3F84C15D2F82C148D
:107BB400C3F85015D2F83014C3F85415D2F834145D
:107BC400C3F86015D2F83814C3F86415D2F83C141D
:107BD400C3F86815D2F84014C3F86C15D2F84424DD
:107BE400C3F87025FFF79EFF18B13B4B3B4AC3F81F
:107BF4008C26FFF797FF18B1394BFB22C3F81825E1
:107C0400FFF790FF70B14FF080414FF08053D1F8EF
:107C1400E42ED3F8583222F00F0203F00F0313437B
:107C2400C1F8E43EFFF77EFF20B12E4B4FF4007203
:107C3400C3F840264FF08043D3F80024D20744BF52
:107C44006FF00102C3F80024274AD2F8883043F4C5
:107C54007003C2F88830BFF34F8FBFF36F8F4FF0BC
:107C64001023D3F80022002A03DBD3F80432002BBC
:107C74002EDA1E4B0122C3F80425D3F80024002A6F
:107C8400FBD04FF010221221C2F80012D3F80024C6
:107C9400002AFBD04FF010231222C3F80422134B06
:107CA400D3F80024002AFBD00022C3F80425D3F81B
:107CB4000024002AFBD0BFF34F8F0B490C4BCA683A
:107CC40002F4E0621343CB60BFF34F8F00BFFDE7C4
:107CD400084B094A1A6008BD00500040488103005F
:107CE40000F000400090024000ED00E000E00140A0
:107CF4000400FA05A02A00200090D00338B5074CF0
:107D0400051E04F1080318BF1C4623682BB11A682A
:107D140022605B6828469847F7E738BDE0310020C9
:107D240020B9054B01225A70FFF7E8BF012802D1A0
:107D3400014A9070F8E77047D831002020B9034B0E
:107D440001225A70FFF7DABF704700BFD831002014
:107D540038B50B4C237883B90A486360A360236168
:107D6400E36000F059F8054601F0B6FD08B900F0EB
:107D74005FF801232370284638BD8525FBE700BF43
:107D8400D8310020257D020037B50B4C00230DF1BE
:107D940007008DF80730FFF7C1FAE368013BE360A1
:107DA400E56815B900F056F8A5709DF80700FFF7CF
:107DB400D9FA03B030BD00BFD8310020012813B573
:107DC40008D003281CD018B9114B0122C3F8802015
:107DD40002B010BD0F4C00230DF107008DF80730E1
:107DE400FFF79CFA23780BB9FFF7B2FFE3689DF81D
:107DF40007000133E3600123A370FFF7B3FAE7E759
:107E040000F016F802B0BDE81040FFF7BDBF00BF98
:107E140000E100E0D8310020044A137923B901219C
:107E2400106091801846704785207047EC3100201F
:107E3400074B1A68D2075FBFC02283F800230122D0
:107E44001A604FF080430122C3F81825704700BF21
:107E540000E100E04FF080430122DA60D3F81824F7
:107E6400D203FBD4704700004FF0804307B5D3F82A
:107E740000217AB10022C3F80021D3F80021009236
:107E8400009A0122C3F808230F4B587910B95A718C
:107E94001B6898474FF08043D3F8042182B1002235
:107EA400C3F80421D3F804210192019A0222C3F8F1
:107EB4000823054B1B68012003B05DF804EB184749
:107EC40003B05DF804FB00BFEC31002000F18040FA
:107ED40000F5C040002382B0036003680193019B56
:107EE40002B0704703681F2B83BF03F01F030360B6
:107EF40001484FF0A04070470003005007B50190BF
:107F040001A8FFF7EFFF019B00EB8300D0F80037D7
:107F140023F44033C0F80037D0F8003743EA014176
:107F2400C0F8001703B05DF804FBC208012300F099
:107F3400070003FA00F08B5C184388547047000074
:107F44002DE9F04F00248BB0CDE90444644D4FF487
:107F54008072012102F1804303F5C04390B21B6893
:107F6400012B06D1D5F804330B4202D0FFF7AEFF44
:107F74000C430432B2F5907F4FEA4101EAD1584BE9
:107F8400D3F87C31012B0ED14FF4BE70FFF79EFF66
:107F94004FF0A04344F00044D3F810350493514B00
:107FA400D3F810350593E3B2D3B14F4F0025012622
:107FB400344210D0AB0003F1804303F5C043D3F83F
:107FC4001005D3F8101557F8253023B1C1F301413A
:107FD400C0F3052098470135082D4FEA4606E7D13E
:107FE400002C79DA0023CDE906334FF0FF33CDE9D5
:107FF4000833DFF8F4A03D4B019300263546019B7E
:1080040013F9014B0193631C4DD0C4F3C207012241
:10801400E3B204F03F0B04F0070402FA04F40AAAE2
:10802400174417F8081C21423DD00AEB0B014FEA14
:10803400931991F930105AF82180B8F1000F07D143
:10804400B9F1030F2FD106A95846FFF76EFF02E0DE
:10805400B9F1030FF7D003A8CDF80CB0FFF742FF36
:10806400039901F5E07150F8211017F8180C20421B
:10807400C1F3014106D0022915D1B9F1030F0CD186
:10808400494605E003290ED1B9F1030F05D10221B8
:108094005846FFF733FF0135EDB2B8F1000F02D0B7
:1080A40049465846C0470136042EA8D1A5B14FF021
:1080B400A0430499D3F8102503F540739142D3F8F3
:1080C400103502D10599994206D004920593069A77
:1080D400079B089209938EE70BB0BDE8F08F00BFB1
:1080E4000060004000030050F431002054320020AE
:1080F400014B1B68184700BF60320020032811D8C9
:10810400012A0AD101290FD100F10E02D2B20D4B7E
:1081140000EB40001A54002070470129F7D00229CF
:1081240004D049B1072070470022F8E7054B00EB63
:10813400400018444270EEE7024B00EB4000184444
:108144008270E8E76832002008B50122022100208D
:10815400FFF7D4FF08B1072818D107220221012014
:10816400FFF7CCFF08B1072810D100210A220846E6
:10817400FFF7C4FF08B1072808D102210D220846E1
:10818400FFF7BCFF10B1072808BF002008BD00009E
:108194000388102B10B502D0112B1ED010BD1A4C21
:1081A4002168B1B901220846FFF7A8FF08B10728E2
:1081B40024D1072202210120FFF7A0FF08B10728DC
:1081C4001CD1042202210020FFF798FF08B10728E0
:1081D40014D1236801332360E0E70B4A1368013BA1
:1081E4001360002BDAD1FFF7AFFF0028D6D0074B7E
:1081F4001B68002BD2D0BDE810401847034B1B6806
:10820400002BE6D09847E4E778320020743200204F
:108214007CDF7047FEF792BD30B50388112B85B023
:1082240004461FD0122B2DD0102B19D1093001F088
:10823400D5FC1D4DE38A039302461C48A38A02938E
:108244002D1A638A0193ED08238A00932D04A388D1
:10825400174945F00300FEF704FCA288154B1A8069
:1082640005B030BD114B1048A2881349C01AC0088C
:108274000004237A40F00300FEF7DBFB0D4B4FF6BE
:10828400FF72ECE7094B084822890C49C01AC00860
:10829400E38901930004A389009340F003006389F8
:1082A400FEF7D1FBDCE700BF44A002001CA00200E3
:1082B40016A70200A82A002074A70200A4A702009F
:1082C40010B50378012B044609D10C480C4B0D4919
:1082D4001B1ADB081B0443F00300FEF79DFB237805
:1082E4005BB90748054B0849C01AC0080004BDE83B
:1082F400104040F00300FEF78FBB10BD1CA002002D
:1083040044A00200C3A70200DCA702000B4B4A886A
:108314001B889A4211D10A8840F677239A420CD1DD
:10832400074A08488B880849801AC008033B0004A0
:108334001A4640F00300FEF77CBB7047A82A0020D1
:108344001CA0020044A00200F4A70200012303FAC7
:1083540000F04FF0A04311B9C3F80C057047C3F8FF
:108364000805704713B5124B124904461248227887
:10837400C01AC008E37801930004A378009340F086
:1083840003006378FEF75FFB21780D20FFF7DEFF23
:1083940061780E20FFF7DAFFA1780F20FFF7D6FFF0
:1083A400E178102002B0BDE81040FFF7CFBF00BF56
:1083B4001CA0020010A8020044A0020008B508494D
:1083C400084801F09FF808B1FEF7B8FC05485021B1
:1083D40001F0ACF818B1BDE80840FEF7AFBC08BD29
:1083E40011830200D434002000B54FF40041ADB035
:1083F4000020FEF755F908B1FEF7A0FCFEF784F85B
:10840400FEF7F2FE08B1FEF799FC01F095FC4D4C25
:108414004D4B4E49E41AE408240444F0010044F0AE
:108424000304FEF7F9FA4A492046FEF7F5FAFFF786
:10843400F3FA08B1FEF782FC01F010FA08B1FEF776
:108444007DFC002301A90120019301F099FA08B1F0
:10845400FEF774FC01A801F053FB08B1FEF76EFCB3
:108464003C4A3D49112320468DF80430FEF7D8FAE2
:1084740038490B2201A8FFF7CBFE08B1FEF75EFCDA
:10848400FFF79CFF4FF0013300933448344BCDF891
:1084940004D001A9029301F001FC08B1FEF74EFCDF
:1084A40030492046FEF7B8FAAC22002101A801F0B9
:1084B400EFFC02232C4A8DF804300123ADF8503030
:1084C40015928DF86D3006228DF8803027488DF88E
:1084D4000720402301A9239300F091FB08B1FEF784
:1084E4002DFC2248012100F087FB20462049FEF79D
:1084F40093FA0023CDE904331E4B01934FF4203348
:10850400CDE9023303238DF810301B4B069301A8E9
:108514001A4B079300F02CFE08B1FEF70FFC184924
:108524002046FEF779FA1148032100F0DDFB08B17B
:10853400FEF704FCFEF70EF90028FBD1FFF782FAE0
:10854400F8E700BF44A002001CA0020031A802000A
:108554004BA802007AA8020086A80200E834002092
:10856400698302009AA80200A42A00207C32002019
:10857400ABA80200AA2A0020C582020019820200C8
:10858400BCA802000369C26893429CBF80681B18A0
:10859400013B981A70472DE9F843D0E90294054647
:1085A400A9EB04084068904520440F46144404D9BC
:1085B40001F045FCEC60BDE8F8834246A4EB0904F5
:1085C40001F03DFC6868224607EB0801F0E72DE95D
:1085D400F843C5680646894617464FF000083469D3
:1085E400B3687068A54228BFE418013C621B5C1B99
:1085F400BC4228BF3C46944228BF144649462844FE
:10860400224601F01CFCB3682544AB4208BF002598
:108614003F1BA044A144F560E1D14046BDE8F88386
:1086240010B5114C114AA2610223C4E90433104B62
:10863400E361A2644FF400730E4A0F492362E264BB
:1086440000231022E01DA3626362E362A3656365F5
:10865400E365226501F04FFC0849204601F04BFC1C
:108664002023A37110BD00BF04350020CEA8020052
:108674008C3500207C350020D7A80200DBA802003E
:1086840070B5164B182400FB04451D4404FB00334D
:108694001646DC6A012C0ED0022C18D0E4B9284608
:1086A400FFF770FF864204D832462846FFF773FF6F
:1086B4003446204670BD2846FFF764FF86423446A0
:1086C40028BF044622462846FFF765FFF1E72846FF
:1086D400BDE87040FFF77BBF0024EAE704350020C3
:1086E400FFF79EBF6DDF704779DF70477DDF70470E
:1086F40064DF70472DE9F04F85B000250E9CBDF86E
:108704003CB0B4F800A00191074690461E46A94625
:108714003A884A450DDC45B12388013BA3EB0A03A3
:108724009BB2FF2B3AD806F80A30002005B0BDE80A
:10873400F08F7A6852F82900039000220DF10B01A2
:1087440003A8FFF7D5FF0028F0D19DF80B20424580
:1087540021D12288002D14BF0020022002EB080141
:10876400014459451ADC3DB9013292B2019B228081
:10877400B35422880132228022880DF10B01324445
:1087840003A8FFF7B5FF0028D0D121889DF80B205E
:108794000A442280012509F10109B9E70C20C5E743
:1087A4002DE9F341089FBDF824801546CDE90078F2
:1087B400022204461E46FFF79DFF50B9334610229D
:1087C40029462046CDE9087802B0BDE8F041FFF71C
:1087D40091BF02B0BDE8F0812DE9F04F0023178866
:1087E400138090F82D3085B006460D4614465BB3D1
:1087F400082F01D80C2028E102A8FFF773FF0028F6
:1088040040F023812388DDF809100822EA542388E4
:1088140001339BB21B222380EA54238801339BB289
:10882400EA182380E950BDF80D30938023889DF821
:10883400082006339BB212F0FE0218BF01222380E7
:10884400EA54238801332380B378FBB123880433AB
:10885400BB42CFD802A8FFF747FF002840F0F580BD
:1088640023880322EA54238801339BB219222380EC
:10887400EA542388BDF8082001339BB2E918238009
:10888400EA54120A4A70238802332380F2789AB198
:108894002388D91CB942ADD80221E9542388013375
:1088A4009BB201212380E95423880B449BB223808B
:1088B400EA5423880B4423807268AAB12388D91C04
:1088C400B94297D8022192F90020E9542388013350
:1088D4009BB20A212380E954238801339BB223806D
:1088E400EA542388013323803389002B40F0A1808C
:1088F400338A5BB1CDE900472B460722032106F1F9
:108904001000FFF74DFF002840F09F80338B5BB1D0
:10891400CDE900472B461522142106F11800FFF774
:108924003FFF002840F09180326A002A40F0908096
:10893400D6F82480B8F1000F30D0B8F8043021887C
:10894400981C8A1C0244BA423FF654AFFE283FF6F4
:1089540051AF03336B54238801339BB2FF2223802E
:10896400EA54238801339BB22380B8F80020EA54E8
:10897400E918120A4A702088023080B22080B8F8C0
:1089840004205AB1D8F8081000296BD0284401F00B
:1089940056FA2388B8F804201344238096F82C3020
:1089A400002B40F09880307800284ED03388012B7B
:1089B40058D0228802F1020CBC453FF61BAF0128B7
:1089C40005D17378023313449F42FFF413AF023F7F
:1089D400BF1ABFB202A905EB0C00ADF80870FFF78F
:1089E40085FE90BB3178BDF80830022900F0B980CB
:1089F40072789A4202D39F4280F0B180012940F0FC
:108A0400B280974293B2C0F0AE80ADF8083008212E
:108A1400BDF80830FE2B3FF6EDAE22880133AB548F
:108A24002288013292B22280A954228813442380DE
:108A34000BE0CDE900472B460622022106F108008F
:108A4400FFF7AEFE00283FF453AF05B0BDE8F08F4A
:108A5400B4F800C00CF10603BB423FF6CBAE11885C
:108A6400052901D80720F0E76FF4486E01EB0E03E7
:108A74009BB24FF27D3E7345F4D95388052BF1D94F
:108A84006FF44860181880B27045EBD94FF6FF7048
:108A9400814201D09942E5D8052305F80C3023889A
:108AA40001339BB212212380E954238801339BB202
:108AB40023801188E954E818090A41702388023395
:108AC4009BB223805288EA54E918120A4A70238818
:108AD400023323802CE7B36A002BC3D04FF0000885
:108AE4004FF00C0A4FF0160BB16A5FFA88F20AFBDA
:108AF40002F201EB0209B9F80430981CFE283FF693
:108B040079AE208803332B54238801339BB223800E
:108B140005F803B0238801339BB223808A5AEA54B0
:108B2400E918120A4A702088023080B22080B9F80D
:108B340004205AB1D9F80810002993D0284401F030
:108B44007EF92388B9F804201344238096F82C2056
:108B540008F101085FFA88F39A42C5D823E709218E
:108B640056E79F42FBD2ADF8087050E770B5C0B12C
:108B74004AB116880024B44203D305196D789D4286
:108B840008D0A14201D800200BE0055D01352C443A
:108B9400A4B2F0E7A142F6D9A31C1380005D01380A
:108BA40080B270BD13B513460022ADF806200DF156
:108BB40006020446FFF7DAFF10B1BDF80630E018EC
:108BC40002B010BD72DF704773DF704738B5012201
:108BD40004460D46B0F83812D0F83402FFF7E2FF2D
:108BE40000B1057004F13C0204F50D7104F1540068
:108BF400BDE83840FFF7E6BF80F830107047F8B59D
:108C040004460F4600296BD0002869D091F87A30C9
:108C14001BB191F89830002B64D14FF0000C84F80C
:108C240002C007F178060FCE251D0FC50FCE0FC564
:108C340096E8070085E8070084F830C0D7F8A43028
:108C44006363D7F8A830A36304F50D724FF6FF737E
:108C5400C4F84AC2A4F84832C4F84422C4F84DC245
:108C640022780AB984F8543094F82430002B14BFC5
:108C7400EE231F2304F15501C4F83412A4F838324A
:108C840004F50E723846FFF7A7FD40BB94F8243074
:108C9400002B14BFEE231F2304F24311C4F83C122B
:108CA400A4F8403204F5107207F13C00FFF794FD7C
:108CB400A8B9A369A4F848304FF480730125A4F837
:108CC400503063692064014684F83C50636404F1C5
:108CD4003C0204F15400FFF775FF00B92570F8BD9C
:108CE4000E20FCE70720FAE7F8B5077804460D469E
:108CF400002F00F005810023C0F84A32C0F84D323D
:108D0400C388817000F24A260BB1012903D0E379AC
:108D140043B1022D06D1636BABB1012284F8512219
:108D24000820984704F24B2304F2512113F8012B35
:108D340012B99942FAD117466B1E032B50D8DFE8BB
:108D440003F0050B0F1284F85132EBE7A3791BB142
:108D540094F8243003B95FB9E3790BB1002F41D102
:108D6400237A002B40D1637A002B0CBF0025042505
:108D7400636BA570002B39D0033D012D36D8627981
:108D8400A2B394F852228ABB84F85422012284F8B4
:108D940053220720984704F13C0518220021284655
:108DA40001F076F8E26A0123511E994284F83C30BE
:108DB40001D9042A00D1D3B284F8513094F8243074
:108DC40033B1012916D9042A14D0012284F852207F
:108DD400A278042A1ED8DFE802F07A0F25385C0056
:108DE4000025C5E70225C3E70325C1E7002384F86E
:108DF4005332D0E7A26AE9E7012384F83130002333
:108E0400C4E91063C4F84432022384F83C3080235C
:108E1400A4F84830A378002B5DD1636B002B6BD191
:108E2400002068E0002B14BF0723032384F83C30A0
:108E34002369A4F8483000230222C4F84432E368CA
:108E440084F8312026646364E4E762696264A26999
:108E5400A4F8482013B1062384F83C306379B3B1F5
:108E640094F852329BB994F8543283B1022384F8B3
:108E7400503004212046FFF7A9FE0028CAD105235B
:108E840084F8313004F50D73C4F84432C2E7032387
:108E9400F6E7E2696264226AA4F8482013B1062363
:108EA40084F83C30637983B194F852326BB994F806
:108EB400543253B1022384F8503004212046FFF782
:108EC40085FE0028A6D10623DAE70423D8E7002389
:108ED40084F831309EE7D4F844122A4604F1540051
:108EE400FFF770FE38B994F8301094F85400FFF787
:108EF4006BFE002891D0F8BD94F8310098478FE7B5
:108F04000820F8E70388112B10B50C460AD0262B4D
:108F14001FD0102B05D1C37B012B02D18388A1F86C
:108F2400483210BD0022838881F85222B1F84822C9
:108F34009A42F6D10B79002BF3D101212046FFF799
:108F4400D3FE0028EDD0A36B002BEAD0BDE810407F
:108F54001847037A013B012BE3D8897805230131B3
:108F6400B1FBF3F303EB8303C91AC9B2E6E7704715
:108F740075DF704776DF70477ADF70477BDF7047B5
:108F8400034B1A8882420CBF18460020704700BF6A
:108F9400A8370020024B9B6903B11847704700BFF4
:108FA4008C37002073B585B22846FFF7E9FF0446E5
:108FB40038B3174E027A337B9A420CD200F10A017D
:108FC4002846FFF7D5FFF0B111281AD002B0BDE84A
:108FD4007040FFF7DFBF00230372337C43B13B21B2
:108FE4002846FFF7C7FF30F0080301D0FFF7D2FF90
:108FF400736933B100228DF80420ADF8065001A83E
:10900400984702B070BD237A01332372F9E700BF99
:109014008C37002037B50B46497A0F4A79B9D2E923
:1090240001141D7A0246002D18BF21465868FEF728
:109034001DF978B103B0BDE83040FFF7ABBF0021A4
:109044001972536933B10122ADF806008DF804207A
:1090540001A8984703B030BD8C3700204B880288A4
:109064009A4212D842889A420FD380888B8840F261
:10907400F311884294BF021A421A9A4205D808444E
:10908400984234BF00200120704700207047000040
:109094000388122B70B5014659D004D8102B1ED06A
:1090A400112B44D070BD502BFCD12F4BC288DB89CF
:1090B4009A42F7D1038A022BF4D186883046FFF70F
:1090C4005FFF05460028EDD001F1120000F029F9F8
:1090D40038BB6868FEF712F90028E3D009E0C37BC7
:1090E400012BDFD14FF6FF70FFF74AFF054620B989
:1090F4000420BDE87040FFF74DBF1C4A8E880680EF
:10910400002303721368C0F80A305368C0F80E30A5
:1091140010310A30FFF7A2FF134B6872DB89002B72
:10912400C0D129463046BDE87040FFF773BF808840
:10913400FFF726FF04460028B4D04068FEF7DEF8A7
:1091440008B1FFF727FF4FF6FF732380AAE786884D
:109154003046FFF715FF05460028A3D008310A3032
:10916400FFF77CFF6872DCE78C370020BC370020F7
:10917400F8B5064648B305460FCD154F3C460FC417
:1091840095E8070084E807003068124C3C60B0B1F1
:10919400FFF7F2FEC0B93268136823605368636056
:1091A4000D480E4A4FF6FF7303800D4B40F8043F01
:1091B4000021FEF749F8002818BF032004E02046E8
:1091C400FFF7DCFE0028EBD0F8BD0E20FCE700BF63
:1091D4008C370020BC370020A8370020A98F02005C
:1091E400C437002073B50191019C06466CB100257B
:1091F4002C46294601A8FEF7DEF818B106EB440315
:1092040001349D800135142DF3D13046346002B011
:1092140070BD00002DE9F04703888488112B8CB0C1
:1092240005463DD01A2B42D0102B19D1DFF8C0804F
:10923400D8F80830DB430093D8F804106846FEF7EA
:10924400E6F8009901A8FFF7CDFF0DF10809002702
:10925400019B9F4207D3132C12D90420FDF76EFD06
:109264000CB0BDE8F08739F802AB00260136514650
:1092740008EB8600FEF795F81D2EF7D10137E7E7D6
:1092840016482146FEF784F815482146FEF780F873
:10929400EB7B012BE4D013482146FEF779F8DFE796
:1092A4000E4821460CB0BDE8F047FEF77AB8037AC1
:1092B4000D481F2B4FEA131521460AD9FEF768F80B
:1092C400022D0A482146EDD00CB0BDE8F047FEF768
:1092D4005FB8FEF766F805482146E3E7EC3700205F
:1092E400E8370020F0370020F4370020F83700205A
:1092F400E4370020AADF7047002301380B700428EC
:1093040006D8DFE800F00306080A0C0011230B70EE
:1093140070472123FBE73123F9E71223F7E72223E0
:10932400F5E7008800F001007047F0B58B7891B044
:109334000C46012B38BF012300278DF80E3005465B
:109344000B88607CADF80C306946ADF800708DF880
:109354000270FFF7D1FFA07C0DF10101FFF7CCFFF4
:109364001646237BE27B217D43EAC203227C43EA47
:1093740002139DF80220B94222F0190203F01903E6
:1093840014BF02210121134361F342031C22394615
:1093940009A88DF8023000F07BFD637B13F0300FD9
:1093A40014D00DF10901E07CADF808708DF80A7055
:1093B400FFF7A2FF11238DF808309DF80A30012130
:1093C40002AA61F342038DF80A300E92637B8DF892
:1093D4002430A37B8DF825300023CDE90633089390
:1093E40003AB0493A388ADF81C30A368CDF814D064
:1093F4001BB1E288ADF818200893A36973B301A9DF
:109404000022ADF804208A701A88ADF82C205A88FE
:10941400ADF82E205A680D91187B0A92FFF76CFF65
:10942400A3690DF10501587BFFF766FFA3699A7ADA
:10943400197A41EAC201DA7A9B7B41EA02119DF86A
:109444000620002B01F0190122F0190214BF022397
:109454000123114363F342018DF80610E36903B15C
:109464000C93334604AA09A92846FFF743FF11B019
:10947400F0BD90DF7047A5DF7047B5DF704700008F
:109484007FB50023ADF80810ADF80A106A4602A9AA
:109494000646ADF80C30ADF80E300093ADF804304C
:1094A400FFF7E7FF054600B3114B124CE41AE4083A
:1094B400FEF72EFB240444F0010403460E49324611
:1094C4002046FDF7B6FABDF80020BDF8023052EA96
:1094D400030103D009492046FDF7ABFABDF8042087
:1094E4001AB107492046FDF79BFA284604B070BD1F
:1094F4001CA002005CA00200E2A802002CA9020049
:109504006BA9020080B14FF0F7130360FB230371D2
:10951400F723C3801723038141F6FB320023016143
:1095240043818281184670470E20704730B1A1F103
:109534001703E02B04D80180002070470E207047E9
:109544000720704713B5034680880C46B8B91A88BB
:10955400242A00F09C8014D8112A74D0232A00F005
:10956400A780102A3ED0A37A4BB1E1880020FFF7F0
:1095740082FF002840F0A2804FF48073638102B020
:1095840010BD3A2A68D0552AEDD1DB88C988A0726B
:10959400172B38BF17238B4228BF0B462381FFF7B5
:1095A4006CFF60B1FEF7B4FA4E4B4F4902464F4888
:1095B4001B1ADB081B0443F00100FDF731FAE27AC1
:1095C400002AD0D12369002BCDD040F67721ADF805
:1095D40002202289ADF80010ADF804206946204627
:1095E4009847C0E7DB7B0A790A73012B13D0022B5F
:1095F40014D0E18823898B4205D20020FFF73BFF7A
:1096040070B90123E372217B637B8B42ABD20020D0
:10961400FFF736FFA7E70B88E380EAE74B88FBE711
:10962400112802D10123A372EDE7FEF771FA2D4B45
:109634002F4902462D481B1ADB081B0443F0010086
:10964400FDF7EEF9DFE7F723CB8017230B8141F613
:10965400FB3348818B8186E75B89CA88934228BFA4
:109664001346172B0A6938BF17230B8162B1C97AD5
:1096740051B140F67721ADF80010ADF80200ADF815
:109684000430694620469047002363816BE71A7AC9
:109694000B694A73002B3FF466AF4DF67A218DF8BF
:1096A4000500ADF80010ADF802008DF8042095E730
:1096B400197A237B994228BF1946A9E711283FF458
:1096C4005EAFFEF725FA074B0949024607481B1A05
:1096D400DB081B0443F0010002B0BDE81040FDF7B5
:1096E4009FB900BF5CA00200F2A902001CA0020006
:1096F400C1A90200B0DF704766DF704710B50021D2
:1097040004464088FFF7F8FF034608B9237210BDEA
:10971400112801D10123F9E76368BDE81040184717
:10972400F0B5054685B00C46002942D0002840D04B
:109734000B78DE2B3DD182884B889A4204D10B7A78
:1097440013B10846FFF7DAFF2B88112B33D0512BC6
:109754000FD0012B2DD12B7A012B2AD1A988628815
:10976400914226D12046237205B0BDE8F040FFF7B0
:10977400C5BFAE886388B3421BD1AF79022F18D11D
:10978400AD7B2B1F022B14D800211022684600F059
:109794007FFB052D18BF4FF4C0736946304618BFD0
:1097A400ADF804308DF80070FFF7A4FF08B16368CA
:1097B400984705B0F0BD6388AA889A4204BF4FF663
:1097C400FF736380F5E710DF7047000013B50446AC
:1097D40009496846FEF767F9019808B902B010BD57
:1097E400D0E900212046904718B16846FEF765F994
:1097F400F2E71120F2E700BF44AA020013B50446C1
:1098040007496846FEF74FF9019B0BB902B010BD3A
:109814002046D3E9002190476846FEF74EF9F3E766
:109824005CAA02000B4991F816335A09EC23134140
:10983400DB0706D5084B9A683AB94FF480030B60EE
:10984400704742F20200FDF779BA1A6842F48002C6
:109854001A60704700E100E0BC310020F7B5194FF1
:109864003C7864BB184E012520463570FFF7AEFFE7
:10987400112821D02046FFF7C1FF144B8DF8034077
:10988400186801900DF10300FDF748FD104901A887
:10989400FFF799FF0446B0FA80F0400938709DF84C
:1098A4000300FDF75FFD3CB90A4B34701C70FFF7F1
:1098B400B9FF2846FFF7A2FF204603B0F0BD0824F5
:1098C400FAE700BF5D3800205C3800203EAA0200A1
:1098D4005D6D02005E380020014B1878704700BFB0
:1098E4005D38002007B508496846FEF7DCF8019B9F
:1098F40013B903B05DF804FBD3E900209047684630
:10990400FEF7DBF8F3E700BF50AA0200FFF7EABF57
:1099140060DF704769DF704761DF704730B5134D12
:10992400ADF5017D4FF4FA740DF1020103A8ADF811
:109934000240FFF7F1FF70B9294601A8FEF7B3F81A
:10994400029B002BF0D003A8D3E90021904701A883
:10995400FEF7B3F8F4E7052805D00DF5017DBDE861
:109964003040FDF7EBB90DF5017D30BDE4AC0200EC
:10997400024B1B780BB1FFF7D1BF70475F38002053
:1099840030B5054685B00C46002900F0A4800023BC
:10999400CDE90133514A039301230A608DF8040091
:1099A4008DF8063001A906232020ADF80830FFF712
:1099B400B1FF60B1FEF7ACF8494B4A4902464A4848
:1099C4001B1ADB081B0443F00100FDF729F80023F0
:1099D400CDE9013303932268012301A940208DF8C6
:1099E4000530FFF797FF60B1FEF792F83C4B3F4913
:1099F40002463D481B1ADB081B0443F00100FDF737
:109A04000FF80023CDE90133039322688DF8045045
:109A1400F72301A92320ADF80630FFF77BFF60B1DF
:109A2400FEF776F82E4B324902462F481B1ADB0804
:109A34001B0443F00100FCF7F3FF0023012022681C
:109A4400039301A9CDE901338DF80400FFF762FF08
:109A540060B1FEF75DF8224B2649024622481B1AE4
:109A6400DB081B0443F00100FCF7DAFF0023CDE917
:109A7400023322684FF4B06301A9A1200193FFF7D8
:109A840049FF60B1FEF744F8154B1B4902461648DE
:109A94001B1ADB081B0443F00100FCF7C1FF00257F
:109AA4002268039501A9A020CDE90155FFF732FFF3
:109AB400034668B1FEF72CF8094B104902460A48E0
:109AC4001B1ADB081B0443F00100FCF7A9FF2B461B
:109AD400184605B030BD0E23FAE700BF982A0020CF
:109AE4006CA0020068AA02001CA00200AEAA020038
:109AF400FAAA020041AB02008DAB0200DEAB020009
:109B040073B505460668FFF703FF2B68B3420446A6
:109B14001DD91A481A4B1B491B1ADB081B0443F0B6
:109B240002000190FCF778FF2B6817490198324630
:109B3400FCF77FFF4FF080532A68D3F80C311349A8
:109B440001989B0203F100539A1AFCF769FF2CB9A0
:109B54000F4B01221A70204602B070BD2046FDF75B
:109B6400D7FF074B0B49024604481B1ADB081B04AA
:109B740043F00100FCF754FFEDE700BF1CA0020016
:109B84006CA0020031AC020060AC020091AC020097
:109B94005F380020BBAC02004BDF70471FB50E4C92
:109BA40001A8FFF7F9FF70B9214602A8FDF77BFF72
:109BB400039B002BF4D00198D3E90021904702A81D
:109BC400FDF77BFFF4E7052804D004B0BDE810409E
:109BD400FDF7B4B804B010BDFCAC020070B5164B70
:109BE40086B0044601AA03F11006186859681546A0
:109BF40003C50833B3422A46F7D11B782B700F4BA9
:109C040030221A7078225A70A11D11F8012D06A86D
:109C140000EB12128C4212F8142C9A700A7802F09B
:109C24000F02024403F1020312F8142C5A70ECD10F
:109C3400024806B070BD00BF08AD020060380020C5
:109C4400A8DF704762DF704710B5104B104C0288D4
:109C5400E41AE4082404502A44F0030410D1C2880E
:109C64008B889A4206D1038A042B03D8CB680BB1A4
:109C74001230984720460749BDE81040FCF7CCBE97
:109C840020460549BDE81040FCF7CABE1CA00200EE
:109C940044A0020019AD02002DAD0200F0B54B68DE
:109CA400C3608FB0234B02AA04460D4603F1100C87
:109CB400174618685968164603C608336345324682
:109CC400F7D121463846FFF7BDFF88BB224601A9DC
:109CD40012F8023B8DF8063001204FF6F073ADF810
:109CE4000430FFF7ADFF18BB0146202206A800F0A0
:109CF400CFF822464FF6F173ADF8183012F8043B52
:109D04008DF81A304FF0041307932B6808939DF8CD
:109D14002530608823F00A0343F00A038DF82530C8
:109D240006A901238DF829308DF82A30FFF7FDFAB2
:109D34000FB0F0BD36AD02004FF0A04330B50322A2
:109D44000E480F4DC3F844270124C3F84827C3F82D
:109D54004C27C3F85027002210F8013B01321F2B77
:109D640086BF03F01F0329464FF0A041D2B204FA84
:109D740003F3042AC1F80835EED130BD46AD020024
:109D8400000300507F2805D8034B185C034B5B5C31
:109D9400184070470020704758AD0200D8AD02004B
:109DA400A0F16103192B98BF20387047A0F141033B
:109DB400192B98BF203070477F2805D8034B185CB7
:109DC400034B5B5C184070470020704758AD02009D
:109DD400D8AD0200A0F16103192B98BF2038704759
:109DE400A0F14103192B98BF203070477F299ABFF7
:109DF400017001206FF02E0070475AB10A787F2A53
:109E04000AD800B10260002119605960501A18BFC5
:109E140001207047002070476FF02E00704700004B
:109E240008B5034B5B689B681B68984708BD00BF77
:109E3400B42A002008B50921FFF7F2FF08BD8446C3
:109E440040EA010313F0030F18D18446202A0BD3F0
:109E54002DE9F007B1E8F807A0E8F807A2F120021D
:109E6400202AF7D2BDE8F007042A07D351F8043BAF
:109E740040F8043BA2F10402042AF7D2002A05D0D8
:109E840011F8013B00F8013B013AF9D160467047F3
:109E94008446002A2DD010F0030F04D000F8011BD3
:109EA400013A26D0F7E7C9B241EA012141EA01416A
:109EB400202A12D3A2F120022DE9F0030B460C460E
:109EC4000D460E460F4688468946A0E8FA03203A16
:109ED400FBD2BDE8F00320320BD0042A05D340F8AE
:109EE400041B043A05D0042AF9D200F8011B013AF4
:109EF400FBD160467047024610F0030F16D111F0F3
:109F0400030F13D12DE9F0004FF001374FF08033E8
:109F140051F8044BA4EB070525EA04051D4002D1C2
:109F240042F8044BF4E7A1F10401F0BC11F8013B41
:109F340002F8013B002BF9D1704700F1010110F048
:109F4400030F11D010F8012B002A23D010F0030FB7
:109F54000AD010F8012B002A1CD010F0030F03D0F4
:109F640010F8012B002A15D02DE970004FF00132B2
:109F74004FF0803350F8044BA4EB020525EA0405A6
:109F84001D4000D1F6E7A0F1040070BC10F8012BCD
:0A9F9400002AFBD1A0EB010070478A
:109FA000417D020000000000738F02007C3200201F
:109FB00019920200000000009581020000000000DC
:109FC00049950200D4340020098F02007C32002021
:109FD000959002000000000025970200F834002050
:109FE0004D9C0200E83400201D82020000000000A9
:089FF000C17D02000000000029
:109FF8007599020000000000A19B0200000000000B
:10A008000C2B0020D42B0020DC2B0020142B00204C
:04A01800180000002C
:10A01C00FAA602000000000000A7020000000000E9
:10A02C0007A70200000000000BA7020000000000C0
:10A03C0010A7020000000000D5A0020000000303DE
:10A04C002EAA020000000000F4A60200000000008E
:10A05C0021AA02000000030336AA02000000030339
:10A06C00D8AC020000000303F0AC020000000303B4
:08A07C00E6A102000000000053
:10A08400A8A0020000000000B4A00200982A00204A
:10A094000000000000000000000000000338FDD8AC
:10A0A40070470000D963020045640200D5630200D2
:10A0B4007274745F6C6F675F6261636B656E64007A
:10A0C4004261636B656E647320666C757368656466
:10A0D4000061707000000000003000207F0000006C
:10A0E400803000201B5B313B33316D0025734C6F96
:10A0F40067732064726F7070656420282564292555
:10A10400730D0A001B5B306D003C25733E202573E4
:10A114003A2000202530327800202020007C0025C1
:10A1240063001B5B313B33306D001B5B313B3332CF
:10A134006D001B5B313B33336D001B5B313B3334B0
:10A144006D001B5B313B33356D001B5B313B33369C
:10A154006D001B5B313B33376D007761726E696E46
:10A164006700696E666F00646562756700000000D1
:10A1740008A1020026A10200E8A002002EA102000C
:10A1840036A102003EA1020046A102004EA1020037
:10A1940056A1020000000000B2A102005EA102006C
:10A1A40066A102006BA10200466174616C206572B5
:10A1B400726F720053797374656D20726573657480
:10A1C4000000000000000000000000000338FDD87B
:10A1D40070473031323334353637383941424344AD
:10A1E40045467077725F6D676D740000F09F0200E2
:10A1F400F09F0200040000004E52465F5355434353
:10A20400455353004E52465F4552524F525F535688
:10A21400435F48414E444C45525F4D495353494E68
:10A2240047004E52465F4552524F525F534F465479
:10A234004445564943455F4E4F545F454E41424C59
:10A244004544004E52465F4552524F525F494E5468
:10A2540045524E414C004E52465F4552524F525F5A
:10A264004E4F5F4D454D004E52465F4552524F5240
:10A274005F4E4F545F464F554E44004E52465F4525
:10A2840052524F525F4E4F545F535550504F525499
:10A294004544004E52465F4552524F525F494E5616
:10A2A400414C49445F504152414D004E52465F4536
:10A2B40052524F525F494E56414C49445F535441A8
:10A2C4005445004E52465F4552524F525F494E56D6
:10A2D400414C49445F4C454E475448004E52465FFA
:10A2E4004552524F525F494E56414C49445F464C89
:10A2F400414753004E52465F4552524F525F494EBA
:10A3040056414C49445F44415441004E52465F45D6
:10A3140052524F525F444154415F53495A45004E93
:10A3240052465F4552524F525F54494D454F555422
:10A33400004E52465F4552524F525F4E554C4C00B0
:10A344004E52465F4552524F525F464F5242494425
:10A3540044454E004E52465F4552524F525F494E5D
:10A3640056414C49445F41444452004E52465F4575
:10A3740052524F525F42555359004E52465F455216
:10A38400524F525F434F4E4E5F434F554E54004E13
:10A3940052465F4552524F525F5245534F555243B6
:10A3A4004553004E52465F4552524F525F4D4F4403
:10A3B400554C455F4E4F545F494E495449414C49B1
:10A3C4005A4544004E52465F4552524F525F4D55D6
:10A3D4005445585F494E49545F4641494C454400F1
:10A3E4004E52465F4552524F525F4D555445585F49
:10A3F4004C4F434B5F4641494C4544004E52465FE7
:10A404004552524F525F4D555445585F554E4C4F2F
:10A41400434B5F4641494C4544004E52465F4552CA
:10A42400524F525F4D555445585F434F4E445F4918
:10A434004E49545F4641494C4544004E52465F459F
:10A4440052524F525F4D4F44554C455F414C52451B
:10A454004144595F494E495449414C495A45440085
:10A464004E52465F4552524F525F53544F524147EA
:10A47400455F46554C4C004E52465F4552524F5232
:10A484005F4150495F4E4F545F494D504C454D45D7
:10A494004E544544004E52465F4552524F525F4619
:10A4A4004541545552455F4E4F545F454E41424CD1
:10A4B4004544004E52465F4552524F525F494F5FEA
:10A4C40050454E44494E47004E52465F4552524F06
:10A4D400525F4452565F5457495F4552525F4F563C
:10A4E400455252554E004E52465F4552524F525FAE
:10A4F4004452565F5457495F4552525F414E41435F
:10A504004B004E52465F4552524F525F4452565F83
:10A514005457495F4552525F444E41434B004E529B
:10A52400465F4552524F525F424C455F495053502B
:10A534005F52585F504B545F5452554E43415445FB
:10A5440044004E52465F4552524F525F424C455F63
:10A55400495053505F4348414E4E454C5F414C5225
:10A56400454144595F455849535453004E52465F40
:10A574004552524F525F424C455F495053505F4CD5
:10A58400494E4B5F444953434F4E4E454354454413
:10A59400004E52465F4552524F525F424C455F490E
:10A5A4005053505F504545525F52454A45435445C8
:10A5B4004400556E6B6E6F776E206572726F7220F9
:10A5C400636F64650000000000000000FCA102004D
:10A5D4000100000008A202000200000026A20200FE
:10A5E4000300000047A20200040000005AA2020077
:10A5F400050000006BA20200060000007FA202001A
:10A604000700000097A2020008000000AFA20200A9
:10A6140009000000C7A202000A000000E0A2020034
:10A624000B000000F8A202000C0000000FA30200BF
:10A634000D00000023A302000E00000035A3020059
:10A644000F00000044A302001000000058A3020001
:10A65400110000006FA30200120000007EA302009C
:10A664001300000093A3020080000000A7A30200CF
:10A6740081000000C8A3020082000000E4A30200DD
:10A684008300000000A40200840000001EA4020055
:10A69400850000003FA402008600000064A40200BC
:10A6A400900000007BA402009100000099A4020025
:10A6B40092000000B7A4020000820000CCA40200B3
:10A6C40001820000EAA402000282000006A5020042
:10A6D4000084000022A502000184000046A50200B7
:10A6E4000284000070A502000384000095A5020006
:10A6F400636C6F636B00434C4F434B004750494FAF
:10A70400544500505253005541525400554152543F
:10A714004500436F6E6E65637465642E20636F6ECF
:10A724006E5F446576416464723A2025730A436F10
:10A734006E6E65637465642E20636F6E6E5F686110
:10A744006E646C653A203078253034780A436F6E35
:10A754006E65637465642E20636F6E6E5F50617204
:10A76400616D3A2025642C25642C25642C25640015
:10A77400446973636F6E6E65637465642E20636FE2
:10A784006E6E5F68616E646C653A20307825782C53
:10A7940020726561736F6E3A20307825303478000A
:10A7A400636F6E6E5F506172616D20557064617489
:10A7B400653A2025642C25642C25642C25640063CB
:10A7C4006F6E6E506172616D2055706461746520A6
:10A7D4005375636365737300636F6E6E506172616A
:10A7E4006D20557064617465204661696C65640010
:10A7F40044617461206C656E2069732073657420F4
:10A80400746F2030782558282564290052656369BF
:10A8140076652053746174653A253032582C25309E
:10A8240032582C253032582C25303258001B5B33DB
:10A83400326D205465787420436F6C6F723A2047F0
:10A844007265656E0D0A00322E325F626C655F7050
:10A8540065726970686572616C5F6164765F616C72
:10A864006C206578616D706C652072756E6E696EB2
:10A87400672E2E2E2E0047592D4E52463532383330
:10A88400320073657420646576696365206E616D5A
:10A89400653A202573006164766572746973696E24
:10A8A4006720696E697400636F6E6E5F70617261B8
:10A8B4006D735F696E69740061647665727469733F
:10A8C400696E67207374617274005465726D696E89
:10A8D400616C005254540053454747455200736419
:10A8E4005F626C655F6761705F646174615F6C6512
:10A8F4006E6774685F7570646174652829202872B6
:10A9040065717565737429206F6E20636F6E6E6553
:10A914006374696F6E20307825782072657475725F
:10A924006E65642025732E00546865207265717508
:10A9340065737465642054582F5258207061636B9A
:10A944006574206C656E67746820697320746F6F1A
:10A95400206C6F6E672062792025752F2575206F16
:10A9640063746574732E005468652072657175652F
:10A974007374656420636F6D62696E6174696F6E70
:10A98400206F6620545820616E64205258207061F4
:10A99400636B6574206C656E6774687320697320DB
:10A9A400746F6F206C6F6E67206279202575206D3F
:10A9B4006963726F7365636F6E64732E0073645F93
:10A9C400626C655F67617474635F65786368616E08
:10A9D40067655F6D74755F72657175657374282939
:10A9E4002072657475726E65642025732E0073641D
:10A9F4005F626C655F67617474735F6578636861D7
:10AA04006E67655F6D74755F7265706C7928292057
:10AA140072657475726E65642025732E006E72669D
:10AA24005F626C655F6761747400626C655F6E750C
:10AA340073006E72665F73646800010000070000B3
:10AA4400F09F0200F09F020008000000F89F02003F
:10AA540008A0020008000000F09F0200F89F020016
:10AA64000800000073645F626C655F6366675F7310
:10AA7400657428292072657475726E656420257367
:10AA8400207768656E20617474656D7074696E6793
:10AA940020746F2073657420424C455F434F4E4EC3
:10AAA4005F4346475F4741502E0073645F626C65A5
:10AAB4005F6366675F7365742829207265747572B5
:10AAC4006E6564202573207768656E2061747465F3
:10AAD4006D7074696E6720746F2073657420424CC6
:10AAE400455F4741505F4346475F524F4C455F4384
:10AAF4004F554E542E0073645F626C655F636667E6
:10AB04005F73657428292072657475726E6564209C
:10AB14002573207768656E20617474656D7074693F
:10AB24006E6720746F2073657420424C455F434FF9
:10AB34004E4E5F4346475F474154542E0073645F53
:10AB4400626C655F6366675F73657428292072654C
:10AB54007475726E6564202573207768656E206154
:10AB64007474656D7074696E6720746F2073657496
:10AB740020424C455F434F4D4D4F4E5F4346475F28
:10AB840056535F555549442E0073645F626C655F8C
:10AB94006366675F73657428292072657475726EC5
:10ABA4006564202573207768656E20617474656D13
:10ABB4007074696E6720746F2073657420424C450D
:10ABC4005F47415454535F4346475F415454525F77
:10ABD4005441425F53495A452E0073645F626C6569
:10ABE4005F6366675F736574282920726574757284
:10ABF4006E6564202573207768656E2061747465C2
:10AC04006D7074696E6720746F2073657420424C94
:10AC1400455F47415454535F4346475F534552563B
:10AC24004943455F4348414E4745442E00496E73AE
:10AC3400756666696369656E742052414D20616C66
:10AC44006C6F636174656420666F7220746865203C
:10AC5400536F66744465766963652E004368616E5C
:10AC64006765207468652052414D20737461727465
:10AC7400206C6F636174696F6E2066726F6D203033
:10AC840078257820746F20307825782E004D6178EF
:10AC9400696D756D2052414D2073697A6520666F28
:10ACA40072206170706C69636174696F6E2069737E
:10ACB40020307825782E0073645F626C655F656E62
:10ACC40061626C6528292072657475726E656420F2
:10ACD40025732E006E72665F7364685F626C650034
:10ACE400B09F0200F09F0200080000006E72665FD1
:10ACF4007364685F736F6300A09F0200B09F0200DB
:10AD040008000000303132333435363738394142A7
:10AD14004344454600424C455F47415454535F45C4
:10AD240056545F5752495445006F746865723A250A
:10AD3400640023D1BCEA5F782315DEEF1212000011
:10AD4400000011121314000043000000504F534937
:10AD540058000000202020202020202020682828BF
:10AD640028282020202020202020202020202020CF
:10AD74002020202048101010101010101010101057
:10AD84001010101084848484848484848484101037
:10AD94001010101010818181818181010101010154
:10ADA4000101010101010101010101010101011080
:10ADB4001010101010828282828282020202020229
:10ADC4000202020202020202020202020202021051
:10ADD4001010102000070320041702010857104028
:10ADE400800000004CAD020050AE020064AF0200CF
:10ADF40053756E004D6F6E005475650057656400A1
:10AE040054687500467269005361740000000000C4
:10AE14004A616E00466562004D61720041707200C5
:10AE24004D6179004A756E004A756C004175670082
:10AE3400536570004F6374004E6F76004465630081
:10AE440000000000414D00504D00000088AF02009A
:10AE540084AF020084AF020084AF020084AF02001A
:10AE640084AF020084AF020084AF020084AF02000A
:10AE740084AF0200FFFFFFFFFFFFFFFFFFFFFFFFA5
:10AE8400FFFF0000C4AE0200F4AD020000AF0200F8
:10AE940014AE020048AE0200A8AE020058AF020091
:10AEA400B4AE0200256D2F25642F25790000000023
:10AEB4002561202562202565202554202559000080
:10AEC40053756E646179004D6F6E646179005475D9
:10AED4006573646179005765646E657364617900B4
:10AEE40054687572736461790046726964617900AB
:10AEF4005361747572646179000000004A616E7573
:10AF0400617279004665627275617279004D617291
:10AF1400636800417072696C004D6179004A756E16
:10AF240065004A756C7900417567757374005365E3
:10AF34007074656D626572004F63746F6265720050
:10AF44004E6F76656D62657200446563656D62651A
:10AF54007200000025483A254D3A255300000000B0
:10AF6400899D0200A59D0200B19D0200BD9D0200C5
:10AF7400D99D0200E59D0200F19D0200FF9D0200A3
:06AF8400000000002E0099
:10AF8C0000000000FF0000000090D0030100010051
:10AF9C00FFFF200020000000C8000000E8AD020008
:10AFAC00E8AD0200E8AD0200E8AD0200E8AD020039
:040000032000637501
:00000001FF
