:1000000000000420750300005D0300005F03000092
:1000100061030000630300006503000000000000AE
:100020000000000000000000000000006703000066
:1000300069030000000000006B0300006D03000076
:100040006F030000390D0000A50400006F030000DD
:100050006F0300006F0300006F0300006F030000D8
:100060006F0300006F0300006F0300006F030000C8
:100070006F0300006F0300006F0300006F030000B8
:100080006F0300006F0300006F0300006F030000A8
:10009000FD0F00006F0300006F0300006F030000FE
:1000A0006F0300006F0300006F0300006F03000088
:1000B0006F0300006F03000000000000000000005C
:1000C0006F0300006F0300006F0300006F03000068
:1000D0006F0300006F0300006F0300006F03000058
:1000E0006F0300006F0300006F03000000000000BA
:1000F000000000006F030000000000006F0300001C
:1001000000000000000000000000000000000000EF
:1001100000000000000000000000000000000000DF
:1001200000000000000000000000000000000000CF
:1001300000000000000000000000000000000000BF
:1001400000000000000000000000000000000000AF
:10015000000000000000000000000000000000009F
:10016000000000000000000000000000000000008F
:10017000000000000000000000000000000000007F
:10018000000000000000000000000000000000006F
:10019000000000000000000000000000000000005F
:1001A000000000000000000000000000000000004F
:1001B000000000000000000000000000000000003F
:1001C000000000000000000000000000000000002F
:1001D000000000000000000000000000000000001F
:1001E000000000000000000000000000000000000F
:1001F00000000000000000000000000000000000FF
:10020000354936480A1A02D0072291438D463449AF
:1002100034480A1A06D00722914381F30988022242
:1002200082F3148830483149314A00F044F83148AB
:100230003149324A00F03FF831483249324A00F041
:100240003AF832483249334A00F035F832483349F7
:10025000334A00F030F833483349344A00F02BF881
:1002600033483449344A00F026F8344834490022EF
:1002700000F02CF833483449002200F027F83348C6
:100280003349091A082902DB002202604160314A21
:1002900090471F481F49884205D00268043003B4C4
:1002A000904703BCF7E700208646EC46002000217B
:1002B000294A9047FEE7884207D0521A05D00378B2
:1002C00001300B700131013AF9D17047884202D0F8
:1002D00002700130FAE770470000042000E00320BC
:1002E00000000420000004209813000000000020FB
:1002F00044000020D4030000D40300006413000075
:10030000981300000000002000000020641300008B
:100310006413000064130000641300006413000001
:1003200064130000641300006413000096130000BF
:10033000DC130000440000204400002044000020A2
:10034000CC030020CC030020CC030020CC030020F1
:10035000CC2300209D030000A1050000FEE7FEE77E
:10036000FEE7FEE7FEE7FEE7FEE7FEE7FEE7FEE765
:10037000704700BF1048804710484FF0070188437E
:1003800085460F4880470F48016841F470010160BD
:10039000BFF34F8FBFF36F8FFFF732BF0A480B4990
:1003A0000B4A884207D0521A05D0037801300B70EF
:1003B0000131013AF9D170477103000000000420B7
:1003C0005906000088ED00E06413000000000020E2
:0403D0000000002009
:1003D400074B1B5C1F2B86BF064903F01F034FF01E
:1003E400A041012202FA03F3C1F80835704700BFA7
:1003F400641300000003005008B50020FFF7E8FF75
:100404000120FFF7E5FF0220FFF7E2FFBDE8084007
:100414000320FFF7DDBFC20710B504460CD54FF02B
:10042400A0430322C3F83427C3F83827C3F83C2772
:10043400C3F84027FFF7E0FFA3070AD54FF0A04316
:100444000C22C3F82C27C3F83027C3F86027C3F85D
:10045400642710BD1FB50021039001AA44F20100D6
:10046400CDE9011100F004F805B05DF804FB0000CB
:1004740072B6094BD3F8F020D20700D500BEBFF303
:100484004F8FD968054A01F4E0610A43DA60BFF38B
:100494004F8F00BFFDE700BF00ED00E00400FA0548
:1004A400014B1B68184700BF4400002010B50378B7
:1004B400012B08D0022B05D1064C204600F036FE55
:1004C4000028FAD010BD00F07FFEBDE8104000F017
:1004D40065BE00BF4C000020012303FA00F04FF07A
:1004E400A04311B9C3F80C057047C3F80805704759
:1004F4004FF080430022C3F8002101221A60D3F890
:100504000021002AFBD070474FF0A0430322C3F818
:1005140020270120C3F82427C3F82827C3F82C2751
:10052400C3F83027C3F83427C3F83827C3F83C2767
:10053400FFF771BF30B54FF0E7328BB04FF0C233E5
:10054400CDE90023124A134D1068516802AB03C36E
:100554001C460FCD0FC495E803004FF4167384E8CE
:100564000300ADF81C3004A80B4B059300F03AFCD3
:1005740060B9684600F03EFE40B901A800F054FEA0
:1005840020B908210DEB010000F068FE0BB030BD6E
:100594006813000074130000B104000070B5FFF785
:1005A400B3FFFFF7A5FFFFF7C5FF08B1FFF752FF41
:1005B4001E4D1F4C4FF0000645F001051C48E67027
:1005C40000F050FD68BBA17901F00701013903294E
:1005D40094BF002101210D20FFF77EFFA17911F0C6
:1005E400060F21D001F00701052994BF0021012144
:1005F4000E20FFF771FFA17901F0070103390329E8
:1006040094BF002101210F20FFF766FFA17981F03B
:100614000401C1F380011020FFF75EFFA3790133C9
:10062400A3710448A847C9E70121E1E7901300003A
:100634000000002000D430004FF08053D3F8302164
:10064400082A03BFD3F83401B0FA80F0400900202F
:100654007047000008B54FF080430022C3F80C2116
:10066400C3F81021C3F838254FF0805203F54043F6
:10067400D2F80414C3F82015D2F80814C3F82415CA
:10068400D2F80C14C3F82815D2F81014C3F82C159A
:10069400D2F81414C3F83015D2F81814C3F834156A
:1006A400D2F81C14C3F84015D2F82014C3F844152A
:1006B400D2F82414C3F84815D2F82814C3F84C15FA
:1006C400D2F82C14C3F85015D2F83014C3F85415CA
:1006D400D2F83414C3F86015D2F83814C3F864158A
:1006E400D2F83C14C3F86815D2F84014C3F86C155A
:1006F400D2F84424C3F87025FFF79EFF18B13B4B92
:100704003B4AC3F88C26FFF797FF18B1394BFB22FD
:10071400C3F81825FFF790FF70B14FF080414FF0F8
:100724008053D1F8E42ED3F8583222F00F0203F0AC
:100734000F031343C1F8E43EFFF77EFF20B12E4BB5
:100744004FF40072C3F840264FF08043D3F80024DE
:10075400D20744BF6FF00102C3F80024274AD2F83D
:10076400883043F47003C2F88830BFF34F8FBFF36F
:100774006F8F4FF01023D3F80022002A03DBD3F845
:100784000432002B2EDA1E4B0122C3F80425D3F8C1
:100794000024002AFBD04FF010221221C2F80012CC
:1007A400D3F80024002AFBD04FF010231222C3F800
:1007B4000422134BD3F80024002AFBD00022C3F8F0
:1007C4000425D3F80024002AFBD0BFF34F8F0B4934
:1007D4000C4BCA6802F4E0621343CB60BFF34F8F43
:1007E40000BFFDE7084B094A1A6008BD00500040ED
:1007F4004881030000F000400090024000ED00E05A
:1008040000E001400400FA05280000200090D00315
:100814000649074BC1F81435064B5B7C5A1E064B40
:1008240043EA0243C1F81835704700BF0010004086
:10083400060003002C00002020000001074A084B9A
:10084400C2F81435074B5B7C013B40EA034343EA9F
:10085400002040F08070C2F8180570470010004076
:10086400000101002C0000200A4B0B4A1B7AC2F83D
:100874001035042B0CD8DFE803F008030B08030041
:10088400064B30221A6001207047044B4922F9E7D5
:10089400002070477400002000100040BC030020BA
:1008A400044A0023C2E908339362034AC2E90833C5
:1008B4009362704744020020AC000020184B194991
:1008C4001B6810B5184CC4F80032184B1A68184B42
:1008D400C3F840258A89823AC3F844250122DA60A4
:1008E4000022C3F84021C3F8442103F5A8334FF490
:1008F400E050C3F804054FF40050C3F80805C4F8E9
:100904000C21087810B90B4B1B6898470A4BC4F8A4
:1009140004350A4B0A4A1A600A4B03221A7010BDA6
:10092400400000207400002000100040BC030020A0
:1009340000A00040C803002000020020C4030020DF
:10094400D50B00009C000020F8B53F4B3F4F404EB4
:100954003C78404D01221A603F4B5A6A53F82210EA
:100964003160FCB1012C3ED033685A783B4B0121F5
:10097400C3F82C2501FA02F2C3F83025384AD27C98
:10098400C3F80825374AC3F804550220C2F8800189
:1009940010600022C3F80421C3F80821C3F8102111
:1009A4001960F8BD304B08781B68984731686C7043
:1009B4000B792B7011F8052BA81C00F075FC2B4B40
:1009C400264A1B6843F00803C2F800321123C2F818
:1009D4000433274BFA891A60264B274A1A60274B9F
:1009E40002221A70C0E7CB7813B13C7D84F0010475
:1009F4000A782A70B3FA83F30A7921485B0943EA37
:100A040042036B7011F8052B00F04EFC174A134B90
:100A140018481A49126874B142F00802C3F8002257
:100A24001122C3F80423124BFA891A60124B036093
:100A340002230B7098E7C3F800221022C3F80423A2
:100A4400104B03600123F4E7980000207400002099
:100A5400C00300209803002044020020001000403E
:100A64002C00002000E100E0C8030020400000202A
:100A7400A8000020C4030020C10800009C0000203E
:100A84009A030020910B000007498B6893FAA3F3A3
:100A9400064A1BBAC2F82435CB6893FAA3F31BBAEF
:100AA400C2F82835704700BF2C0000200010004019
:100AB4002DE9F843204BDFF890901A78012A8046FC
:100AC4000F4609D199F80030202B32D81B4A116AFD
:100AD40052F82120137006E0184A116A52F82120B6
:100AE400597821BB1170154C1549256A54F82560B5
:100AF4003046013510F8052B00F0D6FB114B86F873
:100B04000180D3F84835B37099F801303771DB436D
:100B140003F00103072DF37084BF00232362A36A4B
:100B240098BF25620133A3620120BDE8F883DB7C12
:100B3400D0E70020F9E700BF74000020AC000020DB
:100B44000202002000100040000200200C4B1B7821
:100B54008BB10C4B9A6A82B10B490220C1F8800018
:100B6400013A9A625A6A0132072A88BF00225A62FD
:100B7400086000207047082070474FF48070704769
:100B84008C0000204402002000E100E00C4A08B57B
:100B9400136843F001031360FFF7D8FF094B996A08
:100BA400094B4FF4801221B908480170C3F80021A1
:100BB40008BDC3F80021BDE80840FFF7C5BE00BF6B
:100BC400940000204402002000E100E09C0000208A
:100BD400464B70B54FF4E052454EC3F80825D6F89D
:100BE4000C11444A002943D0D6F8001400293FD000
:100BF4004149424C424D012008614FF40051C3F871
:100C040008152368034323601268EB899B1A3D4A45
:100C140003441360FFF79AFF2B7893B13A4B1A7889
:100C24007AB13A4AD6F82C05926A072A09D8597833
:100C3400C0B24908FFF73CFF18B1236843F004032E
:100C44002360334B9A6A334B12B12A7C012A07D1B1
:100C5400314A002111704FF48012C3F8002170BD95
:100C64004FF48012BDE87040C3F80021FFF76CBE5A
:100C74001368294D591E1160ABB91F4A0121116136
:100C840002F5A8324FF40051C2F808151C4A1D4958
:100C9400D28901320A6019490A6842F002020A60E4
:100CA4002B701C4BD7E71D4B114C1B6843F00803FA
:100CB400C4F800321A4B1A681A4B10781B6898470C
:100CC400194BC4F80435194B194A1A6007490A4AE2
:100CD40002232B704FF4005001231360C1F8040564
:100CE400D2F84421002ABAD02360B8E700F00140CA
:100CF40000100040A800002000A000409400002044
:100D0400740000209800002000020020AC000020A5
:100D14004402002000E100E09C000020400000208C
:100D2400C0030020C803002098030020C40300204F
:100D3400C1080000124BD3F8002132B1D3F80423C8
:100D4400D00744BF0022C3F80021D3F80C2132B1EC
:100D5400D3F80423110744BF0022C3F80C21084B25
:100D6400D3F8102152B1D3F80423D20606D50022B9
:100D7400C3F81021034B1B6803B11847704700BF29
:100D840000100040C40300200F4B10484FF4705271
:100D940010B5C3F808250E4B00241C700D4B2146DA
:100DA4001C70FFF77DFD202200F0A7FA0A4B1C609F
:100DB4005C600A4B4FF48012C3F88020084B032276
:100DC400C3F80022204610BD00F00140220200209A
:100DD4009C0000208C0000209D00002000E100E029
:100DE400001000402DE9F0410446002800F0D380B3
:100DF4006B4D2B78002B40F0AC806A4B62681A6014
:100E0400694A234604F118071446186859681646B7
:100E140003C60833BB423246F7D10026634B64480D
:100E24001E602022314600F068FA624BA27A1E60EE
:100E34005E60614BC3F80C25FFF716FD21785F4A0D
:100E44000746002900F09080012900F08980637A28
:100E5400012B00F09980022B00F08880002B00F019
:100E64008D804FF000081368E07C9847A389862B97
:100E740094BF002007F00100064200F08E80B8F114
:100E8400000F00F08A804C4B4D494FF0E732C3F815
:100E94001C254FF04332C3F820254A4AC3F82425C1
:100EA400494AC3F82825FFF7FBFC484A00230133CD
:100EB400082B41F8042B02F12502F8D1444A454994
:100EC40000230133082B41F8042B02F12502F8D149
:100ED400414A42490423C2F81035002040F202235B
:100EE400C2F80805C2F800323D4BC3F86015C3F8D8
:100EF4006425A2F50E42FC3AC3F8682502F50F42B8
:100F04000C32C3F86C2502F59872C3F87025A2F56B
:100F14001142303AC3F8742502F511423432C3F851
:100F24007825254AC3F87C25637C2E4A5B0103F0AF
:100F3400600382F80133A37C5B0103F0600382F851
:100F440014334FF480131360274B187001232B7054
:100F540004E0FFF719FF00283FF44FAFBDE8F0812C
:100F6400224B1360012672E7214BFAE712494FF630
:100F7400FF70C1F83C051F48C1F838050E494FF011
:100F84000108C1F834356EE70B49FF20C1F83C0570
:100F940040F20710F0E70E20E0E70720DEE700BF8D
:100FA4008C00002090000020740000209400002099
:100FB400220200209D00002000100040C8030020F1
:100FC40044020020E743C323A363E3137002002019
:100FD400D8000020AC00002000A000400011004018
:100FE40000F0014000E100E09C0000201508000032
:100FF400410800002110010037B5154B1B6801930F
:10100400144B1B780BB3144B1448154C0221C3F832
:10101400801000220568026019602368ABB1E907FB
:1010240003D58DF8002068469847AA0705D5012303
:101034008DF800306846236898476B0705D502236E
:101044008DF8003068462368984703B030BD00BF70
:10105400980000208C00002000E100E094000020B3
:10106400900000202B4B1B7870B5002B47D0002834
:1010740047D003785A1E1F2A45D827490A7812B93F
:10108400CA7C9A423FD3254B9A6A072A3DD84278B4
:10109400072A3CD8224A0224C2F880401C6A53F82A
:1010A4002440024600F1240552F8046B44F8046B12
:1010B400AA42F9D11278227045781A4C625D013245
:1010C40002F0030262551A6A4078245C53F8220045
:1010D4000132072A047188BF00221A629A6A013217
:1010E4009A620F4B02221A6048780B7C184304D191
:1010F4000D4B1B7823B9FFF727FC002000E00820E4
:1011040070BD0E20FCE70920FAE70420F8E7072069
:10111400F6E700BF8C000020740000204402002089
:1011240000E100E09D0000209C00002038B5184B31
:101134001B7833B338B3174CA36A33B3164D022369
:10114400C5F88030636A54F823100A7802704B782B
:10115400437091F9023083700B790371CB78C370BB
:101164000531053000F0A0F8636A0133072B88BF0E
:1011740000236362A36A013BA36202232B60002065
:1011840038BD0820FCE70E20FAE70520F8E700BF89
:101194008C000020AC00002000E100E010B5084BFA
:1011A4001B7803F0FF0433B9064B9B6A2BB1FFF79E
:1011B400CBFB204610BD1120FCE74FF48070F9E70B
:1011C4009C00002044020020074B1B7853B1074ABF
:1011D400074B02210020C2F88010C3E9080098627E
:1011E40011607047082070478C00002000E100E087
:1011F40044020020094B1A7802F0FF0352B958B197
:10120400074902680A6092FAA2F206491846C1F830
:101214001C257047112070470E2070479C00002049
:101224002C00002000100040094B1A7802F0FF0344
:1012340052B958B1074902684A6092FAA2F20649C3
:101244001846C1F820257047112070470E207047BA
:101254009C0000202C0000200010004070B5104BB2
:101264001B780C4603F0FF05A3B9A8B1082915D8CB
:101274000C4E0A46014606F1080000F015F83474D5
:10128400FF22C4F1080442FA04F4B474FFF7FCFB2F
:10129400284670BD1120FCE70E20FAE70720F8E786
:1012A4009C0000202C000020844640EA010313F037
:1012B400030F18D18446202A0BD32DE9F007B1E897
:1012C400F807A0E8F807A2F12002202AF7D2BDE827
:1012D400F007042A07D351F8043B40F8043BA2F179
:1012E4000402042AF7D2002A05D011F8013B00F8C1
:1012F400013B013AF9D1604670478446002A2DD05B
:1013040010F0030F04D000F8011B013A26D0F7E7D0
:10131400C9B241EA012141EA0141202A12D3A2F1D2
:1013240020022DE9F0030B460C460D460E460F46EF
:1013340088468946A0E8FA03203AFBD2BDE8F003C8
:1013440020320BD0042A05D340F8041B043A05D0FC
:10135400042AF9D200F8011B013AFBD16046704718
:101364000D0E0F10E7C2C3C4C5C6C7C800000000F5
:10137400010000000000000001020000FA00030068
:101384000001022000000000000000000338FDD826
:021394007047A0
:10139800080000000001000000110000000000002B
:1013A8000000000000000000000000000000000035
:1013B80000000000000000000090D003E7E7E7E726
:1013C800C2C2C2C2E7C2C3C4C5C6C7C80805FF02B5
:0413D80013010000FD
:040000030000037581
:00000001FF
