:1000000000000120750300005D0300005F03000095
:1000100061030000630300006503000000000000AE
:100020000000000000000000000000006703000066
:1000300069030000000000006B0300006D03000076
:100040006F0300006F0300009D2100006F0300009C
:100050006F0300006F030000252000006F03000005
:100060006F0300006F0300006F0300006F030000C8
:100070006F0300006F0300006F0300006F030000B8
:100080006F030000F51100006F0300006F03000014
:10009000911200006F0300006F0300006F03000067
:1000A0006F0300006F0300006F0300006F03000088
:1000B0006F0300006F03000000000000000000005C
:1000C0006F0300006F0300006F0300006F03000068
:1000D0006F0300006F0300006F03000000000000CA
:1000E0000000000000000000000000000000000010
:1000F0000000000000000000000000000000000000
:1001000000000000000000000000000000000000EF
:1001100000000000000000000000000000000000DF
:1001200000000000000000000000000000000000CF
:1001300000000000000000000000000000000000BF
:1001400000000000000000000000000000000000AF
:10015000000000000000000000000000000000009F
:10016000000000000000000000000000000000008F
:10017000000000000000000000000000000000007F
:10018000000000000000000000000000000000006F
:10019000000000000000000000000000000000005F
:1001A000000000000000000000000000000000004F
:1001B000000000000000000000000000000000003F
:1001C000000000000000000000000000000000002F
:1001D000000000000000000000000000000000001F
:1001E000000000000000000000000000000000000F
:1001F00000000000000000000000000000000000FF
:10020000354936480A1A02D0072291438D463449AF
:1002100034480A1A06D00722914381F30988022242
:1002200082F3148830483149314A00F044F83148AB
:100230003149324A00F03FF831483249324A00F041
:100240003AF832483249334A00F035F832483349F7
:10025000334A00F030F833483349344A00F02BF881
:1002600033483449344A00F026F8344834490022EF
:1002700000F02CF833483449002200F027F83348C6
:100280003349091A082902DB002202604160314A21
:1002900090471F481F49884205D00268043003B4C4
:1002A000904703BCF7E700208646EC46002000217B
:1002B000294A9047FEE7884207D0521A05D00378B2
:1002C00001300B700131013AF9D17047884202D0F8
:1002D00002700130FAE770470000012000E00020C2
:1002E0000000012000000120F43A0000000000207E
:1002F00034000020D4030000D40300005636000070
:10030000F43A00000000002000000020A4360000A5
:10031000A4360000A4360000A4360000A436000075
:10032000A4360000A4360000A4360000F23A000013
:10033000283B00003400002034000020340000205E
:10034000B4080020B4080020B4080020B40800203D
:10035000B42800209D03000029300000FEE7FEE7DE
:10036000FEE7FEE7FEE7FEE7FEE7FEE7FEE7FEE765
:10037000704700BF1048804710484FF0070188437E
:1003800085460F4880470F48016841F470010160BD
:10039000BFF34F8FBFF36F8FFFF732BF0A480B4990
:1003A0000B4A884207D0521A05D0037801300B70EF
:1003B0000131013AF9D170477103000000000120BA
:1003C0005931000088ED00E0A43600000000002054
:0403D0000000002009
:1003D400F0B595B01D46164608460C4601F048FC9B
:1003E4001A9B0D93CDE9086500252B46082205A923
:1003F40020460A958DF82C500C9501F055FC079B6E
:100404000293069B03939DF814308DF8115003F06A
:100414000302012A1DD1BDF81420059DC3F3C203B4
:10042400C2F383168DF81030B20008230EA92046BB
:1004340001F03AFCC5F3952508AB0093324602ABB4
:100444000EA9284600F0C2FB204601F015FC15B0A9
:10045400F0BD022AF8D1BDF81650C3F3C203C5F3A8
:1004640089158DF810300827082D2E4628BF082638
:100474003B4632460EA9204601F016FCAD1B08ABE4
:1004840002AA31460EA8374400F004FC002DEBD13B
:10049400DAE70000014B01221A7070477500002052
:1004A4007047000070B50E4D06460FCD88B06C46FF
:1004B4000FC495E80F00002E84E80F00094A0A488B
:1004C4004FF0060308BF00226946009301F034FC94
:1004D40008B100F0E5FD054B1E7008B070BD00BF0B
:1004E400A43600009904000000000020340000201D
:1004F40007B5044B0093044A4023FFF769FF03B098
:100504005DF804FB110500003500002038B50D48E6
:100514000D4C0E4D002323700378EB5CD2B263B113
:10052400043002F075FA08B100F0BAFD084B1A78ED
:1005340012B12378002BFBD038BD0C3002F060F8E8
:10054400F1E700BF000000207500002074070020C0
:100554003400002008B50848084A0378D35C3BB14E
:10056400043002F0E7F9BDE808400020FFF79ABF25
:100574000C3001F0D7FFF6E70000002074070020DC
:100584000120FFF78FBF000008B5FFF7F9FF04480B
:10059400042100F085FA034B01225A7108BD00BF03
:1005A4008036000014000020037813F0040216D0F3
:1005B40003F00303012B03D0022B09D00120704761
:1005C4000A6800880232C0F3831002440A60F5E727
:1005D4000B684288023303EB92130B60EEE710467C
:1005E400704700002DE9F04FDFF824A10F4685B0D5
:1005F4000446861C0020154601F04AF8DAF800107B
:100604003960DAE90132134401335B1A0AF21C47F8
:100614000AF583690AF21448B3421BD30020002D63
:1006240072D004F00F039B0143F0050363F30F0042
:10063400DAF80020DAF808301340033332444AF879
:1006440023000020CAF8002001F024F8012005B09E
:10065400BDE8F08F0121384601F041F8484601F029
:1006640056F8404601F053F8DAF80400DAF808B016
:10067400009000EA0B0003300AEB80006946FFF7A4
:1006840093FF009B50BB0BEA03020AEB820203F1C7
:10069400020CD2680192013303EA0B0B0AEB8B0BB9
:1006A40002F00302012ADBF80C10CDF800C023D0BD
:1006B400022A16D08346404601F02CF810B1009B64
:1006C400CAF804305946384601F009F8DAE901233A
:1006D4001344DAF8002001339B1A9DE70BEA030068
:1006E400C9E7BDF80630C3F3891303334FEA114B4E
:1006F4000CEB93030093DEE7BDF80430C3F38313DC
:100704004FEA114B6344F5E7A40544F006008FE774
:10071400480100200B4B0C48FF2210B59A600022C0
:10072400C3F81824C3E90022C3F8142483F820244E
:1007340001F057FA044610B9044801F0BFFA204604
:1007440010BD00BF4801002090360000F8360000BC
:1007540030B50A4C71B10A4A0A49121BD208002367
:100764009A4201D1002030BD31F82350854202D095
:100774000133F5E7034654F83300F4E75836000034
:100784008036000000000020094B013903EBC00053
:10079400032909D8DFE801F00A020406042070479F
:1007A40000797047407970470020704702207047F5
:1007B40058360000034BD3E90030C31A584258415D
:1007C400704700BF480100202DE9F04385B0FFF7D2
:1007D400F1FF0646002840F0FA807E4CC4F8180465
:1007E400BFF34F8F6368A56800932B40033304EB7A
:1007F40083006946FFF7D8FE009B18B1D4F818248B
:10080400002A62D005EA0302991C013304EB820238
:100814002B4004EB8303D268DB68029302F00303EA
:10082400022B0192009163D1BDF806306A48C3F3EC
:100834008917502FB84628BF4FF0500808F1080117
:1008440068F38F13C1F30901ADF8063001F0E1F943
:100854000646002800F0A68001F00AFA00230822C8
:1008640001A9304601F016FA009925EA0102013285
:10087400B8EB820F4FEA820333D95FFA88F863B387
:100884002940DDB2A8EB050803315FFA88F9A846D0
:10089400524D04EB810108234246304601F0FAF937
:1008A4003DB108F10803DBB24A462946304601F05F
:1008B400F1F9009B033703EB97070097D4F818343A
:1008C400002B4BD1D4F810545BE022689A428CD8A8
:1008D4006260304605B0BDE8F08340491D46994644
:1008E400D9E7294003310823424604EB8101DDE7BF
:1008F400012B57D1BDF804303748C3F383110629BF
:1009040028BF062161F38913023101F00F01890028
:10091400ADF8043001F07DF90646002842D001F01C
:10092400A7F90023082201A9304601F0B3F90027F2
:10093400BDF80420C2F38312BB00974203F10803FD
:10094400BCD200994A1C29400331009204EB810176
:100954000422304601F09EF90137E9E7304601F000
:100964008BF9FFF727FF80F00100C6B2B1E7EB680F
:100974005B7923B12B6831461B6828469847EB689E
:100984001D68002DF3D1304601F076F9284600F0B9
:100994007FFED4F818340BB9009B6360002000F08C
:1009A40079FEDEE7D4F8104454B90D4B0D480E49D6
:1009B400C01AC008000440F0020000F063F8D0E759
:1009C400236820469B689847E3681C68ECE7002688
:1009D4007FE700BF4801002090360000540100204A
:1009E4005836000078360000E13600002DE9F74F54
:1009F400224E04460F46924601A901221846D6F813
:100A040008909B46FFF7EEFD20B3019D4FF00008D0
:100A1400AA1CD84508EB020126D11948002100F090
:100A24003BFE80F31000000440EA1440E4006B1C19
:100A340004F0380403EA090305EA090544F0010453
:100A440006EB8303033544EA881444EA8724D86018
:100A540046F8254096F820341BB1FFF7B5FE002870
:100A6400FBD103B0BDE8F08F09EA010106EB810177
:100A74005AF82830CB6008F10108CAE74801002081
:100A84006405002000231A46FFF7B0BF07B5012311
:100A9400019201AAFFF7AAFF03B05DF804FB00006E
:100AA40030B50F4CD4F8102403460020114631B958
:100AB400D96808714AB9C4F810340A6030BDC968ED
:100AC4000D79854206D00968F1E7D26814680C6094
:100AD4001360F3E701300A28E8D14FF0FF30EDE767
:100AE4004801002038B5084B0125D3F8104483F899
:100AF400205404B938BDE3685D71236820465B68FF
:100B04009847E3681C68F4E74801002030B5C388BF
:100B140085B004460D4633B1144A00921449154A6F
:100B2400284600F051FE217A05291DD0637A4BB185
:100B3400A088FFF729FE104B104953F820202846BF
:100B440000F042FE227A0E4BA08853F82220039232
:100B54000021FFF7FDFD039A0A490346284605B024
:100B6400BDE8304000F030BE05B030BD2437000091
:100B74000C370000043700009037000029370000CC
:100B8400B43700002C37000007B503460846197A2D
:100B9400052911D05B7A2BB1094A0A49019000F06A
:100BA40013FE01980849019000F00EFE019803B06D
:100BB4005DF804EB00F0FDBD002AF8D0F2E700BFB9
:100BC4002437000029370000213700002DE9F043C5
:100BD40085B01F460C9D002395F80C902B73064698
:100BE4000C46904629463846FFF790FFB8F1060FA9
:100BF40009D8DFE808F00412181F283340003146F2
:100C0400284600F0E1FD002229463846FFF7BCFFE4
:100C140085F80C9005B0BDE8F0832268314628467B
:100C240000F0D2FDEFE7D4E900233146284600F076
:100C3400CBFDE8E7A36800933146D4E900232846B6
:100C440000F0C2FDDFE7E3680193A3680093314637
:100C5400D4E90023284600F0B7FDD4E723690293C2
:100C6400E3680193A36800933146D4E9002328463E
:100C740000F0AAFDC7E76369039323690293E3685D
:100C84000193A36800933146D4E90023284600F079
:100C94009BFDB8E708292DE9F74F80460E46174615
:100CA4001C463DD800251B7B257321461046019325
:100CB400FFF72CFFDFF88CA0DFF88CB0AE4232D9FE
:100CC40018F805205946204600F07EFD0135082D10
:100CD400F4D11B49DFF874A0DFF874B0204600F0AB
:100CE40073FD4FF000094E4524D918F809507E2DA4
:100CF4001ED8284602F01CFC002814BF2A462E22C7
:100D04005946204600F060FD09F10109B9F1080FC8
:100D1400E9D1012221463846FFF736FF019B2373B0
:100D240003B0BDE8F08F5146204600F04DFDCDE7FD
:100D34002E22E5E75146204600F046FDE4E700BFD9
:100D4400403700003C370000363700003E370000D3
:100D540042370000054A4FF0A043105CD3F8043535
:100D640023FA00F0C04300F001007047C8370000C8
:100D7400044B1A5C012393404FF0A042C2F80C3597
:100D8400704700BFC8370000044B1A5C012393402E
:100D94004FF0A042C2F80835704700BFC8370000C2
:100DA40008B50020FFF7F0FF0120FFF7EDFF022058
:100DB400FFF7EAFFBDE808400320FFF7E5BF08B5E9
:100DC4000020FFF7D5FF0120FFF7D2FF0220FFF735
:100DD400CFFFBDE808400320FFF7CABF074A4FF022
:100DE400A041105CD1F804350122824022EA0300BC
:100DF4001340C1F80805C1F80C357047C837000026
:100E04000D2809D00E2809D00F2809D010280CBFAE
:100E140003204FF0FF3070470020704701207047D7
:100E240002207047C20708B501460CD54FF0A04315
:100E34000322C3F84427C3F84827C3F84C27C3F850
:100E44005027FFF7ADFF8B070AD54FF0A0430C22C4
:100E5400C3F83427C3F83827C3F83C27C3F840271E
:100E640008BD00002DE9F84F2F4F304E4FF0000819
:100E74002F4B1B785FFA88F5AB4201D8BDE8F88F99
:100E8400D7F8009019F835000124A0F12002C0F130
:100E9400200304FA02F224FA03F31343D6E90012FE
:100EA40004FA00FC01EA0C0B02EA030E5BEA0E0EE4
:100EB40009EBC50A35D021EA0C0122EA0303C6E98D
:100EC400001301F0A3F8024619F83500194DA0F1FA
:100ED4002003C0F1200124FA01F104FA03F30B43C7
:100EE400D5E900C1C0F120050B40A0F1200122FA90
:100EF40005F5844002FA01F1294304EA0C0402FADC
:100F040000F58B4208BFAC420BD1DAF8043043B190
:100F14009AF801104C1E614261418D1A694269417F
:100F2400984708F10108A3E740060020380600208E
:100F34000406002030060020F8B507461E4800F0DD
:100F440085FBB8BB01251D4EA7F12004C7F1200382
:100F540025FA03F305FA04F41C43D6E90023BD4043
:100F640002EA050003EA040101431DD1384601F0F9
:100F74004DF8134BD3E9001288B129432243C3E946
:100F84000012D6E900232A432343C6E900230D4B6C
:100F9400094819680022BDE8F84000F015BB21EAB1
:100FA400050122EA0402EAE722EA050223EA04032D
:100FB400C6E90023F8BD00BF0C0600203806002057
:100FC4003006002008060020042A2DE9F3410546D6
:100FD4000C4616463BD900F051FFE8B11D4B1E49A3
:100FE4001D601E4BDFF888801C701D4B00221E60A4
:100FF4000023C1E900231B49C1E90023013CE4B2F9
:1010040000260327FF2C0ED1174A1848002102B0EE
:10101400BDE8F04100F0C6BA00F000FF0028DDD0C2
:1010240002B0BDE8F08105EBC40315F834009B78E9
:101034008DF80660424601A98DF804708DF80530DC
:1010440000F026FF013CE4B20028DBD0E8E70720EB
:10105400E6E700BF4006002030060020040600201A
:101064000806002038060020690E0000CC37000076
:101074003D0F000070B5084D084E00242B789C42AB
:1010840001D3002070BD3368012113F8340000F04F
:1010940077FF0134F2E700BF040600204006002079
:1010A4001FB50021039001AA44F20100CDE901110A
:1010B40000F004F805B05DF804FB000038B572B622
:1010C400FFF710FDFFF780FB0028FBD1104B114CFC
:1010D400114D1249E41AE408240444F00100FFF716
:1010E400D1FCD5F8F030DB0700D500BE0C4944F044
:1010F4000200FFF7C7FCBFF34F8FEA68094B02F405
:10110400E0621343EB60BFF34F8F00BFFDE700BF06
:10111400583600007836000000ED00E0D0370000BB
:10112400DC3700000400FA05094B5A78997801323B
:10113400D2B2914208BF0022197891421FBF0270B7
:101144005878182202FB003014BF04300020704786
:101154004406002037B5044600200D4600F098FAF6
:101164000DF10700FFF7E0FF90B10570094B9DF802
:10117400072044605A700024002000F08BFA24B940
:10118400054B4FF48012C3F80021204603B030BD54
:101194000424F1E74406002000E100E0024B4FF490
:1011A4003C6043F001031847F037000038B50C4B9E
:1011B4000C4C4FF40032C3F8802001254FF48033E7
:1011C400C4F84833C4F808336560FFF7E7FF064BFB
:1011D400A56000241C60FFF7E1FF044B1C7038BDC0
:1011E40000E100E0001001406007002051070020EA
:1011F400F8B51F4B1F491B680025C1F84051C1F8C1
:101204004451C1F84851C1F84C51C1F80051C1F8DA
:1012140004514BB3D1F8044517490968641A24F002
:101224007F442F461A68A24209D8A41A15441A7C8E
:10123400DE691AB1D3E905201F749047AEB90F4A8D
:101244000F4B11781B788B4205D10133DBB2022B93
:1012540008BF0023137012780A4B43F822500A4B3C
:101264004FF48012C3F80021F8BD3346DAE700BF1B
:101274006407002000100140600700205D07002083
:101284005C0700205407002000E100E02DE9F04F46
:10129400A14AA24913780978A14D994285B03CD05E
:1012A4000133DBB2022B08BF002313709D4912786F
:1012B4009D4B0F6853F822003B1823F07F43002214
:1012C4000B602B6816461446944613B942B12B6042
:1012D40006E0196881420ED902B12B60091A19601F
:1012E40001272B68DFF848A201934FF00008BEB92C
:1012F400DFF844B260E0401A0C44D968D3F81CE02B
:10130400C3F800C031B13A1922F07F42C3E9012188
:10131400DE611E4673460122D7E700263746E0E722
:101324003446F6697F4B60681B68DFF810C2A16819
:10133400C21A22F07F42624500F2A6800A4422606B
:10134400012222742A680023C4E90133E361002ADC
:1013540040F0A3802C60CAE79BF802105A1CD2B25A
:1013640091428BF8002004BF00228BF80020182241
:1013740002FB03B32A6819799C68022975D00329F2
:101384007FD0012918D1207CB0B9D3E90312A2601F
:101394005A69E2609A69654BA2611A78002A18BFFB
:1013A40001466160BEE78C4200F094808946C969B9
:1013B4000029F8D1002323749BF800309BF8012006
:1013C4009A42C9D12B68B8F1000F04D1019A9A420C
:1013D40001D1002F43D0002B79D0D3F800A0544D75
:1013E400504BD5F804751C68DFF854813E1B98F8FF
:1013F400003026F07F4603369BB94FF48033C5F89E
:101404004433C5F804334B4B4FF400324FF0010919
:10141400C3F880211A60C5F80090FFF7BFFE88F872
:101424000090B2452CBF5444A41924F07F44C5F85D
:101434004045D5F80435DB1B23F07F43E41B03331D
:1014440024F07F44A3420AD9D5F80435C5F84035C1
:10145400FFF7A4FE374B4FF40032C3F80021334B9F
:1014640000221A7005B0BDE8F08F114691469FE73F
:101474001174D2690123002AFAD1002B9CD02A606E
:101484009AE700231946F6E71B1A23F07F438B42A1
:1014940034BFCB1A0023236052E7216813689942B2
:1014A40013D85B1A1360E26154E7091AD8691A4623
:1014B40038B1034618688842F7D3401A18601846B2
:1014C40013462160E061DC6111E71346F2E7FFF7A0
:1014D4006DFEC4E74C4511D1D3692B6073B9DFF8B5
:1014E40044E00120CDE90212CAF80800CEF8003029
:1014F4000E4B1870FFF752FEDDE902120B68C96942
:10150400C9F81C1011B1086803440B602B6893429E
:1015140018BF4FF001084DE75C0700205D0700206D
:1015240064070020600700205407002050070020B3
:101534000010014000E100E044060020FEFF7F00AF
:101544005107002008B5FFF731FE104B00200B2295
:1015540018809A700E4B18600E4B18700E4B187052
:101564000E4B4FF48012C021C3F8802183F814136A
:101574001A6002F18042A2F56F22C2F8080583F8CE
:101584001113074BD2F804251A6008BD4406002045
:10159400640700205C0700205D07002000E100E0F4
:1015A40060070020074B9B784BB132B128B1036828
:1015B400187C20B959745A61704707207047082075
:1015C400704700BF440600202DE9F3411C4FBB784F
:1015D40004460D4616468BB380B304292CD94369BF
:1015E40063B3437C0020012B0CBF88464FF00008F6
:1015F40000F04EF80DF10700FFF796FDD0B101237E
:101604000370104B4460D3F80435C0E90486C0E984
:1016140002359DF807307B700024002000F03AF872
:1016240024B9094B4FF48012C3F80021204602B0BC
:10163400BDE8F0810424F0E70724F7E70824F5E780
:10164400440600200010014000E100E0064A9278C0
:101654003AB130B1426922B1002202740221FFF78B
:1016640079BD0820704700BF4406002072B6024AC4
:10167400136801331360704768070020034A136836
:10168400013B136003B962B6704700BF68070020CE
:10169400FFF7ECBFFFF7F2BF10B5034653E8000FA6
:1016A4000A4643E8002494F0000FF7D110BD10B5AA
:1016B400034653E8002F42EA010043E8000494F093
:1016C400000FF6D110BD10B5034653E8000F00EA31
:1016D400010243E8002494F0000FF6D110BD10B5C8
:1016E400034653E8002F02EB010043E8000494F0A2
:1016F400000FF6D110BD10B5034653E8002FA2EB3E
:10170400010043E8000494F0000FF6D110BD01215C
:10171400FFF7CDBF0021FFF7D6BF10B590B1D0E9D8
:10172400012301689B1ADBB20A60013BDBB2FF2B89
:10173400026802D10020107110BD11684C1C1460A5
:101744000B70F2E70E20F7E738B504460020FFF7E8
:101754009FFF226863681168994213D9481E10607C
:1017640011F8013CE568218A01FB0355A36811794E
:101774001B1ADBB2994200D213710020FFF78AFFD3
:10178400284638BD0025F8E738B5054600200C4644
:10179400FFF77EFF2A681368591C1160E968641A10
:1017A400298AB4FBF1F41C70BDE838400020FFF72F
:1017B40071BF826810B504462AB1436901680069A3
:1017C40098470023A36010BD0EB403B5039921B15B
:1017D40004AB01AA019300F077F802B05DF804EBC2
:1017E40003B070470A2938B504460D4602D10D21CD
:1017F400FFF7F8FFA3682268591CA160D554D4E907
:1018040001329A4204D32046BDE83840FFF7D1BFE5
:1018140038BD00002DE9F84F9846DDE90A43154626
:1018240082460F460A464FF00109AA420FD2C1452B
:1018340038BFC14613F0010B01D16CB90024012655
:10184400B8F1010F1BD908F1FF386E43F8E709F12D
:101854000109B2FBF5F2E8E79B070ED5B8F1000FDA
:101864000CBF30262026A145E9D2013C3146504622
:10187400FFF7B8FF002CF6D1E0E72026F3E7B7FB2B
:10188400F6F39D42E1D9DFF83C80B7FBF6F350460E
:1018940018F8031006FB1377FFF7A4FF3346AB4297
:1018A400B6FBF5F6F1D2BBF1000F02D00CB1A145A5
:1018B40001D3BDE8F88F20215046013CFFF792FF89
:1018C400F4E700BFF63700002DE9F74F0546174649
:1018D4008846002900F03E8118F8011B49B92B7B8A
:1018E400002B00F03781284603B0BDE8F04FFFF726
:1018F40060BF252940F0B780002698F800302D2BD2
:10190400424608F1010823D0302B24D02B2B25D0BC
:1019140000242A2B02F1010123D13B681A1D1B6804
:101924003A601C440A4613782E2B26D101324FF01C
:10193400000A104610F8011BA1F1300CBCF1090F8C
:101944001DD80A2303FB0A13A3F1300A0246F0E769
:1019540046F00106D1E746F00206CEE746F004065B
:10196400CBE711F8013CA3F130000928DBD80A22A7
:1019740002FB0434303C0A46CBE74FF0000A12F86D
:10198400011B01F0FB0068289046F8D0782909D89B
:101994006F290CD8632962D022D8252963D058290D
:1019A40000F0888098F80030002B95D197E77039C3
:1019B4000829F7D801A353F821F000BF331B000016
:1019C400A9190000A9190000C91A0000A9190000EA
:1019D400A71A0000A9190000A9190000B91A0000EB
:1019E400642901D06929DDD13A68D2F80090111D2B
:1019F40089EAE9723960A2EBE9724FF0010B092A16
:101A040035DCD34538BFD3462CB1B9F1000F01DB27
:101A1400720700D5013CB30702D5BAF1000F03D019
:101A2400F00701D44CBB0024B9F1000F2DDAC9F141
:101A340000092D212846FFF7D5FE06F00302022AED
:101A440004D1BAF1000F01D11CBB0024CDE900463A
:101A540053460A2249462846FFF7DCFEA2E73B68C4
:101A64001A1D19783A602846FFF7BCFE9AE70A2344
:101A74000BF1010BB2FBF3F2C1E7A345D4D2202151
:101A84002846013CFFF7AEFECCE77107D5D52B21E4
:101A9400D0E7A345DAD230212846013CFFF7A2FE65
:101AA400D2E73968CDE900460A1D3A6053460A2256
:101AB4000968D0E739680A1D3A60CDE90046534603
:101AC4001022F5E73B681A1D3A6016F00106D3F8B8
:101AD400009024D1B9F1000F03D0484601F089FDEC
:101AE4000646B4421DD809F1FF3919F8011F00292F
:101AF4003FF458AF2846FFF775FEF6E7284601364F
:101B0400FFF770FE19F806100029F7D1A642BFF4BA
:101B140049AF20212846013CFFF764FEF6E7002682
:101B2400F0E720212846013CFFF75CFED9E73B683B
:101B34001A1D3A60302128461C68FFF753FE7821AD
:101B44002846FFF74FFE00220823CDE90032214644
:101B5400102280E703B0BDE8F08F00BF2DE9F84FF5
:101B6400B0F806A04579D2F800B09DF828900AFB99
:101B740005F5043D88460BEB0301A94203F1040477
:101B840088BFA5EB030BB4FBFAF607460AFB164421
:101B9400C2F800B04EB9AAEB04055D4528BF5D4606
:101BA400BBF1000F04D1BDE8F88F3F68013EF1E7B7
:101BB400043408EB06003C442A46B9F1000F0DD06A
:101BC4002146ABEB050B01F0B8FCDA452E443F6827
:101BD40055464FF0000428BF5D46E1E70146204624
:101BE400EFE7FFF79ABDF8B546790146721E054640
:101BF400002393422D6803D30024A64202D8F8BDE3
:101C04000133F6E70F682846FFF7BEFD0134394675
:101C1400F3E72DE9F843068ACD1C0746FFF794FD48
:101C2400043E35440446B5FBF6F5F0B14FF4807339
:101C3400EDB28380C680013D076081464FF0000805
:101C4400A84512D23846FFF77FFD064648B16379AE
:101C54000133637108F10108C9F800000760814687
:101C6400EEE72046FFF7BFFF34462046BDE8F88381
:101C740001210430FFF733BD10B5012104460430BF
:101C8400FFF739FDC0B220B92046BDE81040FFF788
:101C9400AABF10BD1FB503920022009203AAFFF74A
:101CA4005DFF05B05DF804FB1FB5039201220092AD
:101CB40003AAFFF753FF05B05DF804FB8368002215
:101CC4005A60C3E904229A60DA601A60704700001F
:101CD4001FB503788DF800304368019383688DF84D
:101CE4000830C368054A0393054B684653F821300E
:101CF40052F82110984705B05DF804FB6C070020EA
:101D0400700700201FB503788DF8003043680193F5
:101D140083688DF80830C368054A0393054B684609
:101D240053F8213052F82110984705B05DF804FBB0
:101D34006C07002070070020F0B5194B90F800C024
:101D440091F81DE043F82C20164B16460A6943F817
:101D54002C20154B03F80CE00C4607460FCC89B039
:101D64006D460FC594E80F0085E80F00CDF810C04C
:101D7400BEF1000F09D0002E0C4A694608BF324656
:101D8400381D00F015FD09B0F0BD002E084A694663
:101D940008BF324607F10C0000F00AFBF3E700BF6E
:101DA400700700206C07002074070020D51C000079
:101DB400091D000000F1804000F5C040002382B0FE
:101DC400036003680193019B02B07047800000F137
:101DD400A040D0F8002722F44032C0F80027D0F801
:101DE400003743EA0141C0F800177047C2080123D5
:101DF40000F0070003FA00F08B5C18438854704726
:101E0400054B4FF0FF32072843F8202084BFC01849
:101E140080F84820704700BF7807002038B5144D7B
:101E240095F858400CBB2022FF2105F1300001F049
:101E3400ADFBE0B20134FFF7E3FF0C2CF9D10D4BFD
:101E44000022C0216A6583F80613402119604FF40B
:101E5400BE70FFF7AFFF084B4FF00041C3F8041307
:101E6400012385F85830104638BD0820FCE700BF30
:101E74007807002000E100E000600040034B93F885
:101E84005800003818BF0120704700BF78070020B1
:101E94002DE9F041DFF8E48008EB0003054693F9EF
:101EA4003030002B0F4664DA8B78C3F34003002BE9
:101EB4000BBF082400240C2108218C4202D10420E9
:101EC400BDE8F08158F8240001303DD108EB05014C
:101ED40066B248F8242081F830601BB908EB04038B
:101EE40083F84850BB785A070ED4D9072ED5AB00D7
:101EF40003F1A043D3F8002722F00202C3F800271D
:101F04001D492846FFF772FFBB783A7813F00203A5
:101F140025D0A40004F1804404F5C0442D02D4F873
:101F2400103523F4473323F44073C4F810351204F6
:101F3400D4F8103505F4F85502F4403215431D4326
:101F4400C4F810550020BBE70134B6E77A7805F5EC
:101F5400E0734FF0A041920041F82320D0E7083EFF
:101F640048FA86F696F8505045EA821286F85020D0
:101F7400E8E70820A4E700BFCC070020780700208A
:101F840038B5204C251895F93020072A18DD083A71
:101F940044FA82F494F850309B09032B0BD14FF090
:101FA400A043D3F81015C14001F001010231BDE88E
:101FB4003840FFF70BBF012B0CBF02210321F6E7CA
:101FC400D3B2072B1DD8930003F1804303F5C0431C
:101FD400D3F8100540F00100C3F8100502F14000E9
:101FE40040B2800080B2FFF7E5FE51B195F9303080
:101FF40054F823302BB1012303FA02F2024BC3F845
:10200400042338BD78070020006000404FF0A0434F
:10201400D3F8103523FA00F000F0010070470000F7
:102024002DE9F04F87B00024584D03944FF480728B
:10203400012102F1804303F5C04390B21B68012BD8
:1020440006D1D5F804330B4202D0FFF7B3FE0C439C
:102054000432B2F5907F4FEA4101EAD14B4BD3F8F9
:102064007C31012B0AD14FF4BE70FFF7A3FE4FF071
:10207400A04344F00044D3F810350393E3B2D3B142
:10208400434F00250126344210D0AB0003F18043B6
:1020940003F5C043D3F81005D3F8101557F82530CD
:1020A40023B1C1F30141C0F3042098470135082D41
:1020B4004FEA4606E7D1002C61DA00224FF0FF33E5
:1020C400CDE90423DFF8C880DFF8C89000273E4636
:1020D4004FF0A04B19F9014B631C45D0C4F3C20364
:1020E4000122E5B204F03F0004F0070402FA04F40C
:1020F40006AA134413F8042C224235D008EB00023C
:10210400AD0992F9302058F822A0BAF1000F09D194
:10211400032D29D104A901930090FFF767FEDDE99F
:10212400000301E0032DF5D000F5E07113F80C3C39
:102134005BF821102342C1F3014105D0022913D1D8
:10214400032D0CD1294604E003290DD1032D06D11A
:10215400022100900136FFF739FE0098F6B2BAF179
:10216400000F01D02946D0470137042FB2D136B130
:102174004FF0A043039AD3F81035934202D107B02D
:10218400BDE8F08F0393049B05939DE70060004036
:1021940078070020C8070020014B1B68184700BFC0
:1021A400D407002038B50B4B98420C4601D00020D0
:1021B40038BD0020FFF76CFA074B1D7915B90122D1
:1021C4001C601A710020FFF765FA002DEFD0112072
:1021D400EEE700BF00200040D4070020034B9842E4
:1021E40001BF034B00221A601A717047002000409F
:1021F400D40700200023435082B043580193019B2D
:1022040002B070470A4610B54FF48E71FFF7F2FF23
:10221400136A9168C95C136A01331362C0F81C1510
:1022240010BD8B690A4610B54FF4847123B9FFF7CA
:10223400E1FFD0F8183510BDFFF7DCFF536AD16811
:10224400D0F81805C854536A01335362F3E7000009
:102254001FB501238DF80030044BCDE90110D3E9FB
:1022640000126846904705B05DF804FBDC070020C7
:1022740030B54D4DD5F804339A0585B051D5D5F810
:102284002431002B4DD04FF492712846FFF7B2FF52
:102294004FF40173C5F80833444B93F829200AB965
:1022A40001226A60404902228DF80020D1F880247E
:1022B400C1F8802403929A690292DA68019200229A
:1022C400C3E906226846D3E9001290473648D0F89D
:1022D4001C315BB1354A116A536999424DD292F867
:1022E4002830002B49D11146FFF78CFF2E48D0F837
:1022F4004431002B55D04FF4A271FFF77BFF2B4BD9
:1023040093F829200AB1012202609A69002A48D070
:10231400586AD96800229A6105B0BDE83040FFF7D9
:1023240097BFD5F804335B07D0D5D5F80831002B17
:10233400CCD01E4C1C482146FFF773FF636AA26988
:102344009A42C3D1E369E1684BB1A3612369E360B5
:102354000023606AE3616362FFF77AFFB6E794F8EB
:1023640029300BB901236B600F4B4FF40172C3F892
:1023740008230023606AA361EEE74FF48E710A48D4
:10238400FFF738FF51690029B0D00023029191680A
:102394008DF80030019153616846D2E900139847E3
:1023A400A4E705B030BD00BF00200040DC070020DA
:1023B4002DE9F843564D90F804802C2303FB085371
:1023C400064693F82A300C469146002B40F09B8039
:1023D40050490068FFF7E6FE0746002840F0958064
:1023E40022683068511C0BD04FF0A0410123934068
:1023F400C1F8083502F5E0734FF0030C41F823C02F
:1024040061684B1C1FBF01F5E0734FF0A04C4FF007
:10241400000E4CF823E0A369C0F8243594F814C0E6
:10242400637DBCF1010F4CEA0303C0F86C35C0F8BE
:102434001415C0F80C251DD1A268531C1FBF02F54A
:10244400E0734FF0A0414FF0000C41F823C0E36863
:10245400591C0BD04FF0A04C01219940CCF8081521
:1024640003F5E0714FF0030E4CF821E0C0F8083595
:10247400C0F810252C2202FB08F2AB18C3F8049014
:102484002369AB50B9F1000F2AD04FF48E71247F29
:10249400FFF7B0FE30684FF4A271FFF7ABFE32686D
:1024A4001D4BC2F80433130B42F30732002AA8BFB2
:1024B40002F160404FEA4411BABF184803F00F0418
:1024C40000F56140C9B2B4BF015580F8001303F0B0
:1024D4001F03012101FA03F35209114941F8223083
:1024E40033680422C3F800252C2303FB085300227D
:1024F400C3E9062283F829205A61012283F82A209D
:102504003846BDE8F8830827FAE71127F8E700BF43
:10251400DC070020752200008000020014ED00E0BA
:1025240000E100E0F8B5057900682C4C0023C0F800
:1025340000352C2303FB05435B686BB1284BC0F8C3
:10254400083340F30733C0F304315B0901228A40A6
:102554002033244941F82320D0F80C65D0F8141511
:10256400D0F80835D0F810254FF0FF37BE42C0F838
:10257400147518BF06F5E076C0F80C75C0F8087538
:10258400C0F810751EBF4FF0A0474FF0020C47F87B
:1025940026C04E1C1FBF4FF0A04601F5E071022774
:1025A40046F82170511C1FBF4FF0A04102F5E072A4
:1025B400022641F822605A1C1FBF03F5E0734FF056
:1025C400A042022142F82310FFF708FE2C2303FB4C
:1025D4000544002384F82A306360F8BDDC0700203A
:1025E4008402020000E100E00279044B2C2101FB8B
:1025F40002335869003818BF01207047DC070020F7
:102604002DE9F84F064689469246FFF7EDFF04464A
:1026140000283DD196F804801F4F2C2508FB057B2C
:102624004FF48E71CBF82000CBF814A08BF828005F
:10263400CBF808903068FFF7DDFD30680123836034
:102644005946FFF7DFFDDBF804305D4613BB306805
:102654002A6A6B699A4211D33368D3F81C21002A81
:10266400FBD00122DA6000202C2303FB087700232F
:102674007B61BDE8F88F95F828303BB9D0F81C3160
:10268400002BF8D05946FFF7BDFDE1E70F20EBE73B
:102694001120EEE72046ECE7DC070020002343503E
:1026A40082B043580193019B02B070471FB50123C8
:1026B4008DF80030044BCDE90110D3E900126846CF
:1026C400904705B05DF804FB080800207FB5364A42
:1026D400D2F82461002E46D010464FF49271FFF7D1
:1026E400DDFF02238DF80030D2F88034C2F8803444
:1026F4000393D2F83C3502932C4BDA680192002202
:10270400C3E906226846D3E9001290472648D0F868
:10271400443173B14FF4A271FFF7C0FF234B9A69A0
:102724003AB10022C3E90622D968D0F83C05FFF784
:10273400BDFF1D48D0F820319BB14FF49071FFF7D5
:10274400ADFF1A4B5A6962B1D0F84C1502910022C0
:1027540099688DF8002001915A616846D3E9001206
:10276400904704B070BDD2F81031002BCED04FF496
:1027740088711046FFF792FF0C4BD2F83C0599691B
:102784008842C3D1DC69D96864B1D2F8005225F01B
:102794002005C2F800521A699C61DA60DE61FFF715
:1027A40085FFB3E79C61FAE7002000400808002099
:1027B4002DE9F8435A4E90F80480242303FB086360
:1027C400054693F820300C469146002B40F0A38038
:1027D40054490068FFF7E6FC0746002840F09D8056
:1027E40022682868511C0BD04FF0A041012393406C
:1027F400C1F8083502F5E0734FF0030C41F823C02B
:1028040061684B1C1FBF01F5E0734FF0A04C4FF003
:10281400000E4CF823E0A369C0F8243594F814C0E2
:10282400637DBCF1010F4CEA0303C0F86C35C0F8BA
:102834000C25C0F814151DD1A268531C1FBF02F546
:10284400E0734FF0A0414FF0000C41F823C0E3685F
:10285400591C0BD04FF0A04C01219940CCF808151D
:1028640003F5E0714FF0030E4CF821E0C0F8083591
:10287400C0F81025242202FB08F2B318C3F8049010
:102884002369B350B9F1000F34D04FF48871227F1B
:10289400FFF704FF28684FF49071FFF7FFFE2868E4
:1028A4004FF49271FFF7FAFE28684FF4A271FFF714
:1028B400F5FE2B681C49C3F80413190B43F30733C3
:1028C400002BAEBF03F1604001F00F0417484FEA3C
:1028D4004212A8BF00F56140D2B2B4BF025580F8DD
:1028E400002301F01F01012202FA01F15B09104AE1
:1028F40042F823102B680822C3F80025242303FB85
:1029040008660023C6E906337361012386F8203084
:102914003846BDE8F8830827FAE71127F8E700BF2F
:1029240008080020D12600001003020014ED00E086
:1029340000E100E0F8B5057900682C4C0023C0F8EC
:102944000035242303FB05435B686BB1284BC0F8B7
:10295400083340F30733C0F304315B0901228A4092
:102964002033244941F82320D0F80C65D0F81415FD
:10297400D0F80835D0F810254FF0FF37BE42C0F824
:102984000C7518BF06F5E076C0F81475C0F8087524
:10299400C0F810751EBF4FF0A0474FF0020C47F867
:1029A40026C04E1C1FBF4FF0A04601F5E071022760
:1029B40046F82170511C1FBF4FF0A04102F5E07290
:1029C400022641F822605A1C1FBF03F5E0734FF042
:1029D400A042022142F82310FFF700FC242303FB4A
:1029E4000544002384F820306360F8BD0808002003
:1029F4001003020000E100E00279044B242101FBF2
:102A040002335869003818BF0120704708080020B5
:102A140001F06043B3F1005F2DE9F04706468846B4
:102A2400924635D190F80490FFF7E6FF044688BB40
:102A34001A4F3068242505FB09754FF49071C5F8C9
:102A440014A0C5F80880FFF729FE4FF4AC71306874
:102A5400FFF724FE33686A69A968C3F84415C3F80C
:102A6400482501229A606A68B2B9D3F82021D3F8C4
:102A740058014AB90028F8D00F20242303FB097712
:102A840000237B61BDE8F087002818BF0F20F4E71E
:102A94001020F7E71120F5E72046F3E708080020A7
:102AA40010B5C1B20020034621FA03F2C3F10704B2
:102AB40002F001020133A240082B40EA0200F3D1E4
:102AC40010BD0000F8B5424C00260723C4F80C657D
:102AD400C320C4F80835C4F81065FFF7E1FF0546C4
:102AE400C220FFF7DDFF0304C12043EA0565FFF7B9
:102AF400D7FF0746C020FFF7D3FF054345EA072564
:102B0400C4F82455C720FFF7CBFF0546C620FFF7BE
:102B1400C7FF0304C42043EA0565FFF7C1FF284348
:102B2400C4F828050120FFF7BBFF054640F2231037
:102B3400FFF7B6FF0304274843EA0565FFF7B0FF34
:102B440007462548FFF7ACFF054345EA0725C4F8C7
:102B54001C558920FFF7A4FF054648F6AB10FFF784
:102B64009FFF03041D4843EA0565FFF799FF0746E5
:102B74001B48FFF795FF0543012345EA0725C4F8E1
:102B84002055C4F82C65C4F83035164BC4F81465C8
:102B9400C4F818350223C4F83435D4F8343503F0B6
:102BA4000303022B07D14FF6FF73C4F83C350E4BD9
:102BB400C4F83835F8BDD4F8343503F00303012BD9
:102BC400F8D1FF23C4F83C3540F20713F0E700BF07
:102BD400001000404523010067452301CDAB890067
:102BE400EFCDAB8901010401211001000220FEF7A1
:102BF400F5B800002DE9F04780460D46FEF700F9D0
:102C04000328044610D8012D10D0022D30D05DB910
:102C14001A48FEF71BFD1A4B04EB440213449D783B
:102C2400184B1B5DAB4219D0BDE8F087144E00EB86
:102C34004003F218F55C5378470053B1DFF84C9029
:102C44000E484A464FF40041FEF7BEFC08B989F825
:102C5400008027443E440B4BB2781A55002DE3D034
:102C6400094B1B68002BDFD02846BDE8F047184706
:102C740000EB4004024804446578EFE75008002064
:102C840090080020A9080020A40800202C08002097
:102C940000780221FFF7AEBF08B5094B1B7853B18A
:102CA4000020FEF771F80120FEF76EF8BDE8084039
:102CB4000320FEF769B8BDE80840FEF771B800BF0D
:102CC4002D080020F8B57A4C237805461BB1002363
:102CD4002370FFF7E1FF172D00F28780DFE805F08E
:102CE4000C1717425364757F878C878C9499999934
:102CF4009999C3C8D0D8E3E3FFF7CEFF6D48FEF738
:102D0400A5FC6D4B002204461A702046F8BD002035
:102D1400FEF720F8F0B10020FEF736F8022D0CBFC4
:102D24004FF4E1644FF47A64634B1D7000254FF453
:102D340000464FF4FA7029464FF47A720023E4FBFC
:102D4400060100F035FB2A460146BDE8F840594823
:102D5400FEF73ABCFEF70CF8022D0CBFC8244FF462
:102D6400C874E1E70020FDF7F5FF40B10020FEF74D
:102D74000BF84FF44874504B03221A70D6E7FDF752
:102D8400F7FFC824F7E70020FDF7E4FF38B100207F
:102D9400FDF7FAFF4FF47A64474B0422EDE7FDF7A1
:102DA400E7FF4FF4C874F7E70020FDF7D3FF48B1FD
:102DB4000020FDF7E9FF404B05221A7041F69A11F5
:102DC4000022C2E7FDF7D4FFF5E70020FEF706F87E
:102DD400394B06221A70002240F6CD41B5E7002097
:102DE400FDF7C6FF344B07221A7000248DE701203B
:102DF4002070FDF7F3FFEEE701202070FDF7EEFFF2
:102E040000224FF48041A0E7FDF7D9FF2A4B0C22A2
:102E1400EAE72A482A4EFEF719FCD5F111050446C3
:102E24001CD0D8B9012D13D0C820454321464FF4F6
:102E340000474FF4FA704FF47A720023C5FB070180
:102E440000F0B6FA224601461C48FEF7BDFB0446D4
:102E54000220FDF78DFF0123337056E70220FDF7B2
:102E640093FF0023F8E7FFF717FF134B1222BBE78A
:102E7400FFF712FF0020FDF77BFF0F4B1322B3E790
:102E8400FFF70AFF0120FDF773FF0B4B1422ABE79A
:102E9400FFF702FF0020FDF76BFF0120FDF768FF3D
:102EA400054B1522A0E7FDF78AFF034B1D709CE735
:102EB400A008002070080020A80800203008002086
:102EC4002D080020044B1B68DB0703D5034B18783F
:102ED400FFF7F8BE704700BF9C080020A808002038
:102EE400044B1B6813F0010301D0FFF7EBBE184637
:102EF400704700BF9C08002038B51C4B18601C4B61
:102F040010F00204054619601AD01A4B1A480E2212
:102F14001A700F22DA7010229A7111225A72042147
:102F240040F26662FEF750F8044648B9FEF7A2F88C
:102F3400044628B90146114A1148FEF733FB0446FA
:102F4400EB0711D50120FDF76DFF6CB921460D4A41
:102F54000D48FEF727FB044630B9BDE838400B4A5C
:102F64000B480121FEF71EBB204638BD9C080020FB
:102F7400A4080020900800201C380000952C0000B4
:102F840040380000C92E000044380000F12B000036
:102F94003C3800004FF080430022C3F80021012296
:102FA4001A60D3F80021002AFBD001220021C3F8C3
:102FB4001825C3F804119A604FF08042D2F8043106
:102FC400002BFBD070470000144B0022C3F80021F3
:102FD40001225A60D3F80021002AFBD00022C3F852
:102FE4000C2101229A600D4BD3F80C21002AFBD04E
:102FF400D3F80024012A08BF09494FF0000208BF92
:103004000868C3F8102118BF104601221A61034A48
:10301400D2F81031002BFBD0704700BF00100040E5
:10302400B00800202DE9F041FFF7B4FFFEF78AFA5B
:1030340008B1FEF735F84FF400410020FDF76AFBB4
:1030440008B1FEF72DF8FDF79FFA00210120FFF7E4
:1030540053FF08B1FEF724F8FFF734FD1D4B1E4A59
:10306400C3F804251220FFF73BFF1C4C1C4B1D49E1
:10307400E41AE408240444F0030405462046FDF75A
:1030840001FD19492046FDF7FDFC15B12846FEF760
:1030940007F8FDF799FB0028FBD1144FDFF85080A7
:1030A400FFF792FF06460A20FFF71AFF3946054646
:1030B4002046FDF7E7FC15B12846FDF7F1FF32463F
:1030C40041462046FDF7E2FCFDF77EFB0028FBD1DC
:1030D400E6E700BF00100040B0080020783600008A
:1030E4005836000048380000683800007E38000078
:1030F400923800004FF0704393F8E02F062A10D165
:10310400D3F8E42F12070CD1D3F8E80F00F0F00342
:10311400302B08D000F0E000A0F1400358425841A1
:10312400704700207047012070474FF0704393F8B8
:10313400E02F062A0CD1D3F8E42F120708D1D3F8D4
:10314400E80F00F0F000A0F13003584258417047F6
:103154000020704708B5FFF7CDFF40B14FF0805312
:10316400884AD3F82433C3F30423C2F84035FFF765
:10317400DCFF10B1844B854A5A67FFF7BBFF48B1A7
:103184004FF080534FF08042D3F84432C3F34233BC
:10319400C2F83C35FFF7C9FF30B17D4AD2F8FC30A4
:1031A40023F08073C2F8FC30FFF7A4FF40B14FF066
:1031B40080430022C3F80C21C3F81021C3F838253A
:1031C400FFF7B3FF20B14FF080430322C3F8A025DB
:1031D400FFF7ABFF60B16F4B0522C3F81026012245
:1031E400C3F888260022C3F818263F22C3F8142601
:1031F4004FF0704393F8E02F062A50D1D3F8E42F10
:1032040011074CD1D3F8E83F03F0F003502B46D11B
:103214004FF08052604BD2F80414C3F82015D2F852
:103224000814C3F82415D2F80C14C3F82815D2F8DE
:103234001014C3F82C15D2F81414C3F83015D2F8AE
:103244001814C3F83415D2F81C14C3F84015D2F876
:103254002014C3F84415D2F82414C3F84815D2F83E
:103264002814C3F84C15D2F82C14C3F85015D2F80E
:103274003014C3F85415D2F83414C3F86015D2F8D6
:103284003814C3F86415D2F83C14C3F86815D2F89E
:103294004014C3F86C15D2F84424C3F87025FFF722
:1032A40029FF48B14FF080534FF08042D3F8583291
:1032B40003F04F03C2F8E43EFFF71CFF48B14FF0A0
:1032C4008043D3F80024D20744BF6FF00102C3F84F
:1032D40000244FF08053D3F83021062A0AD1D3F8C2
:1032E4003431062B01BF2D4AD2F83C3743F48063B6
:1032F400C2F83C37264AD2F8883043F47003C2F847
:103304008830BFF34F8FBFF36F8F4FF01023D3F884
:103314000022002A03DBD3F80432002B2EDA204BE0
:103324000122C3F80425D3F80024002AFBD04FF06F
:1033340010221521C2F80012D3F80024002AFBD071
:103344004FF010231522C3F80422154BD3F80024A0
:10335400002AFBD00022C3F80425D3F80024002A55
:10336400FBD0BFF34F8F0A490E4BCA6802F4E062E8
:103374001343CB60BFF34F8F00BFFDE70A4B0B4AEB
:103384001A6008BD0030014000C007400DF0ADBA1E
:1033940000ED00E00050004000C00040001000407C
:1033A40000E001400400FA051C0000200090D00356
:1033B40053EA020C61D02DE9F04BB3FA83F51E00F9
:1033C40007BFB2FA82F502FA05F403FA05F41646C9
:1033D400C5F120051EBF22FA05F73C43203556EA05
:1033E400044C4FEA144418BF0134A3464FF00009BB
:1033F400C846904271EB030C39D3094207BFB0FAB7
:1034040080F700FA07F6B1FA81F701FA07F6C7F177
:1034140020071EBF20FA07FC46EA0C062037B6FB3D
:10342400FBFC7F1B103F07F01F04C4F120060CFABD
:1034340004F42CFA06F644BF34460026202FA4BF19
:103444002646002454EA060C08BF012418EB04089D
:1034540049EB0609A4FB027CC01B06FB02CC04FB5F
:1034640003CC71EB0C01904271EB030CC5D20B46FB
:10347400024649464046BDE8F08BB2FBF3F2000039
:103484007F2805D8034B185C034B5B5C18407047DE
:1034940000207047C038000040390000A0F16103EB
:1034A400192B98BF20387047A0F14103192B98BFFE
:1034B400203070477F2805D8034B185C034B5B5CB6
:1034C4001840704700207047C038000040390000A1
:1034D400A0F16103192B98BF20387047A0F1410374
:1034E400192B98BF203070477F299ABF01700120A3
:1034F4006FF02E0070475AB10A787F2A0AD800B1BB
:103504000260002119605960501A18BF01207047E9
:10351400002070476FF02E007047000008B5034B81
:103524005B689B681B68984708BD00BF20000020AB
:1035340008B50921FFF7F2FF08BD844640EA0103FC
:1035440013F0030F18D18446202A0BD32DE9F0077A
:10355400B1E8F807A0E8F807A2F12002202AF7D280
:10356400BDE8F007042A07D351F8043B40F8043BB4
:10357400A2F10402042AF7D2002A05D011F8013B73
:1035840000F8013B013AF9D1604670478446002AAD
:103594002DD010F0030F04D000F8011B013A26D0FF
:1035A400F7E7C9B241EA012141EA0141202A12D3D5
:1035B400A2F120022DE9F0030B460C460D460E46FF
:1035C4000F4688468946A0E8FA03203AFBD2BDE8B4
:1035D400F00320320BD0042A05D340F8041B043A2C
:1035E40005D0042AF9D200F8011B013AFBD1604648
:1035F400704700F1010110F0030F11D010F8012BF6
:10360400002A23D010F0030F0AD010F8012B002A4F
:103614001CD010F0030F03D010F8012B002A15D092
:103624002DE970004FF001324FF0803350F8044B15
:10363400A4EB020525EA04051D4000D1F6E7A0F13C
:10364400040070BC10F8012B002AFBD1A0EB010090
:023654007047BD
:1036580006380000000000000D38000000000000DF
:1036680011380000000000001638000000000000BB
:08367800F2360000000003031C
:10368000C436000000000000D03600001400002006
:103690007800002040010020480100208000002028
:0436A000180000000E
:1036A400FFFFFFFFFFFFFFFFFFFFFFFFFFFFFFFF26
:1036B40000000000000000000000D6010601000028
:1036C400F504000059050000A5040000756172743A
:1036D4005F6C6F675F6261636B656E640042616318
:1036E4006B656E647320666C7573686564006170E5
:1036F400700000006C0500207F000000EC05002035
:103704001B5B313B33316D0025734C6F6773206451
:10371400726F70706564202825642925730D0A0072
:103724001B5B306D002573003C25733E2025733AE6
:103734002000202530327800202020007C002563E2
:10374400001B5B313B33306D001B5B313B33326D0F
:10375400001B5B313B33336D001B5B313B33346DFA
:10376400001B5B313B33356D001B5B313B33366DE6
:10377400001B5B313B33376D007761726E696E6796
:1037840000696E666F006465627567002437000027
:1037940045370000043700004D370000553700005E
:1037A4005D370000653700006D3700007537000095
:1037B40000000000D63700007D3700008537000088
:1037C4008A370000111213140C060020466174613C
:1037D4006C206572726F720053797374656D207218
:1037E4006573657400000000000000000338FDD814
:1037F40070473031323334353637383941424344F7
:1038040045464750494F5445005052530055415284
:1038140054005541525445000D000300F92B00009B
:103824000E000300F92B00000F000300F92B000029
:1038340010000300F92B000030080020500800207D
:1038440070080020526164696F207265636569764F
:103854006572206578616D706C6520737461727433
:1038640065642E005761697420666F722066697200
:103874007374207061636B6574005061636B65746D
:1038840020776173207265636569766564005468A6
:103894006520636F6E74656E7473206F6620746840
:1038A40065207061636B616765206973202575000D
:1038B40043000000504F53495800000020202020AE
:1038C400202020202068282828282020202020208C
:1038D40020202020202020202020202048101010EC
:1038E4001010101010101010101010108484848404
:1038F40084848484848410101010101010818181B9
:103904008181810101010101010101010101010123
:1039140001010101010101101010101010828282B6
:1039240082828202020202020202020202020202F3
:1039340002020202020202101010102000070320EB
:10394400041702010857104080000000B43800003A
:10395400B8390000CC3A000053756E004D6F6E000C
:1039640054756500576564005468750046726900B3
:1039740053617400000000004A616E0046656200F5
:103984004D617200417072004D6179004A756E009C
:103994004A756C0041756700536570004F6374008D
:1039A4004E6F76004465630000000000414D0050F6
:1039B4004D000000F03A0000EC3A0000EC3A000040
:1039C400EC3A0000EC3A0000EC3A0000EC3A00005B
:1039D400EC3A0000EC3A0000EC3A0000FFFFFFFF75
:1039E400FFFFFFFFFFFFFFFFFFFF00002C3A000077
:1039F4005C390000683A00007C390000B0390000EE
:103A0400103A0000C03A00001C3A0000256D2F2532
:103A1400642F25790000000025612025622025659A
:103A2400202554202559000053756E646179004D9A
:103A34006F6E6461790054756573646179005765CC
:103A4400646E657364617900546875727364617936
:103A540000467269646179005361747572646179B6
:103A6400000000004A616E756172790046656272F9
:103A740075617279004D6172636800417072696C9E
:103A8400004D6179004A756E65004A756C79004194
:103A940075677573740053657074656D6265720043
:103AA4004F63746F626572004E6F76656D62657206
:103AB40000446563656D62657200000025483A251F
:103AC4004D3A25530000000085340000A134000065
:103AD400AD340000B9340000D5340000E1340000F6
:0E3AE400ED340000FB340000000000002E0056
:103AF4000000000000200040000000000020004002
:103B04000000000000000000FF0000000090D0034F
:103B1400503900005039000050390000503900007D
:043B24005039000014
:040000030000037581
:00000001FF
