:1000000000000120750300005D0300005F03000095
:1000100061030000630300006503000000000000AE
:100020000000000000000000000000006703000066
:1000300069030000000000006B0300006D03000076
:100040006F03000049510000911900006F03000088
:100050006F0300006F030000191800006F03000019
:10006000316800006F0300006F0300006F030000A1
:100070006F0300006F0300006F0300006F030000B8
:100080006F030000790D00006F0300006F03000094
:10009000150E00000D5B00006F0300006F030000F1
:1000A0006F0300006F0300006F0300006F03000088
:1000B0006F0300006F03000000000000000000005C
:1000C0006F0300006F0300006F0300006F03000068
:1000D0006F0300006F0300006F03000000000000CA
:1000E0000000000000000000000000000000000010
:1000F0000000000000000000000000000000000000
:1001000000000000000000000000000000000000EF
:1001100000000000000000000000000000000000DF
:1001200000000000000000000000000000000000CF
:1001300000000000000000000000000000000000BF
:1001400000000000000000000000000000000000AF
:10015000000000000000000000000000000000009F
:10016000000000000000000000000000000000008F
:10017000000000000000000000000000000000007F
:10018000000000000000000000000000000000006F
:10019000000000000000000000000000000000005F
:1001A000000000000000000000000000000000004F
:1001B000000000000000000000000000000000003F
:1001C000000000000000000000000000000000002F
:1001D000000000000000000000000000000000001F
:1001E000000000000000000000000000000000000F
:1001F00000000000000000000000000000000000FF
:10020000354936480A1A02D0072291438D463449AF
:1002100034480A1A06D00722914381F30988022242
:1002200082F3148830483149314A00F044F83148AB
:100230003149324A00F03FF831483249324A00F041
:100240003AF832483249334A00F035F832483349F7
:10025000334A00F030F833483349344A00F02BF881
:1002600033483449344A00F026F8344834490022EF
:1002700000F02CF833483449002200F027F83348C6
:100280003349091A082902DB002202604160314A21
:1002900090471F481F49884205D00268043003B4C4
:1002A000904703BCF7E700208646EC46002000217B
:1002B000294A9047FEE7884207D0521A05D00378B2
:1002C00001300B700131013AF9D17047884202D0F8
:1002D00002700130FAE770470000012000E00020C2
:1002E0000000012000000120C06F0000000000207D
:1002F00050000020D4030000D4030000B66A0000C0
:10030000C06F00000000002000000020046B00000F
:10031000046B0000046B0000046B0000046B000021
:10032000046B0000046B0000046B0000BE6F000053
:1003300010700000500000205000002050000020ED
:10034000BF0E0020C00E0020C00E0020C00E0020F6
:10035000C02E00209D03000019230000FEE7FEE7E9
:10036000FEE7FEE7FEE7FEE7FEE7FEE7FEE7FEE765
:10037000704700BF1048804710484FF0070188437E
:1003800085460F4880470F48016841F470010160BD
:10039000BFF34F8FBFF36F8FFFF732BF0A480B4990
:1003A0000B4A884207D0521A05D0037801300B70EF
:1003B0000131013AF9D170477103000000000120BA
:1003C000B129000088ED00E0046B0000000000206F
:0403D0000000002009
:1003D400F0B595B01D46164608460C4601F05CF98A
:1003E4001A9B0D93CDE9086500252B46082205A923
:1003F40020460A958DF82C500C9501F069F9079B5D
:100404000293069B03939DF814308DF8115003F06A
:100414000302012A1DD1BDF81420059DC3F3C203B4
:10042400C2F383168DF81030B20008230EA92046BB
:1004340001F04EF9C5F3952508AB0093324602ABA3
:100444000EA9284600F064FB204601F029F915B0F6
:10045400F0BD022AF8D1BDF81650C3F3C203C5F3A8
:1004640089158DF810300827082D2E4628BF082638
:100474003B4632460EA9204601F02AF9AD1B08ABD3
:1004840002AA31460EA8374400F0A6FB002DEBD19A
:10049400DAE70000014B01221A7070479100002036
:1004A4007047000070B50E4D06460FCD88B06C46FF
:1004B4000FC495E80F00002E84E80F00094A0A488B
:1004C4004FF0060308BF00226946009301F03EF98D
:1004D40008B100F0E1FB054B1E7008B070BD00BF11
:1004E400046B00009904000000000020500000206C
:1004F40007B5044B0093044A4023FFF769FF03B098
:100504005DF804FB110500005100002038B50D48CA
:100514000D4C0E4D002323700378EB5CD2B263B113
:10052400043001F06FFE08B100F0B6FB084B1A78F6
:1005340012B12378002BFBD038BD0C3001F05AFCEB
:10054400F1E700BF0000002091000020B806002061
:100554005000002008B50848084A0378D35C3BB132
:10056400043001F0E1FDBDE808400020FFF79ABF28
:100574000C3001F0D1FBF6E700000020B8060020A3
:10058400037813F0040216D003F00303012B03D005
:10059400022B09D0012070470A6800880232C0F398
:1005A400831002440A60F5E70B684288023303EBC8
:1005B40092130B60EEE71046704700002DE9F04FF0
:1005C400DFF824A10F4685B00446861C002015469A
:1005D40000F08CFDDAF800103960DAE901321344D6
:1005E40001335B1A0AF21C470AF583690AF21448BC
:1005F400B3421BD30020002D72D004F00F039B01E3
:1006040043F0050363F30F00DAF80020DAF808304A
:100614001340033332444AF823000020CAF8002070
:1006240000F066FD012005B0BDE8F08F01213846D9
:1006340000F083FD484600F098FD404600F095FD2B
:10064400DAF80400DAF808B0009000EA0B0003308E
:100654000AEB80006946FFF793FF009B50BB0BEA4F
:1006640003020AEB820203F1020CD2680192013305
:1006740003EA0B0B0AEB8B0B02F00302012ADBF8F3
:100684000C10CDF800C023D0022A16D08346404671
:1006940000F06EFD10B1009BCAF80430594638468C
:1006A40000F04BFDDAE901231344DAF800200133AA
:1006B4009B1A9DE70BEA0300C9E7BDF80630C3F3B4
:1006C400891303334FEA114B0CEB93030093DEE7DA
:1006D400BDF80430C3F383134FEA114B6344F5E7C9
:1006E400A40544F006008FE76401002030B50A4CED
:1006F40071B10A4A0A49121BD20800239A4201D155
:10070400002030BD31F82350854202D00133F5E793
:10071400034654F83300F4E7B86A0000E06A0000C6
:1007240000000020094B013903EBC000032909D85C
:10073400DFE801F00A0204060420704700797047DC
:10074400407970470020704702207047B86A000063
:10075400034BD3E90030C31A58425841704700BFD5
:10076400640100202DE9F04385B0FFF7F1FF064650
:10077400002840F0FA807E4CC4F81804BFF34F8F71
:100784006368A56800932B40033304EB8300694638
:10079400FFF7F6FE009B18B1D4F81824002A62D0A3
:1007A40005EA0302991C013304EB82022B4004EB9B
:1007B4008303D268DB68029302F00303022B0192E5
:1007C400009163D1BDF806306A48C3F38917502FEE
:1007D400B84628BF4FF0500808F1080168F38F139A
:1007E400C1F30901ADF8063000F027FF06460028E2
:1007F40000F0A68000F050FF0023082201A9304633
:1008040000F05CFF009925EA01020132B8EB820F87
:100814004FEA820333D95FFA88F863B32940DDB223
:10082400A8EB050803315FFA88F9A846524D04EB9A
:10083400810108234246304600F040FF3DB108F1F3
:100844000803DBB24A462946304600F037FF009BD6
:10085400033703EB97070097D4F81834002B4BD1D8
:10086400D4F810545BE022689A428CD86260304617
:1008740005B0BDE8F08340491D469946D9E72940B3
:1008840003310823424604EB8101DDE7012B57D1F4
:10089400BDF804303748C3F38311062928BF062165
:1008A40061F38913023101F00F018900ADF80430BE
:1008B40000F0C3FE0646002842D000F0EDFE0023FF
:1008C400082201A9304600F0F9FE0027BDF80420F3
:1008D400C2F38312BB00974203F10803BCD2009910
:1008E4004A1C29400331009204EB81010422304662
:1008F40000F0E4FE0137E9E7304600F0D1FEFFF7EF
:1009040027FF80F00100C6B2B1E7EB685B7923B141
:100914002B6831461B6828469847EB681D68002DF4
:10092400F3D1304600F0BCFE284600F0DFFBD4F8DB
:1009340018340BB9009B6360002000F0D9FBDEE79C
:10094400D4F8104454B90D4B0D480E49C01AC008D0
:10095400000440F0020000F063F8D0E7236820466A
:100964009B689847E3681C68ECE700267FE700BFB4
:1009740064010020F06A000070010020B86A0000E1
:10098400D86A0000416B00002DE9F74F224E04465F
:100994000F46924601A901221846D6F808909B46B4
:1009A400FFF70CFE20B3019D4FF00008AA1CD845A8
:1009B40008EB020126D11948002100F09BFB80F3CB
:1009C4001000000440EA1440E4006B1C04F03804F6
:1009D40003EA090305EA090544F0010406EB83036D
:1009E400033544EA881444EA8724D86046F825404D
:1009F40096F820341BB1FFF7B5FE0028FBD103B0F5
:100A0400BDE8F08F09EA010106EB81015AF82830AC
:100A1400CB6008F10108CAE76401002080050020CA
:100A240000231A46FFF7B0BF38B5084B0125D3F8A9
:100A3400104483F8205404B938BDE3685D71236819
:100A440020465B689847E3681C68F4E7640100206B
:100A540030B5C38885B004460D4633B1144A0092BC
:100A64001449154A284600F0C6FB217A05291DD0F1
:100A7400637A4BB1A088FFF755FE104B104953F829
:100A84002020284600F0B7FB227A0E4BA08853F8AA
:100A9400222003920021FFF729FE039A0A49034604
:100AA400284605B0BDE8304000F0A5BB05B030BD18
:100AB400766B00005E6B0000566B0000E46B000078
:100AC4007B6B0000086C00007E6B000007B50346DA
:100AD4000846197A052911D05B7A2BB1094A0A49CB
:100AE400019000F088FB01980849019000F083FB15
:100AF400019803B05DF804EB00F072BB002AF8D053
:100B0400F2E700BF766B00007B6B0000736B0000A4
:100B14002DE9F04385B01F460C9D002395F80C90F9
:100B24002B7306460C46904629463846FFF790FF3D
:100B3400B8F1060F09D8DFE808F00412181F2833AB
:100B440040003146284600F056FB0022294638462C
:100B5400FFF7BCFF85F80C9005B0BDE8F083226870
:100B64003146284600F047FBEFE7D4E9002331463D
:100B7400284600F040FBE8E7A36800933146D4E937
:100B84000023284600F037FBDFE7E3680193A368FE
:100B940000933146D4E90023284600F02CFBD4E727
:100BA40023690293E3680193A36800933146D4E96F
:100BB4000023284600F01FFBC7E7636903932369FA
:100BC4000293E3680193A36800933146D4E90023B8
:100BD400284600F010FBB8E708292DE9F74F8046B6
:100BE4000E4617461C463DD800251B7B257321461F
:100BF40010460193FFF72CFFDFF88CA0DFF88CB0D0
:100C0400AE4232D918F805205946204600F0F3FACE
:100C14000135082DF4D11B49DFF874A0DFF874B056
:100C2400204600F0E8FA4FF000094E4524D918F8A0
:100C340009507E2D1ED8284605F088FE002814BFD2
:100C44002A462E225946204600F0D5FA09F1010918
:100C5400B9F1080FE9D1012221463846FFF736FFE2
:100C6400019B237303B0BDE8F08F5146204600F08A
:100C7400C2FACDE72E22E5E75146204600F0BBFA42
:100C8400E4E700BF926B00008E6B0000886B0000ED
:100C9400906B0000946B00001FB50021039001AA23
:100CA40044F20100CDE9011100F004F805B05DF84B
:100CB40004FB000038B572B6FFF7B6FEFFF752FD2D
:100CC4000028FBD1104B114C114D1249E41AE408D1
:100CD400240444F00100FFF7A3FED5F8F030DB074D
:100CE40000D500BE0C4944F00200FFF799FEBFF3A3
:100CF4004F8FEA68094B02F4E0621343EB60BFF3E1
:100D04004F8F00BFFDE700BFB86A0000D86A00003B
:100D140000ED00E01C6C0000286C00000400FA05E3
:100D2400024B4FF43C6043F001031847406C000051
:100D340038B50C4B0C4C4FF40032C3F8802001251D
:100D44004FF48033C4F84833C4F808336560FFF7C0
:100D5400E7FF064BA56000241C60FFF7E1FF044B8E
:100D64001C7038BD00E100E000100140A406002022
:100D740095060020F8B51F4B1F491B680025C1F8D4
:100D84004051C1F84451C1F84851C1F84C51C1F81F
:100D94000051C1F804514BB3D1F80445174909680F
:100DA400641A24F07F442F461A68A24209D8A41A70
:100DB40015441A7CDE691AB1D3E905201F749047E3
:100DC400AEB90F4A0F4B11781B788B4205D1013312
:100DD400DBB2022B08BF0023137012780A4B43F8CE
:100DE40022500A4B4FF48012C3F80021F8BD334659
:100DF400DAE700BFA806002000100140A406002086
:100E0400A1060020A00600209806002000E100E0D2
:100E14002DE9F04FA14AA24913780978A14D9942CE
:100E240085B03CD00133DBB2022B08BF0023137022
:100E34009D4912789D4B0F6853F822003B1823F00C
:100E44007F4300220B602B6816461446944613B960
:100E540042B12B6006E0196881420ED902B12B60C1
:100E6400091A196001272B68DFF848A201934FF093
:100E74000008BEB9DFF844B260E0401A0C44D968F7
:100E8400D3F81CE0C3F800C031B13A1922F07F4214
:100E9400C3E90121DE611E4673460122D7E700261D
:100EA4003746E0E73446F6697F4B60681B68DFF835
:100EB40010C2A168C21A22F07F42624500F2A680E5
:100EC4000A442260012222742A680023C4E90133FF
:100ED400E361002A40F0A3802C60CAE79BF802106B
:100EE4005A1CD2B291428BF8002004BF00228BF826
:100EF4000020182202FB03B32A6819799C6802298E
:100F040075D003297FD0012918D1207CB0B9D3E949
:100F14000312A2605A69E2609A69654BA2611A7869
:100F2400002A18BF01466160BEE78C4200F094803D
:100F34008946C9690029F8D1002323749BF800303D
:100F44009BF801209A42C9D12B68B8F1000F04D153
:100F5400019A9A4201D1002F43D0002B79D0D3F8C3
:100F640000A0544D504BD5F804751C68DFF854812B
:100F74003E1B98F8003026F07F4603369BB94FF4A9
:100F84008033C5F84433C5F804334B4B4FF4003277
:100F94004FF00109C3F880211A60C5F80090FFF7EB
:100FA400BFFE88F80090B2452CBF5444A41924F025
:100FB4007F44C5F84045D5F80435DB1B23F07F4357
:100FC400E41B033324F07F44A3420AD9D5F8043543
:100FD400C5F84035FFF7A4FE374B4FF40032C3F891
:100FE4000021334B00221A7005B0BDE8F08F114682
:100FF40091469FE71174D2690123002AFAD1002B8C
:101004009CD02A609AE700231946F6E71B1A23F0BE
:101014007F438B4234BFCB1A0023236052E72168FD
:101024001368994213D85B1A1360E26154E7091AF2
:10103400D8691A4638B1034618688842F7D3401A6B
:101044001860184613462160E061DC6111E713461D
:10105400F2E7FFF76DFEC4E74C4511D1D3692B606D
:1010640073B9DFF844E00120CDE90212CAF80800A0
:10107400CEF800300E4B1870FFF752FEDDE9021275
:101084000B68C969C9F81C1011B1086803440B60E6
:101094002B68934218BF4FF001084DE7A0060020CB
:1010A400A1060020A8060020A4060020980600201F
:1010B400940600200010014000E100E088050020B3
:1010C400FEFF7F009506002072B6024A13680133C2
:1010D40013607047AC060020034A1368013B136099
:1010E40003B962B6704700BFAC060020FFF7ECBF3F
:1010F400FFF7F2BF10B5034653E8000F0A4643E872
:10110400002494F0000FF7D110BD10B5034653E846
:10111400002F42EA010043E8000494F0000FF6D1E6
:1011240010BD10B5034653E8000F00EA010243E87E
:10113400002494F0000FF6D110BD10B5034653E817
:10114400002F02EB010043E8000494F0000FF6D1F5
:1011540010BD10B5034653E8002FA2EB010043E88D
:10116400000494F0000FF6D110BD0121FFF7CDBFAC
:101174000021FFF7D6BF38B504460020FFF7B6FFBD
:10118400226863681168994213D9481E106011F8E7
:10119400013CE568218A01FB0355A36811791B1AF8
:1011A400DBB2994200D213710020FFF7A1FF284659
:1011B40038BD0025F8E738B5054600200C46FFF792
:1011C40095FF2A681368591C1160E968641A298A12
:1011D400B4FBF1F41C70BDE838400020FFF788BF71
:1011E400826810B504462AB14369016800699847CA
:1011F4000023A36010BD0EB403B5039921B104AB61
:1012040001AA019300F076F802B05DF804EB03B094
:1012140070470A2938B504460D4602D10D21FFF75F
:10122400F8FFA3682268591CA160D554D4E901329F
:101234009A4204D32046BDE83840FFF7D1BF38BDF9
:101244002DE9F84F9846DDE90A43154682460F46D4
:101254000A464FF00109AA420FD2C14538BFC14620
:1012640013F0010B01D16CB900240126B8F1010F70
:101274001BD908F1FF386E43F8E709F10109B2FB05
:10128400F5F2E8E79B070ED5B8F1000F0CBF302646
:101294002026A145E9D2013C31465046FFF7B9FF6B
:1012A400002CF6D1E0E72026F3E7B7FBF6F39D42E6
:1012B400E1D9DFF83C80B7FBF6F3504618F8031089
:1012C40006FB1377FFF7A5FF3346AB42B6FBF5F6F3
:1012D400F1D2BBF1000F02D00CB1A14501D3BDE89E
:1012E400F88F20215046013CFFF793FFF4E700BF3D
:1012F400466C00002DE9F74F05461746884600293D
:1013040000F03E8118F8011B49B92B7B002B00F03B
:101314003781284603B0BDE8F04FFFF761BF2529A8
:1013240040F0B780002698F800302D2B424608F193
:10133400010823D0302B24D02B2B25D000242A2B9A
:1013440002F1010123D13B681A1D1B683A601C4459
:101354000A4613782E2B26D101324FF0000A10468C
:1013640010F8011BA1F1300CBCF1090F1DD80A23A0
:1013740003FB0A13A3F1300A0246F0E746F0010624
:10138400D1E746F00206CEE746F00406CBE711F8B3
:10139400013CA3F130000928DBD80A2202FB043403
:1013A400303C0A46CBE74FF0000A12F8011B01F06B
:1013B400FB0068289046F8D0782909D86F290CD802
:1013C400632962D022D8252963D0582900F0888067
:1013D40098F80030002B95D197E770390829F7D891
:1013E40001A353F821F000BF5F150000D5130000DE
:1013F400D5130000F5140000D5130000D314000029
:10140400D5130000D5130000E5140000642901D0B1
:101414006929DDD13A68D2F80090111D89EAE97290
:101424003960A2EBE9724FF0010B092A35DCD34590
:1014340038BFD3462CB1B9F1000F01DB720700D5D8
:10144400013CB30702D5BAF1000F03D0F00701D471
:101454004CBB0024B9F1000F2DDAC9F100092D218C
:101464002846FFF7D6FE06F00302022A04D1BAF199
:10147400000F01D11CBB0024CDE9004653460A22CB
:1014840049462846FFF7DCFEA2E73B681A1D197897
:101494003A602846FFF7BDFE9AE70A230BF1010BD9
:1014A400B2FBF3F2C1E7A345D4D220212846013C84
:1014B400FFF7AFFECCE77107D5D52B21D0E7A345C5
:1014C400DAD230212846013CFFF7A3FED2E739687F
:1014D400CDE900460A1D3A6053460A220968D0E75E
:1014E40039680A1D3A60CDE9004653461022F5E7F3
:1014F4003B681A1D3A6016F00106D3F8009024D117
:10150400B9F1000F03D0484605F0A3FA0646B442E9
:101514001DD809F1FF3919F8011F00293FF458AF0C
:101524002846FFF776FEF6E728460136FFF771FEF8
:1015340019F806100029F7D1A642BFF449AF2021BB
:101544002846013CFFF765FEF6E70026F0E7202178
:101554002846013CFFF75DFED9E73B681A1D3A6057
:10156400302128461C68FFF754FE78212846FFF7EF
:1015740050FE00220823CDE900322146102280E7E4
:1015840003B0BDE8F08F00BF2DE9F84FB0F806A016
:101594004579D2F800B09DF828900AFB05F5043D82
:1015A40088460BEB0301A94203F1040488BFA5EBB1
:1015B400030BB4FBFAF607460AFB1644C2F800B064
:1015C4004EB9AAEB04055D4528BF5D46BBF1000F8B
:1015D40004D1BDE8F88F3F68013EF1E7043408EB1D
:1015E40006003C442A46B9F1000F0DD02146ABEB6E
:1015F400050B05F0B0F9DA452E443F6855464FF027
:10160400000428BF5D46E1E701462046EFE7F8B550
:1016140046790146721E0546002393422D6803D382
:101624000024A64202D8F8BD0133F6E70F68284625
:10163400FFF7C1FD01343946F3E72DE9F843068A83
:10164400CD1C0746FFF797FD043E35440446B5FB21
:10165400F6F5F0B14FF48073EDB28380C680013D9E
:10166400076081464FF00008A84512D23846FFF7BC
:1016740082FD064648B163790133637108F10108BC
:10168400C9F8000007608146EEE72046FFF7BFFF78
:1016940034462046BDE8F88301210430FFF74DBDF0
:1016A40010B5012104460430FFF753FDC0B220B940
:1016B4002046BDE81040FFF7AABF10BD1FB5039236
:1016C4000022009203AAFFF75FFF05B05DF804FB58
:1016D4001FB503920122009203AAFFF755FF05B03C
:1016E4005DF804FB1FB503788DF80030436801935F
:1016F40083688DF80830C368054A0393054B684630
:1017040053F8213052F82110984705B05DF804FBD6
:10171400B0060020B40600201FB503788DF8003011
:101724004368019383688DF80830C368054A0393BE
:10173400054B684653F8213052F82110984705B0FC
:101744005DF804FBB0060020B4060020F0B5194B88
:1017540090F800C091F81DE043F82C20164B164673
:101764000A6943F82C20154B03F80CE00C46074695
:101774000FCC89B06D460FC594E80F0085E80F00C3
:10178400CDF810C0BEF1000F09D0002E0C4A6946F6
:1017940008BF3246381D00F005FC09B0F0BD002E2C
:1017A400084A694608BF324607F10C0000F0FAF90E
:1017B400F3E700BFB4060020B0060020B8060020FE
:1017C400E91600001D17000000F1804000F5C0403C
:1017D400002382B0036003680193019B02B0704749
:1017E400800000F1A040D0F8002722F44032C0F875
:1017F4000027D0F8003743EA0141C0F800177047CA
:10180400C208012300F0070003FA00F08B5C1843C0
:10181400885470472DE9F04F87B00024584D039445
:101824004FF48072012102F1804303F5C04390B26A
:101834001B68012B06D1D5F804330B4202D0FFF705
:10184400C3FF0C430432B2F5907F4FEA4101EAD161
:101854004B4BD3F87C31012B0AD14FF4BE70FFF708
:10186400B3FF4FF0A04344F00044D3F81035039382
:10187400E3B2D3B1434F00250126344210D0AB006C
:1018840003F1804303F5C043D3F81005D3F81015D2
:1018940057F8253023B1C1F30141C0F30420984720
:1018A4000135082D4FEA4606E7D1002C61DA002203
:1018B4004FF0FF33CDE90423DFF8C880DFF8C89088
:1018C40000273E464FF0A04B19F9014B631C45D04D
:1018D400C4F3C2030122E5B204F03F0004F007049C
:1018E40002FA04F406AA134413F8042C224235D055
:1018F40008EB0002AD0992F9302058F822A0BAF1A1
:10190400000F09D1032D29D104A901930090FFF7F9
:1019140077FFDDE9000301E0032DF5D000F5E07168
:1019240013F80C3C5BF821102342C1F3014105D0AC
:10193400022913D1032D0CD1294604E003290DD12A
:10194400032D06D1022100900136FFF749FF0098CC
:10195400F6B2BAF1000F01D02946D0470137042F5F
:10196400B2D136B14FF0A043039AD3F81035934265
:1019740002D107B0BDE8F08F0393049B05939DE764
:1019840000600040BC0600200C070020014B1B68CF
:10199400184700BF1807002038B50B4B98420C4677
:1019A40001D0002038BD0020FFF7A0FB074B1D79B4
:1019B40015B901221C601A710020FFF799FB002D54
:1019C400EFD01120EEE700BF0020004018070020F0
:1019D400034B984201BF034B00221A601A717047EF
:1019E40000200040180700200023435082B04358D1
:1019F4000193019B02B070470A4610B54FF48E71F3
:101A0400FFF7F2FF136A9168C95C136A013313622A
:101A1400C0F81C1510BD8B690A4610B54FF48471CB
:101A240023B9FFF7E1FFD0F8183510BDFFF7DCFF4D
:101A3400536AD168D0F81805C854536A0133536205
:101A4400F3E700001FB501238DF80030044BCDE906
:101A54000110D3E900126846904705B05DF804FB15
:101A64002007002030B54D4DD5F804339A0585B0D4
:101A740051D5D5F82431002B4DD04FF4927128461E
:101A8400FFF7B2FF4FF40173C5F80833444B93F8E2
:101A940029200AB901226A60404902228DF80020F7
:101AA400D1F88024C1F8802403929A690292DA68FA
:101AB40001920022C3E906226846D3E90012904746
:101AC4003648D0F81C315BB1354A116A53699942E2
:101AD4004DD292F82830002B49D11146FFF78CFFE4
:101AE4002E48D0F84431002B55D04FF4A271FFF7A3
:101AF4007BFF2B4B93F829200AB1012202609A69DB
:101B0400002A48D0586AD96800229A6105B0BDE815
:101B14003040FFF797BFD5F804335B07D0D5D5F82D
:101B24000831002BCCD01E4C1C482146FFF773FF14
:101B3400636AA2699A42C3D1E369E1684BB1A361C4
:101B44002369E3600023606AE3616362FFF77AFF5D
:101B5400B6E794F829300BB901236B600F4B4FF4AF
:101B64000172C3F808230023606AA361EEE74FF40F
:101B74008E710A48FFF738FF51690029B0D000235D
:101B8400029191688DF80030019153616846D2E961
:101B940000139847A4E705B030BD00BF0020004003
:101BA400200700202DE9F843564D90F804802C239B
:101BB40003FB0853064693F82A300C469146002B43
:101BC40040F09B8050490068FFF7E6FE0746002876
:101BD40040F0958022683068511C0BD04FF0A04132
:101BE40001239340C1F8083502F5E0734FF0030C6C
:101BF40041F823C061684B1C1FBF01F5E0734FF02F
:101C0400A04C4FF0000E4CF823E0A369C0F8243533
:101C140094F814C0637DBCF1010F4CEA0303C0F8CF
:101C24006C35C0F81415C0F80C251DD1A268531CDE
:101C34001FBF02F5E0734FF0A0414FF0000C41F8D4
:101C440023C0E368591C0BD04FF0A04C01219940EC
:101C5400CCF8081503F5E0714FF0030E4CF821E0C1
:101C6400C0F80835C0F810252C2202FB08F2AB1886
:101C7400C3F804902369AB50B9F1000F2AD04FF494
:101C84008E71247FFFF7B0FE30684FF4A271FFF726
:101C9400ABFE32681D4BC2F80433130B42F3073218
:101CA400002AA8BF02F160404FEA4411BABF1848A5
:101CB40003F00F0400F56140C9B2B4BF015580F8C8
:101CC400001303F01F03012101FA03F35209114920
:101CD40041F8223033680422C3F800252C2303FB87
:101CE40008530022C3E9062283F829205A610122FD
:101CF40083F82A203846BDE8F8830827FAE7112735
:101D0400F8E700BF20070020691A000080000200E5
:101D140014ED00E000E100E0F8B5057900682C4C12
:101D24000023C0F800352C2303FB05435B686BB12B
:101D3400284BC0F8083340F30733C0F304315B0980
:101D440001228A402033244941F82320D0F80C652D
:101D5400D0F81415D0F80835D0F810254FF0FF3717
:101D6400BE42C0F8147518BF06F5E076C0F80C75CD
:101D7400C0F80875C0F810751EBF4FF0A0474FF0AB
:101D8400020C47F826C04E1C1FBF4FF0A04601F5B9
:101D9400E071022746F82170511C1FBF4FF0A0418B
:101DA40002F5E072022641F822605A1C1FBF03F5B7
:101DB400E0734FF0A042022142F82310FFF708FE1F
:101DC4002C2303FB0544002384F82A306360F8BD08
:101DD400200700208402020000E100E00279044BA5
:101DE4002C2101FB02335869003818BF01207047C9
:101DF400200700202DE9F84F064689469246FFF752
:101E0400EDFF044600283DD196F804801F4F2C2591
:101E140008FB057B4FF48E71CBF82000CBF814A09F
:101E24008BF82800CBF808903068FFF7DDFD3068A8
:101E3400012383605946FFF7DFFDDBF804305D467C
:101E440013BB30682A6A6B699A4211D33368D3F89A
:101E54001C21002AFBD00122DA6000202C2303FB82
:101E6400087700237B61BDE8F88F95F828303BB9EB
:101E7400D0F81C31002BF8D05946FFF7BDFDE1E73F
:101E84000F20EBE71120EEE72046ECE720070020C7
:101E94000023435082B043580193019B02B0704722
:101EA4001FB501238DF80030044BCDE90110D3E9AF
:101EB40000126846904705B05DF804FB4C0700200B
:101EC4007FB5364AD2F82461002E46D010464FF42E
:101ED4009271FFF7DDFF02238DF80030D2F88034D1
:101EE400C2F880340393D2F83C3502932C4BDA6861
:101EF40001920022C3E906226846D3E90012904702
:101F04002648D0F8443173B14FF4A271FFF7C0FFF3
:101F1400234B9A693AB10022C3E90622D968D0F862
:101F24003C05FFF7BDFF1D48D0F820319BB14FF4AD
:101F34009071FFF7ADFF1A4B5A6962B1D0F84C1596
:101F44000291002299688DF8002001915A61684637
:101F5400D3E90012904704B070BDD2F81031002BC1
:101F6400CED04FF488711046FFF792FF0C4BD2F895
:101F74003C0599698842C3D1DC69D96864B1D2F857
:101F8400005225F02005C2F800521A699C61DA60FB
:101F9400DE61FFF785FFB3E79C61FAE700200040AC
:101FA4004C0700202DE9F8435A4E90F8048024236E
:101FB40003FB0863054693F820300C469146002B3A
:101FC40040F0A38054490068FFF7E6FC0746002868
:101FD40040F09D8022682868511C0BD04FF0A0412E
:101FE40001239340C1F8083502F5E0734FF0030C68
:101FF40041F823C061684B1C1FBF01F5E0734FF02B
:10200400A04C4FF0000E4CF823E0A369C0F824352F
:1020140094F814C0637DBCF1010F4CEA0303C0F8CB
:102024006C35C0F80C25C0F814151DD1A268531CDA
:102034001FBF02F5E0734FF0A0414FF0000C41F8D0
:1020440023C0E368591C0BD04FF0A04C01219940E8
:10205400CCF8081503F5E0714FF0030E4CF821E0BD
:10206400C0F80835C0F81025242202FB08F2B31882
:10207400C3F804902369B350B9F1000F34D04FF47E
:102084008871227FFFF704FF28684FF49071FFF7EF
:10209400FFFE28684FF49271FFF7FAFE28684FF4A8
:1020A400A271FFF7F5FE2B681C49C3F80413190B42
:1020B40043F30733002BAEBF03F1604001F00F047C
:1020C40017484FEA4212A8BF00F56140D2B2B4BF2C
:1020D400025580F8002301F01F01012202FA01F1E8
:1020E4005B09104A42F823102B680822C3F8002524
:1020F400242303FB08660023C6E906337361012326
:1021040086F820303846BDE8F8830827FAE7112717
:10211400F8E700BF4C070020C51E000010030200B2
:1021240014ED00E000E100E0F8B5057900682C4CFE
:102134000023C0F80035242303FB05435B686BB11F
:10214400284BC0F8083340F30733C0F304315B096C
:1021540001228A402033244941F82320D0F80C6519
:10216400D0F81415D0F80835D0F810254FF0FF3703
:10217400BE42C0F80C7518BF06F5E076C0F81475B9
:10218400C0F80875C0F810751EBF4FF0A0474FF097
:10219400020C47F826C04E1C1FBF4FF0A04601F5A5
:1021A400E071022746F82170511C1FBF4FF0A04177
:1021B40002F5E072022641F822605A1C1FBF03F5A3
:1021C400E0734FF0A042022142F82310FFF700FC15
:1021D400242303FB0544002384F820306360F8BD06
:1021E4004C0700201003020000E100E00279044BD8
:1021F400242101FB02335869003818BF01207047BD
:102204004C07002001F06043B3F1005F2DE9F04773
:1022140006468846924635D190F80490FFF7E6FFCB
:10222400044688BB1A4F3068242505FB09754FF412
:102234009071C5F814A0C5F80880FFF729FE4FF483
:10224400AC713068FFF724FE33686A69A968C3F883
:102254004415C3F8482501229A606A68B2B9D3F8D4
:102264002021D3F858014AB90028F8D00F2024239C
:1022740003FB097700237B61BDE8F087002818BFC2
:102284000F20F4E71020F7E71120F5E72046F3E7E5
:102294004C0700201FB520231149039303AA0446C9
:1022A40000F0BAFD48B90F480F4B10491B1ADB0860
:1022B4001B0443F00100FEF7B3FB0D490122204645
:1022C40000F050FD48B90848064B0A49C01AC00836
:1022D400000440F00100FEF7A3FB04B010BD00BFF2
:1022E40071070020B86A0000D86A00006C6C000016
:1022F400700700207B6C000082B002AB03E906008B
:1023040002B0704782B002AB03E9060002B0704726
:10231400704700002DE9FF4144F602730120ADF837
:102324000C3000F071FC28B900F050FE00F50340B9
:10233400FEF7B2FC022103A800F0A8FD334800F028
:102344000BFE28B900F042FE00F50340FEF7A4FCA2
:102354002F4B3049FF221A700020012200F002FDA9
:1023640068B92D482D4B2E49C01AC008000440F00E
:102374000100FEF755FBFEF7F5F90028FBD100F04C
:10238400D5FC28B900F022FE00F50340FEF784FCDA
:1023940024491E4D244E002000F0CAFAFEF7E2F94B
:1023A40004460028FAD120BF2B68B3F57A7FF5D311
:1023B400FEF79CFE3146204600F0BAFA2A681B4913
:1023C400DFF87080204600F0B3FA6A6818492046A6
:1023D40000F0AEFA00F088FDE2B2904204F1010789
:1023E40005D80020FEF784FE00F084FDD6E7911C9A
:1023F40002F1120355F82110009155F8233041469B
:10240400002000F095FA3C46E4E700BF9407002062
:102414007007002071070020D86A0000B86A000025
:102424007B6C00008A6C0000736B0000B26C0000CF
:10243400D16C0000F26C00000369C26893429CBF37
:1024440080681B18013B981A70472DE9F843D0E9BE
:1024540002940546A9EB04084068904520440F46C1
:10246400144404D904F077FAEC60BDE8F8834246DA
:10247400A4EB090404F06FFA6868224607EB08012C
:10248400F0E72DE9F843C5680646894617464FF03C
:1024940000083469B3687068A54228BFE418013C99
:1024A400621B5C1BBC4228BF3C46944228BF1446B6
:1024B40049462844224604F04EFAB3682544AB4208
:1024C40008BF00253F1BA044A144F560E1D140466C
:1024D400BDE8F88310B5114C114AA2610223C4E986
:1024E4000433104BE361A2644FF400730E4A0F49A6
:1024F4002362E26400231022E01DA3626362E362AC
:10250400A3656365E365226504F081FA0849204602
:1025140004F07DFA2023A37110BD00BF1C08002025
:10252400296D0000A408002094080020326D0000EA
:10253400366D000070B5164B182400FB04451D448D
:1025440004FB00331646DC6A012C0ED0022C18D092
:10255400E4B92846FFF770FF864204D8324628467D
:10256400FFF773FF3446204670BD2846FFF764FF2B
:102574008642344628BF044622462846FFF765FFB4
:10258400F1E72846BDE87040FFF77BBF0024EAE787
:102594001C08002070B50B4B1B7804460D461646EC
:1025A4000BB9FFF797FF0020FEF7A0FD324629463E
:1025B4002046FFF7BFFF04460020FEF799FD2046A2
:1025C40070BD00BF1C080020826810B50446406836
:1025D400531C834205D820688154A360E368013307
:1025E400E360D4E901329A420BD121682069FFF7F4
:1025F400D1FFA368984215BF4FF0FF330023E36077
:10260400A36010BD2DE9F84F9946DDE90A4316464B
:10261400054688460A464FF0010AB24212D2CA451C
:1026240038BFCA4613F0010B01D184B90024EB680A
:10263400002B48DB0127B9F1010F1FD909F1FF393C
:102644007743F8E70AF1010AB2FBF6F2E5E79B07E4
:1026540012D5B9F1000F0CBF30272027A245E6D2CE
:1026640039462846FFF7B0FFEB68002B04F1FF342E
:10267400DDDB002CF2D1D9E72027EFE7B8FBF7F335
:102684009E42DDD9DFF84890B8FBF7F3284619F8E5
:10269400031007FB1388FFF797FFEB68002B03DB9E
:1026A400B7FBF6F3B74210D2BBF1000F0BD054B115
:1026B400A24508D220212846FFF786FFEB68002BAD
:1026C40004F1FF34F3DABDE8F88F1F46DCE700BFFE
:1026D4003D6D00002DE9F04F9BB00AAB0E4605930B
:1026E40040210023CDE90613CDE9083003901546B7
:1026F4004FF00A0A16F8011B39B9089B002B00F3A6
:102704000B8108981BB0BDE8F08F252940F0B580F7
:102714004FF0000B07E0302B0FD14BF0020B01E020
:102724004BF0010B0E46314611F8013B2D2BF7D02F
:10273400F1D8232B11D02B2B0CD00024314611F8C7
:10274400013BA3F1300009280AD80AFB0434303CC9
:102754000E46F3E74BF0040BE4E74BF0080BE1E71C
:102764002E2B0FD10E464FF00009304610F8011BF6
:10277400A1F13007092F07D80AFB0913A3F1300987
:102784000646F2E74FF00009304610F8011B01F04D
:10279400FB07682F0646F8D0782909D86F290BD88B
:1027A400632966D020D8252967D0582900F0948061
:1027B400089B002B9EDAA0E770390829F8D801A3FA
:1027C40053F821F00D290000B5270000B5270000BB
:1027D400ED280000B5270000CB280000B527000035
:1027E400B5270000DD2800006429E1D129680F68BD
:1027F400081D87EAE7712860A1EBE7714FF0010833
:1028040009293EDCC84538BFC8462CB1002F02DB7D
:102814001BF0040F00D0013C1BF0020F02D0B9F1F1
:10282400000F04D01BF0010F01D17CBB00240899D8
:102834000029BDDB002F35DA7F422D2105A8FFF7E3
:10284400C3FE08990029B3DB0BF00301022904D16C
:10285400B9F1000F01D154BB002408990029A7DB6A
:10286400CDE9004B4B460A22394605A8FFF7CAFEBC
:102874009EE72B681A1D19782A6005A8FFF7A4FEA5
:1028840096E708F10108B1FBFAF1B9E7A045CED209
:10289400202105A8FFF798FE0899002904F1FF34C8
:1028A400C3DAC4E71BF0040FCBD02B21C6E7A04545
:1028B400D3D2302105A8FFF787FE0899002904F137
:1028C400FF34C8DAC9E72968CDE9004B081D286040
:1028D4004B460A220968C8E72968CDE9004B081D60
:1028E40028604B461022F5E72B681A1D2A601C68E5
:1028F40014F8011B00293FF45BAF05A8FFF764FE41
:10290400089B002BF4DA53E729680B1D2B60002287
:102914000823CDE90032E5E7079A1AB103980AA91A
:10292400FFF738FEDDE9072313440893E9E600BF07
:102934000EB403B503AB01AA53F8041B0193FFF7CC
:10294400C9FE02B05DF804EB03B070474FF070436A
:1029540093F8E02F062A10D1D3F8E42F12070CD1F4
:10296400D3F8E80F00F0F003302B08D000F0E000BB
:10297400A0F140035842584170470020704701209D
:1029840070474FF0704393F8E02F062A0CD1D3F828
:10299400E42F120708D1D3F8E80F00F0F000A0F1FB
:1029A40030035842584170470020704708B5FFF77C
:1029B400CDFF40B14FF08053884AD3F82433C3F39A
:1029C4000423C2F84035FFF7DCFF10B1844B854A7D
:1029D4005A67FFF7BBFF48B14FF080534FF0804276
:1029E400D3F84432C3F34233C2F83C35FFF7C9FF8E
:1029F40030B17D4AD2F8FC3023F08073C2F8FC3049
:102A0400FFF7A4FF40B14FF080430022C3F80C212C
:102A1400C3F81021C3F83825FFF7B3FF20B14FF0F6
:102A240080430322C3F8A025FFF7ABFF60B16F4BCF
:102A34000522C3F810260122C3F888260022C3F811
:102A440018263F22C3F814264FF0704393F8E02F62
:102A5400062A50D1D3F8E42F11074CD1D3F8E83F1C
:102A640003F0F003502B46D14FF08052604BD2F864
:102A74000414C3F82015D2F80814C3F82415D2F8A6
:102A84000C14C3F82815D2F81014C3F82C15D2F876
:102A94001414C3F83015D2F81814C3F83415D2F846
:102AA4001C14C3F84015D2F82014C3F84415D2F806
:102AB4002414C3F84815D2F82814C3F84C15D2F8D6
:102AC4002C14C3F85015D2F83014C3F85415D2F8A6
:102AD4003414C3F86015D2F83814C3F86415D2F866
:102AE4003C14C3F86815D2F84014C3F86C15D2F836
:102AF4004424C3F87025FFF729FF48B14FF08053F1
:102B04004FF08042D3F8583203F04F03C2F8E43E4A
:102B1400FFF71CFF48B14FF08043D3F80024D207DD
:102B240044BF6FF00102C3F800244FF08053D3F880
:102B34003021062A0AD1D3F83431062B01BF2D4A9D
:102B4400D2F83C3743F48063C2F83C37264AD2F8C3
:102B5400883043F47003C2F88830BFF34F8FBFF35B
:102B64006F8F4FF01023D3F80022002A03DBD3F831
:102B74000432002B2EDA204B0122C3F80425D3F8AB
:102B84000024002AFBD04FF010221521C2F80012B5
:102B9400D3F80024002AFBD04FF010231522C3F8E9
:102BA4000422154BD3F80024002AFBD00022C3F8DA
:102BB4000425D3F80024002AFBD0BFF34F8F0A4921
:102BC4000E4BCA6802F4E0621343CB60BFF34F8F2D
:102BD40000BFFDE70A4B0B4A1A6008BD00300140F4
:102BE40000C007400DF0ADBA00ED00E00050004019
:102BF40000C000400010004000E001400400FA055D
:102C04001C0000200090D0032DE9F0413F4B404DC3
:102C1400404F002421460C2280463F481C602C7003
:102C240003F0C2FE3D4801F0C3F93860002845D0E6
:102C3400042001F0FFFA3B685E7DD6B9384C226867
:102C4400531E0F2B44D83749084603F084FE2168ED
:102C5400344801F0D3FAB8F1010F4FF001060ED158
:102C6400022001F0E9F83B68587D98B901F022FB95
:102C740013E0022326462B70B8F1010FF0D041D3A4
:102C8400B8F1020F20D005232B7000263B68587D35
:102C94000028EBD002232B700026002001F0DAFA82
:102CA4003B685B7DBBB1022301202B7001F0EEFA7F
:102CB40000231D4A1846136001F018F8012300266A
:102CC4002B703046BDE8F081002001F0B5F8DDE757
:102CD40007232B70D0E7012001F0C8FA3B685C7D24
:102CE400002CE0D1204601F0EBFA012001F0CEFAED
:102CF4000D4B20461C6000F0F9FF002EDED030465C
:102D0400BDE8F081012001F097F8BFE7AC0A00208C
:102D1400A80A0020B00A0020B80A0020E12F000011
:102D24003000002020000020B40A002008B50B4B1E
:102D3400186878B101F04CFA80B218B100F0DCFFE9
:102D4400012008BD01F04AFA0028F7D1044B1122F2
:102D54001A7008BD024B02221A7008BDB00A002086
:102D6400A80A0020072808D869B1202A10D9284BBE
:102D7400062200211A7008467047254B04220021C0
:102D84001A7008467047224B03221A70084670478F
:102D9400F0B583B0054616460C4601F013FA022836
:102DA40006D91B4B09221A700021084603B0F0BD56
:102DB400284601F009FA022804D9154B0A221A7090
:102DC4000021F2E701F002FA012804D8104B08228E
:102DD4001A700021E9E701F08FF94378067043F097
:102DE40001034370074632462146023003F0B3FD27
:102DF4003946E8B201F094F901460028D5D1019092
:102E0400044803F0B3F9024B01990F221A70CCE77E
:102E1400A80A0020FC00050070B50D4616460446BD
:102E240001F0D2F988B15DB1204601F0C9F93268E8
:102E340003789A420DD2134B06221A70002070BDFB
:102E4400104B03221A70284670BD0E4B0B221A70C9
:102E540070BD204601F0AAF9044658B1014628463F
:102E640011F8022B326003F076FD204601F04EF992
:102E7400012070BD044803F079F9024B0F221A7047
:102E8400204670BDA80A002026010500124B1B68CD
:102E94005B7DBBB94A1E0F2A0FD8C8B110B50F4CC1
:102EA4000A4601460E48226003F055FD21680C488D
:102EB40001F0A4F90123184610BD0A4A0721117034
:102EC40018467047074B02221A70002318467047B1
:102ED400044A03211170F3E7B00A002030000020F7
:102EE40020000020A80A0020014B1868704700BF8A
:102EF40030000020174B1A68002A2AD0012282F3DE
:102F040010881A680023C2E9003393609364D36085
:102F1400D364136113655361536593619365D361FE
:102F2400D365136213665362536693629366D362E6
:102F3400D366136313675363536793639367D363CE
:102F4400D3671364C2F880305364C2F8843083F3C7
:102F540010887047B40A002000282ED0194B012194
:102F6400186081F310881A680023C2E90033936063
:102F74009364D360D36413611365536153659361A0
:102F84009365D361D3651362136653625366936288
:102F94009366D362D3661363136753635367936370
:102FA4009367D363D3671364C2F880305364C2F861
:102FB400843083F3108808467047034B03221A7049
:102FC400704700BFB40A0020A80A0020014B1878FB
:102FD400704700BFA80A0020704700BF70B503788F
:102FE40082B00446072B00F2C380DFE803F03663A7
:102FF400968492040821FFF78BF902B070BD654AEC
:103004008379126893420AD2634A12683AB102EB96
:1030140083039968013199605368013353605F4BAE
:103024001B68002BE9D061792079984702B070BD04
:10303400584A8379126893420AD2574A12683AB1BD
:1030440002EB83039968013199605368013353603B
:10305400534B1B68002BE6D1CFE74E4A037C126822
:1030640093420AD24C4A12683AB102EB8303996C38
:10307400013199641368013313606D4628460822B0
:10308400002103F091FCA37B667BA168227B60682E
:103094008DF80030E37BCDF802108DF806208DF812
:1030A400073001F033F8304695E80600FFF724F9BD
:1030B40002B070BD6D4628460822002103F074FC5E
:1030C400384B1B685B7D13B9374803F04FF8A2688F
:1030D400267B637B6068CDF8022000228DF80020F7
:1030E4008DF8073001F012F8304695E80600FFF736
:1030F40009F902B070BD2D4B5A68197801325A6033
:1031040000293FF47AAF9A68002A36D0013A9A60CF
:1031140073E7FFF761FF02B070BD1E4A037B1268BC
:1031240093420AD21C4A12683AB102EB8303996CA7
:103134000131996413680133136003220021684646
:1031440003F032FCA37A217AE27A657A8DF80030B2
:103154008DF801108DF8022064681BB1ACB12046D3
:1031640000F0D4FF28460099FFF794F802B070BD30
:103174000F4802F0FBFF02B070BD00F055FE0028BE
:103184007FF439AF00F012FE37E70A4802F0EEFF91
:10319400E5E700BF30000020B40A0020A40A0020A4
:1031A400C40A0020B00A00203D040500B80A00202B
:1031B400BC04050063040500024A034B0F2111708F
:1031C40018607047A80A0020AC0A00202DE9F047D7
:1031D4005C4BD3F80024012A86B003D0D3F83435ED
:1031E400002B36D1584B594C5B681D782369202D30
:1031F4008CBF00250125002B30D002F02FFF0128C1
:1032040002D0534802F0B2FF524E33681B7D002BAC
:1032140047D101F09FFE45BB23784F4A0121022B81
:10322400117001D063688BB102F0BEFD054601F058
:10323400C5FBA27D8DF80900062301A88DF808506E
:103244008DF80A208DF8043002F00EFC06B0BDE8BB
:10325400F0873E4C23690025002BCED103F038FAC9
:103264000028CAD101232361C7E70121084602F0DF
:1032740017FD0546002840D0022816D002F0CEFFE4
:10328400364B21785A69E0600229626000D092B31B
:10329400DB68334A0020136002F0C6FF06B0BDE8C5
:1032A400F087304802F062FFB3E702F083FD336831
:1032B400278993F916906689804602F075FD0546C4
:1032C40001F07CFBA17D8DF813000022012301A8ED
:1032D4008DF81090CDF80880ADF80C70ADF80E6044
:1032E4008DF811508DF814108DF804208DF81230DB
:1032F40002F0BAFBC2E79B68CBE702F05BFD3368E0
:10330400B4F8088093F916A06789814602F04CFD51
:10331400064601F053FBA37D8DF8130001A88DF838
:1033240010A0CDF80890ADF80C80ADF80E708DF8B3
:1033340011608DF804508DF812508DF8143002F09D
:1033440093FB9BE700100040280B0020100B00208B
:103354003C070900400B0020D40A0020DC0A0020AE
:10336400C80A00203D07090038B5224D224C01F05F
:10337400F1FD0123214A2B702149D2F83035096926
:1033840023F0FF030B43C2F830350023236102F01E
:1033940065FEE8B902F0A4FB012821D8022001F05F
:1033A400A5FC002001F00CFD02F058FE032802D019
:1033B400144802F0DBFE2B78012B02D0124802F0F5
:1033C400D5FE124B022100222970C4E9033238BD14
:1033D40002F044FE0328E1D00D4802F0C7FEDDE709
:1033E40002F0F4FC60600028D8D10A4802F0BEFE66
:1033F400D4E700BFD50A0020280B002000100040AD
:10340400DC0A002001060900070609001D3400003B
:10341400F9050900F40509002DE9F041624B634CFC
:10342400D3F80024012A88B002D0D3F8343503BB82
:1034340063681B78202B1CD85D4D5B4B0321002255
:1034440029702260D3F80864D3F80824C3F82C2523
:10345400D3F80C24019402A80123009031461846A5
:1034640002F022FD032800F28F80DFE800F0805C88
:10347400382C504E4E4D33784B4A0321297000218D
:103484002160022BD2F8087401D0736873B101F083
:1034940095FAB27D8DF81100062303A88DF8122049
:1034A4008DF810708DF80C3002F0DEFA0023CDE9AF
:1034B40000331A461946184602F0F6FC042802D0D6
:1034C4003D4802F053FE2668002E54D001233B4AA7
:1034D4006375042322612B7008B0BDE8F081029B60
:1034E400002B5DD0304602F001FE002850D0344B52
:1034F400029F1B6893F9168001F060FA2D4B8DF83A
:103504001700997D8DF814800222012303A80497E3
:103514008DF815608DF818108DF80C208DF8163084
:1035240002F0A2FACFE7029B13B1264802F01EFE76
:10353400304602F0DBFD78B3214B1B6893F916701B
:1035440001F03CFA1B4B8DF81700997D8DF814702F
:103554000023022203A88DF815608DF818108DF849
:103564000C2004938DF8163002F07EFAABE716486F
:1035740002F0FCFDA7E701F0EDFC66752661FFF79C
:10358400F3FE08B0BDE8F081104802F0EFFD9AE7C1
:103594000F4802F0EBFDAAE70E4802F0E7FDCBE787
:1035A4000D4802F0E3FD9DE700100040280B0020C9
:1035B400D50A0020100B0020580609003D3C0000ED
:1035C400400B00202D0609003806090049060900B1
:1035D4003D0609002E0609003C06090030B589B0F5
:1035E40003F070F8012828D11E4D01F0B3FC08A89F
:1035F4000523002400F8143DAC706C7502F034FA15
:10360400194A1A4B14704FF44072C3F8082502F09B
:1036140025FD80B1022820D903280CD1CDE900442E
:10362400234622462146204602F03EFC042802D0CE
:103634000F4802F09BFD09B030BD03F021F80D4B9B
:103644001B7F1BB94FF0804301225A600020054DB7
:1036540002F064FD00236B60C7E72146204602F0B8
:103664001FFBE3E7100B0020D50A002000F0014007
:1036740048020900DC0A00202DE9F04FE34DE44F35
:10368400E44AE54E4FF4407800240123C7F854453A
:10369400C7F80885C5F8FC4FC5F8FC3FD5F81435C4
:1036A40023F48073C5F81435D5F8143523F00F03CB
:1036B40043F00603C5F81435D5F8143523F4702304
:1036C40043F44033C5F81435D5F8183523F00073A6
:1036D400C5F81835D5F8183543F08073C5F8183592
:1036E400D5F8183523F0FF0343F02003C5F8183547
:1036F400D5F81835022123F47F4385B0C5F8183571
:10370400C2F8801103F08AF8C44AC54BC7F85C05B7
:10371400C7F85825C7F804851968C24801F054F958
:10372400D6E90832C04996F81DA00860110A180AA3
:103734000E464FEAC31B0BF4FF474FEAC01E4FEA85
:10374400C61B0BF4FF490EF4FF4EC0F3C01B4BEA3B
:103754000E0B4FEA401E0EF0400C4BEA0C0EC3F366
:10376400C01C4CEA070B4FEA431C0CF040074BEA21
:10377400070CC6F3C01B4BEA090B4FEA46194FEA84
:10378400C21809F040094BEA090B08F4FF48C2F3D8
:10379400C019190C49EA08084FEA42190096CF01EA
:1037A400160C09F0400948EA090807F4FF474FEAF4
:1037B400C619029709F4FF49D5F81875CDF80C908D
:1037C4004FEAC00909F020094EEA090E4FEAC3097D
:1037D400029E09F0200927F4E02747EA0A474CEA49
:1037E400090CC1F3C01ACDF804C04AEA060A4FEA2C
:1037F400411C009E0CF0400C4AEA0C0A4FEAC60C2D
:103804000CF0200C4BEA0C0B4FEAC20C0CF0200C11
:1038140048EA0C0CCDF808C0C5F81875470007F045
:1038240010074EEA070E470807F008074EEA070E8E
:10383400C70807F0040740094EEA070700F0020032
:10384400019E074358004FEA530E00F01000304326
:103854000EF0080E40EA0E004FEAD30E4FEA136949
:103864000EF0040E5B0940EA0E0003F0020303436A
:103874001B06FFB243EA0747CB0003F020034AEAE2
:10388400030A4B00480803F010034AEA030300F05C
:1038940008000343C808019700F004004F090343DC
:1038A40007F002014FEA4910039E194300F0400358
:1038B400100CC0F3C01737430646400100F0400027
:1038C40007434FEAE91040EAC9101843009B4FEA46
:1038D40042084FEA430E029B08F0100843EA080826
:1038E400F30003F020031F43019BC9B243EA012103
:1038F4004FEAC90303F0200318434FEA490303F0D6
:10390400100318434FEA590303F0080318434FEA1E
:10391400D90303F004034FEA59194FEA126C034325
:1039240009F0020900984FEA4C1A43EA09094FEAE0
:10393400EC1343EACC130AF0400A43EA0A0A0EF0F5
:10394400100E43084BEA0E0E03F008034EEA030E72
:10395400530803F0080348EA0308730003F0100354
:103964001F434FEACC0303F020034AEA030AC308C7
:1039740003F004034EEA030ED30803F004034FEAF2
:10398400501B520948EA03080BF00200730802F0C6
:10399400020203F008034EEA000048EA02021F4351
:1039A400C0B24FEA4C03120603F0100342EA00428D
:1039B400F0084AEA030A00F004007309384303F0EC
:1039C400020318434FEA5C034FEADC0703F00803E1
:1039D40007F004074AEA03034FEA5C1C3B430CF07C
:1039E400020CC0B243EA0C0342EA00225FFA89F9EE
:1039F400DBB2094E49EA01011343C5F81C152846F8
:103A0400C5F82035FF2706F128051CE0001000400A
:103A140000F0014000E100E0DC0A00200411004055
:103A2400D80A0020280B0020400B0020D0F82415D1
:103A34000A40C0F82425D0F8242501341343082C67
:103A4400C0F824353CD015F8012B02F00101D3094C
:103A54004FEA421C43EAC1130CF0400CD10043EA84
:103A64000C0301F020014FEA420C0B430CF0100C44
:103A7400510843EA0C0301F008014FEAD20C0B434E
:103A84000CF0040C520904F0030102F00202C90014
:103A940043EA0C031343032C07FA01F203FA01F37C
:103AA4006FEA0202C2D9D0F828150A40C0F82825C6
:103AB400D0F8282501341343082CC0F82835C2D186
:103AC4002149224B91F83020C3F80C25D3F8342532
:103AD40091F8311022F0FF020129C3F8342524D0D3
:103AE4001ED302290ED01A4802F040FB164B93F85D
:103AF40032300BB1012B02D1144AC2F8103505B093
:103B0400BDE8F08FD3F83425124942F002024FF693
:103B1400FF70C3F83425C3F83C05C3F83815E5E74E
:103B2400D3F83425C3F83425E0E7D3F83425FF204F
:103B340042F0010240F20711C3F83425C3F83C05F2
:103B4400C3F83815D2E700BFDC0A0020001000409B
:103B540033040900211001002DE9F0412D4F2E4DB1
:103B64002E4E4FF00008C7F8088002F01DF9C5F882
:103B74002C05D5F8304502F017F9012303FA00F0BB
:103B840024F0FF040443C5F8304502F013F9306013
:103B940002F016F9224A234B82F80080F360706029
:103BA40002F012FBC5F8080502F038FBB87502F004
:103BB40055FA012804D002F051FA022815D1002048
:103BC40001F094F802F02EFE174B184AC3F8500582
:103BD4001268174C5268C3F85425206818B103784A
:103BE40073B903792BB9BDE8F081124802F0BEFA2B
:103BF400E5E700F0D1FE2068BDE8F04100F0AEBE7C
:103C040002F010FE216800F047FE20680379002BC3
:103C1400E9D0EEE7100B002000100040280B002034
:103C2400D40A0020D131000000F00140400B0020F4
:103C3400D80A00209C06090038B5234C234D0523DF
:103C4400237001F087F90123214A23702149D2F816
:103C54003035096923F0FF030B43C2F830350023E4
:103C64002B6102F0FBF9E8B901F03AFF012821D8F1
:103C7400022001F03BF8002001F0A2F802F0EEF976
:103C8400032802D0144802F071FA2378012B02D0E1
:103C9400124802F06BFA124B022100222170C5E98E
:103CA400033238BD02F0DAF90328E1D00D4802F0FE
:103CB4005DFADDE702F08AF868600028D8D10A4886
:103CC40002F054FAD4E700BFD50A0020280B0020E4
:103CD40000100040DC0A0020010609000706090064
:103CE4001D340000F9050900F4050900014B1860B2
:103CF400704700BFD80A002038B5234C637D03B158
:103D040038BD224DFFF7B8FCAB68002B34D06B688C
:103D140073B302F011FA38BB002002F0FFF901235B
:103D2400637502F0CFFC0128EAD102F00BFA38BB2C
:103D340000226421164802F0D1FC164B1B7F7BB98C
:103D44004FF08042144801210160C2F80031116033
:103D540000BF00BF00BF00BFD2F80031002BFBD072
:103D6400BDE8384002F080BC0C4802F0FFF9D3E70C
:103D74000B4802F0FBF9CCE70A4802F0F7F9C6E772
:103D8400094802F0F3F9D3E7100B0020C80A002019
:103D940055610000DC0A002014050040D40209002B
:103DA400CF020900CE020900B906090008B50122B4
:103DB40082F31088174B597D09B1997819B1002302
:103DC40083F3108808BD9A7002F07CFC0128F6D1B8
:103DD40002F0B8F9D0B9002264210F4802F07EFC49
:103DE4000E4B1B7F7BB94FF080420D4801210160CF
:103DF400C2F80031116000BF00BF00BF00BFD2F89D
:103E04000031002BFBD002F02FFCD8E7054802F06C
:103E1400ADF9E0E7100B002055610000DC0A00203A
:103E240014050040B9060900024B587D80F00100DA
:103E3400704700BF100B002070B5012388B083F3D6
:103E44001088514C2378834207D0627D6070054608
:103E540042B102F037FC01282DD0002383F31088EF
:103E640008B070BD002B60D0002D43D0474B484EA6
:103E74000025C3F8545501F06DF823783561012B02
:103E8400C6E90055C6E9025555D0022B61D06368D6
:103E9400002B56D13F4B99683F4A08A8042300F8E9
:103EA400143D63782370116001F0DEFD002383F379
:103EB400108808B070BD02F045F900285BD10022DB
:103EC4006421364802F00AFC324B1B7F7BB94FF069
:103ED4008042334801210160C2F80031116000BF03
:103EE40000BF00BF00BFD2F80031002BFBD002F0AE
:103EF400BBFBB2E7254B4FF44072C3F8082502F030
:103F0400ADF80028B2D002281ED90328AED1CDE9DD
:103F140000552B462A462946284601F0C5FF0428A9
:103F2400A4D0204802F022F9A0E7FFF7A5FB6578AA
:103F3400002D9BD1DEE702F091F800BB2378022B21
:103F4400A5D1144BD968A7E72946284601F0A8FE55
:103F5400E5E700F0FFFF144B35611D7002F07EF8B9
:103F64000328EBD1CDE900552B462A46294628469D
:103F740001F09AFFE2E70D4802F0F8F89FE72946BE
:103F8400284601F08DFED9E7100B002000F0014017
:103F9400280B0020DC0A0020C80A0020556100001C
:103FA4001405004048020900D50A0020B90609009A
:103FB4002DE9F0418046012787F31088424B434C9A
:103FC400434E677000250322C3E90055C3E9025537
:103FD4001D611D752270A570C4E90155C4E903551E
:103FE40025756575C6E9015502F006FB404601F0EA
:103FF4001FFD01F0C5FD284602F088F8304602F0A6
:10400400B7F8344B202283F80853384683F8015319
:1040140083F81523FFF710FF2F4B3048227883F8DD
:104024003050FF2119612E495962042569215D77B9
:1040340018622C4D2C48196002219D62D8621E25FD
:104044004FF416708A4283F832705D61586083F8C9
:104054003110D96034D062680F21002A0CBF0A469F
:10406400022299600021326008460122598319779F
:104074001A765A7602F044F86378012B02D01B4872
:1040840002F074F81A491B4A002501230D601570CB
:104094002370A570C4E90155C4E9035525756575F8
:1040A400FFF7EAFA0B4B4FF480714FF40012C3F898
:1040B4008011C3F8802185F310880448BDE8F0819D
:1040C4000F219960CEE700BF280B0020100B0020C1
:1040D400C80A002000E100E0DC0A002004070A0D01
:1040E40005080B0E01020304050607089F020900D8
:1040F400D80A0020D40A002008B5012383F31088CD
:1041040001F0F8FF002383F3108808BD08B50123EC
:1041140083F3108801F0F0FF002383F3108808BDB7
:1041240010B5012383F3108801F09EFF044648B1C3
:10413400194B9A780AB95B7D43B9002383F310883D
:10414400204610BD80F31088204610BD02F0BAFA54
:104154000128F2D101F0F6FFD0B9002264210F4802
:1041640002F0BCFA0E4B1B7F7BB94FF080420D4826
:1041740001210160C2F80031116000BF00BF00BF1F
:1041840000BFD2F80031002BFBD002F06DFAD4E767
:10419400054801F0EBFFE0E7100B0020556100003B
:1041A400DC0A002014050040B906090008B5012303
:1041B40083F3108801F096FF002383F3108808BD71
:1041C40001F08CBF01F088BF01F090BF01F096BFF1
:1041D400014B186A704700BFDC0A0020072810B59D
:1041E400044602D9034801F0C1FF0348204490F873
:1041F400280010BDAF030900DC0A002038B50546CD
:104204000C4641B165B1084BC3E901450020BDE846
:10421400384001F0EFBF054801F0A8FF002DF2D1AE
:10422400034801F0A3FFEEE7C80A0020B803090021
:10423400B9030900054A0649D2F81835487723F42A
:10424400E02343EA0043C2F81835704700100040E9
:10425400DC0A0020034A044B82F83000C3F80C0542
:10426400704700BFDC0A002000100040054B83F8B3
:10427400320008B1012803D1034BC3F8100570477D
:10428400704700BFDC0A00200010004010B5064B48
:104294001B68044613B1054B1C7510BD044801F09E
:1042A40065FF024B1C7510BD400B0020280B00203D
:1042B40073040900014B1876704700BFDC0A002024
:1042C400014B1877704700BFDC0A00202DE9F04746
:1042D400AB4C23698AB023B3636822786BB1013B8A
:1042E400022A63600CD0002B00F0A980A54DA64AD9
:1042F400A378E96811605BB9A9E0022A40F09F80C5
:10430400A04DA14AA378E9681160002B00F0F48065
:1043140001F042FF637D002B40F002810AB0BDE84A
:10432400F08702F0D5F90028D6D12378012B00F0CC
:10433400A580022B6ED001F02FFF6368E3B12678CD
:10434400013B022E636000D0CBB18E4D8E4FA2781C
:10435400EB683B60D2B1637D002B40F0928001F0AA
:10436400BFFB01284ED90AA8032300F8143D01F02D
:104374007BFB0AB0BDE8F0872678022EE5D0814D9C
:10438400814FA278AB683B60002AE4D194F80180A5
:10439400B04579D0002E00F0C680B8F1000F00F0CF
:1043A40005817A4BDFF800820026C3F8546500F0DB
:1043B400D1FD2378C8F81060012BC8E90066C8E96C
:1043C400026600F08981022B00F094816368FBB1DE
:1043D400EB683B600AA8042200F8142D627822706E
:1043E40001F042FB00206D6801F098FE21698D42C6
:1043F40040F27B816648691A012202F06FF90023BA
:104404002361ACE7634801F0B1FE0AB0BDE8F08770
:10441400AB68DEE7604B1878033801288CBF0020B6
:104424000120002887D0574B59485B685B08194620
:104434000122236102F052F90AB0BDE8F087514D20
:10444400514AA378A9681160002B7FF461AF01F091
:10445400A3FE00206D6801F061FE21698D4203D83E
:104464004E4801F083FE21694948691A012202F08D
:1044740035F9002323610AB0BDE8F08700F05EFD42
:10448400CFE7FFF7ABF86AE7012E00F0AE80C0F08B
:104494002181022E54D0424801F068FE6E7E012E26
:1044A4007FF45DAF2778022F3FF459AF6368002B88
:1044B4007FF455AF002F00F06081012F40F0598147
:1044C40001F0CCFD00287FF44AAF01F085FB002801
:1044D4007FF445AF02F0F6F801283FF440AF02F054
:1044E400CFF82B7F13B94FF080435F60002001F0B9
:1044F40015FE0023636032E7274E3378033B012B1C
:104504003BD9284F01F048FED7F8088501F05CFE3E
:1045140080450DD13378002B9BD1FEF725FF98E71A
:10452400FFF75CF8FAE6FFF7A7F894F8018034E7A0
:1045340001F04AFEC7F8080501F070FEA075ECE72B
:10454400184ED6F8087501F03FFE874240F0E5802A
:10455400114B1B780BB9FEF707FF00206E6801F0C2
:10456400DDFD21698E4240F2B0800948711A0122B2
:1045740002F0B4F80023236190E76B68044855E720
:10458400100B0020DC0A0020C80A002000F00140C3
:10459400556100000B050900D50A0020DB0609005F
:1045A400D504090000100040280B0020964B4FF45E
:1045B4004072C3F8082501F051FD00283FF4F1AE24
:1045C400022840F2B28003287FF4EBAECDE90088E4
:1045D400434642464146404601F066FC04283FF407
:1045E400E0AE8A4801F0C2FDDBE6039200F0B2FCC3
:1045F40001F034FD039A002800F09C806B8B1BB102
:104604002189994280F0D88002F062F8002840F0B5
:10461400AC807F4BD3F8086501F0D6FD864202D00A
:104624006389013363817B4E3378B3B92378022BDA
:1046340001D063688BB101F0B7FB074600F0BEF907
:10464400A27D8DF81900072305A88DF818708DF840
:104654001A208DF8143001F007FA0023337001F0AA
:10466400B3FD6B4BC3F8080501F0D8FDA07501F04C
:10467400F5FC012807D001F0F1FC022802D06648BD
:1046840001F074FD002000F031FB02F0CBF85E4B2A
:10469400624AC3F850051268614E5268C3F8542543
:1046A400306850B10378002B40F0A680037923B121
:1046B40000F072F9306800F051F901202E6801F021
:1046C4002DFD21698E423FF650AF564801F04EFD54
:1046D40021694AE7104641E701F0C0FC00283FD1B8
:1046E4002378022B3FF474AE70E64E4801F03EFD91
:1046F40021697FE600F02EFC4B4BC8F810601E7059
:1047040001F0ACFC0328EBD1CDE900663346324618
:104714003146304601F0C8FBE2E701F055FDC6F82A
:10472400080501F07BFDA07515E74146404601F000
:10473400B7FA53E701F0D4F90128BED92378022B44
:104744002AD0666846BBE06801F054FD304601F0AB
:104754006BFD01F047FA0028AFD0FFF7FDF9ACE795
:104764003146304601F09CFABAE7304801F0FEFCCD
:104774004FE72F4801F0FAFCF1E501F0A3FF01280F
:104784003FF4EDAD01F07CFF2B7F002B7FF4AEAE48
:104794004FF080435E60A9E601F05AFD00288CD1F9
:1047A4002B7E23B901F03AFDE368984285D101F0EC
:1047B40019FA002881D0D0E71046314601F070FA8A
:1047C40001F0F8FAB4F80890B4F80A80824601F0CF
:1047D400EBFA074600F0F2F88DF8210005A8CDF8B1
:1047E40018A0ADF81C90ADF81E808DF820708DF8DF
:1047F400146001F039F960E702F014F8316800F050
:104804004BF8306852E700BF00F00140480209004D
:1048140000100040D40A00209C060900400B002030
:10482400D80A0020DB060900D50A0020810509000A
:10483400EF04090038B5124B124D1B685B7D2BB198
:10484400012000F0BDFA2B8901332B810E4A0F4B56
:104854000020C2F85405D3E90014641A01F05EFC88
:1048640029698C4203D80A4801F080FC2969094867
:10487400611A012201F032FF00232B6138BD00BF11
:10488400400B0020100B002000F00140DC0A002047
:10489400DB0609005561000070B48B682A4A0024C5
:1048A400C3F840410B7B8C68A23304F5A07442F832
:1048B40033400B7B4C78CD78A233002C36D0234C7C
:1048C40002EBC30304EB85045C604A7B1E4B204C63
:1048D400204EA23243F832004A7B8D68A23203EBA9
:1048E400C20200205560C4F80C01C4F810018A7B90
:1048F400A23243F832608A7B4878CC78A232E0B99D
:10490400124803EBC20300EB840058600B7B487B26
:104914008D7B0D4C012202FA03F302FA00F10B43E2
:10492400AA401343C4F8043570BC70470A4C02EB28
:10493400C30304EB85045C60C7E7074803EBC203C9
:1049440000EB84005860E1E700F001403060004073
:10495400001000400C1100406060004083680C4A65
:10496400002110B4C3F84011C37B0A4CA2330121C7
:1049740042F83340C37B8468A23302EBC3035C6018
:10498400C37B01FA03F3C2F804355DF8044B7047A6
:1049940000F00140101100404279C3792AB90C3368
:1049A400054A012142F8231070471833024A0121B5
:1049B40042F82310704700BF00600040014B187894
:1049C400704700BF480B0020F0B5A14CA14BA24A90
:1049D4000225C4F880500026C4F880504FF0FF37F9
:1049E400C4F880510124C3F80873C3F80062C3F803
:1049F40010611C619C611378A34200F03981023B71
:104A0400012B40F2D180013C00BF00BF00BF00BFBA
:104A140000BF00BF00BF00BF00BF00BF00BF00BF9A
:104A240000BF00BF00BF00BF00BF00BF00BF00BF8A
:104A340000BF00BF00BF00BF00BF00BF00BF00BF7A
:104A440000BF00BF00BF00BF00BF00BF00BF00BF6A
:104A540000BF00BF00BF00BF00BF00BF00BF00BF5A
:104A640000BF00BF00BF00BF00BF00BF00BF00BF4A
:104A740000BF00BF00BF00BF00BF00BFC3D1754C63
:104A8400734D764FDFF8E0E1DFF8E0C100234FF02B
:104A9400FF36C4F81031C4F80032C4F808630226A3
:104AA400C4F80C31C5F88061C4F80031C4F8103181
:104AB400C4F804312E6003243960CEF8000068493C
:104AC400684813705470CCF86405CCF86015D0F8BD
:104AD4006017536021F0807121F0010141F0807171
:104AE400C0F860172E603968136113755375937598
:104AF400002953D00B79002B52D08B680320042259
:104B0400C3F80805C3F810250A7C002040F20115FB
:104B1400C2F181020124C3F84025C3F80052C3F84E
:104B24000405DC60C3F840010B79D3B1CB798A79F1
:104B340048799B0003F18043120203F5C04302F459
:104B4400F85242F40032C3F81025D3F81025002897
:104B540072D0C3F81025D3F8102542F00302C3F82D
:104B640010250B78D3B1CB788A7849789B0003F170
:104B74008043120203F5C04302F4F85242F40032B7
:104B8400C3F81025D3F8102500294AD0C3F81025FE
:104B9400D3F8102542F00302C3F810252E48F0BDC7
:104BA4000B78002BFAD0A8E7013D00BF00BF00BF7F
:104BB40000BF00BF00BF00BF00BF00BF00BF00BFF9
:104BC40000BF00BF00BF00BF00BF00BF00BF00BFE9
:104BD40000BF00BF00BF00BF00BF00BF00BF00BFD9
:104BE40000BF00BF00BF00BF00BF00BF00BF00BFC9
:104BF40000BF00BF00BF00BF00BF00BF00BF00BFB9
:104C040000BF00BF00BF00BF00BF00BF00BF00BFA8
:104C140000BF00BF00BF00BF00BF00BF00BFC3D1C3
:104C24002DE742F48012C3F81025D3F8102542F082
:104C34000302C3F81025B1E742F48012C3F810252B
:104C4400D3F8102542F00302C3F8102589E700BF0A
:104C540000E100E0001000404C0B0020680B002035
:104C64000411004014100040440B002000F00140E7
:104C74000623013B00BF00BF00BF00BF00BF00BF51
:104C840000BF00BF00BF00BF00BF00BF00BF00BF28
:104C940000BF00BF00BF00BF00BF00BF00BF00BF18
:104CA40000BF00BF00BF00BF00BF00BF00BF00BF08
:104CB40000BF00BF00BF00BF00BF00BF00BF00BFF8
:104CC40000BF00BF00BF00BF00BF00BF00BF00BFE8
:104CD40000BF00BF00BF00BF00BF00BF00BF00BFD8
:104CE40000BF00BF00BF00BFC3D1C8E62DE9F84331
:104CF4002C4A2D4BDFF8C4802C4C2D4E4FF0FF3541
:104D04000221C2F80853C3F88011D8F8001060706B
:104D140000236375D1F800E0C4F808E00701D1F876
:104D240004C0F559A3610228C4E903C3656006EB16
:104D3400070921D8054699F80B0099F80890C2F89C
:104D44000092C2F80C31C2F81031C8B9C2F804E5B7
:104D5400D2F8043503B3F319124A5B7AC2F8043368
:104D64000B7D4BB1022D07D102F5F0324FF4806177
:104D74000023C2F80415A37501236375BDE8F88305
:104D8400C2F804C5D2F80435002BE4D1094801F077
:104D9400EDF9D8F80010DEE7074801F0E7F9D8F894
:104DA4000010D8E70010004000E100E04C0B0020A8
:104DB400506D0000A1020A009C020A00440B00206E
:104DC400F8B5504C637D65780646002B3CD0237DB6
:104DD400002B35D101220023022D227563752AD8B8
:104DE40056B9494B1B6813B11A79002A30D1474987
:104DF4002B010122CB581A606B1E012B10D9444B96
:104E04001B681B7D5BB1022D09D1424BD3F80435DD
:104E14005B0564D5404BD3F80435002B5AD0F8BD5C
:104E24003A4B03EB05139B7A2370394B1B681B7DAC
:104E3400002BE8D1F3E73948BDE8F84001F096B912
:104E4400374801F093F9C5E7364801F08FF9BEE71A
:104E54009A68304FC2F84061197B9868A23100F516
:104E6400A07047F831001A7B5979D879A232002909
:104E740039D12D4907EBC20201EB80005060264A6C
:104E840024492A480026C2F80C615A7BA23241F810
:104E940032005A7B5879DE79A23258BB244801EBA0
:104EA400C20200EB860050601A7B597B194E012028
:104EB40000FA01F100FA02F20A434FF0A041C6F8E9
:104EC4000425D1F810259979CA40D2075CBF9B68A4
:104ED40018608CE71748BDE8F84001F047B9164858
:104EE40001F044F996E7124907EBC20201EB800096
:104EF4005060C4E70C4801EBC20200EB860050602E
:104F0400D2E700BF4C0B0020680B0020506D00005E
:104F1400440B002000F0014000100040DD020A00B4
:104F2400B9020A00B8020A00606000400C11004097
:104F340030600040E3020A00E2020A00044BD3F8A6
:104F44000401A0F10100B0FA80F04009704700BFED
:104F54000010004030B4784A784B79490220C2F8F6
:104F640080000024C2F880014FF0FF350122C3F80D
:104F74000853C3F80042C3F810411A619A610B78D0
:104F8400934200F09B80023B012B5AD9013A00BFA7
:104F940000BF00BF00BF00BF00BF00BF00BF00BF15
:104FA40000BF00BF00BF00BF00BF00BF00BF00BF05
:104FB40000BF00BF00BF00BF00BF00BF00BF00BFF5
:104FC40000BF00BF00BF00BF00BF00BF00BF00BFE5
:104FD40000BF00BF00BF00BF00BF00BF00BF00BFD5
:104FE40000BF00BF00BF00BF00BF00BF00BF00BFC5
:104FF40000BF00BF00BF00BF00BF00BF00BF00BFB5
:1050040000BFC3D14D4A4C4800234FF0FF34C2F8CF
:10501400103103254B750B704B60C2F800320B75D1
:10502400C2F808430224C2F80C314D70C0F8804124
:10503400C2F80031C2F81031C2F80431046030BC47
:105044007047013800BF00BF00BF00BF00BF00BFF2
:1050540000BF00BF00BF00BF00BF00BF00BF00BF54
:1050640000BF00BF00BF00BF00BF00BF00BF00BF44
:1050740000BF00BF00BF00BF00BF00BF00BF00BF34
:1050840000BF00BF00BF00BF00BF00BF00BF00BF24
:1050940000BF00BF00BF00BF00BF00BF00BF00BF14
:1050A40000BF00BF00BF00BF00BF00BF00BF00BF04
:1050B40000BF00BF00BF00BFC3D1A3E70623013B6D
:1050C40000BF00BF00BF00BF00BF00BF00BF00BFE4
:1050D40000BF00BF00BF00BF00BF00BF00BF00BFD4
:1050E40000BF00BF00BF00BF00BF00BF00BF00BFC4
:1050F40000BF00BF00BF00BF00BF00BF00BF00BFB4
:1051040000BF00BF00BF00BF00BF00BF00BF00BFA3
:1051140000BF00BF00BF00BF00BF00BF00BF00BF93
:1051240000BF00BF00BF00BF00BF00BF00BF00BF83
:1051340000BF00BFC3D165E700E100E000100040FC
:105144004C0B00202DE9F041934C2369627D657876
:1051540001332361002A40F0C6802378032B5ED0FC
:10516400022D00F2C480012D00F0CE80022D00F04B
:1051740004816278894B120199180D7B2DB18849FD
:10518400D1F80C51003518BF01251344844A9B7A89
:1051940023700021032BC2F8001200F0AD804FF001
:1051A400FF30804BC2F80803C2F80C11032002221E
:1051B4006070C3F880217A4A7B4E0023C2F8003124
:1051C400C2F81031C2F80431326823751269636081
:1051D40002B190471DB133689B6803B19847734B84
:1051E4001B68D3B11A79C2B19A7B714802F5117266
:1051F400002440F82240DA7B02F51172012140F8C4
:1052040022405A7B9C7BDD7B01FA02F301FA04F213
:105214001343A9400B43C0F80835BDE8F081604E44
:10522400D6F80C31002B9BD0012D00F0D180022D3B
:1052340040F01E812369022B00F01F815D4800F0BD
:1052440095FF2369012B00F0DF82022B00F015810A
:10525400032B40F09C80D6F80C31012B02D0564829
:1052640000F084FF4E4BD3F81031012B02D0534889
:1052740000F07CFF4A4BD3F80031012B02D0504898
:1052840000F074FF464B494900224FF0FF30C3F849
:105294000C21C3F81021C3F80021C3F80421C3F87A
:1052A4000803C3F800220B687BB11A786AB15A7BF1
:1052B400987BDE7B3E4D012101FA02F301FA00F2F4
:1052C4001343B1400B43C5F80835374A002312682D
:1052D400237512692370032163606170002A9CD0D6
:1052E400BDE8F0411047374800F040FF35E7364845
:1052F400BDE8F04100F03ABF6FF008010823C2F89E
:105304000813C2F8043356E72369012B00F0E28145
:10531400022B00F01B82032B7FF47FAF204A6370C3
:10532400022000234FF0FF3120701E4FC2F80C31D1
:10533400C2F80031C2F81031C2F80431C2F8283181
:10534400C2F80032C2F80813A169174EC7F88001E9
:10535400013130682375A161017D6360002976D035
:10536400D2F84815124FC2F81C314B424FF48061F9
:10537400A3759561C7F8081569E02369012B00F04E
:10538400E180022B00F03881032B00F0D4800F4819
:10539400BDE8F04100F0EABE4C0B0020506D000067
:1053A4000010004000E100E0440B0020680B0020E6
:1053B40000F0014045030A00F5040A00F6040A005F
:1053C400F7040A0038030A0060030A0033050A00E0
:1053D4002369032B0CD0B04800F0C8FE2369012BCD
:1053E40000F02E82022B00F03182032B7FF415AFE4
:1053F400AA4AAB4DA169AB4E032767700023022074
:105404004FF0FF372070C2F80C31C2F80031C2F8F7
:105414001031C2F80431C2F82831C2F80032C2F89F
:105424000873C5F88001013130682375A161017DDD
:10543400636061B1D2F848159B4DC2F81C314B42F0
:10544400A37501214FF480639161C5F80835934B2E
:10545400E268D3F804359A4203D0944800F086FEFB
:105464003068C368002B3FF4D8AEBDE8F04118475C
:105474008F48BDE8F04100F079BE894A874B8D48DA
:10548400884E042121700221C2F88011D3F8082526
:10549400A169D2B202700022C3F80C21C3F8002122
:1054A400C3F81021C3F8042133680131A1611B7DC5
:1054B400B3B17D4BD3F80035580502D47E4800F0D3
:1054C40055FE764B7849D3F848255242A2750025FB
:1054D40001204FF48062C3F81C519861C1F808257B
:1054E4006E4BD3F8003113B1744800F03FFE6B4BA0
:1054F400D3F80C3113B1724800F038FE684BD3F87E
:105504000031990702D56F4800F030FE6E4B1B68DE
:105514001BB11A78002A40F059823368DB6803B162
:10552400984733685A7D002A3FF477AE5B4A1B687C
:10553400C2F8043571E6594BD3F80C31012B3FF412
:1055440091AE8CE6554A564E5F480021C2F80C11C4
:105554000824C2F80011C2F81011C2F80811C2F8E8
:1055640004110721C6F88051C2F80443C2F8083375
:10557400C2F800120268002A3FF44FAE117921B13B
:10558400107B49498340C1F808351378002B3FF458
:1055940044AE936844490020C3F84001937B90686B
:1055A400A23300F5A07041F83300937B5078D4788F
:1055B400A233002840F0C381444801EBC30300EB4D
:1055C4008400586093683848414C0021C3F8401166
:1055D400D37BA233012140F83340D37B9468A233B8
:1055E40000EBC3035C60937BD27B01FA03F391402D
:1055F4000B43C0F8043510E6294A284B2D48294EA0
:1056040004212170C2F88051D3F80825A169D2B2CF
:1056140002700022C3F80C21C3F80021C3F8102142
:10562400C3F8042133680131A1611B7DA3B11E4B72
:10563400D3F800355A0540F19081184B1A49D3F834
:1056440048255242A275002501204FF48062C3F818
:105654001C519861C1F80825104BD3F80031002B78
:1056640040F048810D4BD3F80C31002B40F03E81C3
:105674000B4BD3F800319B0700F13481124B1B68AC
:105684001BB11A78002A40F039813368DA68002A9D
:105694003FF448AF904744E740030A00001000403D
:1056A40000E100E0440B002000F0014051040A0036
:1056B4004A030A00480B0020C0040A00C9040A0077
:1056C400CA040A00CB040A00680B00206060004092
:1056D4000C110040AA4BD3F80031012B02D0A94889
:1056E40000F044FDA64BD3F80431012B02D0A648A8
:1056F40000F03CFDA24BA54DD3F80815A448C9B24F
:10570400297000224FF0FF350121C3F80021C3F8AE
:105714000421C3F80821C3F80853C3F80413036829
:105724001B7D23B19B4B4FF48062C3F804259A4B35
:105734001B681BB11A79002A40F0A280904BE268E2
:10574400C3F804250B22C3F8002266E58C4BD3F87A
:105754000C31012B02D0914800F008FD884BD3F89E
:105764001031012B02D08E4800F000FD844BD3F899
:105774000031012B02D08B4800F0F8FC804BD3F8A9
:105784000431002B78D17E4B834800220225C3F8D4
:105794000C210121C3F81021C3F80021C3F804210E
:1057A400C3F80821C3F800520825C3F80813C3F846
:1057B400045303682275032062602070CBB118790A
:1057C400002848D09C7B734804F5117440F82420C9
:1057D400DC7B04F5117440F824205A7B9D7BDC7B30
:1057E40001FA02F301FA05F21343A1400B43C0F896
:1057F4000835674E33681B6903B1984733689B6863
:10580400002B7FF432AE08E50022674CC6F80C2169
:105814006149C6F800210820C6F81021C6F80821FD
:10582400C6F804210722C4F88051C6F80403C6F858
:105834000833C6F800220A68002A7FF49FAEECE41D
:10584400D6F80031012B3FF44DAF48E7D6F80C31C0
:10585400012B83D07FE71A78002ACAD01A7B587BA1
:105864009D7B4C4C01FA02F301FA00F21343A94068
:105874001943C4F80815BCE74C4800F077FC82E7EC
:10588400597B9868434AA23100F5A07042F8310070
:10589400597B5879DD79A231002857D0444802EB6E
:1058A400C10200EB850050605D7B3A4A414801210A
:1058B400A940C2F80415197BA23142F83100197BC2
:1058C4005879DD79A23100284BD1394802EBC10265
:1058D40000EB85005060197B2E4A01238B40C2F8EF
:1058E40004352BE7344800F041FCC7E6334800F0A8
:1058F4003DFCBDE6324800F039FCB3E6204A2549B8
:105904002C480024C2F80C415A7BA23241F83200E0
:105914005A7B5878DC78A23250BB254801EBC2028E
:1059240000EB84045460597B1A48012202FA01F105
:10593400C0F80415DB7B9A40C0F80825A5E61C488E
:1059440001EBC30300EB840058603BE61D4802EB07
:10595400C10200EB85005060A6E71B4800F006FC7E
:105964006BE6184802EBC10200EB85005060B2E719
:10597400144801EBC20200EB84045460D3E700BF77
:1059840000100040BD030A00BE030A00480B0020BB
:10599400440B002000F00140680B0020F3030A00D0
:1059A400F4030A00F5030A0000E100E0F6030A002C
:1059B400306000400C110040CB040A00CA040A0005
:1059C400C9040A0060600040C0040A00134A144974
:1059D40014480024C2F80C415A7BA23241F8320028
:1059E4005A7B5878DC78A23288B90F4801EBC2029E
:1059F40000EB84005060597B0948012202FA01F14E
:105A0400C0F80415DB7B9A40C0F8082585E50748F3
:105A140001EBC20200EB84005060ECE70010004090
:105A240000F001400C110040306000406060004014
:105A340010B5044668B1094B09491C6000224FF4B3
:105A44000010C3F8CC20C3F8D020C3F8D4200860D9
:105A540010BD044800F08AFBEDE700BF6C0B00208A
:105A640000E100E03E000B0070B5194D2B680646BE
:105A74004BB3D5F8D430092B21D8D5F8CC400FCE70
:105A840004EB840405EB840404340FC433682360FA
:105A9400D5F8D4300133C5F8D430D5F8CC3001333F
:105AA400C5F8CC30D5F8CC30092B84BF0023C5F819
:105AB400CC30084B4FF40012C3F8002170BD0648E7
:105AC40000F054FBD9E7054800F050FBD1E700BFD4
:105AD4006C0B002000E100E04B000B004A000B00BF
